:020000040800F2
:10000000FCFF0020512A00000529000005290000FE
:100010000529000005290000052900000529000028
:100020000529000005290000052900000529000018
:100030000529000005290000052900000529000008
:1000400005290000052900000529000005290000F8
:1000500005290000052900000529000005290000E8
:1000600005290000052900000529000005290000D8
:1000700005290000052900000529000005290000C8
:1000800005290000052900000529000005290000B8
:1000900005290000052900000529000005290000A8
:1000A0000529000005290000052900000529000098
:1000B0000529000005290000052900000529000088
:1000C0000529000005290000052900000529000078
:1000D0000529000005290000052900000529000068
:1000E0000529000005290000052900000529000058
:1000F0000529000005290000052900000529000048
:100100000529000005290000052900000529000037
:100110000529000005290000052900000529000027
:100120000529000005290000052900000529000017
:100130000529000005290000052900000529000007
:1001400005290000052900000529000005290000F7
:1001500081B000F218010A68C2F3400181F0010188
:10016000C9B2C8B201B0704781B000F214010A6888
:1001700000F218010968090442EA0101084601B0C9
:100180007047FFFF81B0CDF800E04FF00002194941
:10019000884207D118490B6818490A6818490A604B
:1001A0001C460BE01749884207D117490B681749CD
:1001B0000A6813490A601C4600E0144614490C60A2
:1001C00003461846FFF7C4FF70B91149096851B1D9
:1001D0002CB905200A4C2468A047002005E0611EC8
:1001E00008460446FFE7ECE70120DDF800E001B037
:1001F000704700BF005400403800002084000020F9
:1002000080000020005800403C00002088000020B2
:100210004000002081B00248006801B0704700BF74
:100220007C00002081B0CDF800E00B46FFF79CFF7A
:1002300000EA03029A4240F2000200D10122D0B249
:10024000DDF800E001B0704782B0CDF800E0CFB239
:1002500001469846029B4FF000064FF00005C44C43
:10026000A14207D1C34CD4F80090C34C2568C34CBD
:1002700025600BE0C24CA14207D1C24C2068C24CA1
:100280002568BE4C2560814600E0A946BF4CC4F8F5
:100290000090F4E101F210057C00A4B244F00104E6
:1002A000A4B22C60019616464F46019A01F214043E
:1002B0002568C5F3400464B9B44C246844B127B937
:1002C0000320AE4C2468A047E2E1781E0746FFE712
:1002D000ECE700250C6865F38A240C6001F2140435
:1002E000206800BF01F218042468240440EA0404D2
:1002F0002046012B05D101250C6865F349240C60CB
:1003000004E001250C6865F308240C609F4C256807
:100310009146984637460E469D493046FFF782FF84
:1003200068B99A4C24684CB125B90320934C2468D1
:10033000A047ADE16C1E20460546FFE7ECE707EB62
:10034000090506F2100424682C70B8F1010F13D1CE
:100350008E4C216830460568C5F340245CB98B4C4F
:1003600024683CB121B90320844C2468A0478FE164
:10037000491EFFE7EFE712E0844C2168304605682C
:10038000C5F300245CB9814C24683CB121B9032039
:100390007A4C2468A0477BE1491EFFE7EFE777E14D
:1003A00001250C6865F38A240C6001250C6865F34F
:1003B000CB240C6001F210057C00A4B244F00104CF
:1003C000A4B22C604F4601F214042568C5F3400422
:1003D00064B96E4C246844B127B90320674C246883
:1003E000A04755E1781E0746FFE7ECE701F2140449
:1003F000206800BF01F2180424682404204300256B
:100400000C6865F38A240C60604C276801F21404C0
:100410002568C5F3800464B95C4C246844B127B9ED
:100420000320564C2468A04732E1781E0746FFE7B8
:10043000ECE7012B05D101250C6865F349240C601C
:1004400004E001250C6865F308240C60951901F29D
:10045000100424682C70741C151901F2100424680F
:100460002C70012B14D1494C22680D68C5F340242F
:1004700064B9464C246844B122B903203F4C246837
:10048000A04705E1501E0246FFE7EEE7084613E0ED
:100490003E4C22680D68C5F3002464B93B4C2468C7
:1004A00044B122B90320354C2468A047F0E0501E27
:1004B0000246FFE7EEE708460025046865F3CB2413
:1004C0000460E5E001250C6865F38A240C6001F204
:1004D00010057C00A4B244F00104A4B22C6046468E
:1004E000C846894617461D462A494846FFF79AFEE0
:1004F00078B9264C24685CB1B8F1000F04D1032010
:100500001E4C2468A047C3E0A8F101008046FFE725
:10051000EAE70021A8464A46B1463B46A9F1030452
:10052000A14222D2194C25688A4617461E46184910
:100530003846FFF777FE60B9144C246844B125B9FA
:1005400003200E4C2468A047A2E0681E0546FFE782
:10055000EDE706EB0A0507F2100424682C700AF197
:100560000104214633463A46D8E7084C00F014B857
:10057000005400403800002084000020800000204B
:10058000005800403C00002088000020400000206F
:100590004000030002000300276801930B46164643
:1005A0004246019906F214042568C5F3800464B933
:1005B000394C246844B127B90320384C2468A0473B
:1005C00066E0781E0746FFE7ECE70025346865F330
:1005D0008A243460CD1806F2100424682C70581C4C
:1005E0002D4C23681746024606F214042568C5F30D
:1005F000800464B9284C246844B123B90320274CF3
:100600002468A04744E0581E0346FFE7ECE7012FAB
:1006100007D10125346865F3492434601046324619
:1006200021E00125346865F3082434601A4CD4F8BD
:10063000008017460D461A493046FFF7F3FD78B99A
:10064000154C24685CB1B8F1000F04D10320134CA1
:100650002468A0471CE0A8F101008046FFE7EAE714
:100660002946324638460D1802F2100424682C70D0
:10067000441C0D1902F2100424682C7008E0B8F133
:10068000010F3FF407AEB8F1020F3FF489AE19E74E
:10069000DDF800E002B0704740000020800000203C
:1006A0000100030081B00268C2F3401101B9FAE70A
:1006B000011D096888B201B07047FFFF81B000F2E8
:1006C0000C02116000F208021368C3F3000202B9C1
:1006D000F8E700F20C02126890B201B07047FFFF19
:1006E00081B00168C1F3401001B0704783B0CDF80C
:1006F00000E000F0FF031A09104603F00F02134652
:1007000014E0194A02921FE0184A02921CE0184AAB
:10071000029219E0174A029216E0174A029213E079
:10072000164A029210E0164A02920DE00028E8D024
:100730000128E9D00228EAD00328EBD00428ECD025
:100740000528EDD00628EED0012212B29A40ADF86D
:10075000042002980A46BDF8041000F0FFFCDDF802
:1007600000E003B0704700BF00080140000C0140EA
:10077000001001400014014000180140001C01401D
:100780000020014082B0CDF800E0034619460191F7
:10079000FFF740FD40F2E83100FB01F201990A60E9
:1007A0001F490978C1F30311C8B21E490918087816
:1007B000C0B21A1D1968C140116019490988C1F3F6
:1007C000022188B2174909180878C0B203F208025A
:1007D000191D0968C140116011490988C1F3C2217E
:1007E00088B2104909180878C0B203F20C02191D2A
:1007F0000968C14011600A490988C1F3813188B292
:10080000094909180978C8B203F2100203F20C0171
:100810000968B1FBF0F11160DDF800E002B070474B
:1008200004100240BB2C0000EC27000082B0CDF881
:1008300000E0029E4FF00005564CA04206D1564CF7
:100840002768564C2568564C25600AE0554CA04256
:1008500006D1554C2768554C2568514C256000E061
:100860002F46534C276000F210054C00A4B22C60B8
:10087000B9460746904635461E464E493846FFF76C
:10088000D1FC88B94A4C24686CB1B9F1000F06D18B
:100890000420434C2468A0474FF6FF7076E0A9F18E
:1008A00001008146FFE7E8E7002001972946374627
:1008B000019E7C1EA04226D206F2100508EB000421
:1008C00024782C603A4CD4F8009082460D463A4980
:1008D0003046FFF7A7FC88B9354C24686CB1B9F1F4
:1008E000000F06D104202E4C2468A0474FF6FF705D
:1008F0004CE0A9F101008146FFE7E8E70AF10104B5
:1009000020462946D5E706F2100508EB00042478B6
:100910002C60274C27680D4628493046FFF782FC9B
:1009200070B9234C246854B137B904201C4C246896
:10093000A0474FF6FF7029E0781E0746FFE7EBE778
:10094000012D05D10125346865F3492434601CE08C
:100950000125346865F308243460154C2768354652
:1009600017492846FFF75EFC78B9114C24685CB142
:1009700037B904200A4C2468A0474FF6FF7005E001
:100980007C1E20460746FFE7EAE70020DDF800E08E
:1009900002B070470054004038000020840000205E
:1009A00080000020005800403C000020880000200B
:1009B000400000208200070080000700840007003C
:1009C0000100030083B0CDF800E003464FF00000C3
:1009D00026498B4206D126490C6826490A682649D1
:1009E0000A600BE025498B4207D125490868254953
:1009F0000A6821490A60044600E0044622490C6066
:100A0000019402931846FFF7BDFB029B019C10B9AD
:100A10004FF6FF7025E00122196862F30821196082
:100A200003F214010A68C2F3402111B14FF6FF70BE
:100A300017E025461C4615492046FFF7F3FB78B919
:100A40001149096859B135B906200B4C2468A047F3
:100A50004FF6FF7005E0691E08460546FFE7EAE726
:100A60000020DDF800E003B0704700BF00540040F4
:100A70003800002084000020800000200058004042
:100A80003C000020880000204000002001000300FE
:100A900081B00168C1F3801001B0704781B019497D
:100AA00000EA0101084600220EE0042022E00820AE
:100AB00020E010201EE020201CE040201AE08020D2
:100AC00018E040F2001015E00F498842EDD00F49C0
:100AD0008842ECD00E498842EBD00E498842EAD0D9
:100AE0000D498842E9D00D498842E8D00C49884236
:100AF000E7D010460B49096841EA000209490A603B
:100B000001B0704700FCFFFF00080140000C0140ED
:100B1000001001400014014000180140001C014079
:100B2000002001401810024081B0CDF800E081B2F1
:100B30000348FFF7C3FDDDF800E001B0704700BFD8
:100B40000030014081B0CDF800E00348FFF7A0FF7E
:100B5000DDF800E001B070470038014081B0CDF809
:100B600000E00348FFF7BCFDDDF800E001B070478E
:100B70000038014081B0CDF800E081B20348FFF7B2
:100B80009DFDDDF800E001B0704700BF003C004073
:100B900081B0CDF800E00348FFF714FFDDF800E076
:100BA00001B070470054004081B0CDF800E081B240
:100BB0000348FFF783FDDDF800E001B0704700BF98
:100BC0000038004081B0CDF800E00348FFF76AFD2F
:100BD000DDF800E001B070470038014081B0CDF889
:100BE00000E00348FFF7EEFEDDF800E001B07047DB
:100BF0000058004081B0CDF800E00348FFF748FFFF
:100C0000DDF800E001B070470050004081B0CDF841
:100C100000E008B413460A46C1B20448FFF706FED6
:100C200001B0DDF800E001B0704700BF00540040A3
:100C300081B0CDF800E00348FFF734FDDDF800E0B7
:100C400001B070470050004081B0CDF800E003488B
:100C5000FFF746FDDDF800E001B0704700500040AE
:100C600081B0CDF800E008B413460A46C1B204488A
:100C7000FFF7EAFA01B0DDF800E001B0704700BF0D
:100C80000058004081B0ADF800100146BDF80000EA
:100C90000B68C3F3C01202B9FAE70A1D106001B075
:100CA0007047FFFF81B0CDF800E008B413460A4654
:100CB000C1B20448FFF7BAFD01B0DDF800E001B0B1
:100CC000704700BF0058004081B0CDF800E008B484
:100CD00013460A46C1B20448FFF7B6FA01B0DDF880
:100CE00000E001B0704700BF0054004081B0CDF873
:100CF00000E00348FFF7CCFEDDF800E001B07047EC
:100D0000004C004081B0CDF800E00348FFF7C0FE82
:100D1000DDF800E001B070470044004081B0CDF83C
:100D200000E00348FFF7BEFCDDF800E001B07047CB
:100D30000048004081B0CDF800E00348FFF7B2FC66
:100D4000DDF800E001B070470044004081B0CDF80C
:100D500000E00348FFF7C4FCDDF800E001B0704795
:100D60000044004081B0CDF800E00348FFF79AFC52
:100D7000DDF800E001B07047004C004081B0CDF8D4
:100D800000E00348FFF7ACFCDDF800E001B070477D
:100D9000004C004081B0CDF800E00348FFF7A0FC14
:100DA000DDF800E001B070470048004081B0CDF8A8
:100DB00000E00348FFF76CFEDDF800E001B070478B
:100DC0000048004081B0CDF800E0012252B23E4917
:100DD0000A6000F268010B686FF0006103EA01022B
:100DE000144603F00061C90E0B4602F00041B1F158
:100DF000004F02D135490A6801E035490A6804F418
:100E00007021090C0E464FF6FF7104EA01010D46F0
:100E100004F44011B1F5401F0DD16FF0706102EA8A
:100E200001010E462A490A686FF070610A4028499C
:100E30000A60324616E004F48011B1F5801F09D132
:100E40004FF00301B140C94302EA010141F0706172
:100E50000A4607E0610D090105FA01F1C9430A409C
:100E600042F070622BB1610D090105FA01F10A43EC
:100E7000FFE704F00041B1F1004F02D113490A60CD
:100E800001E013490A6040F2000A81464FEA8A01F4
:100E900009EB01010968B1F1FF3F10D009F13401FC
:100EA0004FEA8A03C91809680A4609EB0301096871
:100EB00008461146FFF71AFC0AF1010AE6E7DDF8D9
:100EC00000E001B0704700BF000342421C00014037
:100ED0000400014081B000230360CB009BB242EAD2
:100EE000030304689BB244EA03030360051D131463
:100EF0001C462B6864F382032B6000F21C0500245F
:100F00002B6864F3CB232B600124036864F38613FE
:100F1000036001B07047FFFF89B0CDF800E0834661
:100F200098B28C46BDF824100A9E04ACADF80410AB
:100F3000ADF808002046FFF725FCBDF80800BDF815
:100F40000410644CA34512D101256DB2624C25609A
:100F5000624D634C2560634D634C2560634D644C6A
:100F60002560644D644C2560079C039456E0634CF7
:100F7000A34512D101256DB2614C2560614D584CDD
:100F80002560614D584C2560604D594C2560604D81
:100F9000594C2560069C039440E05E4CA34512D159
:100FA00001256DB25C4C25605C4D4D4C25605C4D5F
:100FB0004D4C25605B4D4E4C25605B4D4E4C256085
:100FC000069C03942AE0594CA34512D101256DB229
:100FD000574C2560574D424C2560574D424C25607B
:100FE000564D434C2560564D434C2560069C03945A
:100FF00014E0544CA34511D101256DB2524C25602B
:10100000524D374C2560524D374C2560514D384C70
:101010002560514D384C2560069C0394ADF80410B2
:10102000ADF808003046FFF7CDFEBDF80800BDF86A
:1010300004100BF1100500242C600BF110052C6836
:101040000C432C600BF10C0500242C6018B140F40B
:10105000806080B2FFE70BF10C052C6804432C6024
:101060000BF10C060125346865F34D3434600BF147
:101070000C060125346865F3C30434600BF10C06DB
:101080000125346865F3820434600BF114050024F3
:101090002C60039D192465434FEA8C04B5FBF4F7DB
:1010A0006424B7FBF4F42601350964246C433C1B2B
:1010B000240104F232056424B5FBF4F404F00F04B7
:1010C00046EA04040BF10805A4B22C60DDF800E048
:1010D00009B0704700380140380342423115000022
:1010E00094000020C50B0000980000205D0B00005C
:1010F0009C000020450B0000A000002000440040A0
:10110000C403424215150000350D00004D0D0000CE
:10111000050D000000480040C80342424D15000084
:101120001D0D0000950D0000AD0D0000004C0040AD
:10113000CC03424285150000650D00007D0D0000C6
:10114000ED0C000000500040D00342426915000041
:10115000310C0000490C0000F50B000081B0CDF807
:1011600000E08CB21546774B00EA03031E46184692
:10117000FFF794FCB4F1FF0F0CD1734B9D4203D1E8
:101180004FF033333360D9E0422D03D14FF0443375
:101190003360D3E04FF6FF739C4214D16A4B9D42FB
:1011A00007D14FF033333360341D4FF033332360B6
:1011B000C4E0422D07D14FF044333360341D4FF06B
:1011C00044332360BAE00021002005F001030BB195
:1011D00000211DE005F0020333B105F4C0730BB12B
:1011E000082100E0042113E005F0040333B105F009
:1011F00020030BB1042100E0002109E005F0080301
:1012000033B105F020030BB10C2100E00821FFE70A
:101210004E4B05EA03030BB1032009E005F400730C
:101220000BB1022004E005F480630BB10120FFE75D
:1012300005F00C030BB10143FFE704F0FF039BB281
:10124000002B3BD0376800201FFA84F832462E4628
:1012500008282CD24FF0010303FA00F408EA040333
:10126000A34222D185004FF00F03AB40DB4307EAD6
:10127000030401FA05F344EA03031D4606F48173EF
:10128000B3F5817F05D102F214044FF001038340CE
:10129000236006F08203822B05D102F210044FF086
:1012A0000103834023602F46FFE7401CD0E717600F
:1012B0001FFA88F00F463146164602E00F462946CF
:1012C000A0B2B0F1FF0F39D9331DD3F8008000224E
:1012D000082A30D202F208044FF0010303FA04F4A2
:1012E00000EA0403A34224D195004FF00F03AB4062
:1012F000DB4308EA030807FA05F348EA030801F4A8
:101300008173B3F5817F07D106F2140502F2080458
:101310004FF00103A3402B6001F08203822B07D121
:1013200006F2100502F208044FF00103A3402B60FF
:10133000FFE7521CCCE7331DC3F80080DDF800E066
:1013400001B0704700FCFFFF14000800000808000F
:1013500084B0CDF800E0ADF80C2001900291BDF80A
:101360000C40BDF80C305B1EADF80C307CB1019B1D
:101370001B78DCB2A0B2084C2468A047029B18700E
:10138000029B5B1C0293019B5B1C0193E7E7DDF86A
:1013900000E004B0704700BF4800002082B0CDF8E4
:1013A00000E040F20004ADF80440044C2468A0477B
:1013B000BDF90400DDF800E002B0704770000020C5
:1013C00081B0CDF800E04FF0420289B2FFF7C6FECF
:1013D000DDF800E001B0704782B0CDF800E040F2E7
:1013E0000004ADF80440054C2468A047BDF9044052
:1013F000044320B2DDF800E002B07047680000202E
:1014000081B0CDF800E0044A89B2FFF7A7FEDDF80D
:1014100000E001B0704700BF1400080081B0CDF8B3
:1014200000E0019D2C4610B408B493B28AB2014684
:101430000348FFF771FD02B0DDF800E001B070472E
:101440000038014081B0CDF800E0019D2C4610B479
:1014500008B493B28AB201460348FFF75DFD02B0BB
:10146000DDF800E001B070470044004081B0CDF8E5
:1014700000E0019D2C4610B408B493B28AB2014634
:101480000348FFF749FD02B0DDF800E001B0704706
:101490000048004082B0CDF800E040F20004ADF812
:1014A0000440064C2468A047BDF9041041EA00003E
:1014B00000B2DDF800E002B0704700BF6C00002011
:1014C00083B0CDF800E08DF8040002910B4C0C4B7A
:1014D0001C600C4C0C4B1C60012464B20B4B1C6058
:1014E0001046FFF76FFC029A9DF804100848FFF7BA
:1014F000F1FCDDF800E003B0704700BF750B0000A1
:101500008C000020D915000090000020BC0342424E
:10151000003C004081B0CDF800E081B20348FFF705
:10152000B1FBDDF800E001B0704700BF00440040AF
:1015300081B0CDF800E081B20348FFF7A3FBDDF8EE
:1015400000E001B0704700BF0038014081B0CDF825
:1015500000E081B20348FFF795FBDDF800E001B041
:10156000704700BF0048004081B0CDF800E081B274
:101570000348FFF787FBDDF800E001B0704700BFCC
:101580000050004081B0CDF800E081B20348FFF781
:1015900079FBDDF800E001B0704700BF004C00406F
:1015A00081B0CDF800E081B20348FFF787F8DDF89D
:1015B00000E001B0704700BF0030014081B0CDF8BD
:1015C00000E081B20348FFF779F8DDF800E001B0F0
:1015D000704700BF0038004081B0CDF800E081B214
:1015E0000348FFF76BF8DDF800E001B0704700BF7B
:1015F000003C004081B0FAB590EA02064CBF4FF0C3
:1016000000464FF00006010243001B0E12BF41F0DE
:1016100000414FF000003BE0FF2B35D05FEA022491
:101620005FEA42055FEA156511BF44F000444FF0E0
:10163000FF4030432CE0FF2D26D05B1B00202027ED
:1016400064084908A14240EB000028BF091B7F1E27
:1016500004D0002918BF4900F4D1B84010F0004F61
:1016600004BF4000B3F1010380302CBF5B1C40007D
:101670007F33DCBF4FF000000AE0FF2B04D2400AAA
:1016800040EAC350304303E0FF27FF0556EA070056
:10169000BDE8FA4001B0704781B0CDF800E00949DB
:1016A00002B440F2000340F2000240F20001FFF7F2
:1016B000DDFE01B0044A05490A600020DDF800E0C3
:1016C00001B07047742A00004D150000440000204E
:1016D00081B0FAB590EA02064CBF4FF000464FF0D9
:1016E00000064FEA00214FEA40031B0E12BF41F0F3
:1016F00000414FF000002CE0FF2B26D04FEA0224DF
:101700004FEA42052D0E12BF44F000444FF0000096
:101710001FE0FF2D19D05B19A1FB0454002C5CBF06
:1017200064005B1E803424BF5B1C64087E3BDCBF0E
:101730004FF000000DE0FF2B07D24FEA142030F4E9
:10174000000040EAC350304303E0FF27FF0546EAAC
:101750000700BDE8FA4001B07047FFFF81B00A46BC
:1017600081B200208DB21146052805D20B18202227
:101770001A70401CC0B2F7E70B1800221A70401E06
:10178000C0B20C180A23B5FBF3F203FB125292B25B
:10179000303222700A22B5FBF2F292B295B202B94F
:1017A00002E0401EC0B2ECE701B0704781B006B560
:1017B0004FEA40024FEA12627F3A44BF4FF0000006
:1017C00011E0D2F11F0209D94FEA002141F0004196
:1017D000D14000284CBF4842084604E000284FF0A2
:1017E000004058BF401EBDE8064001B07047FFFFF3
:1017F00081B0CDF800E0094902B440F2000340F2A4
:10180000000240F20001FFF71DFE01B0044A054945
:101810000A600020DDF800E001B07047E02A000017
:10182000151500004400002081B0CDF800E0011D36
:101830000A680168C8B21146034AFFF741FE00205A
:10184000DDF800E001B07047B82B000081B0CDF8A2
:1018500000E0011D0A680168C8B21146034AFFF79B
:101860002FFE0020DDF800E001B07047B82B00002B
:1018700081B0CDF800E0A9E0012905D140F22001B6
:101880006548FFF79DFD04E040F220016248FFF744
:10189000B7FDBBE0012905D140F208015F48FFF721
:1018A0008FFD04E040F208015C48FFF7A9FDADE0C0
:1018B000012905D144F200015948FFF781FD04E0F8
:1018C00044F200015648FFF79BFD9FE0012905D136
:1018D00040F200415148FFF773FD04E040F200413F
:1018E0004E48FFF78DFD91E0012905D140F600013A
:1018F0004A48FFF765FD04E040F600014748FFF75E
:101900007FFD83E0012905D141F200014348FFF743
:1019100057FD04E041F200014048FFF771FD75E01A
:10192000012905D141F200013D48FFF749FD04E0DE
:1019300041F200013A48FFF763FD67E0012905D154
:1019400040F600013648FFF73BFD04E040F6000199
:101950003348FFF755FD59E0012905D140F2400118
:101960002F48FFF72DFD04E040F240012C48FFF71F
:1019700047FD4BE0012905D140F220012848FFF73F
:101980001FFD04E040F220012548FFF739FD3DE04E
:10199000012905D140F240012248FFF711FD04E082
:1019A00040F240011F48FFF72BFD2FE0012905D130
:1019B00040F280011B48FFF703FD04E040F2800184
:1019C0001848FFF71DFD21E0012020E000283FF42A
:1019D00053AF01283FF45EAF02283FF469AF0328FC
:1019E0003FF474AF04283FF47FAF05283FF48AAF7B
:1019F00006283FF495AF0728A0D00828ACD00928C6
:101A0000B8D00A28C4D00B28D0D0DDE70020DDF8FC
:101A100000E001B0704700BF000801400010014025
:101A200000140140000C014081B0CDF800E0A9E0B5
:101A3000012905D140F210016548FFF7C1FC04E01F
:101A400040F210016248FFF7DBFCBBE0012905D141
:101A500040F204015F48FFF7B3FC04E040F20401E8
:101A60005C48FFF7CDFCADE0012905D142F2000151
:101A70005948FFF7A5FC04E042F200015648FFF781
:101A8000BFFC9FE0012905D140F200415148FFF71A
:101A900097FC04E040F200414E48FFF7B1FC91E0B2
:101AA000012905D140F600014A48FFF789FC04E00E
:101AB00040F600014748FFF7A3FC83E0012905D168
:101AC00041F200014348FFF77BFC04E041F20001D2
:101AD0004048FFF795FC75E0012905D140F201016E
:101AE0003B48FFF76DFC04E040F201013848FFF786
:101AF00087FC67E0012905D140F200413648FFF735
:101B00005FFC04E040F200413348FFF779FC59E004
:101B1000012905D140F200212F48FFF751FC04E0D4
:101B200040F200212C48FFF76BFC4BE0012905D166
:101B300040F200112848FFF743FC04E040F2001196
:101B40002548FFF75DFC3DE0012905D140F2400149
:101B50002248FFF735FC04E040F240011F48FFF740
:101B60004FFC2FE0012905D140F280011B48FFF70F
:101B700027FC04E040F280011848FFF741FC21E017
:101B8000012020E000283FF453AF01283FF45EAF6E
:101B900002283FF469AF03283FF474AF04283FF4F0
:101BA0007FAF05283FF48AAF06283FF495AF07289A
:101BB000A0D00828ACD00928B8D00A28C4D00B2857
:101BC000D0D0DDE70020DDF800E001B0704700BFB5
:101BD000000801400010014000140140000C0140C9
:101BE00081B0002808BF19E006B554BF0146D0F106
:101BF00000014FF09E0202D4521E4900FCD58031F4
:101C00002CBF521C49004FEA512141EAC251002821
:101C10004CBF41F000400846BDE8064001B07047A7
:101C200082B0CDF800E001AA1070521C1170124A67
:101C30001378124A12789A420ED10020104C246870
:101C4000A04701AA114602220846FFF781FB0120A6
:101C50000B4C2468A0470AE0FFF71CFC01AB094AC3
:101C6000127819460123D0B20222FFF7B5FBDDF846
:101C700000E002B0704700BF360000204D00002099
:101C8000500000204E00002081B0CDF800E0017827
:101C9000CCB2A0B2034C2468A0470020DDF800E0DD
:101CA00001B070474400002081B00249086001B0D3
:101CB000704700BF9881224281B00249086001B09C
:101CC000704700BF9481224281B00249086001B090
:101CD000704700BFB081224281B00249086001B064
:101CE000704700BFAC81224281B0026803490A609C
:101CF000011D0A6802490A6001B0704774000020A3
:101D00004800002081B000F2300303F218010A6895
:101D10000C490A6003F21C010A680B490A60026858
:101D20000A490A6000F208010A6809490A60011DAF
:101D30000A6808490A6000F218010A6806490A6040
:101D400001B07047540000205800002050000020CF
:101D50005C000020600000206400002081B0024987
:101D6000086001B0704700BF9881214281B00249EC
:101D7000086001B0704700BF9C81214281B00249D8
:101D8000086001B0704700BFB001224281B0024933
:101D9000086001B0704700BF9C81214281B00249B8
:101DA000086001B0704700BF9401214281B0024930
:101DB000086001B0704700BFA081224281B0024993
:101DC000086001B0704700BF9881214281B002498C
:101DD000086001B0704700BFA801224281B00249EB
:101DE000086001B0704700BFAC01224281B00249D7
:101DF000086001B0704700BF8C01224281B00249E7
:101E0000086001B0704700BFB881224281B002492A
:101E1000086001B0704700BF8801224281B00249CA
:101E2000086001B0704700BFB001224281B0024992
:101E3000086001B0704700BFA881224281B002490A
:101E4000086001B0704700BF8001214281B00249A3
:101E5000086001B0704700BFA801224281B002496A
:101E6000086001B0704700BFB481224281B00249CE
:101E7000086001B0704700BF9001214281B0024963
:101E8000086001B0704700BFAC01224281B0CDF8BC
:101E900000E0094902B440F2000340F2000240F2BF
:101EA0000001FFF7BBFA01B0044A05490A600020AF
:101EB000DDF800E001B070474C2B00003115000048
:101EC0004400002082B0CDF800E001A908701C4950
:101ED0000A781C490978914216D101AA117841F07B
:101EE000800111700020184C2468A04701A902222B
:101EF0000846FFF72DFA0120134C2468A04701A9DA
:101F0000491C0978C8B216E0FFF7C4FA01AA0F49C4
:101F100009780023C8B211460122FFF75DFA01AA31
:101F20000A4909780123C8B211460122FFF736FA9F
:101F300001A90978C8B2DDF800E002B0704700BF1F
:101F4000360000204D000020500000204E000020F0
:101F500081B00249086001B0704700BFA4812242ED
:101F600081B0CDF800E0094902B440F2000340F22C
:101F7000000240F20001FFF765FA01B0044A05498A
:101F80000A600020DDF800E001B07047E02A0000A0
:101F9000151500004400002081B0CDF800E001F0EC
:101FA00004031BB22BB1464B1B7843F00404E4B28C
:101FB00004E0434B1B7803F0FB04E4B2404B1C707D
:101FC00001F010031BB22BB13D4B1B7843F0100402
:101FD000E4B204E03A4B1B7803F0EF04E4B2384B70
:101FE0001C7001F040031BB22BB1354B1B7843F042
:101FF0004001C9B204E0324B1B7803F0BF01C9B203
:102000002F4B197002F00103DBB22BB12C4B1B7864
:1020100043F00101C9B204E0294B1B7803F0FE0133
:10202000C9B2274B197002F002031BB22BB1244B2B
:102030001B7843F00201C9B204E0214B1B7803F086
:10204000FD01C9B21E4B197000F008031BB22BB181
:102050001B4B1B7843F00801C9B204E0184B1B78F6
:1020600003F0F701C9B2164B197000F020031BB240
:102070002BB1134B1B7843F02001C9B204E0104B85
:102080001B7803F0DF01C9B20D4B197000F080031B
:102090001BB22BB10A4B1B7843F08000C0B204E0A6
:1020A000074B1B7803F07F00C0B2054B1870C3B21A
:1020B000D9B21420FFF7B4FDDDF800E001B070479D
:1020C0003700002081B0CDF800E000F0C004E4B299
:1020D00001F01C03DBB21C43E4B202F00303DBB2E9
:1020E00044EA0303D9B20D20FFF79AFDDDF800E0C2
:1020F00001B0704782B0CDF800E0804641460191C2
:10210000B8F9001008B2FFF76BFD4FF07252FFF7FD
:10211000DFFA204AFFF76EFA1F4AFFF7D9FAFFF7F6
:1021200045FB00B20199088008F10201019108F114
:102130000201B1F9001008B2FFF752FD4FF07252E0
:10214000FFF7C6FA134AFFF755FA134AFFF7C0FA2A
:10215000FFF72CFB00B20199088008F104010191FE
:1021600008F10401B1F9001008B2FFF739FD4FF092
:102170007252FFF7ADFA074AFFF73CFA064AFFF73B
:10218000A7FAFFF713FB00B201990880DDF800E021
:1021900002B070470000B0420000404086B0CDF869
:1021A00000E005900DF10B020121117038490A7809
:1021B00038490978914219D10DF10B02117841F09B
:1021C000800111700020344C2468A04701AA0DF151
:1021D0000B01084611460722FFF7BAF801202E4CE2
:1021E0002468A04701218DF8121017E000218DF816
:1021F0001210FFF74FF90DF10B022849097800235F
:10220000C8B211460122FFF7E7F801AA234909786D
:102210000123C8B211460622FFF7C0F89DF812103C
:1022200001AC611809780A0292B29DF81210491C9B
:1022300009B2611809780A4305990A8005998B1C2F
:102240009DF81210891C09B2611809780A0292B22D
:102250009DF81210C91C09B26118097842EA0101FF
:10226000198005990B1D9DF81210091D09B26118FE
:1022700009780A0292B29DF81210491D09B261183C
:10228000097842EA01011980DDF800E006B07047E4
:10229000360000204D000020500000204E0000209D
:1022A00081B0CDF800E01220FFF70CFEDDF800E071
:1022B00001B0704781B00A460021C5B2104603291B
:1022C00005D2431820221A70491CC9B2F7E74318F7
:1022D00000221A70491EC9B244180A23B5FBF3F252
:1022E00003FB1252D2B2303222700A22B5FBF2F254
:1022F000D2B2D5B202B902E0491EC9B2ECE701B0D0
:102300007047FFFF81B0014640F200052DB208463C
:102310000C460B46FFE70178202901D105B904E0FE
:1023200001252DB201782170641C0246401C1178F1
:102330000029F0D1184601B07047FFFF81B0CDF8F9
:1023400000E00446124A1378124A13700023124A1E
:1023500013700023114A13700023114A13700023D5
:10236000104A13700846FFF7BFFC2046FFF7CAFC6F
:1023700001200D4C2468A04701200C4C2468A04784
:1023800001200B4C2468A047DDF800E001B0704745
:10239000360000204D0000204F0000204C0000209F
:1023A000370000207800002060000020500000204E
:1023B0005C00002081B0CDF800E00E46002183B221
:1023C000002805DA0121404280B280B28FB201E0DC
:1023D00098B28FB23146FFF7C1F906213446B8B240
:1023E000002908D963184A1E92B2A21812781A70EE
:1023F000491E89B2F4E72022227070B1002081B218
:10240000204642181278202A02D1491C89B2F8E7E6
:102410004A1E92B283182D221A70DDF800E001B036
:102420007047FFFF82B0CDF800E0072801D90724EC
:1024300000E0C4B28DF804401320FFF743FD9DF87F
:1024400004400A4B18704FF6E37109B200EA01012B
:102450001970A20092B2C9B211431970C9B2132007
:10246000FFF7DEFBDDF800E002B070474C00002013
:1024700083B0CDF800E0024610460D228DF808200A
:102480000A228DF809201FE0FFF7FEFB23E0027807
:102490002AB10190FFF7F8FB0198401CF7E71AE01A
:1024A00002782AB10190FFF7EFFB0198401CF7E793
:1024B00002AA1046FFF7E8FB0DF109021046FFF7EC
:1024C000E3FB08E0062007E00029DDD00129DED08B
:1024D0000229E5D0F6E70020DDF800E003B0704700
:1024E00081B0CDF800E08B4609E05846FFF7AEF921
:1024F0000AE05846FFF798F906E0012004E00028BA
:10250000F3D00128F5D0F8E7DDF800E001B070471E
:1025100081B0CDF800E00C20FFF7D4FCDDF800E03E
:1025200001B0704781B0CDF800E05FFA81F95FFA41
:1025300082FA0FE05FFA8AF15FFA89F0FFF774FA26
:102540000DE05FFA8AF15FFA89F0FFF791F906E092
:10255000012004E00028EDD00128F2D0F8E7DDF8F2
:1025600000E001B07047FFFF81B0CDF800E000F05F
:102570000F010E20FFF754FBDDF800E001B07047BB
:1025800082B0CDF800E0032801D9032300E0C3B2F4
:102590008DF804301320FFF795FC9DF80430094AAC
:1025A00010704FF6FC7109B200EA01011170C9B256
:1025B000194311701320FFF733FBDDF800E002B080
:1025C000704700BF4C00002081B0CDF800E000F063
:1025D0007F011020FFF724FBDDF800E001B0704719
:1025E00081B0CDF800E011E00846FFF755F816E09D
:1025F0000846FFF7FDF812E00846FFF747FC0EE03B
:102600000846FFF7ADFC0AE0012008E00028EBD007
:102610000128EDD02028EFD03028F1D0F4E7DDF804
:1026200000E001B07047FFFF81B0CDF800E000226C
:1026300000210020FFF776FF002201210020FFF794
:1026400071FF002202210020FFF76CFF012206210A
:102650000020FFF767FF012207210020FFF762FF3C
:102660000C4801460020FFF73BFF42F2805120203A
:10267000FFF7B6FF44F67F77C0F2120700BF00BF36
:102680007F1EFDD100BF00BF00BFDDF800E001B03C
:10269000704700BFE02C000081B01548006840F092
:1026A0000101134801601349134801601048016893
:1026B000124801400E4801600D4801686FF4802007
:1026C00001400B4801600C4801686FF4FE000140B6
:1026D00009480160064801686FF0A05001400448B5
:1026E00001604FF000010648016001B0704700BF73
:1026F000001002400000FFF004100240FFFFF6FE51
:102700002C10024081B04FF000094FF0000CBDEBDF
:102710000A0F04DCBDEB0B0F01DBD446EA464BF895
:10272000049BBBEB0A0FFAD1BCEB0A0F05DDE246B6
:10273000D9F800B00BF1040BF1E701B07047FFFFCF
:1027400081B0CDF800E025492548FFF7F7FD45F2B7
:10275000FF07C0F2252700BF00BF7F1EFDD100BFCD
:1027600000BF00BFFFF7D4FED72822D11D480221A9
:10277000FFF77EFE042040F00200C0B240F00100EE
:10278000FFF7F2FE0A20FFF71FFF0320FFF7F8FE16
:102790000320FFF747FE402040F004000222C1B2B0
:1027A0008020FFF7F9FB03220021E020FFF78AFCDD
:1027B00004E00D480221FFF75BFEFEE744F67F7759
:1027C000C0F2120700BF00BF7F1EFDD100BF00BFD7
:1027D00000BFDDF800E001B0704700BFD82C00005A
:1027E000242C0000210000203000002002040608F4
:1027F00085B0CDF800E00DF10E00FFF7CFFC0DF134
:102800000E00FFF777FC01A90DF10E00B0F90000F2
:10281000FFF7D0FD01A8FFF775FD2A480121FFF75A
:1028200027FE01A80221FFF723FE01A90DF10E00EA
:10283000801CB0F90000FFF7BDFD01A8FFF762FDA5
:1028400021480121FFF714FE01A80221FFF710FE25
:1028500001A90DF10E00001DB0F90000FFF7AAFD5F
:1028600001A8FFF74FFD19480121FFF701FE01A85C
:102870000221FFF7FDFDFFF713FD01A9FFF71AFD88
:1028800001A8FFF73FFD12480121FFF7F1FD01A864
:102890000121FFF7EDFD0F480221FFF7E9FD0E488A
:1028A0000221FFF7E5FD49F6FF67C0F2240700BFEC
:1028B00000BF7F1EFDD100BF00BF00BFDDF800E0FC
:1028C00005B0704700000020040000200800002030
:1028D0000C0000201A0000201E00002081B01CF80F
:1028E000019B0BF8019BBBEB0A0FF8D101B07047BD
:1028F00081B002490248016001B0704740190100EF
:102900007C00002081B0FEE701B0704781B0CDF8B7
:1029100000E0464A464B474C47494BF680308142DF
:1029200006D94648006840F002014448016011E0C1
:1029300045F6C050814206D94048006840F0010188
:102940003E48016006E03D4801686FF00700014025
:102950003A480160FFF7A0FE394803603948046037
:10296000394802EA00013948016002F0010040B133
:1029700019463648006800F00200002800D1F8E748
:1029800000E0194602F4803040B10B462F48006841
:1029900000F40030002800D1F8E700E00B4602F018
:1029A000805068B12948006840F080512748016094
:1029B0002648006800F00050002800D1F8E7FFE743
:1029C00002F0806078B12148006840F080611F48C3
:1029D000016011461A461D48006800F0006000289A
:1029E00000D1F8E701E011461A4601F0807070B19D
:1029F0001648006840F08071144801601146134881
:102A0000006800F0007000B9F9E70A46FFE70C48DB
:102A1000006800F00C01900000F00C00814200D032
:102A2000F5E7DDF800E001B0704700BF8100010567
:102A300002841D00440601004019010000200240EC
:102A4000041002402C100240FFFF0F000010024053
:102A500081B0FFF75BFF00F095F9FFF749FF00F049
:102A600043F9FFF7E1FDFFF76BFEFFF7C1FEFCE75F
:102A7000FEE7FFFF3800000039000000FFFFFFFF06
:102A80000000000000000000000000000000000046
:102A90000000000000000000000000000000000036
:102AA00000000000000000001808000018000000EE
:102AB0000000000000000000000000000000000016
:102AC0000000000000000000000000000000000006
:102AD00000000000000000000000000030001408AA
:102AE0003500000036000000FFFFFFFF000000007F
:102AF00000000000000000000000000000000000D6
:102B000000000000000000000000000000000000C5
:102B1000000000001808000018000000000000007D
:102B200000000000000000000000000000000000A5
:102B30000000000000000000000000000000000095
:102B4000000000000000000008000008090000006C
:102B50000A000000FFFFFFFF00000000000000006F
:102B60000000000000000000000000000000000065
:102B70000000000000000000000000000000000055
:102B8000180800001800000000000000000000000D
:102B90000000000000000000000000000000000035
:102BA0000000000000000000000000000000000025
:102BB00000000000040000002A0000002B000000BC
:102BC0002C000000FFFFFFFF0000000000000000DD
:102BD00000000000000000000000000000000000F5
:102BE00000000000000000000000000018080000C5
:102BF0001808000018080000000000000000000095
:102C000000000000000000000000000000000000C4
:102C100000000000000000000000000000000000B4
:102C2000001120086D1E00000D1E00005D1E00003A
:102C30004D1E00007D1E00001D1E00003D1E0000F8
:102C40002D1E0000511F0000AD1D0000BD1D000025
:102C50008D1D0000FFFFFFFFFFFFFFFFFFFFFFFFD6
:102C6000FFFFFFFFFFFFFFFFFFFFFFFFFFFFFFFF74
:102C7000FFFFFFFFFFFFFFFFFFFFFFFFFFFFFFFF64
:102C8000FFFFFFFF783A2000793A20007A3A2000CF
:102C900054656D70657261747572653A200020B07C
:102CA00043002B2B004779726F20322070726573BE
:102CB000656E74004572726F7200020000000001C0
:102CC0000203040102030406070809FF00000000D4
:102CD0000000000000000000D9150000750B000086
:102CE000070000000403000000B5DFF824B0DFF89F
:102CF00024A0DFF824C0FFF7F1FDDFF820B0DFF8F3
:102D000020A0DFF820C0FFF7E9FD00BD704700BF3D
:102D10000000002037000020842C00003800002034
:102D200044000020CC2C0000FFFFFFFFFFFFFFFF4F
:102D3000FFFFFFFFFFFFFFFFFFFFFFFFFFFFFFFFA3
:102D4000FFFFFFFFFFFFFFFFFFFFFFFFFFFFFFFF93
:102D5000FFFFFFFFFFFFFFFFFFFFFFFFFFFFFFFF83
:102D6000FFFFFFFFFFFFFFFFFFFFFFFFFFFFFFFF73
:102D7000FFFFFFFFFFFFFFFFFFFFFFFFFFFFFFFF63
:102D8000FFFFFFFF00B5DFF810B0DFF810A0FFF77E
:102D9000B9FC00BD704700BF00000020A400002067
:00000001FF
