:10000000FCFF03205D2C0000E52A0000E52A00002B
:10001000E52A0000E52A0000E52A0000E52A0000A4
:10002000E52A0000E52A0000E52A0000E52A000094
:10003000E52A0000E52A0000E52A0000E52A000084
:10004000E52A0000E52A0000E52A0000E52A000074
:10005000E52A0000E52A0000E52A0000E52A000064
:10006000E52A0000E52A0000E52A0000E52A000054
:10007000E52A0000E52A0000E52A0000E52A000044
:10008000E52A0000E52A0000E52A0000E52A000034
:10009000E52A0000E52A0000E52A0000E52A000024
:1000A000E52A0000E52A0000E52A0000E52A000014
:1000B000E52A0000E52A0000E52A0000E52A000004
:1000C000E52A0000E52A0000E52A0000E52A0000F4
:1000D000E52A0000E52A0000E52A0000E52A0000E4
:1000E000E52A0000E52A0000E52A0000E52A0000D4
:1000F000E52A0000E52A0000E52A0000E52A0000C4
:10010000E52A0000E52A0000E52A0000E52A0000B3
:10011000E52A0000E52A0000E52A0000E52A0000A3
:10012000E52A0000E52A0000E52A0000E52A000093
:10013000E52A0000E52A0000E52A0000E52A000083
:10014000E52A0000E52A0000E52A0000E52A000073
:10015000E52A0000E52A0000E52A0000E52A000063
:10016000E52A0000E52A0000E52A0000E52A000053
:10017000E52A0000E52A0000E52A0000E52A000043
:10018000E52A0000E52A0000E52A0000E52A000033
:10019000E52A0000E52A0000E52A0000E52A000023
:1001A000E52A0000E52A0000E52A0000E52A000013
:1001B000E52A0000E52A0000E52A0000E52A000003
:1001C000E52A0000E52A0000E52A0000E52A0000F3
:1001D000E52A0000E52A0000E52A0000E52A0000E3
:1001E000E52A0000E52A0000E52A0000E52A0000D3
:1001F000E52A0000E52A0000E52A0000E52A0000C3
:08020000E52A0000E52A0000D8
:102C5C00FFF766FFFFF744FF00F074FAFFF756FF2B
:102C6C0000F030FAFFF7FEFDFFF7B8FEFFF732FE7B
:042C7C00FCE7FEE78C
:102AD00081B01CF8019B0BF8019BBBEB0A0FF8D1EE
:042AE00001B070478A
:102A940081B04FF000094FF0000CBDEB0A0F04DCCD
:102AA400BDEB0B0F01DBD446EA464BF8049BBBEBB2
:102AB4000A0FFAD1BCEB0A0F05DDE246D9F800B0E3
:0A2AC4000BF1040BF1E701B07047BD
:1028700081B0CDF800E0002200210020FFF726FF04
:10288000002201210020FFF721FF00220221002069
:10289000FFF71CFF012206210020FFF717FF01228E
:1028A00007210020FFF712FF0C4801460020FFF728
:1028B000F5FE42F280512020FFF72AFF40F6FE0786
:1028C000C0F23D0700BF00BF7F1EFDD100BF00BFAB
:1028D00000BFDDF800E001B0704700BFB03000007D
:1026CC0081B0CDF800E05FFA81FA5FFA82FB0FE08F
:1026DC005FFA8BF15FFA8AF0FFF70CFA0DE05FFA04
:1026EC008BF15FFA8AF0FFF7F5FA06E0012004E0BF
:1026FC000028EDD00128F2D0F8E7DDF800E001B0B9
:02270C00704714
:101B000081B0CDF800E091E0012904D110215A48BC
:101B1000FFF7EEFB03E010215748FFF7FFFBA5E0BE
:101B2000012904D101215448FFF7E2FB03E0012120
:101B30005148FFF7F3FB99E0012904D101214F48F7
:101B4000FFF7D6FB03E001214C48FFF7E7FB8DE0F0
:101B5000012904D104214A48FFF7CAFB03E004210C
:101B60004748FFF7DBFB81E0012904D120214448ED
:101B7000FFF7BEFB03E020214148FFF7CFFB75E0F4
:101B8000012904D110213E48FFF7B2FB03E01021E8
:101B90003B48FFF7C3FB69E0012904D10121394823
:101BA000FFF7A6FB03E001213648FFF7B7FB5DE036
:101BB000012904D110213448FFF79AFB03E01021DA
:101BC0003148FFF7ABFB51E0012904D140212F48F8
:101BD000FFF78EFB03E040212C48FFF79FFB45E019
:101BE000012904D180212948FFF782FB03E08021ED
:101BF0002648FFF793FB39E0012904D104211F484F
:101C0000FFF776FB03E004211C48FFF787FB2DE07C
:101C1000012904D108211948FFF76AFB03E00821D4
:101C20001648FFF77BFB21E0012020E000283FF46D
:101C30006BAF01283FF474AF02283FF47DAF032857
:101C40003FF486AF04283FF48FAF05283FF498AFE8
:101C500006283FF4A1AF0728AAD00828B4D0092845
:101C6000BED00A28C8D00B28D2D0DDE70020DDF88E
:101C700000E001B0704700BF00C005400090054083
:101C80000080054000B0054000D0054000A00540A0
:1012F00081B0CDF800E0002440F240031BB240F280
:10130000001212B21A4393B2002210B4FFF718FD74
:0A13100001B0DDF800E001B0704705
:100D400082B0CDF800E05FFA81F8D5B29FB29DF88D
:100D50000830F54C00EA0404A1462046FFF760FA8B
:100D6000F24CA54208D109F580666FEA0805EDB29C
:100D700034682C40346008E0ED4CA54205D109F5FB
:100D800080652C6844EA08042C6040F2010407EAFC
:100D90000404A4B234B109F5A2652C6844EA08043D
:100DA0002C6007E009F5A2666FEA0805EDB2346829
:100DB0002C40346040F2020407EA0404A4B234B1C7
:100DC00009F214552C6844EA08042C6007E009F283
:100DD00014566FEA0805EDB234682C40346040F2D6
:100DE000080407EA0404A4B234B109F20C552C68D3
:100DF00044EA08042C6007E009F20C566FEA080583
:100E0000EDB234682C40346040F2100407EA040468
:100E1000A4B234B109F5A0652C6844EA08042C603A
:100E200007E009F5A0666FEA0805EDB234682C40CA
:100E3000346040F2200407EA0404A4B234B109F299
:100E400004552C6844EA08042C6007E009F20456B3
:100E50006FEA0805EDB234682C40346040F240047B
:100E600007EA0404A4B234B109F5A1652C6844EA88
:100E700008042C6007E009F5A1666FEA0805EDB2E9
:100E800034682C40346041F2000407EA0404A4B240
:100E9000012C13D042F2000407EA0404A4B2012C8E
:100EA0000CD044F2000407EA0404A4B2012C05D0DB
:100EB000DEB24B46B8B25FFA88F53CE0002000266F
:100EC000DAB2BBB207465FFA88F04946082E13D261
:100ED00020FA06F4E4B204F00104E4B24CB1750067
:100EE0002DB2032424B2AC4024B247EA04052F46B5
:100EF000FFE7761CF6B2E9E701F6C476FD433468F5
:100F00002C40346001F23C56C543EDB234682C40AD
:100F1000346001F5A166C543EDB234682C403460FD
:100F200001F20456C543EDB234682C403460C5B2BA
:100F300098B20B46D6B2002141F2000400EA040444
:100F4000A4B23CB300220F46E9B2082A13D221FA18
:100F500002F4E4B204F00104E4B24CB155002DB245
:100F6000012424B2AC4024B247EA04052F46FFE72F
:100F7000521CD2B2E9E703F6C4752C683C432C60DE
:100F800003F5A1652C680C432C603D461F4683B2D7
:100F9000C8B203E01F4683B2E8B20D4642F2000435
:100FA00003EA0404A4B26CB30022A8463946082A16
:100FB00013D220FA02F4E4B204F00104E4B24CB11A
:100FC00055002DB2032424B2AC4024B248EA0405F3
:100FD000A846FFE7521CD2B2E9E701F6C4752C68B7
:100FE00044EA08042C6001F23C552C6804432C6050
:100FF00001F5A1652C6804432C60F7B20E46C2B21D
:1010000098B205E00197C2B298B2F7B2A846019E25
:1010100044F2000400EA0404A4B284B30023D1B271
:10102000082B14D221FA03F4E4B204F00104E4B270
:1010300054B15D002DB2032424B2AC4024B248EA7E
:10104000040422469046FFE75B1CDBB2E8E706F6A5
:10105000C4752C6844EA08042C6006F23C552C68E0
:101060000C432C6006F5A1652C680C432C6006F23D
:1010700004552C680C432C60FBB2324602E0D1B21E
:101080003246FBB240F2800400EA0404A4B274B118
:1010900040F2400400EA0404A4B22CB102F5A365B6
:1010A0002C680C432C6001E00120FAE006E002F518
:1010B000A366CD43EDB234682C40346040F2001496
:1010C00000EA0404A4B22CB102F21C552C680C43B3
:1010D0002C6006E002F21C56CD43EDB234682C4081
:1010E000346040F2002400EA0404A4B2002C3AD098
:1010F000104CA24240F2000500D001250E4CA24245
:1011000040F2000400D0012425400C4CA24240F2E1
:10111000000400D001242540094CA24240F2000402
:1011200000D0012425400DE000F0FFFF000000008A
:101130000100000000C0054000B0054000900540DF
:1011400000100640594CA24240F2000400D0012495
:1011500005EA04040CB10120A3E002F5A5652C68A2
:101160000C432C602AE0524CA24240F2000500D110
:101170000125504CA24240F2000400D10124254335
:101180004D4CA24240F2000400D1012425434B4CB7
:10119000A24240F2000400D101242543434CA24264
:1011A00040F2000400D1012445EA040434B102F500
:1011B000A566CD43EDB234682C40346040F600049F
:1011C00000EA0404A4B22CB102F5A6652C680C4315
:1011D0002C6006E002F5A666CD43EDB234682C40E3
:1011E000346040F2004400EA0404A4B22CB102F5D9
:1011F00084652C680C432C6006E002F58466CD43C0
:10120000EDB234682C4034600BB9002049E00F2B5C
:1012100001D9012045E0002700208DF80430C3B239
:1012200010469DF80420082B12D221FA03F4E4B2F0
:1012300004F00104E4B244B19D002DB24FF00F045C
:10124000AC4047EA04052F46FFE75B1CDBB2EAE748
:1012500000F22C56FD4334682C40346000260023F5
:101260008DF80430CBB29DF80410082913D223FA6C
:1012700001F4E4B204F00104E4B24CB1D5B28C0044
:1012800024B205FA04F446EA040425462E46FFE794
:10129000491CC9B2E9E700F22C552C6834432C6094
:1012A0000020DDF800E002B0704700BF00500640AB
:1012B00000C0054000B00540009005400010064009
:1002200081B0664900EA010108467DE06449096839
:1002300041F0010262490A60BEE06149096841F08B
:1002400002025F490A60B7E05D49096841F00402B3
:100250005B490A60B0E05A49096841F00802584910
:100260000A60A9E05649096841F0100254490A6041
:10027000A2E05349096841F0200251490A609BE01D
:100280004F49096841F040024D490A6094E04C49E9
:10029000096841F080024A490A608DE048490968CE
:1002A00041F4807246490A6086E04549096841F494
:1002B000007243490A607FE04149096841F4806265
:1002C0003F490A6078E03E49096841F400623C49D0
:1002D0000A6071E03A49096841F4805238490A607D
:1002E0006AE03749096841F4005235490A6063E021
:1002F0003349096841F4804231490A605CE0304981
:10030000096841F400422E490A6055E02C49096809
:1003100041F480322A490A604EE02949096841F4D3
:10032000003227490A6047E0264988423FF47EAF01
:10033000254988423FF481AF244988423FF484AF85
:10034000234988423FF487AF224988423FF48AAF6D
:10035000214988423FF48DAF204988423FF490AF55
:100360001F4988423FF493AF1E4988423FF496AF3D
:100370001D4988423FF499AF1C4988423FF49CAF25
:100380001B4988423FF49FAF1A4988423FF4A2AF0D
:10039000194988423FF4A5AF184988423FF4A8AFF5
:1003A000174988423FF4ABAF164988423FF4AEAFDD
:1003B000154988423FF4B1AF01B0704700F0FFFF2C
:1003C00008E60F40008005400090054000A0054071
:1003D00000B0054000C0054000D0054000E00540E9
:1003E00000F00540000006400010064000200640D6
:1003F00000300640004006400050064000600640C5
:0C0400000070064000800640009006409E
:10131C0081B0CDF800E0002440F240031BB240F253
:10132C00001212B21A4393B2012210B4FFF702FD5D
:0A133C0001B0DDF800E001B07047D9
:101CE00081B0CDF800E091E0012904D120215A48CB
:101CF000FFF7FEFA03E020215748FFF70FFBA5E0AE
:101D0000012904D102215448FFF7F2FA03E002212D
:101D10005148FFF703FB99E0012904D120214F48E6
:101D2000FFF7E6FA03E020214C48FFF7F7FA8DE0D1
:101D3000012904D104214A48FFF7DAFA03E004211B
:101D40004748FFF7EBFA81E0012904D120214448FC
:101D5000FFF7CEFA03E020214148FFF7DFFA75E0F4
:101D6000012904D110213E48FFF7C2FA03E01021F7
:101D70003B48FFF7D3FA69E0012904D10221394831
:101D8000FFF7B6FA03E002213648FFF7C7FA5DE035
:101D9000012904D140213348FFF7AAFA03E040218A
:101DA0003048FFF7BBFA51E0012904D110212E4839
:101DB000FFF79EFA03E010212B48FFF7AFFA45E04A
:101DC000012904D120212848FFF792FA03E02021BD
:101DD0002548FFF7A3FA39E0012904D104211F485F
:101DE000FFF786FA03E004211C48FFF797FA2DE07D
:101DF000012904D108211948FFF77AFA03E00821E4
:101E00001648FFF78BFA21E0012020E000283FF47C
:101E10006BAF01283FF474AF02283FF47DAF032875
:101E20003FF486AF04283FF48FAF05283FF498AF06
:101E300006283FF4A1AF0728AAD00828B4D0092863
:101E4000BED00A28C8D00B28D2D0DDE70020DDF8AC
:101E500000E001B0704700BF00C0054000900540A1
:0C1E60000080054000B0054000A00540D7
:10269C0081B0CDF800E009E00846FFF7F9FA0AE04E
:1026AC000846FFF71BFD06E0012004E00028F3D0EC
:0E26BC000128F5D0F8E7DDF800E001B0704726
:101C9C0081B0CDF800E000F208010B68011D0A6864
:101CAC000168084691B29AB2034BFFF7B5FC0020CD
:0C1CBC00DDF800E001B07047142F0000BC
:101624008AB0CDF800E008901846ADF824200DF1FA
:10163400140B0BF10B0ADFF82CC101F047FAADF8DB
:101644000410FFF731FBBDF8041001256DB2464CC0
:101654002560464C206800256DB2454C2560454CFC
:101664002160BDF82450444C2560444D444C256011
:10167400444D454C2560FFF733FE40F2E83400FB4F
:1016840004F5089CB5FBF4F4029429B9029C022CDD
:1016940001DA0224029404E0029C0C2C01DA0C24EA
:1016A4000294022424B2ADF81040BDF91040B4F104
:1016B400FF0F41DA002212B210B2B0F5807F30DAA7
:1016C400BDF91050441C24B26543029C641B03946E
:1016D400002C04DA039D4FF0FF346C43039410B9DB
:1016E400039C069404E0039D069CAC4200DA18E0D7
:1016F400039D059CAC4202DC039C04B107E0039CFF
:101704000594BDF910408DF81C408DF81D00059C12
:101714001CB901248DF81E4003E0441C22B210B20F
:10172400CBE79DF81E40012C00D105E0BDF9104027
:10173400A41CADF81040B8E79DF81C50134C25606C
:101744009DF81D4025022DB20B4C246844EA050582
:10175400094C256001256DB2054C2560DDF800E0DB
:101764000AB07047BC30000080C3FC431CE60F4045
:10177400840010420480004000800040890800007A
:10178400C40000205D130000C80000201080004049
:100CAC0081B0CDF800E040F2000B82460AF1D80189
:100CBC0009788B4539D20C210BFB01F10AEB0101B0
:100CCC008C460CF108010978A9B90CF108010978D6
:100CDC00CCB20CF1060109888BB20CF10401097835
:100CEC00CAB2DCF800100846D1B2002210B400F0F1
:100CFC0021F801B014E00CF108010978CCB20CF128
:100D0C00060109888BB20CF104010978CAB2DCF82F
:100D1C0000100846D1B20F2210B400F00BF801B04D
:100D2C000BF1010B5FFA8BFBC0E7DDF800E001B0C3
:020D3C007047FE
:0C12E40001480068704700BF980000201F
:1020E80081B0CDF800E000F208010B68011D0A6814
:1020F8000168084691B29AB2034BFFF78FFA0020A5
:0C210800DDF800E001B07047142F00006B
:1027100081B0CDF800E011E00846FFF72FFD16E08C
:102720000846FFF743FD12E00846FFF76DFC0EE098
:102730000846FFF77BFC0AE0012008E00028EBD008
:102740000128EDD02028EFD03028F1D0F4E7DDF8D3
:0627500000E001B070473B
:10217C0081B0CDF800E0FFF707FB044A04490A6080
:10218C000020DDF800E001B0704700BF71180000BE
:04219C0060000020BF
:1017940082B0CDF800E00346214A22490A60224A79
:1017A40022490A60224A23490A60234A23490A60DB
:1017B40001932348FFF778FA019B012252B2214991
:1017C4000A6000BF00BF00BFFFF778FDFFF788FD88
:1017D40040F2E83100FB01F210461901914205D9AB
:1017E400012252B218490A605A0804E0002252B297
:1017F40015490A601A46C100B1FBF2F1491C4B08B5
:101804009A0912490A6003F03F0211490A606022F2
:1018140010490A60FFF736FADDF800E002B07047BD
:1018240071180000CC000020FFFFFFFFD000002053
:10183400FFFFFFFFD4000020FFFFFFFFD8000020C0
:101844005C2D000014C3FC43140622422410014002
:08185400281001402C10014096
:1012C00081B0002149B2044801600448016004482B
:1012D000016001B0704700BF000622422006224292
:0412E000240622427C
:100C880081B0012149B20448016004480160044868
:100C9800016001B0704700BF0006224220062242D0
:040CA80024062242BA
:1021AC0081B0CDF800E0FFF76FF9044A04490A60EA
:1021BC000020DDF800E001B0704700BFA918000056
:0421CC00600000208F
:1014940082B0CDF800E00346214A22490A60224A7C
:1014A40022490A60224A23490A60234A23490A60DE
:1014B40001932348FFF7F8FB019B012252B2214913
:1014C4000A6000BF00BF00BFFFF7A6FBFFF708FFDD
:1014D40040F2E83100FB01F210461901914205D9AE
:1014E400012252B218490A605A0804E0002252B29A
:1014F40015490A601A46C100B1FBF2F1491C4B08B8
:101504009A0912490A6003F03F0211490A606022F5
:1015140010490A60FFF76EFBDDF800E002B0704787
:10152400A9180000CC000020FFFFFFFFD00000201E
:10153400FFFFFFFFD4000020FFFFFFFFD8000020C3
:10154400802C00001CC3FC431406264224300140B6
:08155400283001402C30014059
:100C1C0081B0002149B204480160044801600448D5
:100C2C00016001B0704700BF000626422006264234
:040C3C002406264222
:100BF80081B0012149B204480160044801600448F9
:100C0800016001B0704700BF000626422006264258
:040C18002406264246
:1020080081B0CDF800E0FFF7A5FA044A04490A6058
:102018000020DDF800E001B0704700BF2D19000076
:042028006000002034
:10155C0082B0CDF800E00346214A22490A60224AB3
:10156C0022490A60224A23490A60234A23490A6015
:10157C0001932348FFF794FB019B012252B22149AE
:10158C000A6000BF00BF00BFFFF766FBFFF7A4FEB9
:10159C0040F2E83100FB01F210461901914205D9E5
:1015AC00012252B218490A605A0804E0002252B2D1
:1015BC0015490A601A46C100B1FBF2F1491C4B08EF
:1015CC009A0912490A6003F03F0211490A6060222D
:1015DC0010490A60FFF72EFBDDF800E002B07047FF
:1015EC002D190000CC000020FFFFFFFFD0000020D1
:1015FC00FFFFFFFFD4000020FFFFFFFFD8000020FB
:10160C00382E000008C3FC4314061C4224E00040A2
:08161C0028E000402CE0004032
:100C640081B0002149B2044801600448016004488D
:100C7400016001B0704700BF00061C4220061C4200
:040C840024061C42E4
:100C400081B0012149B204480160044801600448B0
:100C5000016001B0704700BF00061C4220061C4224
:040C600024061C4208
:10202C0081B0CDF800E0FFF72FFA044A04490A60AA
:10203C000020DDF800E001B0704700BFA9180000D7
:04204C006000002010
:1029E80081B0CDF800E025492548FFF7BBFE40F649
:1029F800FE57C0F2277700BF00BF7F1EFDD100BF82
:102A080000BF00BFFFF7A4FED72822D11D4802212E
:102A1800FFF7E4FE042040F00200C0B240F00100DD
:102A2800FFF714FF0A20FFF7DBFB0320FFF712FD77
:102A38000320FFF75BFD402040F004000222C1B2F2
:102A48008020FFF791FD03220021E020FFF774FDAD
:102A580004E00D480221FFF7C1FEFEE740F6FE073D
:102A6800C0F23D0700BF00BF7F1EFDD100BF00BF01
:102A780000BFDDF800E001B0704700BFC8300000BB
:0C2A8800F02F0000210000203000002092
:10276C0081B0CDF800E00446124A1378124A137077
:10277C000023124A13700023114A13700023114ACC
:10278C0013700023104A13700846FFF7D1FB204644
:10279C00FFF7DAFB01200D4C2468A04701200C4CFC
:1027AC002468A04701200B4C2468A047DDF800E00A
:1027BC0001B07047370000209100002093000020EA
:1027CC009000002094000020950000207C00002048
:0827DC007400002078000020C9
:0C20D00001490860704700BF907FB842D3
:0C20500001490860704700BF807FB84263
:0C205C0001490860704700BF807FB2425D
:0C21DC0001490860704700BF887FB042D6
:0C1CC80001490860704700BF947FB042E3
:0C1CD40001490860704700BF907FB042DB
:0C1C900001490860704700BF807FB64229
:0C1AF40001490860704700BF907FBA42B3
:0C21640001490860704700BF987FB4423A
:0C21700001490860704700BF9C7FB4422A
:0C21D00001490860704700BF887FB242E0
:0C21A00001490860704700BF8C7FB2420C
:0C20DC0001490860704700BF947FB842C3
:0C1FFC0001490860704700BF847FB842B4
:0C1FE40001490860704700BF947FB242C2
:0C1FF00001490860704700BF887FB042C4
:0C1E6C0001490860704700BF947FB0423D
:0C1E780001490860704700BF907FB04235
:0C1FB40001490860704700BF847FB642FE
:0C1FA80001490860704700BF987FB642F6
:0C1FC00001490860704700BF907FB442E8
:0C1FD80001490860704700BF947FB442CC
:0C1FCC0001490860704700BF887FB242E6
:0C1F300001490860704700BF8C7FB2427E
:101F3C00026803490A60011D0A6802490A60704779
:081F4C00840000208800002041
:101F540000F2300303F218010A680C490A6003F224
:101F64001C010A680A490A6002680A490A6000F208
:101F740008010A6808490A60011D0A6807490A60DD
:101F840000F218010A6806490A6070476C000020D4
:101F94007000002074000020780000207C000020E5
:041FA4008000002099
:1027580081B0CDF800E00C20FFF790FBDDF800E039
:0427680001B0704705
:101E840082B0CDF800E001A908701C490A781C4909
:101E94000978914216D101AA117841F0800111709C
:101EA4000020184C2468A04701A902220846FFF725
:101EB400EFFD0120134C2468A04701A9491C0978AF
:101EC400C8B216E0FFF70AFE01AA0F4909780123F8
:101ED400C8B211460122FFF743FD01AA0A49097855
:101EE4000023C8B211460122FFF740FA01A909787C
:101EF400C8B2DDF800E002B0704700BF3700002030
:0C1F0400910000207400002092000020DA
:101A940084B0CDF800E0ADF80C2001900291BDF8BF
:101AA4000C40BDF80C305B1EADF80C307CB1019BD2
:101AB4001B78DCB2A0B2084C2468A047029B1870C3
:101AC400029B5B1C0293019B5B1C0193E7E7DDF81F
:0C1AD40000E004B0704700BF8800002054
:1008880081B0054908600549096801B9FBE70249D3
:10089800086801B0704700BF088000408801104216
:1008E00081B0054908600549096801B9FBE702497B
:1008F000086801B0704700BF0890004088011242AC
:1009C80081B0054908600549096801B9FBE7024992
:1009D800086801B0704700BF08A0004088011442B1
:10091C0081B0054908600549096801B9FBE702493E
:10092C00086801B0704700BF08B00040880116424B
:101AE00040F2000212B201210148017010B27047A9
:041AF000360000209C
:1019640085B0CDF800E0ADF80C200A468DF81030B3
:1019740040F20004ADF808401146424C247854B1BA
:1019840001910021404C2468A0470199FFF70AF90E
:1019940000253C4C2570BDF80C40012C0DD10C7871
:1019A4000721E0B2394C2468A047BDF9084004433C
:1019B400ADF80840FFF7F6F857E0BDF80C40022CEC
:1019C4001CD10C7801910321E0B2304C2468A0476B
:1019D4000199BDF908400443ADF808404C1C204669
:1019E400FFF7E0F804780521E0B2284C2468A0470A
:1019F400BDF908400443ADF8084036E00C78019185
:101A04000321E0B2214C2468A0470199BDF90840A4
:101A14000443ADF808404B1CFFF7C4F81946BDF861
:101A24000C40641EA4B2ADF80C40012C12D90C7801
:101A340001910121E0B2154C2468A0470199BDF938
:101A440008400443ADF808404C1C2346FFF7AAF8AD
:101A54001946E4E70C780521E0B20C4C2468A04751
:101A6400BDF908400443ADF808409DF81040012C2E
:101A740002D10125034C2570BDF90800DDF800E012
:101A840005B0704736000020640000208C00002060
:10093C0081B0CDF800E0CAB2C1B20348FFF760FD48
:0C094C00DDF800E001B070470000024040
:10040C0081B04B009BB213439BB2036001B07047A9
:1009580081B0CDF800E0CAB2C1B20348FFF752FD3A
:0C096800DDF800E001B070470010024014
:1009000081B0CDF800E0CAB2C1B20348FFF77EFD66
:0C091000DDF800E001B07047002002405C
:1009AC0081B0CDF800E0CAB2C1B20348FFF728FD10
:0C09BC00DDF800E001B0704700300240A0
:1009740081B0CDF800E0CAB2C1B20348FFF744FD2C
:0C098400DDF800E001B0704700000C40FE
:1009900081B0CDF800E0CAB2C1B20348FFF736FD1E
:0C09A000DDF800E001B0704700100C40D2
:1008500081B0CDF800E0CAB2C1B20348FFF7D6FDBF
:0C086000DDF800E001B0704700200C4003
:10086C0081B0CDF800E0CAB2C1B20348FFF7C8FDB1
:0C087C00DDF800E001B0704700300C40D7
:1008180081B0CDF800E0CAB2C1B20348FFF7F2FDDB
:0C082800DDF800E001B0704700800B40DC
:1008340081B0CDF800E0CAB2C1B20348FFF7E4FDCD
:0C084400DDF800E001B0704700900B40B0
:1008C40081B0CDF800E0CAB2C1B20348FFF7A4FD7D
:0C08D400DDF800E001B0704700000240B9
:10041C0082B0CDF800E04FF000045D4B984205D15E
:10042C005C4B1D685C4B1B6801935BE05B4B98421B
:10043C0006D15B4B1C685B4B1B680193254651E056
:10044C00594B984206D1594B1C68594B1B68019368
:10045C00234646E0574B984206D1574B1C68574BE6
:10046C001B68019323463CE0554B984206D1554BF3
:10047C001C68554B1B680193234632E0534B984242
:10048C0006D1534B1C68534B1B680193234628E041
:10049C00514B984206D1514B1C68514B1B68019330
:1004AC0023461EE04F4B984206D14F4B1C684F4BD6
:1004BC001B680193234614E04D4B984206D14D4BDB
:1004CC001C684D4B1B68019323460AE04B4B98422A
:1004DC0006D14B4B1C684B4B1B680193234600E029
:1004EC0023461D4600F208031960072A05D0032A8B
:1004FC0003D004462846D1B215E02E46D1B20246AE
:10050C002846131D1C68C4F380135BB148B126B98F
:10051C000420019CA047012036E0731E1C46264691
:10052C00FFE7EEE71446231D1960FFF767FEFFF7A0
:10053C0065FEFFF763FE024625462B1D1C68C4F3BF
:10054C0000034BB138B122B90420019CA047012013
:10055C001AE0521EFFE7F0E72B1D1C68C4F34003A2
:10056C006BB1012902D0032900D008E02B1D1C68B7
:10057C00C4F300131BB92C1D40F2040323602B1D84
:10058C001C68C4F34003D8B2DDF800E002B0704739
:10059C0000000240380000209C00002000100240A7
:1005AC003C000020A0000020002002404000002061
:1005BC00A40000200030024044000020A8000020CD
:1005CC0000000C4048000020AC00002000100C4043
:1005DC004C000020B000002000200C4050000020F7
:1005EC00B400002000300C4054000020B800002063
:1005FC0000800B4058000020BC00002000900B40F5
:08060C005C000020C00000208A
:1002080040F22607C0F200077F1EFDD100BF00BFE5
:0802180000BF00BF00BF7047EA
:1008A80081B0CDF800E0CAB2C1B20348FFF7B2FD8B
:0C08B800DDF800E001B0704700100240C5
:100B380081B0CDF800E0CAB2C1B20348FFF76AFC41
:0C0B4800DDF800E001B070470020024022
:100B540081B0CDF800E0CAB2C1B20348FFF75CFC33
:0C0B6400DDF800E001B0704700300240F6
:100B000081B0CDF800E0CAB2C1B20348FFF786FC5D
:0C0B1000DDF800E001B0704700000C4070
:100B1C0081B0CDF800E0CAB2C1B20348FFF778FC4F
:0C0B2C00DDF800E001B0704700100C4044
:100B700081B0CDF800E0CAB2C1B20348FFF74EFC25
:0C0B8000DDF800E001B0704700200C40E0
:100BC00081B0CDF800E0CAB2C1B20348FFF726FCFD
:0C0BD000DDF800E001B0704700300C4080
:100BDC0081B0CDF800E0CAB2C1B20348FFF718FCEF
:0C0BEC00DDF800E001B0704700800B4015
:100B8C0081B0CDF800E0CAB2C1B20348FFF740FC17
:0C0B9C00DDF800E001B0704700900B4055
:100BA80049F63E47C0F200077F1EFDD100BF00BFD7
:080BB80000BF00BF00BF704741
:1013700085B0CDF800E0ADF80C200A468DF81030AD
:1013800040F20004ADF8084011463F4C247854B1B7
:10139000019101213D4C2468A0470199FFF704FC0D
:1013A0000025394C2570BDF80C40012C0CD10846A5
:1013B0000721374C2468A047BDF908400443ADF825
:1013C0000840FFF7F1FB51E0BDF80C40022C19D1A9
:1013D000019108460B212E4C2468A0470199BDF9C4
:1013E00008400443ADF808404C1C2046FFF7DCFBE6
:1013F0000521274C2468A047BDF908400443ADF8F7
:10140000084033E0019108460B21214C2468A04795
:101410000199BDF908400443ADF808404B1CFFF7A3
:10142000C3FB1946BDF80C40641EA4B2ADF80C40D5
:10143000012C11D9019108460921154C2468A047B7
:101440000199BDF908400443ADF808404C1C2346FF
:10145000FFF7AAFB1946E5E7084605210C4C24686E
:10146000A047BDF908400443ADF808409DF810407E
:10147000012C02D10125044C2570BDF90800DDF8CE
:1014800000E005B0704700BF360000206400002077
:0414900068000020D0
:100AE40081B0CDF800E0CAB201460348FFF790FD9B
:0C0AF400DDF800E001B070470000024097
:1006140084B0CDF800E0044603914FF00003029348
:100624005E4B9C4206D15E4B1B6802935D4B1B687C
:10063400019358E05C4B9C4206D15C4B1B680293CF
:100644005B4B1B6801934EE05A4B9C4206D15A4BBC
:100654001B680293594B1B68019344E0584B9C421E
:1006640006D1584B1B680293574B1B6801933AE021
:10067400564B9C4206D1564B1B680293554B1B6844
:10068400019330E0544B9C4206D1544B1B680293B7
:10069400534B1B68019326E0524B9C4206D1524BAC
:1006A4001B680293514B1B6801931CE0504B9C4206
:1006B40006D1504B1B6802934F4B1B68019312E009
:1006C4004E4B9C4206D14E4B1B6802934D4B1B680C
:1006D400019308E04C4B9C4205D14C4B1B680293A0
:1006E4004B4B1B680193072A03D00B2A01D02046E9
:1006F40017E0029E2046D1B2031D1C68C4F3801388
:1007040073B1029B4BB126B90320019CA047012081
:1007140040E0731E1A46134600E033461E46EBE7DC
:10072400CAB2031D1A60FFF76DFDFFF76BFDFFF7FB
:1007340069FD029E031D1C68C4F3000363B1029BA0
:100744003BB126B90320019CA047012022E0711E81
:1007540000E031460E46EDE7031D1C68C4F3400378
:1007640073B1092A02D00B2A00D008E0031D1C68CB
:10077400C4F300131BB9041D40F20403236004E016
:1007840000F208031C68039B1C70031D1C68C4F35F
:100794004003D8B2DDF800E004B070470000024026
:1007A400380000209C000020001002403C00002083
:1007B400A00000200020024040000020A4000020EF
:1007C4000030024044000020A800002000000C403B
:1007D40048000020AC00002000100C404C00002019
:1007E400B000002000200C4050000020B400002085
:1007F40000300C4054000020B800002000800B4062
:1008040058000020BC00002000900B405C00002039
:04081400C000002000
:100A200081B0CDF800E0CAB201460348FFF7F2FDFD
:0C0A3000DDF800E001B07047001002404B
:100A3C0081B0CDF800E0CAB201460348FFF7E4FDEF
:0C0A4C00DDF800E001B07047002002401F
:1009E80081B0CDF800E0CAB201460348FFF70EFE19
:0C09F800DDF800E001B070470030024064
:100A040081B0CDF800E0CAB201460348FFF700FE0A
:0C0A1400DDF800E001B0704700000C406D
:100A580081B0CDF800E0CAB201460348FFF7D6FDE1
:0C0A6800DDF800E001B0704700100C4009
:100AAC0081B0CDF800E0CAB201460348FFF7ACFDB7
:0C0ABC00DDF800E001B0704700200C40A5
:100AC80081B0CDF800E0CAB201460348FFF79EFDA9
:0C0AD800DDF800E001B0704700300C4079
:100A740081B0CDF800E0CAB201460348FFF7C8FDD3
:0C0A8400DDF800E001B0704700800B407E
:100A900081B0CDF800E0CAB201460348FFF7BAFDC5
:0C0AA000DDF800E001B0704700900B4052
:1027E40083B0CDF800E0024610460D228DF8082093
:1027F4000A228DF809201FE0FFF788FB23E0027806
:102804002AB10190FFF782FB0198401CF7E71AE018
:1028140002782AB10190FFF779FB0198401CF7E791
:1028240002AA1046FFF772FB0DF109021046FFF7EA
:102834006DFB08E0062007E00029DDD00129DED089
:102844000229E5D0F6E70020DDF800E003B0704788
:101F100081B0CDF800E00178CCB2A0B2034C2468C7
:101F2000A0470020DDF800E001B07047600000200D
:10135C0081B0CDF800E0FFF791FADDF800E001B0C4
:02136C007047C8
:1013480081B0CDF800E0FFF7C7FADDF800E001B0A2
:021358007047DC
:10185C0081B0CDF800E0FFF7B1F8DDF800E001B0A1
:02186C007047C3
:1019180081B0CDF800E0FEF7FDFFDDF800E001B092
:02192800704706
:1018FC0081B00449096801B1FBE70349086001B0F4
:0C190C00704700BF1403184200C00040E8
:1019480081B00449096801B1FBE70349086001B0A7
:0C195800704700BF14031A4200D000408A
:10192C0081B00449096801B1FBE70349086001B0C3
:0C193C00704700BF14031C4200E0004094
:1018E00081B00449096801B1FBE70349086001B010
:0C18F000704700BF14031E4200F00040CF
:10188C0081B00449096801B1FBE70349086001B064
:0C189C00704700BF140320420000014010
:1018700081B00449096801B1FBE70349086001B080
:0C188000704700BF14032242001001401A
:1018C40081B00449096801B1FBE70349086001B02C
:0C18D400704700BF1403244200200140B4
:1018A80081B00449096801B1FBE70349086001B048
:0C18B800704700BF1403264200300140BE
:1028540081B0CDF800E000F00F010E20FFF702FC7C
:08286400DDF800E001B070474F
:1020680082B0CDF800E001AA1070521C1170124A1B
:102078001378124A12789A420ED10020104C246824
:10208800A04701AA114602220846FFF7FFFC0120DB
:102098000B4C2468A0470AE0FFF71EFD01AB094A74
:1020A800127819460023D0B20222FFF757FCDDF858
:1020B80000E002B0704700BF370000209100002008
:0820C8007400002092000020CA
:1021E80081B0CDF800E000F07F011020FFF738FF44
:0821F800DDF800E001B07047C2
:10245C0082B0CDF800E0032801D9032300E0C3B219
:10246C008DF804301320FFF707FD9DF80430094A5E
:10247C0010704FF6FC7109B200EA01011170C9B27B
:10248C00194311701320FFF7E9FDDDF800E002B0ED
:08249C00704700BF9000002012
:1024F40082B0CDF800E0072801D9072400E0C4B277
:102504008DF804401320FFF7BBFC9DF804400A4BF0
:1025140018704FF6E37109B200EA01011970A200C4
:1025240092B2C9B211431970C9B21320FFF79AFDD0
:0C253400DDF800E002B0704790000020CD
:1025700081B0CDF800E001F004031BB22BB1464B53
:102580001B7843F00404E4B204E0434B1B7803F0EF
:10259000FB04E4B2404B1C7001F010031BB22BB1E2
:1025A0003D4B1B7843F01004E4B204E03A4B1B7837
:1025B00003F0EF04E4B2384B1C7001F040031BB28F
:1025C0002BB1354B1B7843F04001C9B204E0324BCC
:1025D0001B7803F0BF01C9B22F4B197002F0010341
:1025E000DBB22BB12C4B1B7843F00101C9B204E0E4
:1025F000294B1B7803F0FE01C9B2274B197002F07A
:1026000002031BB22BB1244B1B7843F00201C9B269
:1026100004E0214B1B7803F0FD01C9B21E4B197079
:1026200000F008031BB22BB11B4B1B7843F00801D1
:10263000C9B204E0184B1B7803F0F701C9B2164B7E
:10264000197000F020031BB22BB1134B1B7843F021
:102650002001C9B204E0104B1B7803F0DF01C9B2BE
:102660000D4B197000F080031BB22BB10A4B1B7885
:1026700043F08000C0B204E0074B1B7803F07F00FA
:10268000C0B2054B1870C3B2D9B21420FFF7ECFCEE
:0C269000DDF800E001B07047940000206D
:1025400081B0CDF800E000F0C004E4B201F01C035B
:10255000DBB21C43E4B202F00303DBB244EA030340
:10256000D9B20D20FFF780FDDDF800E001B0704723
:1028E00085B0CDF800E00DF10E00FFF7E1FC0DF131
:1028F0000E00FFF785FC01A90DF10E00B0F90000F4
:10290000FFF74EFD01A8FFF78DFD2A480121FFF7D3
:1029100069FF01A80221FFF765FF01A90DF10E0073
:10292000801CB0F90000FFF73BFD01A8FFF77AFD1E
:1029300021480121FFF756FF01A80221FFF752FFAE
:1029400001A90DF10E00001DB0F90000FFF728FDF0
:1029500001A8FFF767FD19480121FFF743FF01A810
:102960000221FFF73FFFFFF753FD01A9FFF79AFD93
:1029700001A8FFF757FD12480121FFF733FF01A817
:102980000121FFF72FFF0F480221FFF72BFF0E4811
:102990000221FFF727FF41F2FE17C0F27A0700BFBE
:1029A00000BF7F1EFDD100BF00BF00BFDDF800E00B
:1029B00005B070470000002004000020080000203F
:0C29C0000C0000201A0000201E00002067
:1022B00087B0CDF800E006900DF10F0201211170FA
:1022C00033490A7833490978914218D10DF10F0248
:1022D000117841F08001117000202F4C2468A04734
:1022E00002AA0DF10F01084611460722FFF7D2FBA3
:1022F0000120294C2468A0470125E8B219E00020FC
:102300008DF80400FFF7ECFB0DF10F02234909786B
:102310000123C8B211460122FFF724FB02AA1F497C
:1023200009780023C8B211460622FFF721F89DF86C
:102330000400C1B202AC611809780A0292B2411CD1
:1023400009B2611809780A4306990A8006998B1C1C
:10235000811C09B2611809780A0292B2C11C09B243
:102360006118097842EA0101198006990B1D011DC7
:1023700009B2611809780A0292B2411D09B26118C6
:10238000097842EA01011980DDF800E007B07047E2
:1023900037000020910000207400002092000020EF
:10220000B0F9001000EE901AF8EEE00A4FF07251AB
:1022100000EE101A60EE800A244900EE101AC0EE9B
:10222000800AB0EE080A20EE800ABDEE400A10EEE9
:10223000101A09B20180821C811CB1F9001000EE55
:10224000901AF8EEE00A4FF0725100EE101A60EEAC
:10225000800A164900EE101AC0EE800AB0EE080A95
:1022600020EE800ABDEE400A10EE101A09B211806D
:10227000021D011DB1F9001000EE901AF8EEE00AFF
:102280004FF0725100EE101A60EE800A074900EE1E
:10229000101AC0EE800AB0EE080A20EE800ABDEEE9
:1022A000400A10EE101A09B2118070470000B042C7
:1023A00081B0CDF800E00E46002183B2002805DAA6
:1023B0000121404280B280B28FB201E098B28FB268
:1023C0003146FFF7A7FE06213446B8B2002908D9E6
:1023D00063184A1E92B2A21812781A70491E89B266
:1023E000F4E72022227070B1002081B2204642180A
:1023F0001278202A02D1491C89B2F8E74A1E92B20B
:0E24000083182D221A70DDF800E001B070473D
:1021140081B00A4681B200208DB21146052805D24D
:102124000B1820221A70401CC0B2F7E70B180022CB
:102134001A70401EC0B20C180A23B5FBF3F203FB5D
:10214400125292B2303222700A22B5FBF2F292B2EB
:1021540095B202B902E0401EC0B2ECE701B070478C
:1024240081B0014640F200052DB208460C460B4629
:10243400FFE70178202901D105B904E001252DB277
:1024440001782170641C0246401C11780029F0D1E7
:06245400184601B07047BC
:1024100081B0CDF800E01220FFF734FDDDF800E0D8
:0424200001B0704750
:1024A40081B00A460021C5B21046032905D243185B
:1024B40020221A70491CC9B2F7E7431800221A7087
:1024C400491EC9B244180A23B5FBF3F203FB1252A6
:1024D400D2B2303222700A22B5FBF2F2D2B2D5B2B5
:0E24E40002B902E0491EC9B2ECE701B0704730
:102B2C0081B0CDF800E0344A344B354C354D364E3F
:102B3C004FF03011354801600021354801606FF0CD
:102B4C00010003EA000133480160C3F3C00018B967
:102B5C00FFF738FFFFF736FFC3F3000018B1012170
:102B6C0049B22D4801602D48864203D92C4927488B
:102B7C00016021E02B48864203D92B492348016090
:102B8C001AE04CF25030864203D928491F480160A4
:102B9C0012E047F23050864203D925491B480160A8
:102BAC000AE0B6F57A5F03D922491848016003E0C0
:102BBC004FF03011154801601F4804601F48056034
:102BCC006FF0805002EA000111480160012149B206
:102BDC001B4801601B48016002F0805038B11A4854
:102BEC00006800B9FBE7012149B218480160DDF823
:102BFC0000E001B0704700BF04003033110000004A
:102C0C001800800000000000C0D40100C0E00F409C
:102C1C00B0E00F407CE00F40800FFC43A086010029
:102C2C00960130008038010055013000D30030008F
:102C3C00B20030007100300060E10F4064E10F40E1
:102C4C007C16FC437816FC43002DFC437016FC43A9
:1029D00041F67E27C0F206077F1EFDD100BF00BF73
:0829E00000BF00BF00BF7047FB
:102B180081B002490248016001B07047C0D4010089
:042B280098000020F1
:082AE40081B0FEE701B070476C
:102AEC0081B04EF68850CEF20000016841F47001BE
:102AFC00016000BF00BF00BF00BFF1EE100A40F440
:0A2B0C004000E1EE100A01B070472E
:1030D00000B5DFF814B0DFF814A0DFF814C0FFF774
:1030E000F7FC00BD704700BF00000020600000201A
:0430F000503000005C
:1031500000B5DFF810B0DFF810A0FFF79BFC00BD52
:0C316000704700BF00000020DC000020D1
:102C800000A00540100040050100000000A0054024
:102C900020004005010000000000000000000000CE
:102CA0000000000000000000000000000000000024
:102CB0000000000000000000000000000000000014
:102CC0000000000000000000000000000000000004
:102CD00000000000000000000000000000000000F4
:102CE00000000000000000000000000000000000E4
:102CF00000000000000000000000000000000000D4
:102D000000000000000000000000000000000000C3
:102D100000000000000000000000000000000000B3
:102D200000000000000000000000000000000000A3
:102D30000000000000000000000000000000000093
:102D40000000000000000000000000000000000083
:0C2D500000000000000000000200000075
:102D5C0000F00540400040050100000000F0054077
:102D6C008000400501000000000000000000000091
:102D7C000000000000000000000000000000000047
:102D8C000000000000000000000000000000000037
:102D9C000000000000000000000000000000000027
:102DAC000000000000000000000000000000000017
:102DBC000000000000000000000000000000000007
:102DCC0000000000000000000000000000000000F7
:102DDC0000000000000000000000000000000000E7
:102DEC0000000000000000000000000000000000D7
:102DFC0000000000000000000000000000000000C7
:102E0C0000000000000000000000000000000000B6
:102E1C0000000000000000000000000000000000A6
:0C2E2C0000000000000000000200000098
:102E380000B00540100040050100000000B005404A
:102E48002000400501000000000000000000000014
:102E5800000000000000000000000000000000006A
:102E6800000000000000000000000000000000005A
:102E7800000000000000000000000000000000004A
:102E8800000000000000000000000000000000003A
:102E9800000000000000000000000000000000002A
:102EA800000000000000000000000000000000001A
:102EB800000000000000000000000000000000000A
:102EC80000000000000000000000000000000000FA
:102ED80000000000000000000000000000000000EA
:102EE80000000000000000000000000000000000DA
:102EF80000000000000000000000000000000000CA
:0C2F0800000000000000000002000000BB
:102F140000800540040040050F00000000800540CB
:102F2400100040050F00000000800540200040050F
:102F34000F0000000000000000000000000000007E
:102F4400000000000000000000000000000000007D
:102F5400000000000000000000000000000000006D
:102F6400000000000000000000000000000000005D
:102F7400000000000000000000000000000000004D
:102F8400000000000000000000000000000000003D
:102F9400000000000000000000000000000000002D
:102FA400000000000000000000000000000000001D
:102FB400000000000000000000000000000000000D
:102FC40000000000000000000000000000000000FD
:102FD40000000000000000000000000000000000ED
:0C2FE400000000000000000003000000DE
:102FF000D1200000512000005D200000DD210000F4
:10300000C91C0000D51C0000911C0000F51A00002E
:103010006521000071210000D1210000A1210000E4
:10302000FFFFFFFFFFFFFFFFFFFFFFFFFFFFFFFFB0
:10303000FFFFFFFFFFFFFFFFFFFFFFFFFFFFFFFFA0
:10304000FFFFFFFFFFFFFFFFFFFFFFFFFFFFFFFF90
:04305000783A2000AA
:04305400793A2000A5
:043058007A3A2000A0
:0E305C0054656D70657261747572653A20007E
:04306A0020B043004F
:10306E002B2B004779726F20322070726573656E5C
:02307E007400DC
:063080004572726F720040
:02308600000246
:043088000000000044
:04308C000000000040
:04309000000000003C
:043094000000000038
:043098000000000034
:04309C000000000030
:0430A000000000002C
:0430A4000000000028
:0430A8000000000024
:0430AC000000000020
:0C30B00040420F0000000000C7000000BC
:0430BC00FFFFFF7F94
:0430C000000000000C
:0230C400020008
:0130C6000009
:0830C8005D13000089080000FF
:00000001FF
