:10000000FCFF0320FD2E0000852D0000852D000043
:10001000852D0000852D0000852D0000852D000018
:10002000852D0000852D0000852D0000852D000008
:10003000852D0000852D0000852D0000852D0000F8
:10004000852D0000852D0000852D0000852D0000E8
:10005000852D0000852D0000852D0000852D0000D8
:10006000852D0000852D0000852D0000852D0000C8
:10007000852D0000852D0000852D0000852D0000B8
:10008000852D0000852D0000852D0000852D0000A8
:10009000852D0000852D0000852D0000852D000098
:1000A000852D0000852D0000852D0000852D000088
:1000B000852D0000852D0000852D0000852D000078
:1000C000852D0000852D0000852D0000852D000068
:1000D000852D0000852D0000852D0000852D000058
:1000E000852D0000852D0000852D0000852D000048
:1000F000852D0000852D0000852D0000852D000038
:10010000852D0000852D0000852D0000852D000027
:10011000852D0000852D0000852D0000852D000017
:10012000852D0000852D0000852D0000852D000007
:10013000852D0000852D0000852D0000852D0000F7
:10014000852D0000852D0000852D0000852D0000E7
:10015000852D0000852D0000852D0000852D0000D7
:10016000852D0000852D0000852D0000852D0000C7
:10017000852D0000852D0000852D0000852D0000B7
:10018000852D0000852D0000852D0000852D0000A7
:10019000852D0000852D0000852D0000852D000097
:1001A000852D0000852D0000852D0000852D000087
:1001B000852D0000852D0000852D0000852D000077
:1001C000852D0000852D0000852D0000852D000067
:1001D000852D0000852D0000852D0000852D000057
:1001E000852D0000852D0000852D0000852D000047
:1001F000852D0000852D0000852D0000852D000037
:08020000852D0000852D000092
:102EFC00FFF766FFFFF744FF00F07AFAFFF756FF83
:102F0C0000F028FAFFF7FEFDFFF7B8FEFFF732FEE0
:042F1C00FCE7FEE7E9
:102D700081B01CF8019B0BF8019BBBEB0A0FF8D14B
:042D800001B07047E7
:102D340081B04FF000094FF0000CBDEB0A0F04DC2A
:102D4400BDEB0B0F01DBD446EA464BF8049BBBEB0F
:102D54000A0FFAD1BCEB0A0F05DDE246D9F800B040
:0A2D64000BF1040BF1E701B070471A
:102B100081B0CDF800E0002200210020FFF724FF63
:102B2000002201210020FFF71FFF002202210020C8
:102B3000FFF71AFF012206210020FFF715FF0122EF
:102B400007210020FFF710FF0C4801460020FFF787
:102B5000F3FE42F280512020FFF728FF40F6FE07E7
:102B6000C0F23D0700BF00BF7F1EFDD100BF00BF08
:102B700000BFDDF800E001B0704700BF6C2C000022
:1029680081B0CDF800E05FFA81FA5FFA82FB0FE0F0
:102978005FFA8BF15FFA8AF0FFF784FA0DE05FFAED
:102988008BF15FFA8AF0FFF745FB06E0012004E0CF
:102998000028EDD00128F2D0F8E7DDF800E001B01A
:0229A800704776
:101E8C0081B0CDF800E091E0012904D110215A482D
:101E9C00FFF7C6FC03E010215748FFF707FDA5E04C
:101EAC00012904D101215448FFF7BAFC03E00121B8
:101EBC005148FFF7FBFC99E0012904D101214F485F
:101ECC00FFF7AEFC03E001214C48FFF7EFFC8DE07F
:101EDC00012904D104214A48FFF7A2FC03E00421A4
:101EEC004748FFF7E3FC81E0012904D12021444855
:101EFC00FFF796FC03E020214148FFF7D7FC75E083
:101F0C00012904D110213E48FFF78AFC03E010217F
:101F1C003B48FFF7CBFC69E0012904D1012139488A
:101F2C00FFF77EFC03E001213648FFF7BFFC5DE0C4
:101F3C00012904D110213448FFF772FC03E0102171
:101F4C003148FFF7B3FC51E0012904D140212F485F
:101F5C00FFF766FC03E040212C48FFF7A7FC45E0A7
:101F6C00012904D180212948FFF75AFC03E0802184
:101F7C002648FFF79BFC39E0012904D104211F48B6
:101F8C00FFF74EFC03E004211C48FFF78FFC2DE00B
:101F9C00012904D108211948FFF742FC03E008216C
:101FAC001648FFF783FC21E0012020E000283FF4D5
:101FBC006BAF01283FF474AF02283FF47DAF0328C8
:101FCC003FF486AF04283FF48FAF05283FF498AF59
:101FDC0006283FF4A1AF0728AAD00828B4D00928B6
:101FEC00BED00A28C8D00B28D2D0DDE70020DDF8FF
:101FFC0000E001B0704700BF00C0054000900540F4
:10200C000080054000B0054000D0054000A0054010
:10182C0081B0CDF800E0002440F240031BB240F23E
:10183C00001212B21A4393B2002210B4FFF76AFCE2
:0A184C0001B0DDF800E001B07047C4
:1011200082B0CDF800E05FFA81F8D5B29FB29DF8A9
:101130000830F54C00EA0404A1462046FFF7C2F847
:10114000F24CA54208D109F580666FEA0805EDB2B8
:1011500034682C40346008E0ED4CA54205D109F517
:1011600080652C6844EA08042C6040F2010407EA18
:101170000404A4B234B109F5A2652C6844EA080459
:101180002C6007E009F5A2666FEA0805EDB2346845
:101190002C40346040F2020407EA0404A4B234B1E3
:1011A00009F214552C6844EA08042C6007E009F29F
:1011B00014566FEA0805EDB234682C40346040F2F2
:1011C000080407EA0404A4B234B109F20C552C68EF
:1011D00044EA08042C6007E009F20C566FEA08059F
:1011E000EDB234682C40346040F2100407EA040485
:1011F000A4B234B109F5A0652C6844EA08042C6057
:1012000007E009F5A0666FEA0805EDB234682C40E6
:10121000346040F2200407EA0404A4B234B109F2B5
:1012200004552C6844EA08042C6007E009F20456CF
:101230006FEA0805EDB234682C40346040F2400497
:1012400007EA0404A4B234B109F5A1652C6844EAA4
:1012500008042C6007E009F5A1666FEA0805EDB205
:1012600034682C40346041F2000407EA0404A4B25C
:10127000012C13D042F2000407EA0404A4B2012CAA
:101280000CD044F2000407EA0404A4B2012C05D0F7
:10129000DEB24B46B8B25FFA88F53CE0002000268B
:1012A000DAB2BBB207465FFA88F04946082E13D27D
:1012B00020FA06F4E4B204F00104E4B24CB1750083
:1012C0002DB2032424B2AC4024B247EA04052F46D1
:1012D000FFE7761CF6B2E9E701F6C476FD43346811
:1012E0002C40346001F23C56C543EDB234682C40CA
:1012F000346001F5A166C543EDB234682C4034601A
:1013000001F20456C543EDB234682C403460C5B2D6
:1013100098B20B46D6B2002141F2000400EA040460
:10132000A4B23CB300220F46E9B2082A13D221FA34
:1013300002F4E4B204F00104E4B24CB155002DB261
:10134000012424B2AC4024B247EA04052F46FFE74B
:10135000521CD2B2E9E703F6C4752C683C432C60FA
:1013600003F5A1652C680C432C603D461F4683B2F3
:10137000C8B203E01F4683B2E8B20D4642F2000451
:1013800003EA0404A4B26CB30022A8463946082A32
:1013900013D220FA02F4E4B204F00104E4B24CB136
:1013A00055002DB2032424B2AC4024B248EA04050F
:1013B000A846FFE7521CD2B2E9E701F6C4752C68D3
:1013C00044EA08042C6001F23C552C6804432C606C
:1013D00001F5A1652C6804432C60F7B20E46C2B239
:1013E00098B205E00197C2B298B2F7B2A846019E42
:1013F00044F2000400EA0404A4B284B30023D1B28E
:10140000082B14D221FA03F4E4B204F00104E4B28C
:1014100054B15D002DB2032424B2AC4024B248EA9A
:10142000040422469046FFE75B1CDBB2E8E706F6C1
:10143000C4752C6844EA08042C6006F23C552C68FC
:101440000C432C6006F5A1652C680C432C6006F259
:1014500004552C680C432C60FBB2324602E0D1B23A
:101460003246FBB240F2800400EA0404A4B274B134
:1014700040F2400400EA0404A4B22CB102F5A365D2
:101480002C680C432C6001E00120FAE006E002F534
:10149000A366CD43EDB234682C40346040F20014B2
:1014A00000EA0404A4B22CB102F21C552C680C43CF
:1014B0002C6006E002F21C56CD43EDB234682C409D
:1014C000346040F2002400EA0404A4B2002C3AD0B4
:1014D000104CA24240F2000500D001250E4CA24261
:1014E00040F2000400D0012425400C4CA24240F2FE
:1014F000000400D001242540094CA24240F200041F
:1015000000D0012425400DE000F0FFFF00000000A6
:101510000100000000C0054000B0054000900540FB
:1015200000100640594CA24240F2000400D00124B1
:1015300005EA04040CB10120A3E002F5A5652C68BE
:101540000C432C602AE0524CA24240F2000500D12C
:101550000125504CA24240F2000400D10124254351
:101560004D4CA24240F2000400D1012425434B4CD3
:10157000A24240F2000400D101242543434CA24280
:1015800040F2000400D1012445EA040434B102F51C
:10159000A566CD43EDB234682C40346040F60004BB
:1015A00000EA0404A4B22CB102F5A6652C680C4331
:1015B0002C6006E002F5A666CD43EDB234682C40FF
:1015C000346040F2004400EA0404A4B22CB102F5F5
:1015D00084652C680C432C6006E002F58466CD43DC
:1015E000EDB234682C4034600BB9002049E00F2B79
:1015F00001D9012045E0002700208DF80430C3B256
:1016000010469DF80420082B12D221FA03F4E4B20C
:1016100004F00104E4B244B19D002DB24FF00F0478
:10162000AC4047EA04052F46FFE75B1CDBB2EAE764
:1016300000F22C56FD4334682C4034600026002311
:101640008DF80430CBB29DF80410082913D223FA88
:1016500001F4E4B204F00104E4B24CB1D5B28C0060
:1016600024B205FA04F446EA040425462E46FFE7B0
:10167000491CC9B2E9E700F22C552C6834432C60B0
:101680000020DDF800E002B0704700BF00500640C7
:1016900000C0054000B00540009005400010064025
:1002C40081B0664900EA010108467DE06449096895
:1002D40041F0010262490A60BEE06149096841F0E7
:1002E40002025F490A60B7E05D49096841F004020F
:1002F4005B490A60B0E05A49096841F0080258496C
:100304000A60A9E05649096841F0100254490A609C
:10031400A2E05349096841F0200251490A609BE078
:100324004F49096841F040024D490A6094E04C4944
:10033400096841F080024A490A608DE04849096829
:1003440041F4807246490A6086E04549096841F4EF
:10035400007243490A607FE04149096841F48062C0
:100364003F490A6078E03E49096841F400623C492B
:100374000A6071E03A49096841F4805238490A60D8
:100384006AE03749096841F4005235490A6063E07C
:100394003349096841F4804231490A605CE03049DC
:1003A400096841F400422E490A6055E02C49096865
:1003B40041F480322A490A604EE02949096841F42F
:1003C400003227490A6047E0264988423FF47EAF5D
:1003D400254988423FF481AF244988423FF484AFE1
:1003E400234988423FF487AF224988423FF48AAFC9
:1003F400214988423FF48DAF204988423FF490AFB1
:100404001F4988423FF493AF1E4988423FF496AF98
:100414001D4988423FF499AF1C4988423FF49CAF80
:100424001B4988423FF49FAF1A4988423FF4A2AF68
:10043400194988423FF4A5AF184988423FF4A8AF50
:10044400174988423FF4ABAF164988423FF4AEAF38
:10045400154988423FF4B1AF01B0704700F0FFFF87
:1004640008E60F40008005400090054000A00540CC
:1004740000B0054000C0054000D0054000E0054044
:1004840000F0054000000640001006400020064031
:100494000030064000400640005006400060064020
:0C04A400007006400080064000900640FA
:1018B80081B0CDF800E0002440F240031BB240F2B2
:1018C800001212B21A4393B2012210B4FFF724FC9B
:0A18D80001B0DDF800E001B0704738
:10201C0081B0CDF800E091E0012904D120215A488B
:10202C00FFF7FEFB03E020215748FFF73FFCA5E03C
:10203C00012904D102215448FFF7F2FB03E00221ED
:10204C005148FFF733FC99E0012904D120214F4876
:10205C00FFF7E6FB03E020214C48FFF727FC8DE05F
:10206C00012904D104214A48FFF7DAFB03E00421DB
:10207C004748FFF71BFC81E0012904D1202144488B
:10208C00FFF7CEFB03E020214148FFF70FFC75E082
:10209C00012904D110213E48FFF7C2FB03E01021B7
:1020AC003B48FFF703FC69E0012904D102213948C0
:1020BC00FFF7B6FB03E002213648FFF7F7FB5DE0C4
:1020CC00012904D140213348FFF7AAFB03E040214A
:1020DC003048FFF7EBFB51E0012904D110212E48C9
:1020EC00FFF79EFB03E010212B48FFF7DFFB45E0D9
:1020FC00012904D120212848FFF792FB03E020217D
:10210C002548FFF7D3FB39E0012904D104211F48EE
:10211C00FFF786FB03E004211C48FFF7C7FB2DE00B
:10212C00012904D108211948FFF77AFB03E00821A3
:10213C001648FFF7BBFB21E0012020E000283FF40C
:10214C006BAF01283FF474AF02283FF47DAF032836
:10215C003FF486AF04283FF48FAF05283FF498AFC7
:10216C0006283FF4A1AF0728AAD00828B4D0092824
:10217C00BED00A28C8D00B28D2D0DDE70020DDF86D
:10218C0000E001B0704700BF00C005400090054062
:0C219C000080054000B0054000A0054098
:1029380081B0CDF800E009E00846FFF737FC0AE06F
:102948000846FFF743FC06E0012004E00028F3D026
:0E2958000128F5D0F8E7DDF800E001B0704787
:1021B40081B0CDF800E0016808460449FFF74EFD00
:1021C4000020DDF800E001B0704700BFB43100002A
:101C600081B0CDF800E00A4601460348FFF75CF872
:0C1C7000DDF800E001B070470000024009
:100D280083B0CDF800E001920A46014601985C4B79
:100D3800994216D100245B4B1C60012464B25A4BC3
:100D48001C605A4C5A4B1C605A4C5B4B1C605B4CE9
:100D58005B4B1C605B4C5C4B1C605C4C5C4B1C60D4
:100D680065E15C4B994216D100245B4B1C60012461
:100D780064B25A4B1C605A4C4D4B1C60594C4E4B3C
:100D88001C60594C4E4B1C60584C4F4B1C60584CC7
:100D98004F4B1C604BE1574B994216D10024564BE0
:100DA8001C60012464B2554B1C60554C404B1C60C0
:100DB800544C414B1C60544C414B1C60534C424BAF
:100DC8001C60534C424B1C6031E1524B994216D186
:100DD8000024514B1C60012464B2504B1C60504CE1
:100DE800334B1C604F4C344B1C604F4C344B1C60D5
:100DF8004E4C354B1C604E4C354B1C6017E14D4B2F
:100E0800994216D100244C4B1C60012464B24B4B10
:100E18001C604B4C264B1C604A4C274B1C604A4CB0
:100E2800274B1C60494C284B1C60494C284B1C60C4
:100E3800FDE0484B994216D10024474B1C60012421
:100E480064B2464B1C60464C194B1C60454C1A4B0F
:100E58001C60454C1A4B1C60444C1B4B1C60444C9A
:100E68001B4B1C60E3E0434B994216D10024424BD4
:100E78001C60012464B2414B1C60414C0C4B1C604B
:100E8800404C0D4B1C60404C0D4B1C603F4C0E4BB6
:100E98001C603F4C0E4B1C60C9E03E4B99427BE006
:100EA800000002403C00002000C4FC43FFFFFFFF9D
:100EB800C000002081090000C4000020F1080000E3
:100EC800C8000020850B0000CC000020FFFFFFFFBA
:100ED800D0000020001002404000002004C4FC4361
:100EE800FFFFFFFF510A00000D090000C10A0000C2
:100EF800FFFFFFFF002002404400002008C4FC431D
:100F0800FFFFFFFF6D0A0000D90B0000DD0A00009B
:100F1800FFFFFFFF00300240480000200CC4FC43E4
:100F2800FFFFFFFF350A0000F50B0000890A0000EB
:100F3800FFFFFFFF00000C404C00002010C4FC43E2
:100F4800FFFFFFFFFD090000A10B0000A50A00003C
:100F5800FFFFFFFF00100C405000002014C4FC43AA
:100F6800FFFFFFFF190A0000BD0B0000F90A00008F
:100F7800FFFFFFFF00200C405400002018C4FC4372
:100F8800FFFFFFFFB9080000110C00004D0B000027
:100F9800FFFFFFFF00300C4016D10024414B1C60BE
:100FA800012464B2404B1C60404C414B1C60414CD6
:100FB800414B1C60414C424B1C60424C424B1C60F4
:100FC800424C434B1C6032E0424B994216D10024FC
:100FD800414B1C60012464B2404B1C60404C344BB4
:100FE8001C60404C344B1C603F4C354B1C603F4CE4
:100FF800354B1C603E4C364B1C6018E03D4B99420B
:1010080015D100243C4B1C60012464B23B4B1C608E
:101018003B4C274B1C603B4C274B1C603A4C284BE5
:101028001C603A4C284B1C60394C294B1C600192BF
:101038000291FFF7F1F80299019A01F220041023B6
:101048002360344B9A4207D106260D1D01242B68D4
:1010580064F304132B6006E014260D1D00242B688E
:1010680064F304132B60FFF71FFA40F2E83300FB28
:1010780003F506FB02F4B5FBF4F318466343EB1AD9
:101088000BB9401EFFE77F2801D97F20FFE7012821
:1010980001D20120FFE701F20C031860DDF800E03F
:1010A80003B07047580000201CC4FC43FFFFFFFF3B
:1010B800C0000020D5080000C4000020610C00001A
:1010C800C8000020690B0000CC000020FFFFFFFFD4
:1010D800D000002000800B405C00002020C4FC43AE
:1010E800FFFFFFFF290900007D0C0000150B000021
:1010F800FFFFFFFF00900B406000002024C4FC436A
:10110800FFFFFFFF450900002D0C0000310B000018
:08111800FFFFFFFFD0CF320002
:1002200081B0CDF800E040F2000B82460AF1D8011F
:1002300009788B4539D20C210BFB01F10AEB010146
:100240008C460CF108010978A9B90CF1080109786C
:10025000CCB20CF1060109888BB20CF104010978CB
:10026000CAB2DCF800100846D1B2002210B400F087
:1002700057FF01B014E00CF108010978CCB20CF181
:10028000060109888BB20CF104010978CAB2DCF8C6
:1002900000100846D1B20F2210B400F041FF01B0A7
:1002A0000BF1010B5FFA8BFBC0E7DDF800E001B05A
:0202B000704795
:0C04B00001480068704700BF9400002065
:1021D40081B0CDF800E0016808460449FFF73EFDF0
:1021E4000020DDF800E001B0704700BFB43100000A
:1029AC0081B0CDF800E011E00846FFF7EFF916E032
:1029BC000846FFF713FD12E00846FFF7F1FC0EE0A6
:1029CC000846FFF729FD0AE0012008E00028EBD0BB
:1029DC000128EDD02028EFD03028F1D0F4E7DDF835
:0629EC0000E001B070479D
:101D980081B0CDF800E0FFF7A1FD044A04490A60CC
:101DA8000020DDF800E001B0704700BF1D1D0000F5
:041DB80064000020A3
:1018E40082B0CDF800E00346214A22490A60224A28
:1018F40022490A60224A23490A60234A23490A608A
:1019040001932348FEF78AFC019B012252B221492C
:101914000A6000BF00BF00BFFFF7D2FEFEF7C6FD9E
:1019240040F2E83100FB01F210461901914205D959
:10193400012252B218490A605A0804E0002252B245
:1019440015490A601A46C100B1FBF2F1491C4B0863
:101954009A0912490A6003F03F0211490A606022A1
:1019640010490A60FFF79AFEDDF800E002B0704704
:101974001D1D0000D4000020FFFFFFFFD800002041
:10198400FFFFFFFFDC000020FFFFFFFFE00000205F
:10199400FC2F000014C3FC4314062242241001400F
:0819A400281001402C10014045
:1016C40081B0002149B20448016004480160044823
:1016D400016001B0704700BF00062242200622428A
:0416E4002406224274
:1016A00081B0012149B20448016004480160044846
:1016B000016001B0704700BF0006224220062242AE
:0416C0002406224298
:1023E80081B0CDF800E0FFF7DDFA044A04490A603D
:1023F8000020DDF800E001B0704700BFE51C0000D8
:04240800640000204C
:1019AC0082B0CDF800E00346214A22490A60224A5F
:1019BC0022490A60224A23490A60234A23490A60C1
:1019CC0001932348FEF726FC019B012252B22149C8
:1019DC000A6000BF00BF00BFFFF76AF9FEF762FDA7
:1019EC0040F2E83100FB01F210461901914205D991
:1019FC00012252B218490A605A0804E0002252B27D
:101A0C0015490A601A46C100B1FBF2F1491C4B089A
:101A1C009A0912490A6003F03F0211490A606022D8
:101A2C0010490A60FFF732F9DDF800E002B07047A8
:101A3C00E51C0000D4000020FFFFFFFFD8000020B1
:101A4C00FFFFFFFFDC000020FFFFFFFFE000002096
:101A5C00202F00001CC3FC431406264224300140F6
:081A6C00283001402C3001403C
:100CBC0081B0002149B20448016004480160044835
:100CCC00016001B0704700BF000626422006264294
:040CDC002406264282
:100C980081B0012149B20448016004480160044858
:100CA800016001B0704700BF0006264220062642B8
:040CB80024062642A6
:1023AC0081B0CDF800E0FFF75FFB044A04490A60F6
:1023BC000020DDF800E001B0704700BFC91C000030
:0423CC006400002089
:101A740082B0CDF800E00346214A22490A60224A96
:101A840022490A60224A23490A60234A23490A60F8
:101A940001932348FEF7C2FB019B012252B2214964
:101AA4000A6000BF00BF00BFFFF72AF9FEF7FEFC83
:101AB40040F2E83100FB01F210461901914205D9C8
:101AC400012252B218490A605A0804E0002252B2B4
:101AD40015490A601A46C100B1FBF2F1491C4B08D2
:101AE4009A0912490A6003F03F0211490A60602210
:101AF40010490A60FFF7F2F8DDF800E002B0704721
:101B0400C91C0000D4000020FFFFFFFFD800002004
:101B1400FFFFFFFFDC000020FFFFFFFFE0000020CD
:101B2400D830000008C3FC4314061C4224E00040E3
:081B340028E000402CE0004015
:100D040081B0002149B204480160044801600448EC
:100D1400016001B0704700BF00061C4220061C425F
:040D240024061C4243
:100CE00081B0012149B20448016004480160044810
:100CF000016001B0704700BF00061C4220061C4284
:040D000024061C4267
:1024240081B0CDF800E0FFF7BFFA044A04490A601E
:102434000020DDF800E001B0704700BFE51C00009B
:042444006400002010
:102C880081B0CDF800E0212224492548FFF7B8FE9D
:102C980040F6FE57C0F227777F1EFDD100BF00BF68
:102CA80000BF00BF00BFFFF7A1FED72822D11D48F3
:102CB8000221FFF7E5FE042040F00200C0B240F018
:102CC8000100FFF715FF0A20FFF7D8FB0320FFF7E5
:102CD8000FFD0320FFF758FD402040F004000222BA
:102CE800C1B28020FFF78EFD03220021E020FFF70C
:102CF80071FD04E00C480221FFF7C2FEFEE740F632
:102D0800FE07C0F23D0700BF00BF7F1EFDD100BF18
:102D180000BF00BFDDF800E001B070475433000089
:0C2D28009032000021000020300000204C
:102A080081B0CDF800E00546134B1A70134B1C78C3
:102A1800134B1C700024134B1C700024124B1C70A9
:102A28000024124B1C700024114B1C700846FFF741
:102A380063FC2846FFF774FC01200E4C2468A0476D
:102A480001200D4C2468A04700200C4C2468A047A6
:102A5800DDF800E001B070473A000020380000209F
:102A680039000020900000203B0000209100002049
:102A780092000020840000207C00002080000020BC
:0C24780001490860704700BF907FB84227
:0C24540001490860704700BF807FB8425B
:0C24600001490860704700BF807FB24255
:0C23A00001490860704700BF887FB04210
:0C22440001490860704700BF947FB04261
:0C22500001490860704700BF907FB04259
:0C23880001490860704700BF807FB6422A
:0C23940001490860704700BF907FBA420A
:0C21A80001490860704700BF987FB442F6
:0C21F40001490860704700BF9C7FB442A6
:0C1E800001490860704700BF887FB24233
:0C1E0C0001490860704700BF8C7FB242A3
:0C240C0001490860704700BF947FB8428F
:0C24180001490860704700BF847FB84293
:0C23D00001490860704700BF947FB242D2
:0C23DC0001490860704700BF887FB042D4
:0C246C0001490860704700BF947FB04237
:0C24480001490860704700BF907FB0425F
:0C225C0001490860704700BF847FB64253
:0C22200001490860704700BF987FB6427B
:0C222C0001490860704700BF907FB44279
:0C22380001490860704700BF947FB44269
:0C22680001490860704700BF887FB24247
:0C237C0001490860704700BF8C7FB2422E
:10230000026806490A60011D0A6805490A6000F270
:1023100008010A6803490A60704700BF680000208E
:082320006C0000207000002099
:1023280000F2300303F218010A680C490A6003F24C
:102338001C010A680A490A6002680A490A6000F230
:1023480008010A6808490A60011D0A6807490A6005
:1023580000F218010A6806490A60704774000020F4
:10236800780000207C0000208000002084000020ED
:0423780088000020B9
:1029F40081B0CDF800E00C20FFF73AFCDDF800E0F0
:042A040001B0704766
:1022740082B0CDF800E001A908701C490A781C4915
:102284000978914216D101AA117841F080011170A8
:102294000020184C2468A04701A902220846FFF731
:1022A400D9FA0120134C2468A04701A9491C0978D4
:1022B400C8B216E0FFF716FA01AA0F4909780123FC
:1022C400C8B211460122FFF717FA01AA0A49097890
:1022D4000023C8B211460122FFF72EFC01A9097898
:1022E400C8B2DDF800E002B0704700BF370000203C
:0C22F400390000207C0000203A0000208F
:1018580084B0CDF800E0ADF80C2001900291BDF8FD
:101868000C40BDF80C305B1EADF80C307CB1019B10
:101878001B78DCB2A0B2084C2468A047029B187001
:10188800029B5B1C0293019B5B1C0193E7E7DDF85D
:0C18980000E004B0704700BF8C0000208E
:1009BC0081B0054908600549096801B9FBE702499E
:1009CC00086801B0704700BF0880004088011042E1
:1009DC0081B0054908600549096801B9FBE702497E
:1009EC00086801B0704700BF0890004088011242AF
:10099C0081B0054908600549096801B9FBE70249BE
:1009AC00086801B0704700BF08A0004088011442DD
:1009600081B0054908600549096801B9FBE70249FA
:10097000086801B0704700BF08B000408801164207
:1016E80040F2000212B201210148017010B27047A5
:0416F8003600002098
:1016FC0085B0CDF800E0ADF80C200A468DF810301E
:10170C0040F20004ADF808401146424C247854B124
:10171C0001910021404C2468A0470199FFF78EFAF3
:10172C0000253C4C2570BDF80C40012C0DD10C78DB
:10173C000721E0B2394C2468A047BDF908400443A6
:10174C00ADF80840FFF77AFA57E0BDF80C40022CD0
:10175C001CD10C7801910321E0B2304C2468A047D5
:10176C000199BDF908400443ADF808404C1C2046D3
:10177C00FFF764FA04780521E0B2284C2468A047EE
:10178C00BDF908400443ADF8084036E00C780191EF
:10179C000321E0B2214C2468A0470199BDF908400F
:1017AC000443ADF808404B1CFFF748FA1946BDF846
:1017BC000C40641EA4B2ADF80C40012C12D90C786C
:1017CC0001910121E0B2154C2468A0470199BDF9A3
:1017DC0008400443ADF808404C1C2346FFF72EFA92
:1017EC001946E4E70C780521E0B20C4C2468A047BC
:1017FC00BDF908400443ADF808409DF81040012C99
:10180C0002D10125034C2570BDF90800DDF800E07C
:10181C0005B0704736000020680000206C000020E6
:1009800081B0CDF800E0CAB2C1B20348FFF792FCD3
:0C099000DDF800E001B0704700000240FC
:1002B40081B04B009BB213439BB2036001B0704703
:100A500081B0CDF800E0CAB2C1B20348FFF72AFC6A
:0C0A6000DDF800E001B07047001002401B
:100A6C0081B0CDF800E0CAB2C1B20348FFF71CFC5C
:0C0A7C00DDF800E001B0704700200240EF
:100A340081B0CDF800E0CAB2C1B20348FFF738FC78
:0C0A4400DDF800E001B070470030024017
:1009FC0081B0CDF800E0CAB2C1B20348FFF754FC95
:0C0A0C00DDF800E001B0704700000C4075
:100A180081B0CDF800E0CAB2C1B20348FFF746FC86
:0C0A2800DDF800E001B0704700100C4049
:1008B80081B0CDF800E0CAB2C1B20348FFF7F6FC38
:0C08C800DDF800E001B0704700200C409B
:1008D40081B0CDF800E0CAB2C1B20348FFF7E8FC2A
:0C08E400DDF800E001B0704700300C406F
:1009280081B0CDF800E0CAB2C1B20348FFF7BEFCFF
:0C093800DDF800E001B0704700800B40CB
:1009440081B0CDF800E0CAB2C1B20348FFF7B0FCF1
:0C095400DDF800E001B0704700900B409F
:1008F00081B0CDF800E0CAB2C1B20348FFF7DEFD17
:0C090000DDF800E001B07047000002408C
:1004BC0082B0CDF800E04FF000045D4B984205D1BE
:1004CC005C4B1D685C4B1B6801935BE05B4B98427B
:1004DC0006D15B4B1C685B4B1B680193254651E0B6
:1004EC00594B984206D1594B1C68594B1B680193C8
:1004FC00234646E0574B984206D1574B1C68574B46
:10050C001B68019323463CE0554B984206D1554B52
:10051C001C68554B1B680193234632E0534B9842A1
:10052C0006D1534B1C68534B1B680193234628E0A0
:10053C00514B984206D1514B1C68514B1B6801938F
:10054C0023461EE04F4B984206D14F4B1C684F4B35
:10055C001B680193234614E04D4B984206D14D4B3A
:10056C001C684D4B1B68019323460AE04B4B984289
:10057C0006D14B4B1C684B4B1B680193234600E088
:10058C0023461D4600F208031960072A05D0032AEA
:10059C0003D004462846D1B215E02E46D1B202460D
:1005AC002846131D1C68C4F380135BB148B126B9EF
:1005BC000420019CA047012036E0731E1C462646F1
:1005CC00FFE7EEE71446231D1960FFF717FEFFF750
:1005DC0015FEFFF713FE024625462B1D1C68C4F3BF
:1005EC0000034BB138B122B90420019CA047012073
:1005FC001AE0521EFFE7F0E72B1D1C68C4F3400302
:10060C006BB1012902D0032900D008E02B1D1C6816
:10061C00C4F300131BB92C1D40F2040323602B1DE3
:10062C001C68C4F34003D8B2DDF800E002B0704798
:10063C00000002403C000020980000200010024006
:10064C00400000209C0000200020024044000020BC
:10065C00A00000200030024048000020A400002030
:10066C0000000C404C000020A800002000100C40A2
:10067C0050000020AC00002000200C405400002052
:10068C00B000002000300C4058000020B4000020C6
:10069C0000800B405C000020B800002000900B4054
:0806AC0060000020BC000020EA
:1002080040F22607C0F200077F1EFDD100BF00BFE5
:0802180000BF00BF00BF7047EA
:10090C0081B0CDF800E0CAB2C1B20348FFF7D0FD08
:0C091C00DDF800E001B070470010024060
:100BD80081B0CDF800E0CAB2C1B20348FFF76AFCA1
:0C0BE800DDF800E001B070470020024082
:100BF40081B0CDF800E0CAB2C1B20348FFF75CFC93
:0C0C0400DDF800E001B070470030024055
:100BA00081B0CDF800E0CAB2C1B20348FFF786FCBD
:0C0BB000DDF800E001B0704700000C40D0
:100BBC0081B0CDF800E0CAB2C1B20348FFF778FCAF
:0C0BCC00DDF800E001B0704700100C40A4
:100C100081B0CDF800E0CAB2C1B20348FFF74EFC84
:0C0C2000DDF800E001B0704700200C403F
:100C600081B0CDF800E0CAB2C1B20348FFF726FC5C
:0C0C7000DDF800E001B0704700300C40DF
:100C7C0081B0CDF800E0CAB2C1B20348FFF718FC4E
:0C0C8C00DDF800E001B0704700800B4074
:100C2C0081B0CDF800E0CAB2C1B20348FFF740FC76
:0C0C3C00DDF800E001B0704700900B40B4
:100C480049F63E47C0F200077F1EFDD100BF00BF36
:080C580000BF00BF00BF7047A0
:101B3C0085B0CDF800E0ADF80C200A468DF81030D9
:101B4C0040F20004ADF8084011463F4C247854B1E3
:101B5C00019101213D4C2468A0470199FFF76EF8D3
:101B6C000025394C2570BDF80C40012C0CD10846D1
:101B7C000721374C2468A047BDF908400443ADF851
:101B8C000840FFF75BF851E0BDF80C40022C19D16E
:101B9C00019108460B212E4C2468A0470199BDF9F0
:101BAC0008400443ADF808404C1C2046FFF746F8AB
:101BBC000521274C2468A047BDF908400443ADF823
:101BCC00084033E0019108460B21214C2468A047C2
:101BDC000199BDF908400443ADF808404B1CFFF7D0
:101BEC002DF81946BDF80C40641EA4B2ADF80C409B
:101BFC00012C11D9019108460921154C2468A047E4
:101C0C000199BDF908400443ADF808404C1C23462B
:101C1C00FFF714F81946E5E7084605210C4C246833
:101C2C00A047BDF908400443ADF808409DF81040AA
:101C3C00012C02D10125044C2570BDF90800DDF8FA
:101C4C0000E005B0704700BF36000020680000209F
:041C5C0070000020F4
:100B840081B0CDF800E0CAB201460348FFF790FDFA
:0C0B9400DDF800E001B0704700000240F6
:1006B40084B0CDF800E0044603914FF000030293A8
:1006C4005E4B9C4206D15E4B1B6802935D4B1B68DC
:1006D400019358E05C4B9C4206D15C4B1B6802932F
:1006E4005B4B1B6801934EE05A4B9C4206D15A4B1C
:1006F4001B680293594B1B68019344E0584B9C427E
:1007040006D1584B1B680293574B1B6801933AE080
:10071400564B9C4206D1564B1B680293554B1B68A3
:10072400019330E0544B9C4206D1544B1B68029316
:10073400534B1B68019326E0524B9C4206D1524B0B
:100744001B680293514B1B6801931CE0504B9C4265
:1007540006D1504B1B6802934F4B1B68019312E068
:100764004E4B9C4206D14E4B1B6802934D4B1B686B
:10077400019308E04C4B9C4205D14C4B1B680293FF
:100784004B4B1B680193072A03D00B2A01D0204648
:1007940017E0029E2046D1B2031D1C68C4F38013E7
:1007A40073B1029B4BB126B90320019CA0470120E1
:1007B40040E0731E1A46134600E033461E46EBE73C
:1007C400CAB2031D1A60FFF71DFDFFF71BFDFFF7FB
:1007D40019FD029E031D1C68C4F3000363B1029B50
:1007E4003BB126B90320019CA047012022E0711EE1
:1007F40000E031460E46EDE7031D1C68C4F34003D8
:1008040073B1092A02D00B2A00D008E0031D1C682A
:10081400C4F300131BB9041D40F20403236004E075
:1008240000F208031C68039B1C70031D1C68C4F3BE
:100834004003D8B2DDF800E004B070470000024085
:100844003C000020980000200010024040000020DE
:100854009C0000200020024044000020A000002052
:100864000030024048000020A400002000000C409A
:100874004C000020A800002000100C405000002074
:10088400AC00002000200C4054000020B0000020E8
:1008940000300C4058000020B400002000800B40C1
:1008A4005C000020B800002000900B406000002095
:0408B400BC00002064
:100AC00081B0CDF800E0CAB201460348FFF7F2FD5D
:0C0AD000DDF800E001B0704700100240AB
:100ADC0081B0CDF800E0CAB201460348FFF7E4FD4F
:0C0AEC00DDF800E001B07047002002407F
:100A880081B0CDF800E0CAB201460348FFF70EFE78
:0C0A9800DDF800E001B0704700300240C3
:100AA40081B0CDF800E0CAB201460348FFF700FE6A
:0C0AB400DDF800E001B0704700000C40CD
:100AF80081B0CDF800E0CAB201460348FFF7D6FD41
:0C0B0800DDF800E001B0704700100C4068
:100B4C0081B0CDF800E0CAB201460348FFF7ACFD16
:0C0B5C00DDF800E001B0704700200C4004
:100B680081B0CDF800E0CAB201460348FFF79EFD08
:0C0B7800DDF800E001B0704700300C40D8
:100B140081B0CDF800E0CAB201460348FFF7C8FD32
:0C0B2400DDF800E001B0704700800B40DD
:100B300081B0CDF800E0CAB201460348FFF7BAFD24
:0C0B4000DDF800E001B0704700900B40B1
:102A880083B0CDF800E0024610460D228DF80820EC
:102A98000A228DF809201FE0FFF7AEFB23E0027839
:102AA8002AB10190FFF7A8FB0198401CF7E71AE04C
:102AB80002782AB10190FFF79FFB0198401CF7E7C5
:102AC80002AA1046FFF798FB0DF109021046FFF71E
:102AD80093FB08E0062007E00029DDD00129DED0BD
:102AE8000229E5D0F6E70020DDF800E003B07047E2
:1022000081B0CDF800E00178CCB2A0B2034C2468D4
:10221000A0470020DDF800E001B070476400002016
:1018A40081B0CDF800E0FFF787F8DDF800E001B083
:0218B40070477B
:101C7C0081B0CDF800E0FEF7ABFEDDF800E001B07E
:021C8C0070479F
:101D4C0081B0CDF800E0FEF723FEDDF800E001B035
:021D5C007047CE
:101D380081B0CDF800E0FEF70FFEDDF800E001B05D
:021D48007047E2
:101D600081B00449096801B1FBE70349086001B08B
:0C1D7000704700BF1403184200C0004080
:101D7C0081B00449096801B1FBE70349086001B06F
:0C1D8C00704700BF14031A4200D0004052
:101CC80081B00449096801B1FBE70349086001B024
:0C1CD800704700BF14031C4200E00040F5
:101CAC0081B00449096801B1FBE70349086001B040
:0C1CBC00704700BF14031E4200F00040FF
:101C900081B00449096801B1FBE70349086001B05C
:0C1CA000704700BF140320420000014008
:101D1C0081B00449096801B1FBE70349086001B0CF
:0C1D2C00704700BF140322420010014069
:101D000081B00449096801B1FBE70349086001B0EB
:0C1D1000704700BF140324420020014073
:101CE40081B00449096801B1FBE70349086001B008
:0C1CF400704700BF14032642003001407E
:102AF80081B0CDF800E000F00F010E20FFF788F953
:082B0800DDF800E001B07047A8
:101E180082B0CDF800E001AA1070521C1170124A6D
:101E28001378124A12789A420ED10020104C246876
:101E3800A04701AA114602220846FFF709FD012022
:101E48000B4C2468A0470AE0FFF74AFC01AB094A9B
:101E5800127819460023D0B20222FFF74BFCDDF8B6
:101E680000E002B0704700BF3700002039000020B2
:081E78007C0000203A0000206C
:1024840081B0CDF800E000F07F011020FFF7C2FC1E
:08249400DDF800E001B0704723
:1026F80082B0CDF800E0032801D9032300E0C3B27B
:102708008DF804301320FFF7B1FD9DF80430094A15
:1027180010704FF6FC7109B200EA01011170C9B2DC
:10272800194311701320FFF773FBDDF800E002B0C6
:08273800704700BF3B000020C8
:1027900082B0CDF800E0072801D9072400E0C4B2D8
:1027A0008DF804401320FFF765FD9DF804400A4BA7
:1027B00018704FF6E37109B200EA01011970A20026
:1027C00092B2C9B211431970C9B21320FFF724FBAA
:0C27D000DDF800E002B070473B00002084
:10280C0081B0CDF800E001F004031BB22BB1464BB4
:10281C001B7843F00404E4B204E0434B1B7803F050
:10282C00FB04E4B2404B1C7001F010031BB22BB143
:10283C003D4B1B7843F01004E4B204E03A4B1B7898
:10284C0003F0EF04E4B2384B1C7001F040031BB2F0
:10285C002BB1354B1B7843F04001C9B204E0324B2D
:10286C001B7803F0BF01C9B22F4B197002F00103A2
:10287C00DBB22BB12C4B1B7843F00101C9B204E045
:10288C00294B1B7803F0FE01C9B2274B197002F0DB
:10289C0002031BB22BB1244B1B7843F00201C9B2CB
:1028AC0004E0214B1B7803F0FD01C9B21E4B1970DB
:1028BC0000F008031BB22BB11B4B1B7843F0080133
:1028CC00C9B204E0184B1B7803F0F701C9B2164BE0
:1028DC00197000F020031BB22BB1134B1B7843F083
:1028EC002001C9B204E0104B1B7803F0DF01C9B220
:1028FC000D4B197000F080031BB22BB10A4B1B78E7
:10290C0043F08000C0B204E0074B1B7803F07F005B
:10291C00C0B2054B1870C3B2D9B21420FFF776FAC7
:0C292C00DDF800E001B0704791000020D1
:1027DC0081B0CDF800E000F0C004E4B201F01C03BD
:1027EC00DBB21C43E4B202F00303DBB244EA0303A2
:1027FC00D9B20D20FFF70AFBDDF800E001B07047FD
:102B800085B0CDF800E00DF10E00FFF7DFFC0DF190
:102B90000E00FFF783FC01A90DF10E00B0F9000053
:102BA000FFF74CFD01A8FFF781FD2A480121FFF73F
:102BB0006BFF01A80221FFF767FF01A90DF10E00CD
:102BC000801CB0F90000FFF739FD01A8FFF76EFD8A
:102BD00021480121FFF758FF01A80221FFF754FF08
:102BE00001A90DF10E00001DB0F90000FFF726FD50
:102BF00001A8FFF75BFD19480121FFF745FF01A878
:102C00000221FFF741FFFFF76DFD01A9FFF798FDD6
:102C100001A8FFF74BFD12480121FFF735FF01A87E
:102C20000121FFF731FF0F480221FFF72DFF0E486A
:102C30000221FFF729FF41F2FE17C0F27A0700BF19
:102C400000BF7F1EFDD100BF00BF00BFDDF800E068
:102C500005B070470000002004000020080000209C
:0C2C60000C0000201A0000201E000020C4
:10254C0087B0CDF800E006900DF10F02012111705B
:10255C0033490A7833490978914218D10DF10F02A9
:10256C00117841F08001117000202F4C2468A04795
:10257C0002AA0DF10F01084611460722FFF766F972
:10258C000120294C2468A0470125E8B219E000205D
:10259C008DF80400FFF7A2F80DF10F02234909781A
:1025AC000123C8B211460122FFF7A2F802AA1F4963
:1025BC0009780023C8B211460622FFF7B9FA9DF834
:1025CC000400C1B202AC611809780A0292B2411C33
:1025DC0009B2611809780A4306990A8006998B1C7E
:1025EC00811C09B2611809780A0292B2C11C09B2A5
:1025FC006118097842EA0101198006990B1D011D29
:10260C0009B2611809780A0292B2411D09B2611827
:10261C00097842EA01011980DDF800E007B0704743
:10262C0037000020390000207C0000203A000020F8
:10249C00B0F9001000EE901AF8EEE00A4FF072510D
:1024AC0000EE101A60EE800A244900EE101AC0EEFD
:1024BC00800AB0EE080A20EE800ABDEE400A10EE4B
:1024CC00101A09B20180821C811CB1F9001000EEB7
:1024DC00901AF8EEE00A4FF0725100EE101A60EE0E
:1024EC00800A164900EE101AC0EE800AB0EE080AF7
:1024FC0020EE800ABDEE400A10EE101A09B21180CF
:10250C00021D011DB1F9001000EE901AF8EEE00A60
:10251C004FF0725100EE101A60EE800A074900EE7F
:10252C00101AC0EE800AB0EE080A20EE800ABDEE4A
:10253C00400A10EE101A09B2118070470000B04228
:10263C0081B0CDF800E00E46002183B2002805DA07
:10264C000121404280B280B28FB201E098B28FB2C9
:10265C003146FFF7ADFB06213446B8B2002908D944
:10266C0063184A1E92B2A21812781A70491E89B2C7
:10267C00F4E72022227070B1002081B2204642186B
:10268C001278202A02D1491C89B2F8E74A1E92B26C
:0E269C0083182D221A70DDF800E001B070479F
:101DBC0081B00A4681B200208DB21146052805D2A9
:101DCC000B1820221A70401CC0B2F7E70B18002227
:101DDC001A70401EC0B20C180A23B5FBF3F203FBB9
:101DEC00125292B2303222700A22B5FBF2F292B247
:101DFC0095B202B902E0401EC0B2ECE701B07047E8
:1026AC0081B0014640F200052DB208460C460B469F
:1026BC00FFE70178202901D105B904E001252DB2ED
:1026CC0001782170641C0246401C11780029F0D15D
:0626DC00184601B0704732
:1026E40081B0CDF800E01220FFF7C2FDDDF800E074
:0426F40001B070477A
:1027400081B00A460021C5B21046032905D24318BC
:1027500020221A70491CC9B2F7E7431800221A70E8
:10276000491EC9B244180A23B5FBF3F203FB125207
:10277000D2B2303222700A22B5FBF2F2D2B2D5B216
:0E27800002B902E0491EC9B2ECE701B0704791
:102DCC0081B0CDF800E0344A344B354C354D364E9D
:102DDC004FF03011354801600021354801606FF02B
:102DEC00010003EA000133480160C3F3C00018B9C5
:102DFC00FFF738FFFFF736FFC3F3000018B10121CE
:102E0C0049B22D4801602D48864203D92C492748E8
:102E1C00016021E02B48864203D92B4923480160ED
:102E2C001AE04CF25030864203D928491F48016001
:102E3C0012E047F23050864203D925491B48016005
:102E4C000AE0B6F57A5F03D922491848016003E01D
:102E5C004FF03011154801601F4804601F48056091
:102E6C006FF0805002EA000111480160012149B263
:102E7C001B4801601B48016002F0805038B11A48B1
:102E8C00006800B9FBE7012149B218480160DDF880
:102E9C0000E001B0704700BF0300003010000000DC
:102EAC001E00800000000000C0D40100C0E00F40F4
:102EBC00B0E00F407CE00F40800FFC43A086010087
:102ECC00960130008038010055013000D3003000ED
:102EDC00B20030007100300060E10F4064E10F403F
:102EEC007C16FC437816FC43002DFC437016FC4307
:102C700041F67E27C0F206077F1EFDD100BF00BFD0
:082C800000BF00BF00BF704758
:102DB80081B002490248016001B07047C0D40100E7
:042DC8009400002053
:082D840081B0FEE701B07047C9
:102D8C0081B04EF68850CEF20000016841F470011B
:102D9C00016000BF00BF00BF00BFF1EE100A40F49D
:0A2DAC004000E1EE100A01B070478C
:1033600000B5DFF824B0DFF824A0DFF824C0FFF7B1
:10337000FFFCDFF820B0DFF820A0DFF820C0FFF767
:10338000F7FC00BD704700BF00000020390000209E
:10339000F03200003C000020640000202C330000CC
:1033FC0000B5DFF810B0DFF810A0FFF795FC00BDAA
:0C340C00704700BF00000020E40000201A
:042C6C00A08601003D
:102F200000A00540100040050100000000A0054081
:102F3000200040050100000000000000000000002B
:102F40000000000000000000000000000000000081
:102F50000000000000000000000000000000000071
:102F60000000000000000000000000000000000061
:102F70000000000000000000000000000000000051
:102F80000000000000000000000000000000000041
:102F90000000000000000000000000000000000031
:102FA0000000000000000000000000000000000021
:102FB0000000000000000000000000000000000011
:102FC0000000000000000000000000000000000001
:102FD00000000000000000000000000000000000F1
:102FE00000000000000000000000000000000000E1
:0C2FF000000000000000000002000000D3
:102FFC0000F00540400040050100000000F00540D5
:10300C0080004005010000000000000000000000EE
:10301C0000000000000000000000000000000000A4
:10302C000000000000000000000000000000000094
:10303C000000000000000000000000000000000084
:10304C000000000000000000000000000000000074
:10305C000000000000000000000000000000000064
:10306C000000000000000000000000000000000054
:10307C000000000000000000000000000000000044
:10308C000000000000000000000000000000000034
:10309C000000000000000000000000000000000024
:1030AC000000000000000000000000000000000014
:1030BC000000000000000000000000000000000004
:0C30CC00000000000000000002000000F6
:1030D80000B00540100040050100000000B00540A8
:1030E8002000400501000000000000000000000072
:1030F80000000000000000000000000000000000C8
:1031080000000000000000000000000000000000B7
:1031180000000000000000000000000000000000A7
:103128000000000000000000000000000000000097
:103138000000000000000000000000000000000087
:103148000000000000000000000000000000000077
:103158000000000000000000000000000000000067
:103168000000000000000000000000000000000057
:103178000000000000000000000000000000000047
:103188000000000000000000000000000000000037
:103198000000000000000000000000000000000027
:0C31A80000000000000000000200000019
:1031B4000090054004004005020000000090054016
:1031C40008000805020000000000000000000000E4
:1031D40000000000000000000000000000000000EB
:1031E40000000000000000000000000000000000DB
:1031F40000000000000000000000000000000000CB
:1032040000000000000000000000000000000000BA
:1032140000000000000000000000000000000000AA
:10322400000000000000000000000000000000009A
:10323400000000000000000000000000000000008A
:10324400000000000000000000000000000000007A
:10325400000000000000000000000000000000006A
:10326400000000000000000000000000000000005A
:10327400000000000000000000000000000000004A
:0C3284000000000000000000020000003C
:10329000792400005524000061240000A1230000CF
:1032A00045220000512200008923000095230000E0
:1032B000A9210000F5210000811E00000D1E000064
:1032C000FFFFFFFFFFFFFFFFFFFFFFFFFFFFFFFF0E
:1032D000FFFFFFFFFFFFFFFFFFFFFFFFFFFFFFFFFE
:1032E000FFFFFFFFFFFFFFFFFFFFFFFFFFFFFFFFEE
:0432F000783A200008
:0432F400793A200003
:0432F8007A3A2000FE
:0E32FC0054656D70657261747572653A2000DC
:04330A0020B04300AC
:10330E002B2B004779726F20322070726573656EB9
:02331E00740039
:063320004572726F72009D
:023326000002A3
:0133280001A3
:04332C00000000009D
:043330000000000099
:043334000000000095
:043338000000000091
:04333C00000000008D
:043340000000000089
:043344000000000085
:043348000000000081
:04334C00000000007D
:043350000000000079
:0C33540081090000F1080000850B00005A
:00000001FF
