:1000000005EF15F00000000000EF00F00000000018
:0A0010000000000000000000F3D71C
:0E001C000001E2B102D08B9801D08B88120057
:0E002A000001E2B102D08B9601D08B8612004D
:0E0038000001E2B102D08D9601D08D8612003B
:0E0046000001E2B102D0899401D08984120039
:0E0054000001E2B102D08B9C01D08B8C120017
:0E0062000001E2B102D08B9401D08B84120019
:0E0070000001E2B102D08B9A01D08B8A1200FF
:0E007E000001E2B102D08B9E01D08B8E1200E9
:0E008C000001E2B102D08A9201D08A821200F5
:0E009A000001E2B102D08D9401D08D841200DD
:0E00A8000001E2B102D08F9201D08F821200CF
:0E00B6000001E2B102D08F9401D08F841200BD
:0E00C4000001E2B102D08B9801D08B881200AF
:0E00D2000001E2B102D08B9601D08B861200A5
:0E00E0000001E2B102D08A9401D08A8412009D
:0E00EE000001E2B102D08B9801D08B88120085
:0E00FC000001E2B102D08B9601D08B8612007B
:0E010A000001E2B102D08F9001D08F80120070
:0E0118000001E2B102D08B9A01D08B8A120056
:0E0126000001E2B102D08B9801D08B8812004C
:0E0134000001E2B102D08B9801D08B8812003E
:0E0142000001E2B102D08B9601D08B86120034
:0E0150000001E2B102D08B9201D08B8212002E
:0E015E000001E2B102D08B9A01D08B8A120010
:0E016C000001E2B102D08D9001D08D80120012
:10017A000F0121B302D00000FBD7E2C01CFF12001E
:0E018A00ACB202D00000FCD7E2C0ADFF120004
:0E0198000001E2B102D08B9001D08B801200EA
:0E01A6000001E2B102D0899001D089801200E0
:0E01B4000001E2B102D0899801D089881200C2
:0E01C2000001E2B102D0899201D089821200C0
:0E01D0000001E2B102D08B9601D08B861200A6
:0E01DE000001E2B102D08D9201D08D8212009C
:0E01EC000001E2B102D08B9801D08B88120086
:0E01FA000001E2B102D08B9E01D08B8E12006C
:0E0208000001E2B102D08A9001D08A8012007B
:0E0216000001E2B102D08B9601D08B8612005F
:0E0224000001E2B102D08B9C01D08B8C120045
:10023200C7B409D01F0EC514016E0150000A03E1B4
:0A024200010E006E01D0006A1200E8
:10024C00F250026EF29E0500FF6A0150FE6E0050E5
:08025C00FD6E02BEF28E1200DD
:1002640068B409D01F0E6614016E0150000A03E140
:0A027400010E006E01D0006A1200B6
:0A027E00000E80B2010E006E1200A7
:0A028800000E82BA010E006E120093
:0A029200000E82B6010E006E12008D
:0A029C00000E80B8010E006E120083
:0A02A600000E82B6010E006E120079
:0A02B000000E81B2010E006E120074
:0A02BA00000E82B8010E006E120063
:0A02C400000E82B8010E006E120059
:0A02CE00000E82BA010E006E12004D
:0A02D800000E82BE010E006E12003F
:0A02E200000E82B2010E006E120041
:0A02EC00000E84B0010E006E120037
:0C02F600000E0F0121B3010E006E12007B
:0A030200000E82BC010E006E120016
:0A030C00000E82B8010E006E120010
:10031600A19ADCC06AFF1AC0DDF01BC0DEF01CC06B
:10032600DFF01DC0E0F068A421D01A501B101C108D
:100336001D101BE00001DD51DE11DF11E0110EE1A1
:1003460033C0E1FF34C0E2FF040EE66E31C000F0B8
:1003560032C001F078DF010E006E3AD0010E0001C6
:10036600DD5F000EDE5BDF5BE05BDDD71AC0DDF034
:100376001BC0DEF01CC0DFF01DC0E0F0A1BA21D02A
:100386001A501B101C101D101BE00001DD51DE1160
:10039600DF11E0110EE133C0E1FF34C0E2FF040ECD
:1003A600E66E31C000F032C001F04DDF010E006E86
:1003B6000FD0010E0001DD5F000EDE5BDF5BE05B50
:1003C600DDD766BC02D0006A03D06684020E006EDA
:0203D600120013
:1003D80016C0DEF017C0DFF018C0E0F019C0E1F079
:1003E8000001DC6BDD6BDD51120802E1DC518E0887
:1003F80008E31BDF005201E004D00001DC4BDD2BD9
:10040800F2D70001120EDD5D02E18F0EDC5D03E321
:100418007B0E006E24D0C580C5A020D016501710C2
:10042800181019101AE0DE51DF11E011E1110EE188
:1004380025C0E1FF26C0E2FF050EE66E23C000F0EE
:1004480024C001F0FFDE010E006E09D0010E00018C
:10045800DE5F000EDF5BE05BE15BDED7006A120067
:0A046800000E82B4010E006E1200B7
:0A047200000E82B8010E006E1200A9
:0A047C00000E82B6010E006E1200A1
:0A048600000E82B6010E006E120097
:04049000668412006C
:0A049400000E86B2010E006E120089
:0A049E00000E82B6010E006E12007F
:0A04A800000E84B2010E006E120077
:1004B20016C0DCF017C0DDF018C0DEF019C0DFF0A6
:1004C200C582C5A21FD0165017101810191019E0B6
:1004D2000001DC51DD11DE11DF110CE125C0E1FF6D
:1004E20026C0E2FF060EE66E23C000F024C001F033
:1004F200ACDE08D0010E0001DC5F000EDD5BDE5BCE
:06050200DF5BDFD71200F1
:0A050800000E84B4010E006E120014
:0A051200000E80B4010E006E12000E
:0A051C00000E82B8010E006E1200FE
:0A052600000E82BE010E006E1200EE
:0A053000000E82BC010E006E1200E6
:10053A001AC0DCF01BC0DDF01CC0DEF01DC0DFF00D
:10054A00668266A21FD01A501B101C101D1019E0DB
:10055A000001DC51DD11DE11DF110CE133C0E1FFD6
:10056A0034C0E2FF060EE66E31C000F032C001F080
:10057A0068DE08D0010E0001DC5F000EDD5BDE5B89
:06058A00DF5BDFD7120069
:0A059000000E84B6010E006E12008A
:0A059A00000E86B4010E006E120080
:0405A400C5841200F8
:1005A8009E96DCC0C9FF16C0DDF017C0DEF018C08B
:1005B800DFF019C0E0F0C7A421D0165017101810AA
:1005C80019101BE00001DD51DE11DF11E0110EE111
:1005D80025C0E1FF26C0E2FF040EE66E23C000F04E
:1005E80024C001F02FDE010E006E3AD0010E00018A
:1005F800DD5F000EDE5BDF5BE05BDDD716C0DDF0A4
:1006080017C0DEF018C0DFF019C0E0F09EB621D0A8
:1006180016501710181019101BE00001DD51DE11DB
:10062800DF11E0110EE125C0E1FF26C0E2FF040E54
:10063800E66E23C000F024C001F004DE010E006E57
:100648000FD0010E0001DD5F000EDE5BDF5BE05BBB
:10065800DDD7C5BC02D0006A03D0C584020E006E87
:0206680012007E
:10066A0016C0DEF017C0DFF018C0E0F019C0E1F0E4
:10067A009E96C5869EB61FD01650171018101910D0
:10068A0019E00001DE51DF11E011E1110CE125C092
:10069A00E1FF26C0E2FF030EE66E23C000F024C08D
:1006AA0001F0CFDD08D0010E0001DE5F000EDF5B36
:1006BA00E05BE15BDFD70001C9CFDDF0DC51000A66
:1006CA0002E1C58A01D0C59A9E96C58816C0DEF099
:1006DA0017C0DFF018C0E0F019C0E1F09EB61FD0D5
:1006EA00165017101810191019E00001DE51DF1109
:1006FA00E011E1110CE125C0E1FF26C0E2FF030E83
:10070A00E66E23C000F024C001F09BDD08D0010E84
:10071A000001DE5F000EDF5BE05BE15BDFD7DDC07F
:04072A0000F01200C9
:0A072E00000E86B0010E006E1200EE
:0A073800000EACB2010E006E1200BC
:100742001DCF01F00F0122A302D02299228901C0FC
:0407520000F01200A1
:100756001AC0DEF01BC0DFF01CC0E0F01DC0E1F0E7
:100766000001DC6BDD6BDD51120802E1DC518E0805
:1007760008E375DD005201E004D00001DC4BDD2BFF
:10078600F2D70001120EDD5D02E18F0EDC5D03E3A0
:100796007B0E006E24D0668066A020D01A501B10F7
:1007A6001C101D101AE0DE51DF11E011E1110EE1FF
:1007B60033C0E1FF34C0E2FF050EE66E31C000F043
:1007C60032C001F040DD010E006E09D0010E0001BD
:1007D600DE5F000EDF5BE05BE15BDED7006A1200E6
:1007E6001AC0DEF01BC0DFF01CC0E0F01DC0E1F057
:1007F600A19A6686A1BA1FD01A501B101C101D1094
:1008060019E00001DE51DF11E011E1110CE133C006
:10081600E1FF34C0E2FF030EE66E31C000F032C0E5
:1008260001F011DD08D0010E0001DE5F000EDF5B76
:10083600E05BE15BDFD700016ACFDDF0DC51000A47
:1008460002E1668A01D0669AA19A66881AC0DEF02D
:100856001BC0DFF01CC0E0F01DC0E1F0A1BA1FD044
:100866001A501B101C101D1019E00001DE51DF117B
:10087600E011E1110CE133C0E1FF34C0E2FF030EE9
:10088600E66E31C000F032C001F0DDDC08D0010EAA
:100896000001DE5F000EDF5BE05BE15BDFD7DDC002
:0408A60000F012004C
:0A08AA00000EA4BA010E006E120049
:0A08B400000E81B4010E006E120068
:0A08BE00000E82B0010E006E120061
:0A08C800000E80B0010E006E120059
:0A08D200000E82B6010E006E120047
:0A08DC00000E81B0010E006E120044
:1008E600AECF01F0ABA202D0AB98AB8801C000F04E
:0208F6001200EE
:0A08F800000E82B8010E006E12001F
:0A090200000E82BA010E006E120012
:0A090C00000E9EBA010E006E1200EC
:080916000AAE029E000E120061
:10091E000B840BAE9AEF04F0010E036E026A016AAD
:0A092E00006A0A360232FF0E1200C2
:0E093800026A016A006A086A036A000E120071
:10094600320E1F6E020E206E000E216E000E226EFB
:10095600D80E536E030E546E000E556E000E566E74
:10096600B20E0001816F040E826F000E836F000EBF
:10097600846F6A0E796F060E7A6FDC0E7B6F000E3F
:100986007C6FA80E6D6F050E6E6FDC0E6F6F000E1E
:10099600706FA40E696F050E6A6F000E6B6F000E06
:1009A6006C6F949894968B988B9694889486C79E31
:0809B600C79C380EC66E12004A
:1009BE008A0E0001716F010E726FE20E736F000EE0
:1009CE00746FE60E756F080E766F000E776F000E61
:1009DE00786F0C0E856F090E866F000E876F000EF6
:1009EE00886F380E7D6F070E7E6F000E7F6F000EC4
:1009FE00806FAC8A900EAB6E948E949C9EAA03D0A0
:080A0E00AECF00F0FBD712008F
:100A1600086A096A100E0C6E01340836093604504D
:100A2600085E0550D8A0053C095ED8B007D0045032
:100A360008260550D8B0053C0926D8900036013660
:060A46000C2EEAD712009D
:100A4C000C6A0E6A0250D8A43FEF05F001C002F008
:100A5C0000C001F0006A0E860250D8A43FEF05F0EA
:100A6C0001C002F0016A0E960E880250D8B451EF04
:100A7C0005F00E50035ED8A4D8A056EF05F0D89020
:100A8C0002BE5BEF05F0003601360236032E46EF50
:100A9C0005F056EF05F0010E0C6E48DF5EEF05F029
:100AAC00020E0C6E36DF5EEF05F0040E0C6E2DDFC1
:020ABC00120026
:080ABE000B6A0B86FF0E12000B
:100AC6000B800BAE6FEF05F0026A0AAEFF0E026EE8
:0C0AD600016E006E0A360232FF0E1200A4
:100AE2000B820BAE7BEF05F00368026801680068B9
:080AF2000A360232FF0E120069
:100AFA007A0E0001716F010E726FE20E736F000EB3
:100B0A00746F420E756F070E766F000E776F000EC8
:100B1A00786FAA0E856F080E866F000E876F000E1B
:100B2A00886FF60E7D6F020E7E6F000E7F6F000ECD
:100B3A00806F0F01218B900E226F98849892A4AA3D
:0A0B4A0003D01DCF00F0FBD712000E
:100B5400D2C0D8F0D3C0D9F0D4C0DAF0D5C0DBF01D
:100B6400D6C000F0D7C001F0010E0001D65F000E20
:100B7400D75B005001101CE05EC0E1FF5FC0E2FFE4
:100B8400D8C0E9FFD9C0EAFFEECFE6FF5CC000F0B1
:100B94005DC001F026EC01F0DAC0E1FFDBC0E2FF4A
:100BA40000C0E6FF0001DA4BDB2BD84BD92BD8D79A
:020BB40012002D
:100BB6000001DA6BDB6BD3C0D8F0D4C0D9F0D2C059
:100BC60000F000360090008041C0E1FF42C0E2FF25
:100BD60000C0E6FF3FC000F040C001F026EC01F087
:100BE60000500001DA13000EDB13010ED55F000E74
:100BF600D65BD551D61116E051C0E1FF52C0E2FFD7
:100C0600010EE66E4FC000F050C001F026EC01F078
:100C1600D8C0E1FFD9C0E2FF00C0E6FF0001D84B13
:100C2600D92BE3D751C0E1FF52C0E2FFE66A4FC0BD
:100C360000F050C001F026EC01F0D8C0E1FFD9C0A9
:100C4600E2FF00C0E6FF0001D751000A06E143C0FB
:100C560000F044C001F026EC01F00001D751010A72
:100C660006E14BC000F04CC001F026EC01F0DAC002
:080C760000F0DBC001F01200E8
:100C7E000001D26BD36B47C000F048C001F026ECE8
:100C8E0001F000C0D2F0000E0001D36FD2C000F010
:060C9E00D3C001F01200BA
:100CA4000001DA6BDB6BD3C0D8F0D4C0D9F0D2C06A
:100CB40000F00036009041C0E1FF42C0E2FF00C0F6
:100CC400E6FF3FC000F040C001F026EC01F0005008
:100CD4000001DA13000EDB13D5C000F0D6C001F01A
:100CE400010ED55F000ED65B0050011018E041C024
:100CF400E1FF42C0E2FFD8C0E9FFD9C0EAFFEECF6E
:100D0400E6FF3FC000F040C001F026EC01F00050C7
:100D14000001DA13000EDB13D84BD92BDDD7D751E2
:100D2400000A06E143C000F044C001F026EC01F0E3
:100D34000001D751010A06E147C000F048C001F0A4
:0E0D440026EC01F0DAC000F0DBC001F0120076
:100D5200300E0001CB25006E000ECC21016E000E7C
:100D6200CD21026E180E0024F66E000E0120F76EE1
:100D7200000E0220F86E0900F5CF28F00900F5CF29
:100D820029F00900F5CF2AF00900F5CF2BF01C0E4F
:100D92000024F66E000E0120F76E000E0220F86E9F
:100DA2000900F5CF2CF00900F5CF2DF00900F5CFA1
:100DB2002EF00900F5CF2FF0CBC0F6FFCCC0F7FF25
:100DC200CDC0F8FF0900F5CF61F00900F5CF62F060
:100DD2000900F5CF63F00900F5CF64F0080ECB25CA
:100DE200F66E000ECC21F76E000ECD21F86E0900D2
:100DF200F5CF65F00900F5CF66F00900F5CF67F091
:100E02000900F5CF68F0040ECB25F66E000ECC215A
:100E1200F76E000ECD21F86E0900F5CF37F009000C
:100E2200F5CF38F00900F5CF39F00900F5CF3AF0E7
:100E3200180ECB25F66E000ECC21F76E000ECD21DA
:100E4200F86E0900F5CF3BF00900F5CF3CF0090040
:0C0E5200F5CF3DF00900F5CF3EF0120096
:100E5E00CBC0F6FFCCC0F7FFCDC0F8FF0900F5CF31
:100E6E0047F00900F5CF48F00900F5CF49F0090029
:100E7E00F5CF4AF0040E0001CB25F66E000ECC2104
:100E8E00F76E000ECD21F86E0900F5CF43F0090084
:100E9E00F5CF44F00900F5CF45F00900F5CF46F047
:100EAE00080ECB25F66E000ECC21F76E000ECD216E
:100EBE00F86E0900F5CF4BF00900F5CF4CF00900A4
:100ECE00F5CF4DF00900F5CF4EF00C0ECB25F66E9A
:100EDE00000ECC21F76E000ECD21F86E0900F5CF75
:100EEE003FF00900F5CF40F00900F5CF41F00900C1
:100EFE00F5CF42F0100ECB25F66E000ECC21F76E1C
:100F0E00000ECD21F86E0900F5CF4FF00900F5CF98
:100F1E0050F00900F5CF51F00900F5CF52F0120054
:100F2E0021D0CF0EAF6EAC9443DD6BD0670EAF6E9B
:100F3E00AC943EDD66D0CF0EAF6EAC8439DD61D0A1
:100F4E00670EAF6EAC8434DD5CD0440EAF6EAC84F5
:100F5E002FDD57D0220EAF6EAC842ADD52D0060E96
:100F6E00006E58D00001000E006ECE1908E1005040
:100F7E00CD1905E1120ECC1902E1CB51C00AD1E018
:100F8E00000E006ECE1908E10050CD1905E1250EB8
:100F9E00CC1902E1CB51800AC9E0000E006ECE19C9
:100FAE0008E10050CD1905E14B0ECC1902E1CB51F1
:100FBE00000AC1E0000E006ECE1908E10050CD19F6
:100FCE0005E1960ECC1902E1CB51000AB9E0000EF4
:100FDE00006ECE1908E10050CD1905E1E10ECC19D5
:100FEE0002E1CB51000AB1E0CE51000A08E1CD5129
:100FFE00010A05E1CC51C20A02E1CB51000AAAE076
:10100E00AED78A0E576E010E586EE20E596E000E56
:06101E005A6E006A120088
:1010240021D0CF0EAF6EAC94C8DC6BD0670EAF6E20
:10103400AC94C3DC66D0CF0EAF6EAC84BEDC61D0A2
:10104400670EAF6EAC84B9DC5CD0440EAF6EAC847A
:10105400B4DC57D0220EAF6EAC84AFDC52D0060E97
:10106400006E58D00001000E006ECE1908E1005049
:10107400CD1905E1120ECC1902E1CB51C00AD1E021
:10108400000E006ECE1908E10050CD1905E1250EC1
:10109400CC1902E1CB51800AC9E0000E006ECE19D2
:1010A40008E10050CD1905E14B0ECC1902E1CB51FA
:1010B400000AC1E0000E006ECE1908E10050CD19FF
:1010C40005E1960ECC1902E1CB51000AB9E0000EFD
:1010D400006ECE1908E10050CD1905E1E10ECC19DE
:1010E40002E1CB51000AB1E0CE51000A08E1CD5132
:1010F400010A05E1CC51C20A02E1CB51000AAAE07F
:10110400AED78A0E576E010E586EE20E596E000E5F
:061114005A6E006A120091
:10111A00086A080E0C6E003408360450085ED8B00F
:0E112A0002D00826D89000360C2EF5D7120001
:1011380038D00F0120870D0E1F6F040E1E6F2185FA
:10114800D8DC7ED00F012087060E1F6F820E1E6F1F
:101158002185CFDC75D00F012087030E1F6F400E4D
:101168001E6F2185C6DC6CD00F012087010E1F6F12
:10117800A00E1E6F2185BDDC63D00F012087010EF4
:101188001F6F150E1E6F2185B4DC5AD00F01208702
:101198001F6B8A0E1E6F2185ACDC52D0060E006EC6
:1011A80058D0000E006E0001CE1908E10050CD198C
:1011B80005E1120ECC1902E1CB51C00ABAE0000ECB
:1011C800006ECE1908E10050CD1905E1250ECC19A5
:1011D80002E1CB51800AB6E0000E006ECE1908E19C
:1011E8000050CD1905E14B0ECC1902E1CB51000A94
:1011F800B2E0000E006ECE1908E10050CD1905E1ED
:10120800960ECC1902E1CB51000AAEE0000E006E3A
:10121800CE1908E10050CD1905E1E10ECC1902E123
:10122800CB51000AAAE0CE51000A08E1CD51010ACB
:1012380005E1CC51C20A02E1CB51000AA7E0AED7C2
:101248007A0E576E010E586EE20E596E000E5A6EE7
:04125800006A120016
:10125C0027D0CF0EAF6EAC94DFEC04F070D0670EDD
:10126C00AF6EAC94DFEC04F06AD0CF0EAF6EAC84F2
:10127C00DFEC04F064D0670EAF6EAC84DFEC04F0EE
:10128C005ED0440EAF6EAC84DFEC04F058D0220E6E
:10129C00AF6EAC84DFEC04F052D0060E006E58D06A
:1012AC000001000E006ECE1908E10050CD1905E1C9
:1012BC00120ECC1902E1CB51C00ACBE0000E006E2D
:1012CC00CE1908E10050CD1905E1250ECC1902E12B
:1012DC00CB51800AC4E0000E006ECE1908E100501C
:1012EC00CD1905E14B0ECC1902E1CB51000ABDE042
:1012FC00000E006ECE1908E10050CD1905E1960ED6
:10130C00CC1902E1CB51000AB6E0000E006ECE19EA
:10131C0008E10050CD1905E1E10ECC1902E1CB51E9
:10132C00000AAFE0CE51000A08E1CD51010A05E1F7
:10133C00CC51C20A02E1CB51000AA9E0AED78A0E09
:10134C00576E010E586EE20E596E000E5A6E006A00
:02135C0012007D
:10135E00CBC0CCF0305015182BE10001CC8F63C000
:10136E00E1FF64C0E2FFE66A61C000F062C001F016
:10137E0026EC01F0CC0E0001D26F000ED36FCC0E16
:10138E00D46F000ED56F020ED66F000ED76FAAEC7B
:10139E0005F063C0E1FF64C0E2FF010EE66E61C0BE
:1013AE0000F062C001F026EC01F0CDC000F01ED0BE
:1013BE005FDC60C0D2F0CC0ED36F000ED46F010E86
:1013CE00D56F000ED66F010ED76F65DC60C0D2F000
:1013DE00CC0E0001D36F000ED46F010ED56F000E30
:0E13EE00D66FD76BDBEC05F0CCC000F0120020
:1013FC000001CF6B050ECF5D0AE2CF51CD25E16E1A
:10140C00000ECE21E26E200EE66ECF2BF3D7CF511D
:10141C00CD25E16E000ECE21E26EE66ACF07CF51EC
:10142C00CD25D06F000ECE21D16F0A0E046E000EAA
:10143C00056ECBC000F0CCC001F00BEC05F008C081
:10144C0000F009C001F0300E0026D0C0E1FFD1C081
:10145C00E2FF00C0E6FF0A0E046E000E056ECBC064
:10146C0000F0CCC001F00BEC05F000C0CBF001C0DB
:10147C00CCF0000E011802E1000E001801E102D0C0
:06148C00CF07CDD71200CE
:101492000B6A0350D8B48FEF0AF002500A6E028E24
:1014A2008E0E035E03AE93EF0AF0036C080E035C2C
:1014B200D8A06EEF0AF0036E013602C001F0026A94
:1014C200080E035CD8A06EEF0AF0036E0136016AC3
:1014D2000350D8A4D89078EF0AF00350D8B478EF2C
:1014E2000AF0D89002320132032E72EF0AF00BBCDE
:1014F20001A085EF0AF0D8A085EF0AF0012AD8B43E
:10150200022A02BEA2EF0AF00AAEA8EF0AF0021EF9
:10151200011E012AD8B4022AA8EF0AF0026A016A5F
:10152200A8EF0AF00B800BAEACEF0AF0026A0AAE2B
:10153200ACEF0AF0FF0E026E016E0A360232ACEF19
:101542000AF0010E0C6E63EC05F0AEEF0AF0000E2D
:101552000C6EAEEF0AF0FF0E0C6E0150006E0250E0
:04156200016E120004
:101566005DD00001CCB102D0929401D092840F01DB
:1015760025957AD00001CCB102D0969601D09686F8
:1015860073D00001CCB102D0969401D096846CD071
:101596000001CCB102D0949601D0948665D00001AA
:1015A600CCB102D0949801D094885ED00001CCB121
:1015B60002D0949A01D0948A57D00001CCB102D0BF
:1015C600989001D0988050D00001CCB102D093946D
:1015D60001D0938449D00001CCB102D0989401D0B7
:1015E60098840F01239540D00001CCB102D0989287
:1015F60001D098820F01239337D00001CCB102D0DD
:10160600949601D0948630D00001CCB102D0949843
:1016160001D0948829D0010E006E28D00001CB514C
:10162600000A9FE0CB51010AA5E0CB51020AA9E0CE
:10163600CB51030AADE0CB51040AB1E0CB51050A08
:10164600B5E0CB51060AB9E0CB51070ABDE0CB5154
:10165600080AC1E0CB51090AC7E0CB510A0ACDE01E
:0E166600CB510B0AD1E0D7D7000E006E120058
:1016740059C0E1FF5AC0E2FFCBC0E9FFCCC0EAFF8A
:10168400EECFE6FF57C000F058C001F026EC01F0A1
:04169400006A1200D6
:10169800CBC0CEF0CCC0CFF0CDC0D0F00DD0A00ED6
:1016A800C86EA3EC04F045D0280EC86EA3EC04F075
:1016B80040D0040E006E3FD0CEC0F6FFCFC0F7FF7B
:1016C800D0C0F8FF0900F5CF01F00900F5CF02F00E
:1016D8000900F5CF03F00900F5CF04F00450000A23
:1016E80008E10350010A05E10250860A02E10150AF
:1016F800A00AD5E0CEC0F6FFCFC0F7FFD0C0F8FFF4
:101708000900F5CF01F00900F5CF02F00900F5CF87
:1017180003F00900F5CF04F00450000A08E1035073
:10172800060A05E102501A0A02E10150800ABCE0EB
:08173800C0D7000E006E120084
:1017400059D00001CCB102D0929001D092800F010B
:10175000259176D00001CCB102D0949001D0948034
:101760006FD00001CCB102D0969001D0968068D0A5
:101770000001CCB102D0949601D0948661D00001D2
:10178000CCB102D0949801D094885AD00001CCB149
:1017900002D0949A01D0948A53D00001CCB102D0E7
:1017A000949201D094824CD00001CCB102D093909D
:1017B00001D0938045D00001CCB102D0949E01D0DD
:1017C000948E3ED00001CCB102D0949C01D0948C78
:1017D00037D00001CCB102D0949601D0948630D09D
:1017E0000001CCB102D0949801D0948829D0010E88
:1017F000006E28D00001CB51000AA3E0CB51010AB2
:10180000A9E0CB51020AADE0CB51030AB1E0CB51C4
:10181000040AB5E0CB51050AB9E0CB51060ABDE098
:10182000CB51070AC1E0CB51080AC5E0CB51090AE8
:10183000C9E0CB510A0ACDE0CB510B0AD1E0D7D792
:06184000000E006E120014
:10184600CBC0CDF0CCC0CEF03050151827E163C028
:10185600E1FF64C0E2FFE66A61C000F062C001F029
:1018660026EC01F0CD0E0001D26F000ED36FCD0E27
:10187600D46F000ED56F020ED66F000ED76FAAEC8E
:1018860005F063C0E1FF64C0E2FF010EE66E61C0D1
:1018960000F062C001F026EC01F00FD03FEC06F03C
:1018A60060C0D2F0CD0ED36F000ED46F020ED56F8E
:0C18B600000ED66FD76B52EC06F012004B
:1018C20059D00001CCB102D0929201D092820F0184
:1018D200259376D00001CCB102D0929801D09288A3
:1018E2006FD00001CCB102D0969201D0968268D01E
:1018F2000001CCB102D0949601D0948661D000014F
:10190200CCB102D0949801D094885AD00001CCB1C5
:1019120002D0949A01D0948A53D00001CCB102D063
:10192200949401D094844CD00001CCB102D0939213
:1019320001D0938245D00001CCB102D0949E01D057
:10194200948E3ED00001CCB102D0949C01D0948CF4
:1019520037D00001CCB102D0949601D0948630D019
:101962000001CCB102D0949801D0948829D0010E04
:10197200006E28D00001CB51000AA3E0CB51010A2E
:10198200A9E0CB51020AADE0CB51030AB1E0CB5141
:10199200040AB5E0CB51050AB9E0CB51060ABDE015
:1019A200CB51070AC1E0CB51080AC5E0CB51090A65
:1019B200C9E0CB510A0ACDE0CB510B0AD1E0D7D70F
:0619C200000E006E120091
:1019C80000C008F00150006E016A026A036A0B6ADF
:1019D8000C6A016A026A036A960E036E0A6A00AE0E
:1019E800FCEF0CF0081E001E082AD8B4002A0A8E44
:1019F80000C001F008C000F0086A026A26EC05F091
:021A08001200CA
:101A0A00086A096A000E076203648AEF0DF0025041
:101A1A0006180A6E075003267E0ED8A01BEF0DF09B
:101A2A00035ED8B08FEF0DF01FEF0DF0035ED8A064
:101A3A0094EF0DF0028E068E02C00EF001C00BF07C
:101A4A0000C00DF000500402F4CF0CF00150050262
:101A5A00F4CF00F0F3CF08F00402F3500C26F45050
:101A6A000822000E00220D500502F3500C26F450F5
:101A7A000822000E002202500402F3500826F450F5
:101A8A00002202500502016A000E0122F3500026CC
:101A9A00F45001220D500602F3500826F450002299
:101AAA00026A000E012202220B500602F35000269F
:101ABA00F4500122000E02220E500602F3500126B3
:101ACA00F450022202BE72EF0DF0083600360136DB
:101ADA0002360306D8B494EF0DF085EF0DF0D880E6
:101AEA00800E08640030000E002201220222D8A0D3
:101AFA0085EF0DF0023201320032034A8FEF0DF00A
:101B0A000AAE029E000E97EF0DF0010E9CEC04F057
:101B1A0097EF0DF0020E71EC05F097EF0DF0040E41
:061B2A008FEC04F0120034
:101B30000450000A12E10550000A0FE10650000AA5
:101B40000CE10750000A09E1FF0E006EFF0E016E66
:101B50007F0E026EFF0E036EA8D0086A096A075056
:101B6000D8B443EF0EF00350D8B448EF0EF0025053
:101B700006180A6E028E068E0E6A02C008F001C0B8
:101B80000CF000C00DF004500D5E0550D8A0053CCF
:101B90000C5E0650D8A0063C085E086A0C6A0D6A06
:101BA000D8A0DAEF0DF0D8900232013200320832BC
:101BB000010E0E6E0750035ED8A0E7EF0DF07E0E0B
:101BC0000E240326D8B04DEF0EF0EDEF0DF07E0E93
:101BD0000E240326D8A052EF0EF0180E0B6E0D3611
:101BE0000C3608360036013602360E360450005EDA
:101BF0000550D8A0053C015E0650D8A0063C025E08
:101C000006340E120EA008EF0EF00D8013EF0EF04A
:101C1000045000260550D8B0053C01260650D8B027
:101C2000062802260D900B2EEFEF0DF039EF0EF087
:101C3000D8900036013602360E360450005E05504C
:101C4000D8A0053C015E0650D8A0063C025E0634D2
:101C50000E10010B0D26D8B00C2AD8B4082AD8A42F
:101C600039EF0EF008320C320D32032AD8B44DEFA2
:101C70000EF00AAE089E0850026E0C50016E0D5018
:101C8000006E55EF0EF0010E5FEC05F055EF0EF013
:101C9000020E9CEC04F055EF0EF0040E71EC05F012
:0C1CA00055EF0EF0080E8FEC04F012005F
:101CAC00CBC0CEF0CCC0CFF0CDC0D0F00DD0A00EBC
:101CBC00C86EA3EC04F045D0280EC86EA3EC04F05B
:101CCC0040D0040E006E3FD0CEC0F6FFCFC0F7FF61
:101CDC00D0C0F8FF0900F5CF01F00900F5CF02F0F4
:101CEC000900F5CF03F00900F5CF04F00450000A09
:101CFC0008E10350010A05E10250860A02E1015095
:101D0C00A00AD5E0CEC0F6FFCFC0F7FFD0C0F8FFD9
:101D1C000900F5CF01F00900F5CF02F00900F5CF6D
:101D2C0003F00900F5CF04F00450000A08E1035059
:101D3C00060A05E102501A0A02E10150800ABCE0D1
:081D4C00C0D7000E006E12006A
:101D5400CBC0CEF0CCC0CFF0CDC0D0F00DD0A00E13
:101D6400C86EA3EC04F045D0280EC86EA3EC04F0B2
:101D740040D0040E006E3FD0CEC0F6FFCFC0F7FFB8
:101D8400D0C0F8FF0900F5CF01F00900F5CF02F04B
:101D94000900F5CF03F00900F5CF04F00450000A60
:101DA40008E10350010A05E10250860A02E10150EC
:101DB400A00AD5E0CEC0F6FFCFC0F7FFD0C0F8FF31
:101DC4000900F5CF01F00900F5CF02F00900F5CFC5
:101DD40003F00900F5CF04F00450000A08E10350B1
:101DE400060A05E102501A0A02E10150800ABCE029
:081DF400C0D7000E006E1200C2
:101DFC0016D0BBC0CBF0BCC0CCF09CDC1BD0BBC0A5
:101E0C00CBF0BCC0CCF057DD15D0BBC0CBF0BCC008
:101E1C00CCF0B3EC0AF00ED0010E006E0BD000012A
:101E2C00BA51000AE6E0BA51010AE9E0BA51020AD5
:061E3C00ECE0F2D71200F9
:101E42002FD0BBC0CBF0BCC0CCF0BDC0CDF0BEC06B
:101E5200CEF097EC07F032D0BBC0CBF0BCC0CCF0D8
:101E6200BDC0CDF0BEC0CEF012EC08F027D0BBC092
:101E7200CBF0BCC0CCF0BDC0CDF0BEC0CEF09CEC6F
:101E820008F01CD0BBC0CBF0BCC0CCF0BDC0CDF0C4
:101E9200BEC0CEF02EEC09F011D0010E006E0ED0B5
:101EA2000001BA51000ACDE0BA51010AD5E0BA5197
:0E1EB200020ADDE0BA51100AE5E0EFD7120097
:101EC0001CD0BBC0CBF0BCC0CCF0BDC0CDF04CEC46
:101ED0000BF01ED0BBC0CBF0BCC0CCF0BDC0CDF071
:101EE000E5DE16D0BBC0CBF0BCC0CCF0BDC0CDF0A1
:101EF00031DF0ED0010E006E0BD00001BA51000A86
:101F0000E0E0BA51010AE6E0BA51020AEBE0F2D78A
:021F10001200BD
:101F1200C0C060F01EC030F0366A5B6A356A276A5C
:101F2200BDC0CBF0BEC0CCF0BFC0CDF02FEC07F0EF
:101F3200BAC0CBF0BBC0CCF0BCC0CDF0A9EC06F06F
:101F420039C0E1FF3AC0E2FF010EE66E37C000F091
:101F520038C001F026EC01F063C0E1FF64C0E2FF8B
:101F6200010EE66E61C000F062C001F026EC01F0E5
:101F720067C0E1FF68C0E2FFE66A65C000F066C0C4
:081F820001F026EC01F0120051
:101F8A00C00E0001BA15CC6F1C0EBB15006E0050B6
:101F9A00CC13030EBC15006E0050CC130D0ECB6F84
:041FAA004DDC1200F8
:101FAE000F0E0001BA15CC6F0E0ECB6F45DC120072
:101FBE00010E0001C36F305015182BE1C38F63C0A3
:101FCE00E1FF64C0E2FFE66A61C000F062C001F0AA
:101FDE0026EC01F0C30E0001D26F000ED36FBC0EC3
:101FEE00D46F000ED56F070ED66F000ED76FAAEC0A
:101FFE0005F063C0E1FF64C0E2FF010EE66E61C052
:10200E0000F062C001F026EC01F0010E0001CA6F73
:10201E001FD0CA6B3FEC06F060C0D2F0C30ED36F78
:10202E00000ED46F010ED56F000ED66F010ED76F56
:10203E0052EC06F060C0D2F0BC0E0001D36F000E61
:10204E00D46F060ED56F000ED66FD76BDBEC05F096
:10205E00CAC000F0000E016EBC0E0024E96E000E28
:10206E000120EA6EEECF01F001C003F0026A00011A
:10207E00CA51010F006E016A000E0122BC0E00242F
:10208E00D96E000E0120DA6EDE500210006E03C013
:10209E0001F0000E0112BAC0E1FFBBC0E2FF00C0AA
:1020AE00E6FF01C0E6FF020EBA25E16E000EBB216F
:1020BE00E26ECA51020F006E016A000E0122BC0EC2
:1020CE000024E96E000E0120EA6EEECF01F001C091
:1020DE0003F0026ACA51030F006E016A000E01225C
:1020EE00BC0E0024D96E000E0120DA6EDE500210F6
:1020FE00006E03C001F0000E011200C0E6FF01C029
:10210E00E6FF040EBA25E16E000EBB21E26ECA5147
:10211E00040F006E016A000E0122BC0E0024E96E4F
:10212E00000E0120EA6EEECF01F001C003F0026A4C
:10213E00CA51050F006E016A000E0122BC0E00246A
:10214E00D96E000E0120DA6EDE500210006E03C052
:10215E0001F0000E011200C0E6FF01C0E6FF120002
:10216E000001BBA504D0040E3510BD6F03D0FB0ECD
:10217E003514BD6FBDC035F0BBA904D0100E35109F
:10218E00BE6F03D0EF0E3514BE6FBEC035F0BBADC3
:10219E0004D0400E3510BF6F03D0BF0E3514BF6F85
:1021AE00BFC035F0BCA104D0010E3510C06F03D0F6
:1021BE00FE0E3514C06FC0C035F0BCA304D0020EA5
:1021CE003510C16F03D0FD0E3514C16FC1C035F08F
:1021DE00BAA704D0080E3510C26F03D0F70E35140F
:1021EE00C26FC2C035F0BAAB04D0200E3510C36F2B
:1021FE0003D0DF0E3514C36FC3C035F0BAAF04D0B1
:10220E00800E3510C46F03D07F0E3514C46FC4C05A
:10221E0035F0140ECB6FC4C0CCF023EC0CF01200D2
:10222E007F0E0001BA15CC6F100ECB6F23EC0CF0A5
:02223E0012008C
:102240000001BA51030802E2030EBA6F130ECB6FFE
:10225000AFEC09F000C05BF0FC0E001600C05BF0B4
:102260000001BA51001200C05BF0130ECB6F00C02A
:08227000CCF023EC0CF012008D
:102278000001BA51070802E2070EBA6F130ECB6FBE
:10228800AFEC09F000C05BF0E30E0014026E02C070
:102298005BF0BAC000F000360090003600900250A3
:1022A800001200C05BF0130E0001CB6F00C0CCF031
:0622B80023EC0CF0120003
:1022BE00BAC0E9FFBBC0EAFFEECF00F0EECF01F0EF
:1022CE00E4EC0CF0000E046E000E056E000E066EB1
:1022DE00790E076E05EC0DF0000E046E000E056E05
:1022EE00300E066E850E076E1CDC000E046E000EA0
:1022FE00056E400E066E800E076E05EC0DF049EC75
:10230E000AF0BAC0E1FFBBC0E2FF00C0E6FF01C0A9
:10231E00E6FF020E0001BA25BC6F000EBB21BD6F99
:10232E00020EBA25E96E000EBB21EA6EEECF00F06A
:10233E00EECF01F0E4EC0CF0000E046E000E056E14
:10234E00000E066E790E076E05EC0DF0000E046E93
:10235E00000E056E300E066E850E076E98EC0DF0B3
:10236E00000E046E000E056E400E066E800E076E99
:10237E0005EC0DF049EC0AF0BCC0E1FFBDC0E2FF78
:10238E0000C0E6FF01C0E6FF040E0001BA25BC6FD7
:10239E00000EBB21BD6F040EBA25E96E000EBB21E7
:1023AE00EA6EEECF00F0EECF01F0E4EC0CF0000E92
:1023BE00046E000E056E000E066E790E076E05ECAD
:1023CE000DF0000E046E000E056E300E066E850EBC
:1023DE00076E98EC0DF0000E046E000E056E400EAA
:1023EE00066E800E076E05EC0DF049EC0AF0BCC0CF
:1023FE00E1FFBDC0E2FF00C0E6FF01C0E6FF120034
:10240E000001BD6B030EBD5D0AE2BD51BB25E16E41
:10241E00000EBC21E26E200EE66EBD2BF3D7BD5131
:10242E00BB25E16E000EBC21E26EE66ABD07BD5112
:10243E00BB25BE6F000EBC21BF6F0A0E046EBAC064
:10244E0000F08DEC08F008C000F0300E0026BEC083
:10245E00E1FFBFC0E2FF00C0E6FF0A0E046EBAC085
:10246E0000F08DEC08F000C0BAF00050000A01E157
:08247E0002D0BD07DCD71200FB
:10248600BAC0BDF0BBC0BEF00D0E0001BF6F0A0E94
:10249600C06F3AD0BDC0CBF0BEC0CCF03AEC0BF06A
:1024A6003ED0BDC0E9FFBEC0EAFFEE520AE0BDC0A5
:1024B600CBF0BEC0CCF03AEC0BF00001BD4BBE2B0E
:1024C600F0D72DD0BDC0E9FFBEC0EAFFEE520AE04C
:1024D600BDC0CBF0BEC0CCF03AEC0BF00001BD4B5A
:1024E600BE2BF0D70001BF0ECB6F000ECC6F3AECBF
:1024F6000BF0C00E0001CB6F000ECC6F3AEC0BF068
:102506000ED0060E006E0CD00001BC51000AC2E0CF
:10251600BC51010AC6E0BC51020AD4E0F2D7006AF7
:022526001200A1
:0C2528000C0E0001CB6FAFEC09F01200AC
:102534000001C06BC16BBAC0C2F0BBC0C3F0800E57
:10254400BB19006E800E005C02E1000EBA5D0BE266
:10255400010EC06F000EC16FBA510008C26FBBC03C
:10256400C3F0000EC357C2C0CBF0C3C0CCF0BCC094
:10257400CDF0BDC0CEF0FEEC09F0060EBE6F000E2D
:10258400BF6F000E006EBF51005C02E1BE51000837
:1025940019E2BE51BC25E16EBF51BD21E26E010EB0
:1025A400BE5D006E000EBF59016E0050BC25E96E81
:1025B4000150BD21EA6EEECFE6FF010EBE5F000EB4
:1025C400BF5BDFD7BCC0E1FFBDC0E2FF200EE66EFB
:1025D400C051C1111AE0BE6BBF6BBE51BC25E96E80
:1025E400BF51BD21EA6EEE50200A03E1BE4BBF2B62
:1025F400F4D7010EBE5F000EBF5BBE51BC25E16E79
:0C260400BF51BD21E26E2D0EE66E1200EB
:102610000001BC6BBD6BBAC003F0BBC004F0BAC014
:1026200005F0BBC006F003C0E9FF04C0EAFFEE50AE
:10263000200A04E1BC51BD1101E110D0010EBC6FB4
:10264000000EBD6F03C0E9FF04C0EAFF05C0E1FF53
:1026500006C0E2FFEECFE6FF054A062A03C001F0FE
:1026600004C002F0034A042A01C0E9FF02C0EAFFE5
:10267000EE50000AD8E1BAC000F0BBC001F0120071
:0C268000120E0001CB6FAFEC09F012004D
:10268C000001BA6BBB6BBC6BFEEC0EF00001BA6BBD
:10269C00010EBB6FBC6BFEEC0EF00001BA6B020EB0
:1026AC00BB6FBC6BFEEC0EF00001BA6B060EBB6F81
:1026BC00010EBC6FFEEC0EF00001BA6B070EBB6F87
:1026CC00010EBC6FFEEC0EF00001BA6BCC0EBB6FB2
:1026DC002A0EBC6F000EBD6F60EC0FF0100E0001E7
:1026EC00BA6F800EBB6F250EBC6F000EBD6FBE6F38
:1026FC0021EC0FF0090E0B6E1E0E0C6EE40E0D6E1F
:10270C000D2EFED70C2EFCD70B2EFAD70000120084
:10271C00180E0001BA6F2A0EBB6F000EBC6FAE0E06
:10272C00BD6F2A0EBE6F000EBF6F210EC06F89ECFD
:10273C000FF0F40E0B6E820E0C6E050E0D6E0D2E40
:10274C00FED70C2EFCD70B2EFAD7E8DE0050D70A9A
:10275C0050E1470E0001896F790E8A6F720E8B6FF4
:10276C006F0E8C6F200E8D6F320E8E6F200E8F6F52
:10277C00700E906F720E916F650E926F730E936F59
:10278C00650E946F6E0E956F740E966F976B890E27
:10279C00BA6F000EBB6F020EBC6F6FDE040E006EC4
:1027AC00020E00100001BA6F010EBA13D7EC0FF035
:1027BC000A0E0001BA6F35DD030E0001BA6F3ADD67
:1027CC00030E0001BA6F52DD800E0001BA6F400E8D
:1027DC00006E040E0010BB6F020EBC6FC2DCE00E6C
:1027EC000001BA6F000EBB6F030EBC6FC5EC0FF08F
:1027FC0014D0450E0001986F720E996F720E9A6F7D
:10280C006F0E9B6F720E9C6F9D6B980EBA6F000EC5
:10281C00BB6F020EBC6F31DEFFD7090E0B6E1E0EA6
:10282C000C6EE40E0D6E0D2EFED70C2EFCD70B2E5F
:06283C00FAD700001200B3
:102842000900F5CFE6FF0006FBE10106F9E11200FF
:10285200B40E0001BA6F000EBB6FDFEC0FF0B40EC6
:10286200BA6F000EBB6F2ADDB4C0BAF0B5C0BBF0C0
:10287200AA0E0001BC6F000EBD6F5BDEAA0EBA6F1E
:10288200000EBB6FC4DE780E896F3A0E8A6F200E7F
:102892008B6F8C6B890EBA6F000EBB6F010EBC6F13
:1028A200F1DDAA0E0001BA6F000EBB6F020EBC6F03
:1028B200E9DDB6C0BAF0B7C0BBF0AA0E0001BC6F2A
:1028C200000EBD6F36DEAA0EBA6F000EBB6F9FDE22
:1028D200790E8D6F3A0E8E6F200E8F6F906B8D0E6C
:1028E200BA6F000EBB6F010EBC6FCCDDAA0E0001E9
:1028F200BA6F000EBB6F020EBC6FC4DDB8C0BAF077
:10290200B9C0BBF0AA0E0001BC6F000EBD6F11DE94
:10291200AA0EBA6F000EBB6F7ADE7A0E916F3A0E74
:10292200926F200E936F946B910EBA6F000EBB6F75
:10293200010EBC6FA7DDAA0E0001BA6F000EBB6FBD
:10294200020EBC6F9FDD9BDE00C0BAF0AA0E000132
:10295200BB6F000EBC6F5ADDAA0EBA6F000EBB6FC2
:1029620056DE540E956F650E966F6D0E976F700E54
:10297200986F650E996F720E9A6F610E9B6F740E4F
:102982009C6F750E9D6F720E9E6F650E9F6F3A0E55
:10299200A06F200EA16FA26B950EBA6F000EBB6FD7
:1029A200010EBC6F6FDDAA0E0001BA6F000EBB6F85
:1029B200010EBC6F67DD200E0001A36FB00EA46F85
:1029C200430EA56FA66BA30EBA6F000EBB6F020E6D
:1029D200BC6F58DD2B0E0001A76F2B0EA86FA96BE1
:1029E200A70EBA6F000EBB6F020EBC6F4BDD110E4D
:1029F2000B6E3C0E0C6ECB0E0D6E0D2EFED70C2EFA
:082A0200FCD70B2EFAD71200DD
:0E2A0A0068EC15F03EDE85DE1FDFFED7FFD73D
:102AD00010EE15F00A0E006E010E016EC20EF66EBB
:0E2AE0002A0EF76E000EF86E21EC14F01200B4
:102A1800A601E2009801E2006C01E2004201E20036
:102A28003401E2005E01E2005001E2000802E20027
:102A3800FA01E2002402E2001602E200EC01E200E0
:102A4800C8080000BE080000EC020000D208000020
:102A58000C030000CE020000E2020000DC080000C7
:102A6800D80200000203000092020000C402000025
:042A7800783A200088
:042A7C00793A200083
:042A80007A3A20007E
:0E2A840054656D70657261747572653A20005C
:042A920020B043002D
:032A96002B2B00E7
:0F2A99004779726F20322070726573656E74001A
:062AA8004572726F72001E
:102AAE00D8030000A4050000B2040000A805DC0055
:042ABE006A06DC00C8
:012AC2000211
:042AC300000000000F
:042AC700000000000B
:012ACB000109
:042ACC00A0860100DF
:020000040030CA
:0E00000015137F7CF98B91FFFFC0FFE0FF40DE
:00000001FF
