:10000000FCFF0220992D0000512D0000512D000011
:10001000512D0000512D0000512D0000512D0000E8
:10002000512D0000512D0000512D0000512D0000D8
:10003000512D0000512D0000512D0000512D0000C8
:10004000512D0000512D0000512D0000512D0000B8
:10005000512D0000512D0000512D0000512D0000A8
:10006000512D0000512D0000512D0000512D000098
:10007000512D0000512D0000512D0000512D000088
:10008000512D0000512D0000512D0000512D000078
:10009000512D0000512D0000512D0000512D000068
:1000A000512D0000512D0000512D0000512D000058
:1000B000512D0000512D0000512D0000512D000048
:1000C000512D0000512D0000512D0000512D000038
:1000D000512D0000512D0000512D0000512D000028
:1000E000512D0000512D0000512D0000512D000018
:1000F000512D0000512D0000512D0000512D000008
:10010000512D0000512D0000512D0000512D0000F7
:10011000512D0000512D0000512D0000512D0000E7
:10012000512D0000512D0000512D0000512D0000D7
:10013000512D0000512D0000512D0000512D0000C7
:10014000512D0000512D0000512D0000512D0000B7
:10015000512D0000512D0000512D0000512D0000A7
:10016000512D0000512D0000512D0000512D000097
:10017000512D0000512D0000512D0000512D000087
:10018000512D0000512D0000512D0000512D000077
:08019000512D0000512D00006B
:102D980000F010F8FFF7DCFF00F048FDFFF7EEFF4A
:102DA80000F004FDFFF77AFFFFF718FFFFF7A0FE1A
:042DB800FCE7FEE74F
:102C900081B01CF8019B0BF8019BBBEB0A0FF8D12C
:042CA00001B07047C8
:102D140081B04FF000094FF0000CBDEB0A0F04DC4A
:102D2400BDEB0B0F01DBD446EA464BF8049BBBEB2F
:102D34000A0FFAD1BCEB0A0F05DDE246D9F800B060
:0A2D44000BF1040BF1E701B070473A
:102CA40081B0CDF800E0002200210020FFF7EEFE05
:102CB400002201210020FFF7E9FE0022022100206A
:102CC400FFF7E4FE012206210020FFF7DFFE0122C8
:102CD40007210020FFF7DAFE0C4801460020FFF729
:102CE40037FE42F280510120FFF756FE40F6FE0700
:102CF400C0F23D0700BF00BF7F1EFDD100BF00BF73
:102D040000BFDDF800E001B0704700BFB03700003D
:102A900081B0CDF800E05FFA81F85FFA82F91DE0BD
:102AA0005FFA89F15FFA88F0FFF71CF91FE05FFA1F
:102AB00089F15FFA88F0FFF7F9F918E05FFA89F118
:102AC0005FFA88F0FFF7D2FA11E05FFA89F15FFA56
:102AD00088F0FFF711F80AE0012008E00028DFD0B5
:102AE0000128E4D00228E9D00328EED0F4E7DDF88D
:062AF00000E001B0704798
:101CE40081B0CDF800E0A9E0012905D14FF004014D
:101CF4006548FFF789FC04E04FF004016348FFF7EF
:101D0400B9FCBBE0012905D14FF400615E48FFF73F
:101D14007BFC04E04FF400615C48FFF7ABFCADE0F2
:101D2400012905D14FF010015948FFF76DFC04E07B
:101D34004FF010015748FFF79DFC9FE0012905D1A2
:101D44004FF020015248FFF75FFC04E04FF0200100
:101D54005048FFF78FFC91E0012905D14FF0800135
:101D64004B48FFF751FC04E04FF080014948FFF76E
:101D740081FC83E0012905D14FF040014448FFF77D
:101D840043FC04E04FF040014248FFF773FC75E068
:101D9400012905D14FF480613F48FFF735FC04E089
:101DA4004FF480613D48FFF765FC67E0012905D1E8
:101DB4004FF400513448FFF727FC04E04FF400517E
:101DC4003248FFF757FC59E0012905D14FF00401CF
:101DD4003348FFF719FC04E04FF004013148FFF7E2
:101DE40049FC4BE0012905D14FF008012C48FFF7CD
:101DF4000BFC04E04FF008012A48FFF73BFC3DE0F0
:101E0400012905D14FF480712548FFF7FDFB04E05B
:101E14004FF480712348FFF72DFC2FE0012905D1F1
:101E24004FF400711E48FFF7EFFB04E04FF400711C
:101E34001C48FFF71FFC21E0012020E000283FF4AC
:101E440053AF01283FF45EAF02283FF469AF032883
:101E54003FF474AF04283FF47FAF05283FF48AAF02
:101E640006283FF495AF0728A0D00828ACD009284D
:101E7400B8D00A28C4D00B28D0D0DDE70020DDF884
:101E840000E001B0704700BF50F00F4040F00F4039
:101E940090F00F4080F00F4010F00F4000F00F4022
:081EA400D0F00F40C0F00F4028
:10160C0081B0CDF800E0034AFFF746FFDDF800E0BB
:08161C0001B070470401020057
:1014A40081B0CDF800E0FFF745FCDDF800E001B0C5
:0214B40070477F
:100D380083B0CDF800E006460C4615463046FFF76E
:100D4800A1FB40F2FF1306EA0300800900262246B1
:100D58002946202E39D24FF0010303FA06F402EA9D
:100D680004031F46A3422ED104031A4B1C19B300D7
:100D7800E51801952C68184B04EA03032B60174B00
:100D880001EA0304019B1B6843EA0404019B1C60FD
:100D980001F48033B3F5803F15D08401104B1B1943
:100DA8001433029301F400333BB1FC43029B1B68EC
:100DB80003EA0404029B1C6005E0029B1B6843EAEB
:100DC8000704029B1C60761CC3E7DDF800E003B053
:100DD800704700BF009004400000FFFFFFFF0000C5
:040DE80000F00F40C8
:10048C0081B040F2FF1100EA01018909084600F22F
:10049C0009024FF0010101FA02F20449096841EA2C
:1004AC00020202490A6001B0704700BF3880044064
:1016780081B0CDF800E0034AFFF710FFDDF800E085
:0816880001B0704704010400E9
:101EAC0081B0CDF800E0A9E0012905D14FF008017F
:101EBC006548FFF7A5FB04E04FF008016348FFF706
:101ECC00D5FBBBE0012905D14FF400215E48FFF79B
:101EDC0097FB04E04FF400215C48FFF7C7FBADE033
:101EEC00012905D14FF010015948FFF789FB04E097
:101EFC004FF010015748FFF7B9FB9FE0012905D1BE
:101F0C004FF020015248FFF77BFB04E04FF020011B
:101F1C005048FFF7ABFB91E0012905D14FF0800150
:101F2C004B48FFF76DFB04E04FF080014948FFF789
:101F3C009DFB83E0012905D14FF040014448FFF798
:101F4C005FFB04E04FF040014248FFF78FFB75E068
:101F5C00012905D14FF004013F48FFF751FB04E084
:101F6C004FF004013D48FFF781FB67E0012905D1E3
:101F7C004FF480713448FFF743FB04E04FF4807159
:101F8C003248FFF773FB59E0012905D14FF480313A
:101F9C003148FFF735FB04E04FF480312F48FFF751
:101FAC0065FB4BE0012905D14FF400312A48FFF7BE
:101FBC0027FB04E04FF400312848FFF757FB3DE0C6
:101FCC00012905D14FF480612348FFF719FB04E088
:101FDC004FF480612148FFF749FB2FE0012905D11F
:101FEC004FF400611C48FFF70BFB04E04FF4006159
:101FFC001A48FFF73BFB21E0012020E000283FF4CA
:10200C0053AF01283FF45EAF02283FF469AF0328B9
:10201C003FF474AF04283FF47FAF05283FF48AAF38
:10202C0006283FF495AF0728A0D00828ACD0092883
:10203C00B8D00A28C4D00B28D0D0DDE70020DDF8BA
:10204C0000E001B0704700BF50F00F4040F00F406F
:10205C00D0F00F40C0F00F4090F00F4080F00F40D8
:10206C0081B0CDF800E09CE0BBE0012905D14FF434
:10207C0080715E48FFF7C4FA04E04FF480715C484D
:10208C00FFF7F4FAADE0012905D14FF40071574880
:10209C00FFF7B6FA04E04FF400715548FFF7E6FA83
:1020AC009FE0012905D14FF400115248FFF7A8FA1F
:1020BC0004E04FF400115048FFF7D8FA91E00129E1
:1020CC0005D14FF400014B48FFF79AFA04E04FF4A6
:1020DC0000014948FFF7CAFA83E0012905D14FF402
:1020EC0080014448FFF78CFA04E04FF48001424829
:1020FC00FFF7BCFA75E0012905D14FF020013F48EC
:10210C00FFF77EFA04E04FF020013D48FFF7AEFAEE
:10211C0067E0012905D14FF002013848FFF770FA4A
:10212C0004E04FF002013648FFF7A0FA59E001290C
:10213C0005D14FF480312F48FFF762FA04E04FF4D9
:10214C0080312D48FFF792FA4BE0012905D14FF46D
:10215C0000312848FFF754FA04E04FF400312648C8
:10216C00FFF784FA3DE0012905D14FF48051254851
:10217C00FFF746FA04E04FF480512348FFF776FA54
:10218C002FE0012905D14FF400611E48FFF738FA02
:10219C0004E04FF400611C48FFF768FA21E00120CD
:1021AC0020E000283FF460AF01283FF45EAF022826
:1021BC003FF469AF03283FF474AF04283FF47FAFBA
:1021CC0005283FF48AAF06283FF495AF0728A0D026
:1021DC000828ACD00928B8D00A28C4D00B28D0D0F5
:1021EC00DDE70020DDF800E001B0704790F00F4013
:1021FC0080F00F4050F00F4040F00F4010F10F40B6
:0C220C0000F10F4010F00F4000F00F40F8
:101AF80081B0CDF800E09CE0BBE0012905D14FF4AE
:101B080080515E48FFF77EFD04E04FF480515C4849
:101B1800FFF7AEFDADE0012905D14FF4005157485C
:101B2800FFF770FD04E04FF400515548FFF7A0FDA2
:101B38009FE0012905D14FF400115248FFF762FDDB
:101B480004E04FF400115048FFF792FD91E001299D
:101B580005D14FF400014B48FFF754FD04E04FF462
:101B680000014948FFF784FD83E0012905D14FF4BE
:101B780080014448FFF746FD04E04FF480014248E5
:101B8800FFF776FD75E0012905D14FF040013F4888
:101B9800FFF738FD04E04FF040013D48FFF768FDCE
:101BA80067E0012905D14FF004013848FFF72AFD05
:101BB80004E04FF004013648FFF75AFD59E00129C7
:101BC80005D14FF480312F48FFF71CFD04E04FF496
:101BD80080312D48FFF74CFD4BE0012905D14FF42A
:101BE80000312848FFF70EFD04E04FF40031264885
:101BF800FFF73EFD3DE0012905D14FF4805125480E
:101C0800FFF700FD04E04FF480512348FFF730FD53
:101C18002FE0012905D14FF400611E48FFF7F2FCBF
:101C280004E04FF400611C48FFF722FD21E0012089
:101C380020E000283FF460AF01283FF45EAF02289F
:101C48003FF469AF03283FF474AF04283FF47FAF33
:101C580005283FF48AAF06283FF495AF0728A0D09F
:101C68000828ACD00928B8D00A28C4D00B28D0D06E
:101C7800DDE70020DDF800E001B0704790F00F408C
:101C880080F00F4050F00F4040F00F4010F10F402F
:0C1C980000F10F4010F00F4000F00F4072
:1029540081B0CDF800E011E00846FFF7A1F916E0D8
:102964000846FFF7ADF912E00846FFF753FC0EE006
:102974000846FFF789FC0AE0012008E00028EBD0B4
:102984000128EDD00228EFD00328F1D0F4E7DDF8D8
:0629940000E001B07047F5
:101CA40081B0CDF800E0016808460449FFF7EEFC76
:101CB4000020DDF800E001B0704700BF943600005A
:1016900081B0CDF800E00A4601460348FFF72EFD71
:0C16A000DDF800E001B07047006006407B
:1010FC008AB0CDF800E0504B984210D100244F4BF1
:10110C001C60012464B24E4B1C604E4C4E4B1C6058
:10111C004E4C4F4B1C604F4C4F4B1C6026E04F4BC2
:10112C00984210D100244E4B1C60012464B24D4BEC
:10113C001C604D4C444B1C604C4C454B1C604C4C47
:10114C00454B1C6012E04B4B98420FD100244A4B8C
:10115C001C60012464B2494B1C60494C3A4B1C6026
:10116C00484C3B4B1C60484C3B4B1C600191029023
:10117C001046FFF775FD06AB1846FFF797FD029872
:10118C0001994FF0FF39002740F200080022022A93
:10119C0037D8B9F1000F34D001231BB203FA02F592
:1011AC002DB20026322E28D2F400384B1B191B1DF1
:1011BC001B6805FB03F4079BB3FBF4F30493994200
:1011CC0003D9049BCB1A039302E0049B5B1A039391
:1011DC00039B0593039B4B450BD21746F4002B4BFB
:1011EC001B19D3F80080059C059B002B00D105E052
:1011FC0000E04C46761CA146D4E74C46521CA14656
:10120C00C5E7441CBB0143EA08032370851C012479
:10121C002B7864F3C7132B70851C01242B7864F393
:10122C0086132B70851D01242B7864F345132B70CA
:10123C00DDF800E00AB07047006006403800FF1F80
:10124C0098069042611500008800FF1FD91000001D
:10125C008C00FF1F7D0F00009000FF1F00700640E8
:10126C003C00FF1F9C0690429D120000CD12000016
:10127C00290F000000600E404000FF1F180590422F
:10128C0021130000DD140000B9140000E832000046
:100CB80081B0CDF800E00446FFF7DEFB40F2E831F2
:100CC80000FB01F3194909680A0F1849096801F07E
:100CD8007061090EC8B21549096801F47001090D5F
:100CE800CDB21249096801F47021090CCEB2D1B213
:100CF800491C09B259430F462360221D411C09B201
:100D0800B7FBF1F1116004F20802691C09B2B7FBE4
:100D1800F1F1116004F20C02711C09B2B7FBF1F198
:100D28001160DDF800E001B0704700BF4480044066
:0C04800001480068704700BF7800FF1FB3
:100C6C0081B0CDF800E040F2000C83464FEA8C01D5
:100C7C000BEB01010968B1F1FF3F12D00BF134010C
:100C8C004FEA8C03C91809680A460BEB0301096883
:100C9C0008461146FFF7C2FB0CF1010C1FFA8CFC45
:0A0CAC00E4E7DDF800E001B0704756
:1004280082B0CDF800E080464FEA581202F0070289
:10043800914608F01F04A24693010D4AD3184FF0C5
:100448000102A240019218460A46019901F026F8D5
:100458004FEA0933074AD3184FEA8A029C1808F46E
:10046800E06322681A432260DDF800E002B07047BA
:0804780000F00F400090044069
:101CC40081B0CDF800E0016808460449FFF7B6FC8E
:101CD4000020DDF800E001B0704700BF28360000A6
:1016400081B0CDF800E00A4601460348FFF756FD99
:0C165000DDF800E001B0704700700640BB
:1022180081B0CDF800E0016808460449FFF7B0FA3C
:102228000020DDF800E001B0704700BFBC350000B9
:1017880081B0CDF800E00A4601460348FFF7B2FCF5
:0C179800DDF800E001B0704700600E407A
:10228C0081B0CDF800E0016808460449FFF776FA02
:10229C000020DDF800E001B0704700BFBC35000045
:10299C0081B0CDF800E011E00846FFF781FC16E0AD
:1029AC000846FFF78FFC12E00846FFF73FFC0EE0ED
:1029BC000846FFF74DFC0AE0012008E00028EBD0A8
:1029CC000128EDD00228EFD00328F1D0F4E7DDF890
:0629DC0000E001B07047AD
:1022AC0081B0CDF800E0FFF795FA044A04490A60C2
:1022BC000020DDF800E001B0704700BFF115000010
:0422CC004400FF1FAC
:1017E00081B0CDF800E003460A48FFF7A5FD0A4A9C
:1017F00040F2000104B402B440F20002194640F283
:1018000000030448FFF77CFE02B0DDF800E001B001
:0C181000704700BF00C0064078340000A4
:1013380081B0304988420CD12F4A30490A60304A7E
:1013480030490A60304A31490A60314A31490A60F5
:101358004EE0314988420CD1304A28490A60304A67
:1013680028490A602F4A29490A602F4A29490A60F0
:101378003EE02E4988420CD12D4A20490A602D4A68
:1013880020490A602C4A21490A602C4A21490A60EE
:101398002EE02B4988420CD12A4A18490A602A4A69
:1013A80018490A60294A19490A60294A19490A60EC
:1013B8001EE0284988420CD1274A10490A60274A6A
:1013C80010490A60264A11490A60264A11490A60EA
:1013D8000EE0254988420BD1244A08490A60244A6C
:1013E80008490A60234A09490A60234A09490A60E8
:1013F80001B0704700A00640AD1600009400FF1F22
:10140800F11200009800FF1F091300009C00FF1F45
:10141800B5120000A000FF1F00B006405D160000D6
:10142800C1100000D10F0000B90F000000C0064035
:10143800F1150000A10F00004D0F00001910000069
:1014480000D006402516000031100000E90F00000A
:101458000110000000A00E402D17000049100000E8
:1014680091100000A910000000B00E4049170000BC
:0C1478006110000079100000650F0000FA
:1015000085B0CDF800E001900291ADF80C20ADF867
:101510001030BDF81440ADF814400698FFF7A6FB54
:101520000198FFF75BF902990198FFF7A1F9BDF85F
:101530000C100198FFF768FBBDF810100198FFF739
:1015400073FBBDF814100198FFF78AFB0198FFF7B1
:1015500055FA0198FFF75AFADDF800E005B0704738
:1007DC0081B01849884204D1012252B216490A60EC
:1007EC0026E01649884204D1012252B214490A600B
:1007FC001EE01449884204D1012252B212490A6007
:10080C0016E01249884204D1012252B210490A6002
:10081C000EE01049884204D1012252B20E490A60FE
:10082C0006E00E49884203D1012252B20C490A60FB
:10083C0001B0704700A00640A806904200B00640E8
:10084C00AC06904200C00640B006904200D0064074
:10085C00B406904200A00E402805904200B00E4015
:04086C002C05904285
:1008700085B0CDF800E08046894601AA104600F018
:100880001BFA164A904503D0154A904500D001E066
:10089000019800E002984FEA0912B0FBF2F291B21F
:1008A00092B2130A9BB298F800201A4388F80020ED
:1008B00008F10103CAB21A7043014FEA0912B3FBEF
:1008C000F2F34A0192B29A1AD0B208F10A031A78E6
:1008D00002431A70DDF800E005B0704700A0064042
:0408E00000B006401E
:100C080081B0841C23784FF6EF7212B203EA020215
:100C18002270841C0B0122781A43227001B070479D
:100C280081B001F0020262B1841C01F00203227853
:100C38001A432270841C01F0010322781A4322709F
:100C480007E0841C23784FF6FD7212B203EA020211
:060C5800227001B070479C
:0C0C600081B002780A43027001B07047B6
:1009FC0081B0C21C117841F00401117001B0704734
:100A0C0081B0C21C117841F00801117001B070471F
:1022D00081B0CDF800E0FFF765FA044A04490A60CE
:1022E0000020DDF800E001B0704700BF25160000B7
:0422F0004400FF1F88
:1017A40081B0CDF800E003460A48FFF7C3FD0A4ABA
:1017B40040F2000104B402B440F20002194640F2BF
:1017C40000030448FFF79AFE02B0DDF800E001B020
:0C17D400704700BF00D00640E434000065
:1022380081B0CDF800E0FFF757FA044A04490A6074
:102248000020DDF800E001B0704700BFAD160000C7
:042258004400FF1F20
:1016F00081B0CDF800E003460A48FFF71DFE0A4A14
:1017000040F2000104B402B440F20002194640F273
:1017100000030448FFF7F4FE02B0DDF800E001B07A
:0C172000704700BF00A0064050350000DC
:10225C0081B0CDF800E0FFF745FA044A04490A6062
:10226C000020DDF800E001B0704700BFAD160000A3
:04227C004400FF1FFC
:102BE40081B0CDF800E0212224492548FFF7F8FE02
:102BF40040F6FE57C0F2277700BF00BF7F1EFDD10D
:102C040000BF00BF00BFFFF72BFFD72822D11D480C
:102C14000221FFF765FE042040F00200C0B240F03C
:102C24000100FFF727FF0A20FFF70EFC0320FFF740
:102C340017FC0320FFF738FC402040F00400022278
:102C4400C1B28020FFF756FC03220021E020FFF7E9
:102C5400E3FB04E00C480221FFF742FEFEE740F6E6
:102C6400FE07C0F23D0700BF00BF7F1EFDD100BFBD
:102C740000BF00BFDDF800E001B07047A4370000DA
:0C2C8400003700002100FF1F3000FF1F80
:1029E40081B0CDF800E00546134B1A70134B1C78E8
:1029F400134B1C700024134B1C700024124B1C70CE
:102A04000024124B1C700024114B1C700846FEF766
:102A140099FF2846FEF7AAFF01200E4C2468A04720
:102A240001200D4C2468A04700200C4C2468A047CA
:102A3400DDF800E001B070476F00FF1F3700FF1F93
:102A44006E00FF1F7400FF1F6C00FF1F6D00FF1F4F
:102A54007500FF1F6400FF1F5C00FF1F6000FF1F65
:0C22800001490860704700BF0808FE43D9
:0C1AEC0001490860704700BF2C08FE4351
:0C1A740001490860704700BF1010FE43DD
:0C1A800001490860704700BF1410FE43CD
:0C1A8C0001490860704700BF1C10FE43B9
:0C1A500001490860704700BF1810FE43F9
:0C1A5C0001490860704700BF2800FE43ED
:0C1A680001490860704700BF3408FE43CD
:0C1A980001490860704700BF0818FE43B9
:0C1AC80001490860704700BF0C18FE4385
:0C1AD40001490860704700BF2018FE4365
:0C1AE00001490860704700BF2418FE4355
:0C1AA40001490860704700BF0C08FE43B9
:0C1AB00001490860704700BF4C08FE436D
:0C1ABC0001490860704700BF1018FE438D
:0C23C40001490860704700BF1418FE4378
:0C23B80001490860704700BF1C18FE437C
:0C23DC0001490860704700BF1818FE435C
:0C23D00001490860704700BF0810FE4380
:0C23940001490860704700BF2008FE43AC
:0C23880001490860704700BF4010FE4390
:0C23AC0001490860704700BF4410FE4368
:0C23A00001490860704700BF2810FE4390
:0C24100001490860704700BF2C10FE431B
:02240C00704717
:0C23E80001490860704700BF2010FE4350
:0C24000001490860704700BF2410FE4333
:0C23F40001490860704700BF5408FE4318
:0C23180001490860704700BF5C08FE43EC
:0C23240001490860704700BF5808FE43E4
:0C23300001490860704700BF1420FE4304
:0C22F40001490860704700BF0420FE4351
:0C23000001490860704700BF4008FE4320
:0C230C0001490860704700BF4408FE4310
:0C233C0001490860704700BF3000FE43FC
:0C236C0001490860704700BF2C00FE43D0
:022378007047AC
:0C237C0001490860704700BF3010FE43AC
:0C23480001490860704700BF3410FE43DC
:0C23540001490860704700BF5408FE43B8
:0C23600001490860704700BF5C08FE43A4
:0C18400001490860704700BF5808FE43D3
:0C184C0001490860704700BF1820FE43EF
:0C18580001490860704700BF0820FE43F3
:0C18340001490860704700BF4008FE43F7
:0C18280001490860704700BF4408FE43FF
:0C181C0001490860704700BF3000FE4327
:0C18640001490860704700BF2C00FE43E3
:10194800026806490A60011D0A6805490A6000F232
:1019580008010A6803490A60704700BF4800FF1F72
:081968004C00FF1F5000FF1F9F
:1019700000F2300303F218010A680C490A6003F20E
:101980001C010A680A490A6002680A490A6000F2F2
:1019900008010A6808490A60011D0A6807490A60C7
:1019A00000F218010A6806490A6070475400FF1FD8
:1019B0005800FF1F5C00FF1F6000FF1F6400FF1F37
:0419C0006800FF1F9D
:102A640081B0CDF800E00C20FEF7AAFFDDF800E00D
:042A740001B07047F6
:1019C40082B0CDF800E001A908701C490A781C49CE
:1019D4000978914216D101AA117841F08001117061
:1019E4000020184C2468A04701A902220846FFF7EA
:1019F400D7FD0120134C2468A04701A9491C09788C
:101A0400C8B216E0FFF7B6FD01AA0F490978002312
:101A1400C8B211460122FFF755FE01AA0A49097806
:101A24000123C8B211460122FFF79AFE01A90978E1
:101A3400C8B2DDF800E002B0704700BF3600FF1FF7
:0C1A44006E00FF1F5C00FF1F6F00FF1F03
:1015A40084B0CDF800E0ADF80C2001900291BDF8B4
:1015B4000C40BDF80C305B1EADF80C307CB1019BC7
:1015C4001B78DCB2A0B2084C2468A047029B1870B8
:1015D400029B5B1C0293019B5B1C0193E7E7DDF814
:0C15E40000E004B0704700BF7000FF1F63
:1015780082B0CDF800E040F20004ADF80440064C1B
:101588002468A047BDF9041041EA000000B2DDF864
:0C15980000E002B0704700BF4800FF1FD9
:1015600081B0CDF800E00348FFF740FCDDF800E073
:0815700001B070470060064065
:100DEC0084B0CDF800E04FF000024349884205D1B1
:100DFC0042490C6842490968039115E0414988420F
:100E0C0006D141490A6841490968039114460BE02F
:100E1C003F49884206D13F490A683F490968039116
:100E2C00114600E011460C4601940290FFF796FB28
:100E3C000298019C831C0122197862F345111970E8
:100E4C00C11C0A78C2F30011C9B1C31C0122197864
:100E5C0062F304111970811D0A78C2F3001129B1D3
:100E6C00831D0122197862F304111970C31C01222D
:100E7C00197862F3410119704FF6FF7038E0234680
:100E8C00019404460198E11C0A78C2F3400151B95F
:100E9C0040B123B90520039CA047012028E05A1E2D
:100EAC001346FFE7EFE7A11D0A78C2F3001129B141
:100EBC00A31D0122197862F304111970E31C01229D
:100ECC00197862F34101197005462346D91C0A783A
:100EDC00C2F3400159B148B125B90520039CA04784
:100EEC00012005E0691E0A461546FFE7EEE70020E3
:100EFC00DDF800E004B07047006006403800FF1FCA
:100F0C007C00FF1F007006403C00FF1F8000FF1F8D
:0C0F1C0000600E404000FF1F8400FF1F1B
:1005680082B0CDF800E04FF000021A49884205D168
:1005780019490B6819490968019115E01849884219
:1005880006D118490A6818490968019113460BE011
:100598001649884206D116490A6816490968019120
:1005A800114600E011460B461D4604462046FFF75B
:1005B8002BFF50B943B11DB90720019CA04704E0A7
:1005C800691E08460546FFE7F0E7DDF800E002B0DF
:1005D800704700BF006006403800FF1F7C00FF1F07
:1005E800007006403C00FF1F8000FF1F00600E40A7
:0805F8004000FF1F8400FF1FFB
:1004100081B0C11C0A78C2F3401181F00101C9B258
:06042000C8B201B07047F4
:10129C0081B0CDF800E00348FFF7A2FDDDF800E0D7
:0812AC0001B07047007006401C
:1013200081B0CDF800E00348FFF760FDDDF800E094
:0813300001B0704700600E409F
:1012F00081B0CDF800E00348FFF7F4FADDF800E034
:0813000001B0704700A0064097
:1008E40081B0011D0A78C2F3401101B9F9E7C11DB5
:0808F4000978C8B201B0704799
:1013080081B0CDF800E00348FFF7F4FADDF800E01B
:0813180001B0704700A006407F
:0E08FC0081B0011D0978C1F3401001B07047B2
:1012B40081B0CDF800E00348FFF786FADDF800E0DE
:0812C40001B0704700A00640D4
:0E07CC0081B0011D0978C1F3801001B07047A3
:1010C00081B0CDF800E00348FFF70CFCDDF800E04C
:0810D00001B0704700B00640BA
:100FD00081B0CDF800E00348FFF790FCDDF800E0B9
:080FE00001B0704700B00640AB
:100FB80081B0CDF800E00348FFF704FCDDF800E05D
:080FC80001B0704700B00640C3
:100FA00081B0CDF800E00348FFF79CFCDDF800E0DD
:080FB00001B0704700C00640CB
:100F4C0081B0CDF800E00348FFF7D2FCDDF800E0FB
:080F5C0001B0704700C006401F
:1010180081B0CDF800E00348FFF7D4FBDDF800E02D
:0810280001B0704700C0064052
:1010300081B0CDF800E00348FFF754FCDDF800E094
:0810400001B0704700D006402A
:100FE80081B0CDF800E00348FFF784FCDDF800E0AD
:080FF80001B0704700D0064073
:1010000081B0CDF800E00348FFF7E0FBDDF800E039
:0810100001B0704700D006405A
:1010480081B0CDF800E00348FFF748FCDDF800E088
:0810580001B0704700A00E403A
:1010900081B0CDF800E00348FFF730FCDDF800E058
:0810A00001B0704700A00E40F2
:1010A80081B0CDF800E00348FFF78CFBDDF800E0E5
:0810B80001B0704700A00E40DA
:1010600081B0CDF800E00348FFF73CFCDDF800E07C
:0810700001B0704700B00E4012
:1010780081B0CDF800E00348FFF73CFCDDF800E064
:0810880001B0704700B00E40FA
:100F640081B0CDF800E00348FFF72EFCDDF800E087
:080F740001B0704700B00E400F
:1016C80082B0CDF800E040F20004ADF80440054CCB
:1016D8002468A047BDF90440044320B2DDF800E0C7
:0816E80002B070474C00FF1F27
:100F7C0081B0CDF800E008B413460A46C1B204486B
:100F8C00FFF746FD01B0DDF800E001B0704700BF8F
:040F9C0000600640AB
:100A1C0087B0CDF800E005920246C8B20693079C59
:100A2C0007944FF000016C4CA24206D16B4C266827
:100A3C006B4C24680494314614E06A4CA24205D1F4
:100A4C00694C2668694C246804940AE0684CA242FC
:100A5C0006D1684C2168684C246804940E4600E06A
:100A6C000E463146440001910292E1B21046FFF766
:100A7C00C1FD029A019920B91046FFF71FFE002014
:100A8C00A5E000273B46069CA34216D2059CE41821
:100A9C002478019202910393E1B21046FFF7AAFD6C
:100AAC00039B0299019A20B91046FFF707FE00201C
:100ABC008DE05C1C27463B46E5E7079C012C48D1A2
:100ACC000B461046C41C2578C5F3400464B141B1F3
:100ADC0023B90420049CA047012078E05A1E144638
:100AEC0000E01C462346EDE7861C0025347865F3B0
:100AFC00451434700A46C41C2578C5F340045CB90F
:100B0C0039B122B90420049CA04701205FE0531E98
:100B1C0000E013461A46EEE7841D2578C5F3001451
:100B2C002CB1861D0125347865F304143470841DB2
:100B3C002578C5F380142CB1861D0125347865F316
:100B4C0086143470C61C0125347865F34104347066
:100B5C002AE0961C0125347865F3820434700B4628
:100B6C001046C41C2578C5F3400464B941B123B9BF
:100B7C000420049CA047012029E05A1E144600E0E2
:100B8C001C462346EDE7841D2578C5F300142CB1D3
:100B9C00861D0125347865F304143470C61C0125B8
:100BAC00347865F3410434700A46C41C2578C5F3C7
:100BBC0040045CB139B122B90420049CA047012047
:100BCC0005E0531E00E013461A46EEE70020DDF860
:100BDC0000E007B0704700BF006006403800FF1F00
:100BEC007C00FF1F007006403C00FF1F8000FF1FB1
:0C0BFC0000600E404000FF1F8400FF1F3F
:1006000082B0CDF800E04FF00003264A904205D1B9
:10061000254A1568254A1268019215E0244A90423D
:1006200006D1244A1368244A126801921D460BE041
:10063000224A904206D1224A1368224A1268019245
:100640001A4600E01A461546841C0123227863F3FB
:1006500004122270021D11702C462946C21C137808
:10066000C3F340025AB949B124B90420019CA04700
:10067000012012E0621E13461C46FFE7EEE7C41C91
:100680000123227863F341022270C21C1378C3F362
:10069000000282F00102D2B2D0B2DDF800E002B076
:1006A000704700BF006006403800FF1F7C00FF1F3E
:1006B000007006403C00FF1F8000FF1F00600E40DE
:0806C0004000FF1F8400FF1F32
:1006C80084B0CDF800E04FF000023549884205D1EA
:1006D80034490C6834490968039115E03349884264
:1006E80006D133490A6833490968039114460BE077
:1006F8003149884206D131490A683149096803916C
:10070800114600E011460C46831C0022197862F35A
:1007180045111970831C0022197862F304111970AD
:1007280001940290FFF71CFF0298019C2346C11C0C
:100738000A78C2F3400151B944B123B90620039C99
:10074800A047012027E05A1E1346FFE7EFE7811D67
:100758000A78C2F3801129B1831D0122197862F346
:1007680086111970C31C0122197862F341011970AE
:100778002346C11C0A78C2F3400159B14CB123B9D0
:100788000620039CA047012005E0591E0A4613468F
:10079800FFE7EEE70020DDF800E004B0704700BF97
:1007A800006006403800FF1F7C00FF1F00700640F5
:1007B8003C00FF1F8000FF1F00600E404000FF1F2D
:0407C8008400FF1F8B
:100F280081B0CDF800E008B413460A46C1B20448BF
:100F3800FFF770FD01B0DDF800E001B0704700BFB9
:040F480000700640EF
:1014B80081B0CDF800E008B413460A46C1B204482A
:1014C800FFF7A8FA01B0DDF800E001B0704700BFEF
:0414D80000600E4062
:1017640082B0CDF800E040F20004ADF80440044C2F
:101774002468A047BDF90400DDF800E002B070471A
:041784005000FF1FF3
:1010D80081B0CDF800E008B413460A46C1B204480E
:1010E800FFF710FC01B0DDF800E001B0704700BF69
:0410F800006006404E
:10090C0085B0CDF800E08DF8041001469DF8040088
:10091C0003920493059C05944400A4B244F0010492
:10092C0001910846E1B2FFF765FE019918B9084636
:10093C00FFF7C4FE58E08E1C0025347865F30414D0
:10094C003470049C012C06D18E1C0125347865F37F
:10095C00C304347005E08E1C0025347865F3C304A1
:10096C00347001910846FFF7A3FD0199049C621EA7
:10097C00002A34DB15E0019102920846FFF79EFE37
:10098C00029A019912E08E1C0125347865F3C30498
:10099C0034700BE08E1C0025347865F3C30434707E
:1009AC0004E0002AE7D0012AEDD0F3E73AB90C1D98
:1009BC002578039C2570039C641C03940BE0019127
:1009CC0002920846FFF774FD029A0199039C20706D
:1009DC00039C641C0394541E23461A46C8E7059CCA
:1009EC0014B9084600F0FCF9DDF800E005B07047DA
:1004BC0082B0CDF800E04FF000021F49884205D110
:1004CC001E490B681E490968019115E01D498842B7
:1004DC0006D11D490A681D490968019113460BE0B4
:1004EC001B49884206D11B490A681B4909680191BE
:1004FC00114600E011460B46011D0C781D46C11C2F
:10050C000A78C2F3400159B94BB125B90320019CBB
:10051C00A04701200BE0691E0A461546FFE7EEE7EF
:10052C00C31C0122197862F341011970E0B2DDF8A5
:10053C0000E002B0704700BF006006403800FF1FAB
:10054C007C00FF1F007006403C00FF1F8000FF1F57
:0C055C0000600E404000FF1F8400FF1FE5
:1012CC0081B0CDF800E008B413460A46C1B2044818
:1012DC00FFF716FB01B0DDF800E001B0704700BF6E
:0412EC000070064048
:1014DC0081B0CDF800E008B413460A46C1B2044806
:1014EC00FFF70EFA01B0DDF800E001B0704700BF65
:0414FC0000600E403E
:1028E40083B0CDF800E0024610460D228DF8082092
:1028F4000A228DF809201FE0FEF7B8FF23E00278D2
:102904002AB10190FEF7B2FF0198401CF7E71AE0E4
:1029140002782AB10190FEF7A9FF0198401CF7E75D
:1029240002AA1046FEF7A2FF0DF109021046FEF7B7
:102934009DFF08E0062007E00029DDD00129DED054
:102944000229E5D0F6E70020DDF800E003B0704787
:1018700081B0CDF800E00178CCB2A0B2034C24686E
:10188000A0470020DDF800E001B070474400FF1FD2
:1016AC0081B0CDF800E081B20348FFF7E5FEDDF82C
:0C16BC0000E001B0704700BF00A0064035
:1014840081B0ADF800100146BDF800000A1D1378C4
:10149400C3F3C01202B9F9E7CA1D107001B0704756
:10165C0081B0CDF800E081B20348FFF70DFFDDF853
:0C166C0000E001B0704700BF00B0064075
:1015F00081B0CDF800E081B20348FFF743FFDDF88A
:0C16000000E001B0704700BF00C00640D1
:1016240081B0CDF800E081B20348FFF729FFDDF86F
:0C16340000E001B0704700BF00D006408D
:10172C0081B0CDF800E081B20348FFF7A5FEDDF8EB
:0C173C0000E001B0704700BF00A00E40AC
:1017480081B0CDF800E081B20348FFF797FEDDF8DD
:0C17580000E001B0704700BF00B00E4080
:102A780081B0CDF800E000F00F010E20FEF72CFF2A
:082A8800DDF800E001B0704729
:1018E00082B0CDF800E001AA1070521C1170124AAB
:1018F0001378124A12789A420ED10020104C2468B4
:10190000A04701AA114602220846FFF74BFE01201C
:101910000B4C2468A0470AE0FFF72EFE01AB094AF2
:10192000127819460123D0B20222FFF7CDFEDDF86E
:1019300000E002B0704700BF3600FF1F6E00FF1FBF
:081940005C00FF1F6F00FF1F98
:10244C0081B0CDF800E000F07F011020FFF742FAD8
:08245C00DDF800E001B070475B
:1024640082B0CDF800E0032801D9032300E0C3B211
:102474008DF804301320FFF7A3FA9DF80430094ABD
:1024840010704FF6FC7109B200EA01011170C9B273
:10249400194311701320FFF721FADDF800E002B0B0
:0824A400704700BF6C00FF1F30
:1024AC0082B0CDF800E0072801D9072400E0C4B2BF
:1024BC008DF804401320FFF77FFA9DF804400A4B77
:1024CC0018704FF6E37109B200EA01011970A2000D
:1024DC0092B2C9B211431970C9B21320FFF7FAF9BD
:0C24EC00DDF800E002B070476C00FF1F3C
:1024F80081B0CDF800E001F004031BB22BB1464BCC
:102508001B7843F00404E4B204E0434B1B7803F067
:10251800FB04E4B2404B1C7001F010031BB22BB15A
:102528003D4B1B7843F01004E4B204E03A4B1B78AF
:1025380003F0EF04E4B2384B1C7001F040031BB207
:102548002BB1354B1B7843F04001C9B204E0324B44
:102558001B7803F0BF01C9B22F4B197002F00103B9
:10256800DBB22BB12C4B1B7843F00101C9B204E05C
:10257800294B1B7803F0FE01C9B2274B197002F0F2
:1025880002031BB22BB1244B1B7843F00201C9B2E2
:1025980004E0214B1B7803F0FD01C9B21E4B1970F2
:1025A80000F008031BB22BB11B4B1B7843F008014A
:1025B800C9B204E0184B1B7803F0F701C9B2164BF7
:1025C800197000F020031BB22BB1134B1B7843F09A
:1025D8002001C9B204E0104B1B7803F0DF01C9B237
:1025E8000D4B197000F080031BB22BB10A4B1B78FE
:1025F80043F08000C0B204E0074B1B7803F07F0073
:10260800C0B2054B1870C3B2D9B21420FFF764F9F1
:0C261800DDF800E001B070476D00FF1F0E
:10241C0081B0CDF800E000F0C004E4B201F01C0380
:10242C00DBB21C43E4B202F00303DBB244EA030365
:10243C00D9B20D20FFF74EFADDF800E001B070477D
:102AF80085B0CDF800E00DF10E00FFF76DFE0DF189
:102B08000E00FFF78BFD01A90DF10E00B0F90000D2
:102B1800FFF7F8FD01A8FFF7D9FD2A480121FFF7C3
:102B2800DDFE01A80221FFF7D9FE01A90DF10E0073
:102B3800801CB0F90000FFF7E5FD01A8FFF7C6FD0E
:102B480021480121FFF7CAFE01A80221FFF7C6FEAE
:102B580001A90DF10E00001DB0F90000FFF7D2FD2C
:102B680001A8FFF7B3FD19480121FFF7B7FE01A837
:102B78000221FFF7B3FEFFF725FE01A9FFF7FAFDD3
:102B880001A8FFF7A3FD12480121FFF7A7FE01A83E
:102B98000121FFF7A3FE0F480221FFF79FFE0E4811
:102BA8000221FFF79BFE41F2FE17C0F27A0700BF31
:102BB80000BF7F1EFDD100BF00BF00BFDDF800E0F1
:102BC80005B070470000FF1F0400FF1F0800FF1F2B
:0C2BD8000C00FF1F1A00FF1F1E00FF1F53
:1027E00086B0CDF800E005900DF10B0201211170CB
:1027F00038490A7838490978914219D10DF10B020C
:10280000117841F0800111700020344C2468A047F9
:1028100001AA0DF10B01084611460722FEF7C2FE80
:1028200001202E4C2468A04701218DF8121017E0DA
:1028300000218DF81210FEF79FFE0DF10B022849C2
:1028400009780023C8B211460122FEF73DFF01AA14
:10285000234909780123C8B211460622FEF782FFF8
:102860009DF8121001AC611809780A0292B29DF825
:102870001210491C09B2611809780A4305990A80A7
:1028800005998B1C9DF81210891C09B261180978F2
:102890000A0292B29DF81210C91C09B26118097897
:1028A00042EA0101198005990B1D9DF81210091DBE
:1028B00009B2611809780A0292B29DF81210491DF6
:1028C00009B26118097842EA01011980DDF800E0D7
:1028D00006B070473600FF1F6E00FF1F5C00FF1F31
:0428E0006F00FF1F67
:10262400B0F9001000EE901AF8EEE00A4FF0725183
:1026340000EE101A60EE800A244900EE101AC0EE73
:10264400800AB0EE080A20EE800ABDEE400A10EEC1
:10265400101A09B20180821C811CB1F9001000EE2D
:10266400901AF8EEE00A4FF0725100EE101A60EE84
:10267400800A164900EE101AC0EE800AB0EE080A6D
:1026840020EE800ABDEE400A10EE101A09B2118045
:10269400021D011DB1F9001000EE901AF8EEE00AD7
:1026A4004FF0725100EE101A60EE800A074900EEF6
:1026B400101AC0EE800AB0EE080A20EE800ABDEEC1
:1026C400400A10EE101A09B2118070470000B0429F
:10270C0081B0CDF800E00E46002183B2002805DA36
:10271C000121404280B280B28FB201E098B28FB2F8
:10272C003146FFF7AFF806213446B8B2002908D974
:10273C0063184A1E92B2A21812781A70491E89B2F6
:10274C00F4E72022227070B1002081B2204642189A
:10275C001278202A02D1491C89B2F8E74A1E92B29B
:0E276C0083182D221A70DDF800E001B07047CE
:1018900081B00A4681B200208DB21146052805D2DA
:1018A0000B1820221A70401CC0B2F7E70B18002258
:1018B0001A70401EC0B20C180A23B5FBF3F203FBEA
:1018C000125292B2303222700A22B5FBF2F292B278
:1018D00095B202B902E0401EC0B2ECE701B0704719
:1026D40081B0014640F200052DB208460C460B4677
:1026E400FFE70178202901D105B904E001252DB2C5
:1026F40001782170641C0246401C11780029F0D135
:06270400184601B0704709
:1027CC0081B0CDF800E01220FFF7F6F8DDF800E05C
:0427DC0001B0704791
:10277C0081B00A460021C5B21046032905D2431880
:10278C0020221A70491CC9B2F7E7431800221A70AC
:10279C00491EC9B244180A23B5FBF3F203FB1252CB
:1027AC00D2B2303222700A22B5FBF2F2D2B2D5B2DA
:0E27BC0002B902E0491EC9B2ECE701B0704755
:102DBC0090B072B69748019097480290974803904C
:102DCC009748049097480590974806909748079025
:102DDC00974808909748099097480A9097480B9005
:102DEC0097480C90974998480D9098480E900D98DC
:102DFC0000F007000F9001F0010050B94CF2205088
:102E0C00934908804DF62810088040F2D211914861
:102E1C0001809148007800F0010050B18F48007893
:102E2C0000F0080020B18D49087840F008000870C7
:102E3C0021E08B48006840F00051894801608948C6
:102E4C00006800F48070B0B9864801686FF4705067
:102E5C0001EA000040F4407182480160814800683A
:102E6C0040F480717F4801607E4801686FF4007007
:102E7C0001407C480160AA217B4801700D9800F04C
:102E8C00100060B9794801786FF060000140774814
:102E9C00017077480078012800D0FAE71CE00D9803
:102EAC0000F01000C0B10E997248814208D960211F
:102EBC006E4801706E480078802800D0FAE70BE06D
:102ECC006A4801786FF060000140684801706848FA
:102EDC000078012800D0FAE7049967480160674838
:102EEC0001686FF440200140029800F44020014337
:102EFC0062480160624801686FF4403001400398F9
:102F0C0000F4403001435E4801600F9830B10F98D7
:102F1C00012803D00F98022800D061E0019800F03E
:102F2C00800050B9089800F0400028B10B9800F0D0
:102F3C000300002800D100E015E05248006840F47E
:102F4C0000715048016050480168504801404E489B
:102F5C000160069800F0040028B14D4801684B4808
:102F6C0001404B4801600A994A48017005994A484A
:102F7C000170059800F0040038B14848007800F062
:102F8C001000002800D1F8E705E04448007800F074
:102F9C00100000B1F9E74248007800F0BF01C9B257
:102FAC00069800F0FD0001433D480170079800F0C1
:102FBC00E0013C48007800F01F00014339480170E3
:102FCC000199394801700B99384801700F98022803
:102FDC0005D13348007840F0020131480170B8E067
:102FEC00019800F0800020B90B9800F0030000B1AC
:102FFC0065E02448006840F40071224801602248D2
:10300C0001682248014020480160069800F0040045
:10301C0000F04EB80000000000000C0000000100A1
:10302C000000140122000000240000000000000039
:10303C00020000004600000000000000000000003C
:10304C00000000000000000007000000C0D40100D8
:10305C000E2005400020054000F0074002D007403C
:10306C003C80044010D0034000E0074001E00740E2
:10307C0003E00740803801004480044000700440A5
:10308C00048004403880044048900440FFF8FFFE60
:10309C004C90044008400640004006400640064064
:1030AC000140064003400640005006400C400640DC
:1030BC0028B17A4801687A480140784801600A9939
:1030CC00784801707848007800F0BF01C9B20698C2
:1030DC0000F0FD00014374480170019973480170C0
:1030EC000B99734801700F98072805D1059840F08B
:1030FC0080017048017002E005996E4801700698D5
:10310C0000F0040048B10B9800F0030028B96A489D
:10311C00007800F0020000B9F9E7059800F004000F
:10312C0038B16548007800F01000002800D1F8E7AD
:10313C0005E06148007800F0100000B1F9E707984D
:10314C0000F0E0015D48007800F01F0001435B488F
:10315C000170089800F0BF0159480170099800F0FF
:10316C00BF0158480170089800F0400028B154483D
:10317C00007840F04001524801700F98052806D1A4
:10318C004948007840F00201474801701BE00F9855
:10319C00062803D00F98072800D014E0494800787F
:1031AC0040F04001474801704348007800F040006F
:1031BC0000B9F9E70F98072805D13E48007800F0D0
:1031CC003F013C4801700F9818B10F98032800D0AC
:1031DC002CE03948007800F00C0000B1F9E73A48CF
:1031EC00006840F00101384801604FF00001374899
:1031FC0001604FF08001364801604FF00501354801
:10320C0001604FF00101324801603148006800F064
:10321C00800000B9F9E700212D4801602A480168B7
:10322C006FF001000140284801602AE00F98012846
:10323C0003D00F98022800D007E01F48007800F058
:10324C000C00042800D0F8E71BE00F98042806D0E7
:10325C000F98062803D00F98052800D007E01648D1
:10326C00007800F00C00082800D0F8E709E00F986F
:10327C00072806D11048007800F00C000C2800D06C
:10328C00F8E7154801686FF00F0001400C9800F04A
:10329C000F0001431048016010B070474C9004407F
:1032AC00FFF8FFFE08400640014006400050064073
:1032BC000C400640004006400640064003400640D5
:1032CC000440064005400640388004400800044095
:0C32DC000000044004000440488004404E
:102D840081B002490248016001B07047C0D401001B
:042D94007800FF1FA5
:082D500081B0FEE701B07047FD
:102D580081B072B60849086840F47000086000BF86
:102D680000BF00BF00BFF1EE100A40F44000E1EEE2
:0C2D7800100A62B601B0704788ED00E060
:1037B40000B5DFF814B0DFF814A0DFF814C0FFF789
:1037C40065FA00BD704700BF0000FF1F4400FF1FE3
:0437D400603700005A
:1038340000B5DFF810B0DFF810A0FFF769FA00BD9B
:0C384400704700BF0000FF1FA400FF1F22
:100400000000000000000000FFFFFFFF02FDFFFFF3
:1032E80000000000140000000100000016000000AB
:1032F8000200000018000000030000001A0000008F
:10330800040000001C000000050000001E00000072
:103318000900000020000000060000002200000054
:103328000A00000024000000070000002800000038
:103338000C0000002C00000010000000300000000D
:1033480011000000380000001200000040000000DA
:103358000F000000440000001300000048000000B7
:103368001400000050000000150000005800000084
:10337800190000006000000016000000680000004E
:103388001A00000070000000170000008000000014
:103398001C000000900000001D000000A0000000BC
:1033A8001E000000C000000022000000E000000035
:1033B8001F000000F00000002300000000010000D2
:1033C800240000002001000025000000400100004A
:1033D80026000000800100002A000000C001000053
:1033E80027000000E00100002B00000000020000A0
:1033F8002C000000400200002D00000080020000A8
:103408002E000000000300003200000080030000CE
:103418002F000000C003000033000000000400007B
:1034280034000000800400003500000000050000A2
:1034380036000000000600003A0000000007000007
:1034480037000000800700003B0000000008000073
:103458003C000000000900003D000000000A0000D8
:103468003E000000000C00003F000000000F0000BC
:103478006303000062030000FFFFFFFF000000007D
:103488000000000000000000000000000000000034
:103498000000000000000000000000000000000024
:1034A800000000000000080000000800FFFFFFFF08
:1034B8000000000000000000000000000000000004
:1034C80000000000000000000000000000000000F4
:0C34D800000000000000000000000000E8
:1034E4005103000050030000FFFFFFFF0000000035
:1034F40000000000000000000000000000000000C8
:1035040000000000000000000000000000000000B7
:10351400000000000000080000000800FFFFFFFF9B
:103524000000000000000000000000000000000097
:103534000000000000000000000000000000000087
:0C3544000000000000000000000000007B
:103550003103000030030000FFFFFFFF0000000008
:10356000000000000000000000000000000000005B
:10357000000000000000000000000000000000004B
:10358000000000000000080000000800FFFFFFFF2F
:10359000000000000000000000000000000000002B
:1035A000000000000000000000000000000000001B
:0C35B0000000000000000000000000000F
:1035BC000C0500000B050000FFFFFFFF00000000E2
:1035CC0000000000000000000000000000000000EF
:1035DC0000000000000000000000000000000000DF
:1035EC00000000000000080000000800FFFFFFFFC3
:1035FC0000000000000000000000000000000000BF
:10360C0000000000000000000000000000000000AE
:0C361C00000000000000000000000000A2
:103628004A0200004B020000FFFFFFFF00000000FD
:103638000000000000000000000000000000000082
:103648000000000000000000000000000000000072
:10365800000000000000080000000800FFFFFFFF56
:103668000000000000000000000000000000000052
:103678000000000000000000000000000000000042
:0C36880000000000000000000000000036
:103694006802000069020000FFFFFFFF0000000055
:1036A4000000000000000000000000000000000016
:1036B4000000000000000000000000000000000006
:1036C400000000000000080000000800FFFFFFFFEA
:1036D40000000000000000000000000000000000E6
:1036E40000000000000000000000000000000000D6
:0C36F400000000000000000000000000CA
:1037000081220000ED1A0000751A0000811A0000E5
:103710008D1A0000511A00005D1A0000691A00009D
:10372000991A0000C91A0000D51A0000E11A000019
:10373000FFFFFFFFFFFFFFFFFFFFFFFFFFFFFFFF99
:10374000FFFFFFFFFFFFFFFFFFFFFFFFFFFFFFFF89
:10375000FFFFFFFFFFFFFFFFFFFFFFFFFFFFFFFF79
:04376000783A200093
:04376400793A20008E
:043768007A3A200089
:0E376C0054656D70657261747572653A200067
:04377A0020B0430038
:10377E002B2B004779726F20322070726573656E45
:02378E007400C5
:063790004572726F720029
:0237960002012E
:04379800000000002D
:04379C000000000029
:0437A0000000000025
:0C37A400611500007D0F0000D91000002E
:0437B000A0860100EE
:00000001FF
