:10000000FCFF0020CD3200004131000041310000F2
:100010004131000041310000413100004131000018
:100020004131000041310000413100004131000008
:1000300041310000413100004131000041310000F8
:1000400041310000413100004131000041310000E8
:1000500041310000413100004131000041310000D8
:1000600041310000413100004131000041310000C8
:1000700041310000413100004131000041310000B8
:1000800041310000413100004131000041310000A8
:100090004131000041310000413100004131000098
:1000A0004131000041310000413100004131000088
:1000B0004131000041310000413100004131000078
:1000C0004131000041310000413100004131000068
:1000D0004131000041310000413100004131000058
:1000E0004131000041310000413100004131000048
:1000F0004131000041310000413100004131000038
:1032CC00FFF75CFFFFF73AFF00F030FBFFF74CFF16
:1032DC0000F0DEFAFFF71EFEFFF754FEFFF7AAFE22
:0432EC00FCE7FEE716
:10312C0081B01CF8019B0BF8019BBBEB0A0FF8D18B
:04313C0001B0704727
:102ED80081B04FF000094FF0000CBDEB0A0F04DC85
:102EE800BDEB0B0F01DBD446EA464BF8049BBBEB6A
:102EF8000A0FFAD1BCEB0A0F05DDE246D9F800B09B
:0A2F08000BF1040BF1E701B0704774
:102F200081B0CDF800E0002200210020FFF794FFDF
:102F3000002201210020FFF78FFF00220221002044
:102F4000FFF78AFF012206210020FFF785FF0122FB
:102F500007210020FFF780FF0C4801460020FFF703
:102F60007DFE42F280511020FFF7D4FE44F67D77BB
:102F7000C0F2120700BF00BF7F1EFDD100BF00BF1F
:102F800000BFDDF800E001B0704700BF78380000F6
:102E580081B0CDF800E05FFA81F95FFA82FA1DE0EF
:102E68005FFA8AF15FFA89F0FFF7F2F81FE05FFA7C
:102E78008AF15FFA89F0FFF7D3F918E05FFA8AF16F
:102E88005FFA89F0FFF7B4FA11E05FFA8AF15FFAA6
:102E980089F0FEF7F9FF0AE0012008E00028DFD0FA
:102EA8000128E4D00228E9D00328EED0F4E7DDF8C1
:062EB80000E001B07047CC
:1020580081B0CDF800E0A9E0012905D140F20101E5
:102068006548FFF79BFB04E040F201016348FFF776
:10207800C1FBBBE0012905D140F240016048FFF7F0
:102088008DFB04E040F240015E48FFF7B3FBADE092
:10209800012905D140F201015948FFF77FFB04E00F
:1020A80040F201015748FFF7A5FB9FE0012905D140
:1020B80040F220015448FFF771FB04E040F2200190
:1020C8005248FFF797FB91E0012905D140F28001C2
:1020D8004D48FFF763FB04E040F280014B48FFF7EF
:1020E80089FB83E0012905D140F240014648FFF70A
:1020F80055FB04E040F240014448FFF77BFB75E0E4
:10210800012905D140F280014148FFF747FB04E06F
:1021180040F280013F48FFF76DFB67E0012905D1D8
:1021280040F210013A48FFF739FB04E040F2100191
:102138003848FFF75FFB59E0012905D140F2040157
:102148003548FFF72BFB04E040F204013348FFF762
:1021580051FB4BE0012905D140F208012E48FFF759
:102168001DFB04E040F208012C48FFF743FB3DE06B
:10217800012905D140F220011F48FFF70FFB04E0B9
:1021880040F220011D48FFF735FB2FE0012905D15A
:1021980040F210011848FFF701FB04E040F210017B
:1021A8001648FFF727FB21E0012020E000283FF434
:1021B80053AF01283FF45EAF02283FF469AF03280C
:1021C8003FF474AF04283FF47FAF05283FF48AAF8B
:1021D80006283FF495AF0728A0D00828ACD00928D6
:1021E800B8D00A28C4D00B28D0D0DDE70020DDF80D
:1021F80000E001B0704700BF414C0040434C004034
:10220800404C0040424C0040004C0040024C004012
:10221800014C0040034C0040204C0040224C004040
:1017A40081B0CDF800E0002424B240F240031BB223
:1017B40040F2040212B242EA03031BB240F20102F5
:1017C40012B243EA020293B2002210B4FFF798FD6A
:0A17D40001B0DDF800E001B070473D
:1013040083B0CDF800E08DB20146D0B2BDF90C2017
:1013140001F0010414B12F02BFB200E0AFB28F4C50
:101324000C1B640965018D4C6419A0468C4CA042C9
:1013340007D108F10406FD43ADB234882C40348053
:1013440007E0884CA04204D108F104052C883C43F2
:101354002C8040F2010403EA0404A4B23CB108F175
:101364000606FD43ADB234882C4034800AE040F2D6
:10137400020403EA0404A4B224B108F106052C888B
:101384003C432C8040F2040403EA0404A4B23CB1BC
:1013940008F10806FD43ADB234882C4034800AE0DD
:1013A40040F2080403EA0404A4B224B108F10805D5
:1013B4002C883C432C8040F2100403EA0404A4B2B9
:1013C4003CB108F11806FD43ADB234882C4034809A
:1013D4000AE040F2200403EA0404A4B224B108F1B0
:1013E40018052C883C432C8040F2400403EA040492
:1013F400A4B23CB108F11A06FD43ADB234882C40C6
:1014040034800AE040F2800403EA0404A4B224B164
:1014140008F11A052C883C432C8003F48074A4B290
:101424007CB908F10A06FD43ADB234882C403480FF
:1014340008F10C06FD43ADB234882C403480002002
:1014440087E01F2A01DD012083E0FFF7DFFD002094
:10145400B9B2C7B24046102F80F07A8021FA07F45F
:10146400A4B204F00104A4B2002C00F06E8000F2D7
:101474000A06CD43ADB234882C40348000F20C0609
:10148400CD43ADB234882C40348003F48064A4B2DC
:101494002CB1ADF806100024ADF808400DE003F4BB
:1014A4000064A4B22CB10024ADF80640ADF80810D5
:1014B40003E0ADF80610ADF8081000F20A0635880E
:1014C400BDF8064045EA0404348000F20C06358871
:1014D400BDF8084045EA04043480234C041B640925
:1014E400ADF80440214CA24218D0BDF80440E400F9
:1014F400A4B265001E4C65197C08E4B264002E1980
:1015040007F00104E4B2E5002DB240F2FF04AC4060
:10151400A4B2E543ADB234882C403480BDF8044015
:10152400E400A4B26500124C65197C08E4B26400BE
:101534002E1907F00104E4B2E5002DB294B204FAC6
:1015440005F5ADB234882C4334807F1CFFB282E7AA
:101554000020DDF800E003B0704700BF004C0040FD
:101564000000000001000000004C004000000000EA
:0415740008500040DB
:1010100081B042F65251034801800221024801800A
:0C10200001B0704700500040025000403A
:1017FC0081B0CDF800E0002424B240F240031BB2CB
:10180C0040F2040212B242EA03031BB240F201029C
:10181C0012B243EA020293B2012210B4FFF76CFD3C
:0A182C0001B0DDF800E001B07047E4
:1022280081B0CDF800E0A9E0012905D140F208010C
:102238006548FFF7B3FA04E040F208016348FFF786
:10224800D9FABBE0012905D140F280016048FFF7C7
:10225800A5FA04E040F280015E48FFF7CBFAADE052
:10226800012905D140F204015B48FFF797FA04E021
:1022780040F204015948FFF7BDFA9FE0012905D152
:1022880040F220015648FFF789FA04E040F22001A5
:102298005448FFF7AFFA91E0012905D140F28001D7
:1022A8004F48FFF77BFA04E040F280014D48FFF702
:1022B800A1FA83E0012905D140F240014848FFF71F
:1022C8006DFA04E040F240014648FFF793FA75E0E2
:1022D800012905D140F240014348FFF75FFA04E0C5
:1022E80040F240014148FFF785FA67E0012905D12E
:1022F80040F240013648FFF751FA04E040F240014D
:102308003448FFF777FA59E0012905D140F2040172
:102318003548FFF743FA04E040F204013348FFF779
:1023280069FA4BE0012905D140F208012E48FFF770
:1023380035FA04E040F208012C48FFF75BFA3DE06B
:10234800012905D140F220012148FFF727FA04E0CE
:1023580040F220011F48FFF74DFA2FE0012905D16F
:1023680040F210011A48FFF719FA04E040F2100190
:102378001848FFF73FFA21E0012020E000283FF449
:1023880053AF01283FF45EAF02283FF469AF03283A
:102398003FF474AF04283FF47FAF05283FF48AAFB9
:1023A80006283FF495AF0728A0D00828ACD0092804
:1023B800B8D00A28C4D00B28D0D0DDE70020DDF83B
:1023C80000E001B0704700BF214C0040234C0040A2
:1023D800414C0040434C0040404C0040424C0040BF
:1023E800004C0040024C0040014C0040034C0040AF
:1023F80081B0CDF800E0A9E0012905D140F2020141
:102408006548FFF7CBF904E040F202016348FFF7A3
:10241800F1F9BBE0012905D140F280016048FFF7DE
:10242800BDF904E040F280015E48FFF7E3F9ADE052
:10243800012905D140F240015948FFF7AFF904E0FE
:1024480040F240015748FFF7D5F99FE0012905D12F
:1024580040F220015448FFF7A1F904E040F22001BE
:102468005248FFF7C7F991E0012905D140F2400130
:102478004D48FFF793F904E040F240014B48FFF75D
:10248800B9F983E0012905D140F280014648FFF7F8
:1024980085F904E040F280014448FFF7ABF975E0A4
:1024A800012905D140F220014148FFF777F904E0FE
:1024B80040F220013F48FFF79DF967E0012905D167
:1024C80040F201013C48FFF769F904E040F20101DC
:1024D8003A48FFF78FF959E0012905D140F2040184
:1024E8003548FFF75BF904E040F204013348FFF791
:1024F80081F94BE0012905D140F208012E48FFF788
:102508004DF904E040F208012C48FFF773F93DE06B
:10251800012905D140F280012948FFF73FF904E07D
:1025280040F280012748FFF765F92FE0012905D11E
:1025380040F240012248FFF731F904E040F240013F
:102548002048FFF757F921E0012020E000283FF458
:1025580053AF01283FF45EAF02283FF469AF032868
:102568003FF474AF04283FF47FAF05283FF48AAFE7
:1025780006283FF495AF0728A0D00828ACD0092832
:10258800B8D00A28C4D00B28D0D0DDE70020DDF869
:1025980000E001B0704700BF404C0040424C004092
:1025A800214C0040234C0040804C0040824C0040AD
:1025B800604C0040624C0040014C0040034C00401D
:0825C800204C0040224C0040B1
:101E900081B0CDF800E0A9E0012905D140F20801A8
:101EA0006548FFF77FFC04E040F208016348FFF754
:101EB000A5FCBBE0012905D140F220016048FFF7F5
:101EC00071FC04E040F220015E48FFF797FCADE0B2
:101ED000012905D140F210015948FFF763FC04E0E5
:101EE00040F210015748FFF789FC9FE0012905D116
:101EF00040F220015048FFF755FC04E040F2200179
:101F00004E48FFF77BFC91E0012905D140F24001EA
:101F10004948FFF747FC04E040F240014748FFF71B
:101F20006DFC83E0012905D140F280014248FFF7B2
:101F300039FC04E040F280014048FFF75FFC75E0A7
:101F4000012905D140F220013F48FFF72BFC04E0B6
:101F500040F220013D48FFF751FC67E0012905D11F
:101F600040F202013848FFF71DFC04E040F2020194
:101F70003648FFF743FC59E0012905D140F204013E
:101F80003148FFF70FFC04E040F204012F48FFF74F
:101F900035FC4BE0012905D140F208012A48FFF742
:101FA00001FC04E040F208012848FFF727FC3DE06F
:101FB000012905D140F280012548FFF7F3FB04E039
:101FC00040F280012348FFF719FC2FE0012905D1D9
:101FD00040F240011E48FFF7E5FB04E040F24001FB
:101FE0001C48FFF70BFC21E0012020E000283FF413
:101FF00053AF01283FF45EAF02283FF469AF0328D6
:102000003FF474AF04283FF47FAF05283FF48AAF54
:1020100006283FF495AF0728A0D00828ACD009289F
:10202000B8D00A28C4D00B28D0D0DDE70020DDF8D6
:1020300000E001B0704700BF804C0040824C00407F
:10204000214C0040234C0040014C0040034C004018
:08205000204C0040224C00402E
:102C5C0081B0CDF800E011E00846FFF7A9F816E0C6
:102C6C000846FFF7D5F812E00846FFF701F90EE029
:102C7C000846FFF7E3FC0AE0012008E00028EBD04F
:102C8C000128EDD00228EFD00328F1D0F4E7DDF8CD
:062C9C0000E001B07047EA
:101DBC0081B0CDF800E0DFF8549000F218010B6808
:101DCC0000F214010A6800F21001D1F8008000F250
:101DDC000C010F6800F208010E68011D0D68046803
:101DEC001BB212B20FFA88F14DF8049D08B404B47A
:101DFC0002B43BB232B229B220B2FFF71BFE04B0E0
:101E0C000020DDF800E001B0704700BF6036000034
:101A400084B0CDF800E00FFA80FCADF80410ADF8DA
:101A50000820ADF80C30BDF91040ADF81040BDF9CC
:101A60001440ADF81440BDF91840ADF81840079C7B
:101A70002046FFF73BFB0F4D0F4C25600F4D104CE0
:101A80002560BDF91860BDF91450BDF91040BDF9CD
:101A90000C30BDF90820BDF904100FFA8CF040B4E9
:101AA00020B410B4FFF76CFB03B0DDF800E004B025
:101AB000704700BF7915000098000020051A00004B
:041AC0009C00002066
:1010EC0081B0CDF800E040F2000A814609F1D80148
:1010FC0009788A453AD20C210AFB01F109EB01016E
:10110C008B460BF1080109781F2915D10BF1080149
:10111C000978CCB20BF1060109888BB20BF10401F2
:10112C0009888AB2DBF80010084691B2002210B48C
:10113C0000F0E2F801B014E00BF108010978CCB230
:10114C000BF1060109888BB20BF1040109888AB2F4
:10115C00DBF80010084691B2FF2210B400F0CCF876
:10116C0001B00AF1010A5FFA8AFABFE7DDF800E084
:04117C0001B0704707
:1011800081B0BDF90460BDF90870BDF90C80184C40
:10119000258841F23F042540154C2580144C2488B5
:1011A00044F00105124C258040EA030424B2344384
:1011B00024B23C4324B244EA080424B244F48075C7
:1011C0002DB20B4C248844EA0505094C2580084CB7
:1011D000248844EA0205064C2580064C2180044CF4
:1011E00025884FF6FE742540014C258001B07047DC
:0811F000002000400620004031
:101E1C0081B0CDF800E0DFF8549000F218010B68A7
:101E2C0000F214010A6800F21001D1F8008000F2EF
:101E3C000C010F6800F208010E68011D0D680468A2
:101E4C001BB212B20FFA88F14DF8049D08B404B419
:101E5C0002B43BB232B229B220B2FFF7EBFD04B0B0
:101E6C000020DDF800E001B0704700BF60360000D4
:101E7C0081B0CDF800E0FFF7FFFC0020DDF800E0BA
:041E8C0001B07047EA
:1018840081B0CDF800E00748FFF72EFC0649074871
:101894000160074907480160FFF7BEFCDDF800E07E
:1018A40001B07047CC330000D9100000980000202C
:0818B400C51A00009C00002091
:10121C0081B00021134801801348018841F23F003E
:10122C000140114801801048008840F001010E482F
:10123C0001800D48008840F429410B4801800A4880
:10124C00008840F080010848018002210748018095
:10125C00054801884FF6FE7001400348018001B03B
:10126C00704700BF081C0040001C0040061C0040DA
:1026480081B0CDF800E0FFF719F90020DDF800E0CF
:0426580001B0704716
:102D140081B0CDF800E015E00846FFF79DFC1CE00B
:102D24000846FFF7ABFC18E00846FFF779FC14E00F
:102D34000846FFF74BFC10E00846FFF759FC0CE08F
:102D440001200AE00028E7D00128E9D00228EBD0CE
:102D54000328EDD01028EFD0F2E7DDF800E001B051
:022D64007047B6
:10265C0081B0CDF800E0FFF75BF9044A04490A6049
:10266C000020DDF800E001B0704700BF6D170000DE
:04267C0054000020E6
:10191C0081B0CDF800E084460B4A0C490A600C4AB1
:10192C000C490A600C4A0D490A600D4A0D490A60BF
:10193C000D48FFF7D5FB61460C48FFF74FFEDDF86D
:10194C0000E001B0704700BF6D170000AC00002034
:10195C00FFFFFFFFB0000020FFFFFFFFB4000020DF
:10196C00FFFFFFFFB8000020A83400000018004063
:1015E80081B0CDF800E007460C463846FFF704FD09
:1015F80040F280013846FFF7F3FC40F2000138461C
:10160800FFF710FD40F200013846FFF751FD40F2A8
:1016180000013846FFF726FD40F200013846FFF783
:101628000FFD40F200013846FFF7CAFC2146384654
:10163800FFF78EF93846FFF73BFADDF800E001B016
:021648007047E9
:0E10000081B0018841F00101018001B070470C
:100FE80081B003884FF63F7203EA0202028002884A
:080FF8000A43028001B07047BA
:10102C0081B031B903884DF6FF7203EA02020280E7
:0C103C0002E002880A43028001B0704705
:1010B80081B0B1F5006F03D102880A43028005E0D0
:1010C80003884FF2FF7203EA0202028001B0704700
:10106C0081B019E0038847F6FF7203EA020202809E
:10107C0019E0028842F40042028002880A4302808E
:10108C0011E0028842F40042028003884BF6FF72A2
:10109C0003EA0202028006E00029E3D0B1F5804F9A
:0A10AC00E7D00029EDD001B0704735
:1010480081B0B1F5807F04D1028842F480720280B9
:1010580005E003884FF6FF6203EA0202028001B04E
:021068007047CF
:100FC80081B0B1F5805F03D102880A43028005E051
:100FD80003884EF6FF7203EA0202028001B07047EE
:1009580088B0CDF800E005460E4604AA1046FFF719
:100968004DFF04AA11462846FFF7C4FF00EE900A7F
:10097800F8EE600A00EE106AB8EE400A80EE800ACF
:10098800B0EE401A01AA1046FFF736FDDDED010A68
:10099800FCEE600A10EE902A92B291B2414A00EE43
:1009A800902A20EE200ABCEE400A10EE100A80B20F
:1009B80005F2080423884FF6FE7203EA0202228039
:1009C80010292ED905F208031A8842F001021A806C
:1009D800B3EE000A81EE000ABCEE400A10EE102ABF
:1009E80092B2ADF80820B3EE000AC1EE000AB3EEE9
:1009F800000A81EE000ABCEE400A10EE102A92B2FC
:100A080000EE102AB8EE400A70EEC00AB3EE000AF3
:100A180020EE800ABCEE400A10EE102A92B2ADF821
:100A28000A2020B90022ADF80C20284616E001243F
:100A38002946242C11D263001B4AD21812889042EE
:100A480008D2621E12B25300184AD2181288ADF8A2
:100A58000C2002E0641CE4B2EBE70846831D002288
:100A68001A80841D2388BDF8082043EA02022280E8
:100A780000F208031A8802F001021A8000F2080442
:100A8800BDF80C2013029BB2BDF80A20120192B2E5
:100A980013439BB222881A432280DDF800E008B095
:100AA800704700BF00401C462E380000E6370000A3
:1008040082B0CDF800E004462849096801F4E061AB
:10081400090A08462549096801F0E061090E0A46FB
:10082400214601911146FFF7D1FC019908601F4947
:10083400096801F07001090908461C49096801F4B6
:10084400E001090D0A4604F2080101911146FFF77F
:10085400BDFC019908601549096801F07001090996
:1008640008461249096801F0E041090F0A4604F2FA
:100874000C0101911146FFF7A9FC019908600B498D
:10088400096801F0070108460849096801F4E021F4
:10089400090C0A46211D01911146FFF797FC0199A5
:1008A4000860DDF800E002B0704700BF08040140B2
:1001D00081B0CDF800E002460846FFF791FFC3B2B8
:1001E00071E0424A126802F00102D2B140F201000D
:1001F000FFF78EFF3D4A126802F001028AB13C4AC5
:10020000126802F400422AB14FF4FA3292FBF3F280
:10021000104666E048F20002B2FBF3F292B290B2EE
:100220005FE0344A1268B2FBF3F2104659E02F4AFD
:10023000126802F00202D2B140F20200FFF768FF3A
:100240002A4A126802F002028AB1294A126802F4AC
:1002500000422AB14FF4FA3292FBF3F2104640E02A
:1002600048F20002B2FBF3F292B290B239E0224AB5
:100270001268B2FBF3F2104633E0204A1268B2FB78
:10028000F3F210462DE01A4A126802F400422AB135
:100290004FF4FA3292FBF3F2104622E048F20002E9
:1002A000B2FBF3F292B290B21BE0FFF747FFB0FB54
:1002B000F3F2104615E0124A1268B2FBF3F2104650
:1002C0000FE000200DE0002A3FF48BAF052AAED0EE
:1002D000012AD2D0022AD6D0032AE6D0042AEAD0B4
:1002E000EFE7DDF800E001B0704700BF48040140CF
:1002F00030040140A0000020A40000204C00002099
:040300005000002089
:1001000081B0012109B2814009B208B201B0704743
:1001100081B0074A07490A600749096841EA0002B5
:1001200005490A60012203490A6001B0704700BF17
:0C0130005A690000000401405004014026
:10013C0082B01748006800F4E02114E015480190E3
:10014C0023E01548019020E0144801901DE014486C
:10015C0001901AE01348019017E01348019014E045
:10016C000020019011E00029E8D0B1F5803FE8D0E3
:10017C00B1F5003FE8D0B1F5403FE8D0B1F5802FA4
:10018C00E8D0B1F5A02FE8D0EAE7019802B07047AB
:10019C000404014060E31600C0C62D00808D5B0096
:0C01AC00001BB70000366E01006CDC0286
:1008FC0081B0028802F0C00292B2920992B290B218
:10090C000AB900200EE0012802D10A68104609E05D
:10091C00022802D0032800D004E001F20C02126875
:08092C001046FFE701B070471F
:1004000082B08DED010A9DED010AB5EEC00AF1EE54
:1004100010FA0ADBDDED010AB7EE000AF4EEC00ABD
:10042000F1EE10FA01DA012100E0002189B9DDEDD9
:10043000010ABFEE000AF4EEC00AF1EE10FA07DD81
:100440009DED010AB5EEC00AF1EE10FA00DC00E005
:1004500008E04FF0000100EE101A00ED000A9DEDDB
:10046000010A23E001A90968C90D01F0FF017F39E4
:1004700089B2182908D99DED010A00ED000A4FF054
:10048000000100EE101A11E09DED010ABDEE400AD8
:1004900010EE101A00EE101AB8EEC00A00ED000AB5
:1004A00050ED000A9DED010A30EE600A02B070477F
:100AB80081B002884FF6FE7102EA0101018001B09F
:020AC800704775
:1026800081B0CDF800E0FFF779F9044A04490A6007
:102690000020DDF800E001B0704700BF891700009E
:0426A00054000020C2
:10197C0081B0CDF800E084460B4A0C490A600C4A51
:10198C000C490A600C4A0D490A600D4A0D490A605F
:10199C000D48FFF7A5FB61460C48FFF71FFEDDF86D
:1019AC0000E001B0704700BF89170000AC000020B8
:1019BC00FFFFFFFFB0000020FFFFFFFFB40000207F
:1019CC00FFFFFFFFB8000020F032000000140040C1
:1026240081B0CDF800E0FFF7A7F9044A04490A6035
:102634000020DDF800E001B0704700BF89170000FA
:04264400540000201E
:1025D00081B0CDF800E0FFF7D1F9044A04490A6060
:1025E0000020DDF800E001B0704700BF891700004F
:0425F0005400002073
:1025F40081B0CDF800E0FFF75FF9044A04490A60AE
:102604000020DDF800E001B0704700BF5117000062
:04261400540000204E
:1018BC0081B0CDF800E084460B4A0C490A600C4A12
:1018CC000C490A600C4A0D490A600D4A0D490A6020
:1018DC000D48FFF705FC61460C48FFF77FFEDDF86D
:1018EC0000E001B0704700BF51170000AC000020B1
:1018FC00FFFFFFFFB0000020FFFFFFFFB400002040
:10190C00FFFFFFFFB80000208435000000100040EE
:102F900081B0CDF800E025492548FFF721FF45F233
:102FA000FD07C0F2252700BF7F1EFDD100BF00BF77
:102FB00000BF00BFFFF7D8FED72822D11D4802214D
:102FC000FFF770FE042040F00200C0B240F00100A4
:102FD000FFF738FE0A20FFF74DFC0320FFF726FC21
:102FE0000320FFF753FC402040F004000222C1B24E
:102FF0008020FFF779FD03220021E020FFF70AFE81
:1030000004E00D480221FFF74DFEFEE744F67D7710
:10301000C0F2120700BF00BF7F1EFDD100BF00BF7E
:1030200000BFDDF800E001B0704700BF9438000039
:0C3030003C37000022000020310000208E
:102DE00081B0CDF800E00446124A1378124A1370FD
:102DF0000023124A13700023114A13700023114A52
:102E000013700023104A13700846FEF77DFE20461B
:102E1000FEF798FE01200D4C2468A04701200C4CC1
:102E20002468A04701200B4C2468A047DDF800E08F
:102E300001B0704737000020490000204B000020FF
:102E400078000020790000207A0000206C0000202B
:082E500064000020680000206E
:0C26180001490870704700BF608809424B
:0C1DB00001490870704700BF58880942C4
:0C1D380001490870704700BF4088094254
:0C1D440001490870704700BF548009423C
:0C1D500001490870704700BF5C80094228
:0C1D2C0001490870704700BF5880094250
:0C1D080001490870704700BF7C80094250
:0C1D140001490870704700BF7080094250
:0C1D200001490870704700BF4884094268
:0C1D8C0001490870704700BF4C840942F8
:0C1D980001490870704700BF74880942C0
:0C1DA40001490870704700BF70880942B8
:0C1D800001490870704700BF6C840942E4
:0C1D5C0001490870704700BF7C880942F4
:0C1D680001490870704700BF488809421C
:0C1D740001490870704700BF548009420C
:0C27880001490870704700BF5C800942E6
:0C277C0001490870704700BF58800942F6
:0C27A00001490870704700BF78800942B2
:0C27940001490870704700BF78880942B6
:0C27580001490870704700BF688009420A
:0C274C0001490870704700BF6C80094212
:0C27700001490870704700BF74880942DE
:0C27640001490870704700BF70880942EE
:0C27DC0001490870704700BF44880942A2
:0C27E80001490870704700BF7C84094262
:0C27B80001490870704700BF7884094296
:0C27AC0001490870704700BF54900942BA
:0C27C40001490870704700BF589009429E
:0C27D00001490870704700BF5C9009428E
:0C26D40001490870704700BF548C094297
:0C26E00001490870704700BF608009428B
:0C26EC0001490870704700BF6880094277
:0C26C80001490870704700BF6C80094297
:0C26A40001490870704700BF5C840942C7
:0C26B00001490870704700BF58840942BF
:0C26BC0001490870704700BF4C900942B3
:0C27280001490870704700BF748409422A
:0C27340001490870704700BF7084094222
:0C27400001490870704700BF5490094226
:0C271C0001490870704700BF5890094246
:0C26F80001490870704700BF5C90094267
:0C27040001490870704700BF7480094252
:0C27100001490870704700BF6480094256
:0C1CFC0001490870704700BF6880094271
:0C1B2C0001490870704700BF6C8009423E
:0C1B380001490870704700BF5C8409423E
:0C1B200001490870704700BF588409425A
:101B0800026803490A60011D0A6802490A607047B1
:081B18007400002058000020B9
:101B440000F2300303F218010A680C490A6003F238
:101B54001C010A680A490A6002680A490A6000F21C
:101B640008010A6808490A60011D0A6807490A60F1
:101B740000F218010A6806490A6070475C000020F8
:101B84006000002064000020680000206C00002039
:041B940070000020BD
:102D680081B0CDF800E00C20FEF76EFFDDF800E042
:042D780001B07047EF
:101C500082B0CDF800E001A908701C490A781C493F
:101C60000978914216D101AA117841F080011170D2
:101C70000020184C2468A04701A902220846FFF75B
:101C800041FD0120134C2468A04701A9491C097893
:101C9000C8B216E0FFF734FF01AA0F490978002304
:101CA000C8B211460122FFF717FF01AA0A490978B5
:101CB0000123C8B211460122FFF7C8FD01A9097826
:101CC000C8B2DDF800E002B0704700BF3700002066
:0C1CD00049000020640000204A000020B1
:1017040084B0CDF800E0ADF80C2001900291BDF852
:101714000C40BDF80C305B1EADF80C307CB1019B65
:101724001B78DCB2A0B2084C2468A047029B187056
:10173400029B5B1C0293019B5B1C0193E7E7DDF8B2
:0C17440000E004B0704700BF5800002017
:10164C0081B0CDF800E0FFF77FFBDDF800E001B0E2
:02165C007047D5
:100D540081B0CDF800E0FFF741FD0549098801B1F4
:100D6400FBE704490888DDF800E001B0704700BFE4
:080D7400400102420C10004096
:1007E00081B00649098801B1FBE705490880034942
:1007F000098801B1FBE701B0704700BF4001024228
:040800000E10004096
:10158C0081B0CDF800E0FFF7F3FBDDF800E001B02F
:02159C00704796
:100D7C0081B0CDF800E0FFF709FD0549098801B104
:100D8C00FBE704490888DDF800E001B0704700BFBC
:080D9C00408102420C140040EA
:1007980081B00649098801B1FBE70549088003498A
:1007A800098801B1FBE701B0704700BF40810242F0
:0407B8000E140040DB
:1016840081B0CDF800E0FFF73BFBDDF800E001B0EE
:0216940070479D
:100D040081B0CDF800E0FFF757FD0549098801B12E
:100D1400FBE704490888DDF800E001B0704700BF34
:080D2400400103420C180040DD
:1007BC0081B00649098801B1FBE705490880034966
:1007CC00098801B1FBE701B0704700BF400103424B
:0407DC000E180040B3
:1010D80081B0CDF800E0FFF725FEDDF800E001B0B3
:0210E80070474F
:100D2C0081B0CDF800E0FFF7BFFD0549098801B19E
:100D3C00FBE704490888DDF800E001B0704700BF0C
:080D4C00408103420C1C004031
:1008B40081B00649098801B1FBE70549088003496D
:1008C400098801B1FBE701B0704700BF40810342D2
:0408D4000E1C0040B6
:1015780081B0CDF800E0FFF711FCDDF800E001B024
:021588007047AA
:100DA40081B0CDF800E0FFF7C3FD0549098801B122
:100DB400FBE704490888DDF800E001B0704700BF94
:080DC400000104420C20004074
:1009340081B00649098801B1FBE7054908800349EC
:10094400098801B1FBE701B0704700BF0001044210
:040954000E20004031
:1012B80081B0CDF800E0FFF75BFEDDF800E001B09B
:0212C80070476D
:100F780081B0CDF800E0FFF7ABFC0549098801B165
:100F8800FBE704490888DDF800E001B0704700BFBE
:080F9800008104420C2400401A
:1008D80081B00649098801B1FBE705490880034949
:1008E800098801B1FBE701B0704700BF00810442ED
:0408F8000E2400408A
:1012CC0081B0CDF800E0FFF765FEDDF800E001B07D
:0212DC00704759
:100FA00081B0CDF800E0FFF783FA0549098801B167
:100FB000FBE704490888DDF800E001B0704700BF96
:080FC000000105420C2800406D
:1004B00081B00649098801B1FBE705490880034975
:1004C000098801B1FBE701B0704700BF0001054298
:0404D0000E280040B2
:1012A40081B0CDF800E0FFF78FFDDDF800E001B07C
:0212B400704781
:100DCC0081B0CDF800E0FFF77FFB0549098801B140
:100DDC00FBE704490888DDF800E001B0704700BF6C
:080DEC00008105420C2C0040BF
:1004D40081B00649098801B1FBE705490880034951
:1004E400098801B1FBE701B0704700BF00810542F4
:0404F4000E2C00408A
:081B000040F2000000B2704742
:101AD80082B0CDF800E040F20004ADF80440054CB7
:101AE8002468A047BDF90440044320B2DDF800E0B3
:081AF80002B070477C000020E1
:1012E00081B0CDF800E008B413460A46C1B2044804
:1012F000FFF780FD01B0DDF800E001B0704700BFEE
:041300000020004089
:100DF40087B0CDF800E08DF8041001469DF804009A
:100E040005920693079C07944C4CA1420AD14C4D81
:100E14002C6803942C46246804944A4C25684A4C54
:100E2400256028E0494CA1420AD1494D2C6803941D
:100E34002C4624680494474C2568434C25601AE0EA
:100E4400454CA1420AD1454D2C6803942C46246894
:100E54000494434C25683C4C25600CE0414CA14271
:100E640009D1414D2C6803942C46246804943F4CCA
:100E74002568354C256001910291C1B20298FFF7B3
:100E8400E5FB01993A4C247854B9019108460121B3
:100E9400FFF730FB019908B101204BE00D461FE03C
:100EA40001250C8865F304140C8008460588C5F3F5
:100EB40080046CB1049C54B1039C2CB90720224CCF
:100EC4002468A047012035E0039C641E0394EDE7E9
:100ED400048844F0020404800025254C257005464E
:100EE40000262A463146069CA14214D2059C641869
:100EF400247801920291E1B21046FFF7C3FB0299F4
:100F0400019A20B11046FFF767FA012012E04C1C49
:100F140026463146E7E7079C012C07D11046FFF728
:100F24005BFA002801D0012004E002E00125104C06
:100F340025700020DDF800E007B070470020004075
:100F44003800002088000020840000200024004095
:100F54003C0000208C0000200028004040000020BD
:100F640090000020002C0040440000209400002049
:040F74004800002011
:1006500081B000F2140212888A420FD000F2160212
:1006600012888A420AD000F2180212888A4205D003
:1006700000F21A0212888A4200D000E002E000F282
:080680002002118001B0704757
:1004F80085B0CDF800E0CCB20146464A91420AD117
:10050800454B1A6803921A4612680492434A1368C4
:10051800434A136028E0434A91420AD1424B1A6881
:1005280003921A4612680492404A13683C4A1360C0
:100538001AE03F4A91420AD13E4B1A6803921A4682
:10054800126804923C4A1368354A13600CE03B4A2F
:10055800914209D13A4B1A6803921A4612680492DA
:10056800384A13682E4A13608DF8044002910846F1
:10057800FFF7C4FE02999DF8044008B1012044E049
:10058800E3B20A8863F304120A800A8842F002027E
:100598000A80012C1CD1084600F22C021388C3F3F0
:1005A80040026AB9049A52B1039A2AB906201C4C2F
:1005B8002468A047012028E0039A521E0392EBE723
:1005C80000F22C040023228863F3410222801BE0FE
:1005D800084600F22C021388C3F300026AB9049A91
:1005E80052B1039A2AB906200D4C2468A04701206D
:1005F8000BE0039A521E0392EBE700F22C0400234F
:10060800228863F3000222800020DDF800E005B0B4
:10061800704700BF002000403800002088000020FC
:1006280084000020002400403C0000208C000020B2
:10063800002800404000002090000020002C0040CE
:08064800440000209400002092
:1003040083B0CDF800E0274988420AD1264A116813
:10031400019111460968029124490A6824490A6036
:1003240028E0244988420AD1234A116801911146E0
:100334000968029121490A681D490A601AE02049A6
:1003440088420AD11F4A1168019111460968029135
:100354001D490A6816490A600CE01C49884209D103
:100364001B4A1168019111460968029119490A68EA
:100374000F490A6003461846FFF71CFF68B9029943
:1003840051B1019929B90520094C2468A0470120DD
:1003940004E00199491E0191EDE70020DDF800E039
:1003A40003B070470020004038000020880000207F
:1003B40084000020002400403C0000208C00002029
:1003C400002800404000002090000020002C004045
:0803D400440000209400002009
:1001B80081B000F208010A88C2F3001181F0010140
:0801C800C9B2C8B201B07047D2
:1006880083B0CDF800E0354A90420AD1344B1A685D
:1006980001921A4612680292324A1368324A13606B
:1006A80028E0324A90420AD1314B1A6801921A4620
:1006B800126802922F4A13682B4A13601AE02E4AD6
:1006C80090420AD12D4B1A6801921A46126802927A
:1006D8002B4A1368244A13600CE02A4A904209D135
:1006E800294B1A6801921A4612680292274A13681F
:1006F8001D4A136000F22C021388C3F3401232B172
:1007080000F22C040023228863F34512228000F2B1
:100718000E02118000F22C021388C3F340026AB95A
:10072800029A52B1019A2AB904200F4C2468A047B2
:1007380001200FE0019A521E0192EBE700F22C040F
:100748000023228863F34102228000F22C021388DE
:10075800C3F34010DDF800E003B07047002000400C
:100768003800002088000020840000200024004079
:100778003C0000208C0000200028004040000020A1
:1007880090000020002C004044000020940000202D
:1003DC0081B0CDF800E00122018862F38201018036
:1003EC00FFF78AFF08B1012000E00020DDF800E0F3
:0403FC0001B0704795
:1011F80081B0CDF800E008B413460A46C1B20448ED
:10120800FFF7F4FD01B0DDF800E001B0704700BF62
:04121800002400406E
:1016BC0081B0CDF800E008B413460A46C1B2044824
:1016CC00FFF792FB01B0DDF800E001B0704700BFFE
:0416DC0000280040A2
:1016980081B0CDF800E008B413460A46C1B2044848
:1016A800FFF7A4FB01B0DDF800E001B0704700BF10
:0416B800002C0040C2
:10184C0082B0CDF800E040F20004ADF80440044C46
:10185C002468A047BDF90400DDF800E002B0704731
:04186C0080000020D8
:1016E00081B0CDF800E008B413460A46C1B2044800
:1016F000FFF7ECF901B0DDF800E001B0704700BF82
:041700000020004085
:100ACC0087B0CDF800E08DF8041001469DF80400C5
:100ADC00079E7B4CA1420AD17A4D2C6805942C467A
:100AEC0024680694784C2568784C256028E0784C6E
:100AFC00A1420AD1774D2C6805942C4624680694A3
:100B0C00754C2568714C25601AE0744CA1420AD1D1
:100B1C00734D2C6805942C4624680694714C2568FA
:100B2C006A4C25600CE0704CA14209D16F4D2C68C9
:100B3C0005942C46246806946D4C2568634C2560FE
:100B4C00019202910391C1B20398FFF77BFD0299C8
:100B5C00019A684C24787CB9019602930392049113
:100B6C0008460021FFF7C2FC0499039A029B019EE0
:100B7C0000B1A0E0304661E000250C8865F3041458
:100B8C000C80012B39D130460D88C5F3800464B13B
:100B9C00069C4CB1059C24B907204C4C2468A047FA
:100BAC0089E0059C641E0594EEE7069C05940C8870
:100BBC0044F002040C80019111461A460346019838
:100BCC000588C5F3400464B1069C4CB1059C24B95E
:100BDC0006203E4C2468A0476DE0059C641E0594DD
:100BEC00EEE7069C0594048844F00404048001920A
:100BFC000A4601461846019B1DE001930B46304600
:100C0C0001991D88C5F3800464B1069C4CB1059C08
:100C1C0024B907202D4C2468A0474CE0059C641E89
:100C2C000594EEE7069C05941C8844F002041C8095
:100C3C0001930B46019900252E4C25705C1E234612
:100C4C0001931346019A002A31DB01F22C0425880A
:100C5C00C5F3000464B9069C4CB1059C24B903206F
:100C6C001A4C2468A04726E0059C641E0594ECE70A
:100C7C0016E001F20C0424881C705B1C15E00125A5
:100C8C000C8865F382040C8001F20C0424881C701F
:100C9C005B1C0AE001F20C0424881C705B1C04E051
:100CAC00002AE6D0012AEAD0F4E7521ECBE710B9AD
:100CBC000125104C2570DDF800E007B0704700BF2F
:100CCC000020004038000020880000208400002014
:100CDC00002400403C0000208C0000200028004034
:100CEC004000002090000020002C00404400002018
:080CFC009400002048000020D4
:1015C40081B0CDF800E008B413460A46C1B204481D
:1015D400FFF77AFA01B0DDF800E001B0704700BF10
:0415E400002400409F
:1015A00081B0CDF800E008B413460A46C1B2044841
:1015B000FFF78CFA01B0DDF800E001B0704700BF22
:0415C00000280040BF
:1016600081B0CDF800E008B413460A46C1B2044880
:10167000FFF72CFA01B0DDF800E001B0704700BFC1
:04168000002C0040FA
:102CA40083B0CDF800E0024610460D228DF80820CE
:102CB4000A228DF809201FE0FFF70EF823E00278BE
:102CC4002AB10190FFF708F80198401CF7E71AE0D1
:102CD40002782AB10190FEF7FFFF0198401CF7E744
:102CE40002AA1046FEF7F8FF0DF109021046FEF79E
:102CF400F3FF08E0062007E00029DDD00129DED03B
:102D04000229E5D0F6E70020DDF800E003B07047C3
:101CDC0081B0CDF800E00178CCB2A0B2034C2468FE
:101CEC00A0470020DDF800E001B070475400002050
:1019DC0081B0CDF800E0FEF7FDFEDDF800E001B0CF
:0219EC00704742
:1018700081B0CDF800E0FEF78FFFDDF800E001B0A9
:021880007047AF
:1019F00081B0CDF800E0FEF7E1FEDDF800E001B0D7
:021A000070472D
:101AC40081B0CDF800E0FEF7F3FEDDF800E001B0F0
:021AD400704759
:101A040081B0CDF800E0FEF793FFDDF800E001B00F
:021A1400704719
:101A180081B0CDF800E0FEF75BFFDDF800E001B033
:021A2800704705
:101A2C0081B0CDF800E0FEF73DFDDDF800E001B03F
:021A3C007047F1
:1018380081B0CDF800E0FEF749FEDDF800E001B028
:021848007047E7
:1017500081B0CDF800E081B20348FFF78FFDDDF8DE
:0C17600000E001B0704700BF0010004026
:10127C0081B0ADF800100146BDF8000001F20A0281
:10128C00128802F0010292B202B1F7E701F20E02EB
:06129C00108001B0704754
:1017880081B0CDF800E081B20348FFF773FDDDF8C2
:0C17980000E001B0704700BF00140040EA
:10176C0081B0CDF800E081B20348FFF781FDDDF8D0
:0C177C0000E001B0704700BF0018004002
:1017E00081B0CDF800E081B20348FFF747FDDDF896
:0C17F00000E001B0704700BF001C00408A
:102C440081B0CDF800E000F00F010E20FEF7CAFFBE
:082C5400DDF800E001B070475B
:101BE80082B0CDF800E001AA1070521C1170124AA0
:101BF8001378124A12789A420ED10020104C2468A9
:101C0800A04701AA114602220846FFF777FD0120E6
:101C18000B4C2468A0470AE0FFF76EFF01AB094AA6
:101C2800127819460123D0B20222FFF751FFDDF8DE
:101C380000E002B0704700BF3700002049000020D4
:081C4800640000204A000020A6
:1028740081B0CDF800E000F07F011020FFF7B2F93D
:08288400DDF800E001B070472F
:10282C0082B0CDF800E0032801D9032300E0C3B245
:10283C008DF804301320FFF705FA9DF80430094A8F
:10284C0010704FF6FC7109B200EA01011170C9B2A7
:10285C00194311701320FFF7C1F9DDF800E002B045
:08286C00704700BF7800002056
:10288C0082B0CDF800E0072801D9072400E0C4B2DB
:10289C008DF804401320FFF7D5F99DF804400A4B3E
:1028AC0018704FF6E37109B200EA01011970A20029
:1028BC0092B2C9B211431970C9B21320FFF78EF945
:0C28CC00DDF800E002B07047780000204A
:102AE80081B0CDF800E001F004031BB22BB1464BD6
:102AF8001B7843F00404E4B204E0434B1B7803F072
:102B0800FB04E4B2404B1C7001F010031BB22BB164
:102B18003D4B1B7843F01004E4B204E03A4B1B78B9
:102B280003F0EF04E4B2384B1C7001F040031BB211
:102B38002BB1354B1B7843F04001C9B204E0324B4E
:102B48001B7803F0BF01C9B22F4B197002F00103C3
:102B5800DBB22BB12C4B1B7843F00101C9B204E066
:102B6800294B1B7803F0FE01C9B2274B197002F0FC
:102B780002031BB22BB1244B1B7843F00201C9B2EC
:102B880004E0214B1B7803F0FD01C9B21E4B1970FC
:102B980000F008031BB22BB11B4B1B7843F0080154
:102BA800C9B204E0184B1B7803F0F701C9B2164B01
:102BB800197000F020031BB22BB1134B1B7843F0A4
:102BC8002001C9B204E0104B1B7803F0DF01C9B241
:102BD8000D4B197000F080031BB22BB10A4B1B7808
:102BE80043F08000C0B204E0074B1B7803F07F007D
:102BF800C0B2054B1870C3B2D9B21420FEF7F0FF6B
:0C2C0800DDF800E001B07047790000200A
:102C140081B0CDF800E000F0C004E4B201F01C0380
:102C2400DBB21C43E4B202F00303DBB244EA030365
:102C3400D9B20D20FEF7D6FFDDF800E001B07047F1
:1030400085B0CDF800E00DF10E00FFF745FC0DF165
:103050000E00FFF7B9FC01A90DF10E00B0F9000058
:10306000FFF70AFD01A8FFF7C5FB2A480121FFF77A
:1030700019FE01A80221FFF715FE01A90DF10E00AE
:10308000801CB0F90000FFF7F7FC01A8FFF7B2FBC6
:1030900021480121FFF706FE01A80221FFF702FEE9
:1030A00001A90DF10E00001DB0F90000FFF7E4FCCE
:1030B00001A8FFF79FFB19480121FFF7F3FD01A8C5
:1030C0000221FFF7EFFDFFF781FE01A9FFF756FE92
:1030D00001A8FFF78FFB12480121FFF7E3FD01A8CC
:1030E0000121FFF7DFFD0F480221FFF7DBFD0E484E
:1030F0000221FFF7D7FD49F6FD67C0F2240700BFA4
:103100007F1EFDD100BF00BF00BF00BFDDF800E0A3
:1031100005B07047000000200400002008000020D7
:0C3120000C0000201A0000201F000020FE
:1028D80087B0CDF800E006900DF10F0201211170CC
:1028E80033490A7833490978914218D10DF10F021A
:1028F800117841F08001117000202F4C2468A04706
:1029080002AA0DF10F01084611460722FEF7F6FE4E
:102918000120294C2468A0470125E8B219E00020CD
:102928008DF80400FFF7E8F80DF10F022349097844
:102938000023C8B211460122FFF7CAF802AA1F49AC
:1029480009780123C8B211460622FEF77BFF9DF8DD
:102958000400C1B202AC611809780A0292B2411CA3
:1029680009B2611809780A4306990A8006998B1CEE
:10297800811C09B2611809780A0292B2C11C09B215
:102988006118097842EA0101198006990B1D011D99
:1029980009B2611809780A0292B2411D09B2611898
:1029A800097842EA01011980DDF800E007B07047B4
:1029B8003700002049000020640000204A00002061
:1029C800B0F9001000EE901AF8EEE00A4FF07251DC
:1029D80000EE101A60EE800A244900EE101AC0EECC
:1029E800800AB0EE080A20EE800ABDEE400A10EE1A
:1029F800101A09B20180821C811CB1F9001000EE86
:102A0800901AF8EEE00A4FF0725100EE101A60EEDC
:102A1800800A164900EE101AC0EE800AB0EE080AC5
:102A280020EE800ABDEE400A10EE101A09B211809D
:102A3800021D011DB1F9001000EE901AF8EEE00A2F
:102A48004FF0725100EE101A60EE800A074900EE4E
:102A5800101AC0EE800AB0EE080A20EE800ABDEE19
:102A6800400A10EE101A09B2118070470000B042F7
:102A780081B0CDF800E00E46002183B2002805DAC7
:102A88000121404280B280B28FB201E098B28FB289
:102A98003146FFF77DF806213446B8B2002908D937
:102AA80063184A1E92B2A21812781A70491E89B287
:102AB800F4E72022227070B1002081B2204642182B
:102AC8001278202A02D1491C89B2F8E74A1E92B22C
:0E2AD80083182D221A70DDF800E001B070475F
:101B980081B00A4681B200208DB21146052805D2CF
:101BA8000B1820221A70401CC0B2F7E70B1800224D
:101BB8001A70401EC0B20C180A23B5FBF3F203FBDF
:101BC800125292B2303222700A22B5FBF2F292B26D
:101BD80095B202B902E0401EC0B2ECE701B070470E
:1027F40081B0014640F200052DB208460C460B4656
:10280400FFE70178202901D105B904E001252DB2A3
:1028140001782170641C0246401C11780029F0D113
:06282400184601B07047E8
:102DCC0081B0CDF800E01220FEF73CFFDDF800E00A
:042DDC0001B070478B
:102D7C0081B00A460021C5B21046032905D243187A
:102D8C0020221A70491CC9B2F7E7431800221A70A6
:102D9C00491EC9B244180A23B5FBF3F203FB1252C5
:102DAC00D2B2303222700A22B5FBF2F2D2B2D5B2D4
:0E2DBC0002B902E0491EC9B2ECE701B070474F
:1031880083B0CDF800E0374B374C384D384E394FC7
:10319800394845F680213948018004F007000528A0
:1031A80004D004F07000502800D00BE0012252B285
:1031B80033480280002149B23248018032480280F7
:1031C80032480180802132480160019502961E46EE
:1031D80025463A46029B019C2E48006800F4807000
:1031E80000B1F9E72C492D48016001951146324696
:1031F8001D46019B2748006800F4807000B1F9E77C
:103208002748016027480160274928480160284865
:10321800026028480360200D00F0070028B944F038
:103228000301254801602A4610E044F4803040F04C
:103238000301214801602A462048006830B1FFF7A1
:103248003BFE012149B21E480160F5E700211748FD
:10325800016042F4B44109480180DDF800E003B0A0
:10326800704700BF000005003300000003000100A4
:10327800840000000010000080BB00000C480040E3
:103288004CA509428CA5094248A5094288A50942CE
:10329800143004E00400014001005A6900000140B4
:1032A80010100140141001405A6900000004014048
:1032B80004040140080401400C0401400489204230
:0432C800048A204212
:102EC00040F20907C0F2000700BF00BF7F1EFDD11E
:082ED00000BF00BF00BF704706
:1031740081B002490248016001B0704780BB000081
:04318400A80000207F
:0831400081B0FEE701B0704709
:1031480081B04EF68850CEF20000016841F470015B
:10315800016000BF00BF00BF00BFF1EE100A40F4DD
:0A3168004000E1EE100A01B07047CC
:10389C0000B5DFF824B0DFF824A0DFF824C0FFF770
:1038AC003FFCDFF820B0DFF820A0DFF820C0FFF7E6
:1038BC0037FC00BD704700BF00000020490000200D
:1038CC009C3700004C00002054000020142F0000F6
:1039380000B5DFF810B0DFF810A0FFF7C9FA00BD36
:0C394800704700BF00000020BC00002001
:042F14001027000082
:042F180000366E0110
:1032F000004C00400004050500000000004C0040A8
:1033000000080505000000000000000000000000AB
:1033100000000000000000000000000000000000AD
:10332000000000000000000000000000000000009D
:10333000000000000000000000000000000000008D
:10334000000000000000000000000000000000007D
:10335000000000000000000000000000000000006D
:10336000000000000000000000000000000000005D
:10337000000000000000000000000000000000004D
:10338000000000000000000000000000000000003D
:10339000000000000000000000000000000000002D
:1033A000000000000000000000000000000000001D
:1033B000000000000000000000000000000000000D
:0C33C000000000000000000002000000FF
:1033CC00804C00402000050500000000804C0040AF
:1033DC004000050500000000804C00408000050501
:1033EC0000000000000000000000000000000000D1
:1033FC0000000000000000000000000000000000C1
:10340C0000000000000000000000000000000000B0
:10341C0000000000000000000000000000000000A0
:10342C000000000000000000000000000000000090
:10343C000000000000000000000000000000000080
:10344C000000000000000000000000000000000070
:10345C000000000000000000000000000000000060
:10346C000000000000000000000000000000000050
:10347C000000000000000000000000000000000040
:10348C000000000000000000000000000000000030
:0C349C0000000000000000000300000021
:1034A800204C00400400050500000000204C0040AE
:1034B80008000505000000000000000000000000F2
:1034C80000000000000000000000000000000000F4
:1034D80000000000000000000000000000000000E4
:1034E80000000000000000000000000000000000D4
:1034F80000000000000000000000000000000000C4
:1035080000000000000000000000000000000000B3
:1035180000000000000000000000000000000000A3
:103528000000000000000000000000000000000093
:103538000000000000000000000000000000000083
:103548000000000000000000000000000000000073
:103558000000000000000000000000000000000063
:103568000000000000000000000000000000000053
:0C35780000000000000000000200000045
:10358400004C00400400050500000000004C004011
:103594000800050500000000000000000000000015
:1035A4000000000000000000000000000000000017
:1035B4000000000000000000000000000000000007
:1035C40000000000000000000000000000000000F7
:1035D40000000000000000000000000000000000E7
:1035E40000000000000000000000000000000000D7
:1035F40000000000000000000000000000000000C7
:1036040000000000000000000000000000000000B6
:1036140000000000000000000000000000000000A6
:103624000000000000000000000000000000000096
:103634000000000000000000000000000000000086
:103644000000000000000000000000000000000076
:0C36540000000000000000000200000068
:10366000004C00402000050500000000004C004018
:103670008000050500000000004C004040000505EA
:10368000000000000000000000000000000000003A
:10369000000000000000000000000000000000002A
:1036A000000000000000000000000000000000001A
:1036B000000000000000000000000000000000000A
:1036C00000000000000000000000000000000000FA
:1036D00000000000000000000000000000000000EA
:1036E00000000000000000000000000000000000DA
:1036F00000000000000000000000000000000000CA
:1037000000000000000000000000000000000000B9
:1037100000000000000000000000000000000000A9
:103720000000000000000000000000000000000099
:0C3730000000000000000000030000008A
:10373C0019260000B11D0000391D0000451D0000B8
:10374C00511D00002D1D0000091D0000151D00005D
:10375C00211D00008D1D0000991D0000A51D0000FD
:10376C00FFFFFFFFFFFFFFFFFFFFFFFFFFFFFFFF5D
:10377C00FFFFFFFFFFFFFFFFFFFFFFFFFFFFFFFF4D
:10378C00FFFFFFFFFFFFFFFFFFFFFFFFFFFFFFFF3D
:04379C00783A200057
:0437A000793A200052
:0437A4007A3A20004D
:0E37A80054656D70657261747572653A20002B
:0837B60020C2B043002B2B00E0
:1037BE004779726F20322070726573656E740045A2
:0637CE0072726F7200022E
:0437D40000000000F1
:0437D80000000000ED
:0437DC0000000000E9
:0437E00000000000E5
:0137E40000E4
:1037E6000000010002000400080010002000110083
:1037F600210022004400250049004A0052009200A0
:1038060053005500AA006B00AD00B500B600D60007
:10381600B700BB00DD00ED00EE00BF00DF00EF00EB
:08382600F700FB00FD00FE00AD
:10382E0000001102CB024303E903E4049605860669
:10383E006308B008C709B80B070DF70DA90EA30F43
:10384E00BE101A118A13531673176E1820190B1AFD
:10385E00591BEB1B4F1DB51E441F8D2010217C21C3
:08386E002F222C23D223482451
:103878000008000040000000800000000020000058
:0C388800000000000040000000000000F4
:08389400051A0000791500007F
:00000001FF
