:10000000FCFF022089310000413100004131000035
:100010004131000041310000413100004131000018
:100020004131000041310000413100004131000008
:1000300041310000413100004131000041310000F8
:1000400041310000413100004131000041310000E8
:1000500041310000413100004131000041310000D8
:1000600041310000413100004131000041310000C8
:1000700041310000413100004131000041310000B8
:1000800041310000413100004131000041310000A8
:100090004131000041310000413100004131000098
:1000A0004131000041310000413100004131000088
:1000B0004131000041310000413100004131000078
:1000C0004131000041310000413100004131000068
:1000D0004131000041310000413100004131000058
:1000E0004131000041310000413100004131000048
:1000F0004131000041310000413100004131000038
:100100004131000041310000413100004131000027
:100110004131000041310000413100004131000017
:100120004131000041310000413100004131000007
:1001300041310000413100004131000041310000F7
:1001400041310000413100004131000041310000E7
:1001500041310000413100004131000041310000D7
:1001600041310000413100004131000041310000C7
:1001700041310000413100004131000041310000B7
:1001800041310000413100004131000041310000A7
:08019000413100004131000083
:1031880000F010F8FFF7DCFF00F0B6FCFFF7EEFFE9
:1031980000F064FCFFF77AFFFFF718FFFFF7A0FEC7
:0431A800FCE7FEE75B
:1030800081B01CF8019B0BF8019BBBEB0A0FF8D138
:0430900001B07047D4
:1031040081B04FF000094FF0000CBDEB0A0F04DC56
:10311400BDEB0B0F01DBD446EA464BF8049BBBEB3B
:103124000A0FFAD1BCEB0A0F05DDE246D9F800B06C
:0A3134000BF1040BF1E701B0704746
:1030940081B0CDF800E0002200210020FFF7EEFE11
:1030A400002201210020FFF7E9FE00220221002076
:1030B400FFF7E4FE012206210020FFF7DFFE0122D4
:1030C40007210020FFF7DAFE0C4801460020FFF735
:1030D4000DFE42F280510120FFF7A0FE40F6FE07EC
:1030E400C0F23D0700BF00BF7F1EFDD100BF00BF7F
:1030F40000BFDDF800E001B0704700BF5C3A00009B
:102E800081B0CDF800E05FFA81F85FFA82F91DE0C9
:102E90005FFA89F15FFA88F0FFF71CF91FE05FFA2B
:102EA00089F15FFA88F0FFF7F9F918E05FFA89F124
:102EB0005FFA88F0FFF7D2FA11E05FFA89F15FFA62
:102EC00088F0FFF731F80AE0012008E00028DFD0A1
:102ED0000128E4D00228E9D00328EED0F4E7DDF899
:062EE00000E001B07047A4
:1020D40081B0CDF800E0A9E0012905D14FF0040159
:1020E4006548FFF7A9FC04E04FF004016348FFF7DB
:1020F4003FFCBBE0012905D14FF400615E48FFF7C6
:102104009BFC04E04FF400615C48FFF731FCADE058
:10211400012905D14FF010015948FFF78DFC04E067
:102124004FF010015748FFF723FC9FE0012905D128
:102134004FF020015248FFF77FFC04E04FF02001EC
:102144005048FFF715FC91E0012905D14FF08001BB
:102154004B48FFF771FC04E04FF080014948FFF75A
:1021640007FC83E0012905D14FF040014448FFF703
:1021740063FC04E04FF040014248FFF7F9FB75E0CF
:10218400012905D14FF480613F48FFF755FC04E075
:102194004FF480613D48FFF7EBFB67E0012905D16F
:1021A4004FF400513448FFF747FC04E04FF400516A
:1021B4003248FFF7DDFB59E0012905D14FF0040156
:1021C4003348FFF739FC04E04FF004013148FFF7CE
:1021D400CFFB4BE0012905D14FF008012C48FFF754
:1021E4002BFC04E04FF008012A48FFF7C1FB3DE057
:1021F400012905D14FF480712548FFF71DFC04E047
:102204004FF480712348FFF7B3FB2FE0012905D178
:102214004FF400711E48FFF70FFC04E04FF4007107
:102224001C48FFF7A5FB21E0012020E000283FF433
:1022340053AF01283FF45EAF02283FF469AF03288F
:102244003FF474AF04283FF47FAF05283FF48AAF0E
:1022540006283FF495AF0728A0D00828ACD0092859
:10226400B8D00A28C4D00B28D0D0DDE70020DDF890
:1022740000E001B0704700BF50F00F4040F00F4045
:1022840090F00F4080F00F4010F00F4000F00F402E
:08229400D0F00F40C0F00F4034
:101A3C0081B0CDF800E0034AFFF75CFDDDF800E073
:081A4C0001B070470401020023
:1015000081B0CDF800E0FFF7EDFCDDF800E001B0C0
:02151000704722
:100EE40083B0CDF800E006460C4615463046FFF7C1
:100EF400F5FA40F2FF1306EA0300800900262246B1
:100F04002946202E39D24FF0010303FA06F402EAEF
:100F140004031F46A3422ED104031A4B1C19B30029
:100F2400E51801952C68184B04EA03032B60174B52
:100F340001EA0304019B1B6843EA0404019B1C604F
:100F440001F48033B3F5803F15D08401104B1B1995
:100F54001433029301F400333BB1FC43029B1B683E
:100F640003EA0404029B1C6005E0029B1B6843EA3D
:100F74000704029B1C60761CC3E7DDF800E003B0A5
:100F8400704700BF009004400000FFFFFFFF000017
:040F940000F00F401A
:1004E00081B040F2FF1100EA01018909084600F2DB
:1004F00009024FF0010101FA02F20449096841EAD8
:10050000020202490A6001B0704700BF388004400F
:1019740081B0CDF800E0034AFFF7C0FDDDF800E0D8
:0819840001B0704704010400EA
:10229C0081B0CDF800E0A9E0012905D14FF008018B
:1022AC006548FFF7C5FB04E04FF008016348FFF7F2
:1022BC005BFBBBE0012905D14FF400215E48FFF721
:1022CC00B7FB04E04FF400215C48FFF74DFBADE099
:1022DC00012905D14FF010015948FFF7A9FB04E083
:1022EC004FF010015748FFF73FFB9FE0012905D144
:1022FC004FF020015248FFF79BFB04E04FF0200108
:10230C005048FFF731FB91E0012905D14FF08001D6
:10231C004B48FFF78DFB04E04FF080014948FFF775
:10232C0023FB83E0012905D14FF040014448FFF71E
:10233C007FFB04E04FF040014248FFF715FB75E0CE
:10234C00012905D14FF004013F48FFF771FB04E070
:10235C004FF004013D48FFF707FB67E0012905D169
:10236C004FF480713448FFF763FB04E04FF4807145
:10237C003248FFF7F9FA59E0012905D14FF48031C1
:10238C003148FFF755FB04E04FF480312F48FFF73D
:10239C00EBFA4BE0012905D14FF400312A48FFF745
:1023AC0047FB04E04FF400312848FFF7DDFA3DE02D
:1023BC00012905D14FF480612348FFF739FB04E074
:1023CC004FF480612148FFF7CFFA2FE0012905D1A6
:1023DC004FF400611C48FFF72BFB04E04FF4006145
:1023EC001A48FFF7C1FA21E0012020E000283FF451
:1023FC0053AF01283FF45EAF02283FF469AF0328C6
:10240C003FF474AF04283FF47FAF05283FF48AAF44
:10241C0006283FF495AF0728A0D00828ACD009288F
:10242C00B8D00A28C4D00B28D0D0DDE70020DDF8C6
:10243C0000E001B0704700BF50F00F4040F00F407B
:10244C00D0F00F40C0F00F4090F00F4080F00F40E4
:10245C0081B0CDF800E09CE0BBE0012905D14FF440
:10246C0080715E48FFF7E4FA04E04FF480715C4839
:10247C00FFF77AFAADE0012905D14FF40071574806
:10248C00FFF7D6FA04E04FF400715548FFF76CFAE9
:10249C009FE0012905D14FF400115248FFF7C8FA0B
:1024AC0004E04FF400115048FFF75EFA91E0012967
:1024BC0005D14FF400014B48FFF7BAFA04E04FF492
:1024CC0000014948FFF750FA83E0012905D14FF488
:1024DC0080014448FFF7ACFA04E04FF48001424815
:1024EC00FFF742FA75E0012905D14FF020013F4872
:1024FC00FFF79EFA04E04FF020013D48FFF734FA55
:10250C0067E0012905D14FF002013848FFF790FA36
:10251C0004E04FF002013648FFF726FA59E0012992
:10252C0005D14FF480312F48FFF782FA04E04FF4C5
:10253C0080312D48FFF718FA4BE0012905D14FF4F3
:10254C0000312848FFF774FA04E04FF400312648B4
:10255C00FFF70AFA3DE0012905D14FF480512548D7
:10256C00FFF766FA04E04FF480512348FFF7FCF9BB
:10257C002FE0012905D14FF400611E48FFF758FAEE
:10258C0004E04FF400611C48FFF7EEF921E0012054
:10259C0020E000283FF460AF01283FF45EAF022832
:1025AC003FF469AF03283FF474AF04283FF47FAFC6
:1025BC0005283FF48AAF06283FF495AF0728A0D032
:1025CC000828ACD00928B8D00A28C4D00B28D0D001
:1025DC00DDE70020DDF800E001B0704790F00F401F
:1025EC0080F00F4050F00F4040F00F4010F10F40C2
:0C25FC0000F10F4010F00F4000F00F4005
:101F280081B0CDF800E09CE0BBE0012905D14FF479
:101F380080515E48FFF77EFD04E04FF480515C4815
:101F4800FFF714FDADE0012905D14FF400515748C2
:101F5800FFF770FD04E04FF400515548FFF706FD08
:101F68009FE0012905D14FF400115248FFF762FDA7
:101F780004E04FF400115048FFF7F8FC91E0012904
:101F880005D14FF400014B48FFF754FD04E04FF42E
:101F980000014948FFF7EAFC83E0012905D14FF425
:101FA80080014448FFF746FD04E04FF480014248B1
:101FB800FFF7DCFC75E0012905D14FF040013F48EF
:101FC800FFF738FD04E04FF040013D48FFF7CEFC35
:101FD80067E0012905D14FF004013848FFF72AFDD1
:101FE80004E04FF004013648FFF7C0FC59E001292E
:101FF80005D14FF480312F48FFF71CFD04E04FF462
:1020080080312D48FFF7B2FC4BE0012905D14FF490
:1020180000312848FFF70EFD04E04FF40031264850
:10202800FFF7A4FC3DE0012905D14FF48051254874
:10203800FFF700FD04E04FF480512348FFF796FCBA
:102048002FE0012905D14FF400611E48FFF7F2FC8B
:1020580004E04FF400611C48FFF788FC21E00120F0
:1020680020E000283FF460AF01283FF45EAF02286B
:102078003FF469AF03283FF474AF04283FF47FAFFF
:1020880005283FF48AAF06283FF495AF0728A0D06B
:102098000828ACD00928B8D00A28C4D00B28D0D03A
:1020A800DDE70020DDF800E001B0704790F00F4058
:1020B80080F00F4050F00F4040F00F4010F10F40FB
:0C20C80000F10F4010F00F4000F00F403E
:102CF00081B0CDF800E011E00846FFF7DFF816E0FC
:102D00000846FFF7EDF812E00846FFF7FBF80EE083
:102D10000846FFF7A9FC0AE0012008E00028EBD0F4
:102D20000128EDD00228EFD00328F1D0F4E7DDF838
:062D300000E001B0704755
:101EBC0081B0CDF800E0011D0A68016808461146A2
:101ECC00034AFFF75FFE0020DDF800E001B0704729
:041EDC00F4380000D6
:101B900081B0CDF800E003460C4615460648FFF735
:101BA000E9FB224619462B460348FFF701FEDDF804
:0C1BB00000E001B0704700BF00C0024020
:1013740081B00F49884206D10E4A0F490A600F4ACC
:101384000F490A6012E00F49884206D10E4A0A4901
:101394000A600E4A0A490A6008E00D49884205D1EC
:1013A4000C4A05490A600C4A05490A6001B07047B5
:1013B40000C00240711B00008C00FF1F8914000054
:1013C4009000FF1F00D00240A91900001114000072
:0C13D40000C00A40C919000015150000F7
:1017B00084B0CDF800E003910146104601900291FB
:1017C0001846FFF787FC0299019800F010042409DD
:1017D0002346019002910846FFF7A2FC029902916C
:1017E0000846FFF721FB0299019800F000450C68BC
:1017F0002C430C6000F080450C682C430C600C6896
:1018000044F440540C600D686FF4804405EA04040D
:101810000C6001F20C059C002E1900F00F053468D5
:101820002C43346001F20C059C002E1900F08065F9
:1018300034682C43346001F20C059C002E1900F032
:10184000007534682C43346001F20C059C002E199D
:1018500000F0807534682C43346001F20C059C0064
:101860002E1935686FF0F04405EA0404346001F283
:101870000C059C002E1900F00F04E50634682C437B
:1018800034600191039A0846D9B2FEF7FBFF019933
:101890000D686FF0010405EA04040C60DDF800E057
:0418A00004B07047D9
:1010D40081B0CDF800E040F2000C83464FEA8C0169
:1010E4000BEB01010968B1F1FF3F12D00BF13401A0
:1010F4004FEA8C03C91809680A460BEB0301096817
:1011040008461146FFF7E8FA0CF1010C1FFA8CFCB3
:0A111400E4E7DDF800E001B07047E9
:1006DC0082B0CDF800E080464FEA581202F00702D3
:1006EC00914608F01F04A24693010D4AD3184FF00F
:1006FC000102A240019218460A46019900F0FAFE46
:10070C004FEA0933074AD3184FEA8A029C1808F4B7
:10071C00E06322681A432260DDF800E002B0704703
:08072C0000F00F4000900440B2
:1011200081B00B49884203D1012252B209490A60B9
:101130000949884203D1012252B208490A6008498C
:10114000884203D1012252B206490A6001B07047B9
:1011500000C00240B007904200D00240B407904265
:0811600000C00A403006904275
:100E280081B002686FF4804102EA01010160016843
:100E380041F00101016000F22C021149116000F239
:100E480008020021116000F20C024FF0F04111601D
:100E580000F210024FF0F041116000F23002002160
:100E6800116000F2340200211160016841F4406110
:100E780001600268034942EA0101016001B070475C
:080E880000000A9A014000007D
:1008840091B0CDF800E00F9010468DF840100E9016
:1008940001AB1846FFF74CFF4FF0FF330D930023D5
:1008A40006930023089301230A9300230B93002348
:1008B4000593059B042B41D20D9B002B3ED00023B6
:1008C4000793079B102B35D20D9B002B32D00123AD
:1008D4000993099B032B29D20D9B3BB3099C029BD3
:1008E40003FB04F6059B9C00314B1B191D68079BF9
:1008F4009C00304B1B191B686B43B6FBF3F420467A
:100904000E9BA3420ED30E9B1C1A0C940D9BA34268
:1009140008D90C9B0D93059B0693079B08930B909A
:10092400099B0A93099B5B1C0993D2E7079B5B1CF9
:100934000793C6E7059B5B1C0593BAE70F9B03F27D
:100944000C049DF840309B00E5182C681A4B04EA0F
:1009540003032B600F9B03F20C049DF840309B00B3
:10096400E5180A9B5B1EDC072B6823432B600F9B57
:1009740003F20C049DF840309B00E518069B1B0411
:1009840003F440342B6823432B600F9B03F20C04C5
:100994009DF840309B00E518089B03F00F042B687A
:1009A40023432B600B98DDF800E011B0704700BFC3
:0C09B400383A0000C0390000F0FFFC7F62
:1007340081B0CDF800E00446FFF768FE40F2E831EE
:1007440000FB01F3194909680A0F1849096801F007
:100754007061090EC8B21549096801F47001090DE8
:10076400CDB21249096801F47021090CCEB2D1B29C
:10077400491C09B259430F462360221D411C09B28A
:10078400B7FBF1F1116004F20802691C09B2B7FB6E
:10079400F1F1116004F20C02711C09B2B7FBF1F122
:1007A4001160DDF800E001B0704700BF44800440F0
:0C04100001480068704700BF7C00FF1F1F
:101EE00081B0CDF800E0011D0A680168084611467E
:101EF000034AFFF763FE0020DDF800E001B0704701
:041F0000883800001D
:101BBC0081B0CDF800E003460C4615460648FFF709
:101BCC00D3FB224619462B460348FFF7EBFDDDF805
:0C1BDC0000E001B0704700BF00D00240E4
:101F040081B0CDF800E0011D0A6801680846114659
:101F1400034AFFF767FE0020DDF800E001B07047D8
:041F24001C38000065
:101BE80081B0CDF800E003460C4615460648FFF7DD
:101BF800BDFB224619462B460348FFF7D5FDDDF805
:0C1C080000E001B0704700BF00C00A40BF
:1026680081B0CDF800E0011D0A68016808461146EE
:10267800034AFFF7B5FA0020DDF800E001B0704723
:042688001C380000FA
:102E200081B0CDF800E011E00846FFF72FFC16E076
:102E30000846FFF73DFC12E00846FFF703FC0EE0F2
:102E40000846FFF7E1FB0AE0012008E00028EBD08C
:102E50000128EDD00228EFD00328F1D0F4E7DDF807
:062E600000E001B0704724
:10268C0081B0CDF800E0FFF70BFA044A04490A6068
:10269C000020DDF800E001B0704700BF551A0000C3
:0426AC004400FF1FC8
:101AAC0081B0CDF800E003460A48FFF769FD0A4A09
:101ABC0040F2000104B402B440F20002194640F2B4
:101ACC0000030448FFF720FE02B0DDF800E001B08F
:0C1ADC00704700BF00C006404437000007
:10158C0081B0304988420CD12F4A30490A60304A28
:10159C0030490A60304A31490A60314A31490A609F
:1015AC004EE0314988420CD1304A28490A60304A11
:1015BC0028490A602F4A29490A602F4A29490A609A
:1015CC003EE02E4988420CD12D4A20490A602D4A12
:1015DC0020490A602C4A21490A602C4A21490A6098
:1015EC002EE02B4988420CD12A4A18490A602A4A13
:1015FC0018490A60294A19490A60294A19490A6096
:10160C001EE0284988420CD1274A10490A60274A13
:10161C0010490A60264A11490A60264A11490A6093
:10162C000EE0254988420BD1244A08490A60244A15
:10163C0008490A60234A09490A60234A09490A6091
:10164C0001B0704700A006408D1900009400FF1FE8
:10165C00991700009800FF1FA51800009C00FF1FA1
:10166C00D9160000A000FF1F00B006405919000059
:10167C0025130000F91100007D12000000C0064087
:10168C00551A0000B1110000C9110000E111000051
:10169C0000D00640211A00009911000069110000C9
:1016AC008111000000A00E40E9190000DD120000BD
:1016BC000D130000F512000000B00E40051A0000DA
:0C16CC00351200004D12000065120000F5
:1017140085B0CDF800E001900291ADF80C20ADF851
:101724001030BDF81440ADF814400698FFF7D0FC13
:101734000198FFF703FB02990198FFF7C5FABDF87A
:101744000C100198FFF7B0FABDF810100198FFF7DC
:101754004DFBBDF814100198FFF742FB0198FFF709
:1017640037FB0198FFF770F8DDF800E005B070472B
:100D400081B01849884204D1012252B216490A6082
:100D500026E01649884204D1012252B214490A60A1
:100D60001EE01449884204D1012252B212490A609D
:100D700016E01249884204D1012252B210490A6099
:100D80000EE01049884204D1012252B20E490A6095
:100D900006E00E49884203D1012252B20C490A6092
:100DA00001B0704700A00640A806904200B006407F
:100DB000AC06904200C00640B006904200D006400B
:100DC000B406904200A00E402805904200B00E40AC
:040DD0002C0590421C
:100CCC0085B0CDF800E08046894601AA1046FFF7B2
:100CDC002BFD164A904503D0154A904500D001E0F3
:100CEC00019800E002984FEA0912B0FBF2F291B2BF
:100CFC0092B2130A9BB298F800201A4388F800208D
:100D0C0008F10103CAB21A7043014FEA0912B3FB8E
:100D1C00F2F34A0192B29A1AD0B208F10A031A7885
:100D2C0002431A70DDF800E005B0704700A00640E1
:040D3C0000B00640BD
:100CAC0081B0841C23784FF6EF7212B203EA020271
:100CBC002270841C0B0122781A43227001B07047F9
:100DF00081B001F0020262B1841C01F0020322788A
:100E00001A432270841C01F0010322781A432270D5
:100E100007E0841C23784FF6FD7212B203EA020247
:060E2000227001B07047D2
:0C0DE40081B002780A43027001B0704731
:100DD40081B0C21C117841F00401117001B0704758
:10084C0081B0C21C117841F00801117001B07047E1
:1026B00081B0CDF800E0FFF7DBF9044A04490A6075
:1026C0000020DDF800E001B0704700BF211A0000D3
:0426D0004400FF1FA4
:101A700081B0CDF800E003460A48FFF787FD0A4A27
:101A800040F2000104B402B440F20002194640F2F0
:101A900000030448FFF73EFE02B0DDF800E001B0AD
:0C1AA000704700BF00D00640B0370000C7
:1026440081B0CDF800E0FFF74DFA044A04490A606E
:102654000020DDF800E001B0704700BF8D190000D4
:042664004400FF1F10
:101AE80081B0CDF800E003460A48FFF74BFD0A4AEB
:101AF80040F2000104B402B440F20002194640F278
:101B080000030448FFF702FE02B0DDF800E001B070
:0C1B1800704700BF00A00640D836000057
:1026080081B0CDF800E0FFF76BFA044A04490A608C
:102618000020DDF800E001B0704700BF8D19000010
:042628004400FF1F4C
:102FD40081B0CDF800E025492548FFF7E3FE40F62F
:102FE400FE57C0F2277700BF00BF7F1EFDD100BF90
:102FF40000BF00BFFFF770FED72822D11D48022171
:10300400FFF798FE042040F00200C0B240F0010037
:10301400FFF728FF0A20FFF737FC0320FFF710FC17
:103024000320FFF7D3FC402040F004000222C1B289
:103034008020FFF735FC03220021E020FFF7E8FBA6
:1030440004E00D480221FFF775FEFEE740F6FE0797
:10305400C0F23D0700BF00BF7F1EFDD100BF00BF0F
:1030640000BFDDF800E001B0704700BF543A000033
:0C307400603900002100FF1F3000FF1F2A
:102DA80081B0CDF800E00446124A1378124A137035
:102DB8000023124A13700023114A13700023114A8A
:102DC80013700023104A13700846FEF725FF2046AB
:102DD800FEF73AFF01200D4C2468A04701200C4C57
:102DE8002468A04701200B4C2468A047DDF800E0C8
:102DF80001B070473600FF1F3700FF1F4F00FF1F4D
:102E08004D00FF1F4E00FF1F7800FF1F6800FF1FC7
:082E18004800FF1F6400FF1FCA
:0C262C0001490860704700BF0808FE4329
:0C26380001490860704700BF2C08FE43F9
:0C1EB00001490860704700BF1010FE439D
:0C1E380001490860704700BF1410FE4311
:0C1E440001490860704700BF1C10FE43FD
:0C1E500001490860704700BF1810FE43F5
:0C1E2C0001490860704700BF2800FE4319
:0C1E080001490860704700BF3408FE4329
:0C1E140001490860704700BF0818FE4339
:0C1E200001490860704700BF0C18FE4329
:0C1E8C0001490860704700BF2018FE43A9
:0C1E980001490860704700BF2418FE4399
:0C1EA40001490860704700BF0C08FE43B5
:0C1E800001490860704700BF4C08FE4399
:0C1E5C0001490860704700BF1018FE43E9
:0C1E680001490860704700BF1418FE43D9
:0C1E740001490860704700BF1C18FE43C5
:0C27A80001490860704700BF1818FE438C
:0C279C0001490860704700BF0810FE43B0
:0C27C00001490860704700BF2008FE437C
:0C27B40001490860704700BF4010FE4360
:0C27800001490860704700BF4410FE4390
:0C27740001490860704700BF2810FE43B8
:0C27900001490860704700BF2C10FE4398
:02278C00704794
:0C27F00001490860704700BF2010FE4344
:0C28080001490860704700BF2410FE4327
:0C27D80001490860704700BF5408FE4330
:0C27CC0001490860704700BF5C08FE4334
:0C27FC0001490860704700BF5808FE4308
:0C27E40001490860704700BF1420FE434C
:0C26FC0001490860704700BF0420FE4345
:0C27080001490860704700BF4008FE4314
:0C27140001490860704700BF4408FE4304
:0C26F00001490860704700BF3000FE4345
:0C26D40001490860704700BF2C00FE4365
:0226E000704741
:0C26E40001490860704700BF3010FE4341
:0C27500001490860704700BF3410FE43D0
:0C275C0001490860704700BF5408FE43AC
:0C27680001490860704700BF5C08FE4398
:0C27440001490860704700BF5808FE43C0
:0C27200001490860704700BF1820FE430C
:0C272C0001490860704700BF0820FE4310
:0C27380001490860704700BF4008FE43E4
:0C1C380001490860704700BF4408FE43EB
:0C1C440001490860704700BF3000FE43FB
:0C1C140001490860704700BF2C00FE432F
:101C2000026803490A60011D0A6802490A60704798
:081C30007000FF1F5400FF1FAC
:101C500000F2300303F218010A680C490A6003F22B
:101C60001C010A680A490A6002680A490A6000F20F
:101C700008010A6808490A60011D0A6807490A60E4
:101C800000F218010A6806490A6070475C00FF1FED
:101C90006000FF1F4800FF1F6400FF1F6800FF1F58
:041CA0006C00FF1FB6
:102CDC0081B0CDF800E00C20FFF722F8DDF800E021
:042CEC0001B070477C
:101D2C0082B0CDF800E001A908701C490A781C4962
:101D3C000978914216D101AA117841F080011170F5
:101D4C000020184C2468A04701A902220846FFF77E
:101D5C00C1FD0120134C2468A04701A9491C097836
:101D6C00C8B216E0FFF7DCFD01AA0F490978002381
:101D7C00C8B211460122FFF7CFFE01AA0A49097821
:101D8C000123C8B211460122FFF7DAFE01A9097836
:101D9C00C8B2DDF800E002B0704700BF3600FF1F8C
:0C1DAC003700FF1F4800FF1F4C00FF1F06
:1018E00084B0CDF800E0ADF80C2001900291BDF875
:1018F0000C40BDF80C305B1EADF80C307CB1019B88
:101900001B78DCB2A0B2084C2468A047029B187078
:10191000029B5B1C0293019B5B1C0193E7E7DDF8D4
:0C19200000E004B0704700BF5400FF1F3F
:1014880081B0CDF800E01749096841F0010215491B
:101498000A6014490A686FF4406102EA010141F4E4
:1014A800406210490A60104A10490A6010490A68E7
:1014B80010490A400E490A600A490A686FF001019A
:1014C8000A4008490A6082B24FF080610548FFF778
:1014D800EFFC0448FFF7D8FC80B2DDF800E001B06B
:1014E800704700BF00C0024000000A9A2CC00240AA
:0814F80008C00240FFFF0000E4
:100EB80081B000F22C044FF00043236000F23404A8
:100EC80093B241EA0303236000F22C031C68C4F3C5
:0A0ED800C07303B9F8E701B07047DA
:100E900081B000F22C010A68C2F3404101B9F8E7C1
:100EA00000F2380109688BB200F22C024FF40031D5
:080EB000116098B201B0704717
:1014100081B0CDF800E01749096841F00102154993
:101420000A6014490A686FF4406102EA010141F45C
:10143000406210490A60104A10490A6010490A685F
:1014400010490A400E490A600A490A686FF0010112
:101450000A4008490A6082B24FF080610548FFF7F0
:101460002BFD0448FFF714FD80B2DDF800E001B069
:10147000704700BF00D0024000000A9A2CD0024002
:0814800008D00240FFFF00004C
:1015140081B0CDF800E01749096841F0010215498E
:101524000A6014490A686FF4406102EA010141F457
:10153400406210490A60104A10490A6010490A685A
:1015440010490A400E490A600A490A686FF001010D
:101554000A4008490A6082B24FF080610548FFF7EB
:10156400A9FC0448FFF792FC80B2DDF800E001B06A
:10157400704700BF00C00A4000000A9A2CC00A400D
:0815840008C00A40FFFF00004F
:10192C0082B0CDF800E040F20004ADF80440064C63
:10193C002468A047BDF9041041EA000000B2DDF8AC
:0C194C0000E002B0704700BF5800FF1F11
:1013F80081B0CDF800E00348FFF7CAFDDDF800E052
:0814080001B0704700600640CE
:100F980084B0CDF800E04FF000024349884205D103
:100FA80042490C6842490968039115E04149884261
:100FB80006D141490A6841490968039114460BE082
:100FC8003F49884206D13F490A683F490968039169
:100FD800114600E011460C4601940290FFF7E6FB2B
:100FE8000298019C831C0122197862F3451119703B
:100FF800C11C0A78C2F30011C9B1C31C01221978B7
:1010080062F304111970811D0A78C2F3001129B125
:10101800831D0122197862F304111970C31C01227F
:10102800197862F3410119704FF6FF7038E02346D2
:10103800019404460198E11C0A78C2F3400151B9B1
:1010480040B123B90520039CA047012028E05A1E7F
:101058001346FFE7EFE7A11D0A78C2F3001129B193
:10106800A31D0122197862F304111970E31C0122EF
:10107800197862F34101197005462346D91C0A788C
:10108800C2F3400159B148B125B90520039CA047D6
:10109800012005E0691E0A461546FFE7EEE7002035
:1010A800DDF800E004B07047006006403800FF1F1C
:1010B8008000FF1F007006403C00FF1F8400FF1FD8
:0C10C80000600E404000FF1F8800FF1F6A
:1007B40082B0CDF800E04FF000021A49884205D11A
:1007C40019490B6819490968019115E018498842CB
:1007D40006D118490A6818490968019113460BE0C3
:1007E4001649884206D116490A68164909680191D2
:1007F400114600E011460B461D4604462046FFF70D
:100804000BFE50B943B11DB90720019CA04704E079
:10081400691E08460546FFE7F0E7DDF800E002B090
:10082400704700BF006006403800FF1F8000FF1FB4
:10083400007006403C00FF1F8400FF1F00600E4054
:080844004000FF1F8800FF1FA8
:10041C0081B0C11C0A78C2F3401181F00101C9B24C
:06042C00C8B201B07047E8
:10133C0081B0CDF800E00348FFF728FEDDF800E0AF
:08134C0001B07047007006407B
:1013E00081B0CDF800E00348FFF7D6FDDDF800E05E
:0813F00001B0704700600E40DF
:1017980081B0CDF800E00348FFF75CF8DDF800E021
:0817A80001B0704700A00640EB
:10085C0081B0011D0A78C2F3401101B9F9E7C11D3D
:08086C000978C8B201B0704721
:1018A40081B0CDF800E00348FEF7E2FFDDF800E088
:0818B40001B0704700A00640DE
:0E08740081B0011D0978C1F3401001B070473A
:1016D80081B0CDF800E00348FFF76EF9DDF800E0CF
:0816E80001B0704700A00640AC
:0E09C00081B0011D0978C1F3801001B07047AD
:1013240081B0CDF800E00348FFF796FADDF800E05D
:0813340001B0704700B0064053
:1011F80081B0CDF800E00348FFF738FBDDF800E0E8
:0812080001B0704700B0064080
:10127C0081B0CDF800E00348FFF79CFBDDF800E0FF
:08128C0001B0704700B00640FC
:1011B00081B0CDF800E00348FFF750FBDDF800E018
:0811C00001B0704700C00640B9
:1011C80081B0CDF800E00348FFF750FBDDF800E000
:0811D80001B0704700C00640A1
:1011E00081B0CDF800E00348FFF7EAFBDDF800E04E
:0811F00001B0704700C0064089
:1011980081B0CDF800E00348FFF75CFBDDF800E024
:0811A80001B0704700D00640C1
:1011680081B0CDF800E00348FFF780FBDDF800E030
:0811780001B0704700D00640F1
:1011800081B0CDF800E00348FFF71AFCDDF800E07D
:0811900001B0704700D00640D9
:1012DC0081B0CDF800E00348FFF7BAFADDF800E082
:0812EC0001B0704700A00E40A4
:10130C0081B0CDF800E00348FFF7AEFADDF800E05D
:08131C0001B0704700A00E4073
:1012F40081B0CDF800E00348FFF760FBDDF800E0C3
:0813040001B0704700A00E408B
:1012340081B0CDF800E00348FFF70EFBDDF800E0D5
:0812440001B0704700B00E403C
:10124C0081B0CDF800E00348FFF70EFBDDF800E0BD
:08125C0001B0704700B00E4024
:1012640081B0CDF800E00348FFF7A8FBDDF800E00B
:0812740001B0704700B00E400C
:101B240082B0CDF800E040F20004ADF80440054C6A
:101B34002468A047BDF90440044320B2DDF800E066
:081B440002B070475000FF1FC2
:1012100081B0CDF800E008B413460A46C1B20448D4
:10122000FFF74EFC01B0DDF800E001B0704700BFF1
:041230000060064014
:100AC00087B0CDF800E005920246C8B20693079CB5
:100AD00007944FF000016C4CA24206D16B4C266883
:100AE0006B4C24680494314614E06A4CA24205D150
:100AF000694C2668694C246804940AE0684CA24258
:100B000006D1684C2168684C246804940E4600E0C5
:100B10000E463146440001910292E1B21046FFF7C1
:100B200079FD029A019920B91046FFF7F1FC0020E7
:100B3000A5E000273B46069CA34216D2059CE4187C
:100B40002478019202910393E1B21046FFF762FD0F
:100B5000039B0299019A20B91046FFF7D9FC0020A7
:100B60008DE05C1C27463B46E5E7079C012C48D1FD
:100B70000B461046C41C2578C5F3400464B141B14E
:100B800023B90420049CA047012078E05A1E144693
:100B900000E01C462346EDE7861C0025347865F30B
:100BA000451434700A46C41C2578C5F340045CB96A
:100BB00039B122B90420049CA04701205FE0531EF4
:100BC00000E013461A46EEE7841D2578C5F30014AD
:100BD0002CB1861D0125347865F304143470841D0E
:100BE0002578C5F380142CB1861D0125347865F372
:100BF00086143470C61C0125347865F341043470C2
:100C00002AE0961C0125347865F3820434700B4683
:100C10001046C41C2578C5F3400464B941B123B91A
:100C20000420049CA047012029E05A1E144600E03D
:100C30001C462346EDE7841D2578C5F300142CB12E
:100C4000861D0125347865F304143470C61C012513
:100C5000347865F3410434700A46C41C2578C5F322
:100C600040045CB139B122B90420049CA0470120A2
:100C700005E0531E00E013461A46EEE70020DDF8BB
:100C800000E007B0704700BF006006403800FF1F5B
:100C90008000FF1F007006403C00FF1F8400FF1F04
:0C0CA00000600E404000FF1F8800FF1F96
:1006140082B0CDF800E04FF00003264A904205D1A5
:10062400254A1568254A1268019215E0244A904229
:1006340006D1244A1368244A126801921D460BE02D
:10064400224A904206D1224A1368224A1268019231
:100654001A4600E01A461546841C0123227863F3E7
:1006640004122270021D11702C462946C21C1378F4
:10067400C3F340025AB949B124B90420019CA047EC
:10068400012012E0621E13461C46FFE7EEE7C41C7D
:100694000123227863F341022270C21C1378C3F34E
:1006A400000282F00102D2B2D0B2DDF800E002B062
:1006B400704700BF006006403800FF1F8000FF1F26
:1006C400007006403C00FF1F8400FF1F00600E40C6
:0806D4004000FF1F8800FF1F1A
:1005100084B0CDF800E04FF000023549884205D1A3
:1005200034490C6834490968039115E0334988421D
:1005300006D133490A6833490968039114460BE030
:100540003149884206D131490A6831490968039125
:10055000114600E011460C46831C0022197862F314
:1005600045111970831C0022197862F30411197067
:100570000194029000F01EF90298019C2346C11CD0
:100580000A78C2F3400151B944B123B90620039C53
:10059000A047012027E05A1E1346FFE7EFE7811D21
:1005A0000A78C2F3801129B1831D0122197862F300
:1005B00086111970C31C0122197862F34101197068
:1005C0002346C11C0A78C2F3400159B14CB123B98A
:1005D0000620039CA047012005E0591E0A46134649
:1005E000FFE7EEE70020DDF800E004B0704700BF51
:1005F000006006403800FF1F8000FF1F00700640AB
:100600003C00FF1F8400FF1F00600E404000FF1FE2
:040610008800FF1F40
:1012940081B0CDF800E008B413460A46C1B2044850
:1012A400FFF70CFC01B0DDF800E001B0704700BFAF
:0412B4000070064080
:1012B80081B0CDF800E008B413460A46C1B204482C
:1012C800FFF7FAFB01B0DDF800E001B0704700BF9E
:0412D80000600E4064
:101B4C0082B0CDF800E040F20004ADF80440044C43
:101B5C002468A047BDF90400DDF800E002B070472E
:041B6C007400FF1FE3
:1016F00081B0CDF800E008B413460A46C1B20448F0
:10170000FFF766F901B0DDF800E001B0704700BFF7
:04171000006006402F
:1009D00085B0CDF800E08DF8041001469DF80400C4
:1009E00003920493059C05944400A4B244F00104CE
:1009F00001910846E1B2FFF70DFE019918B90846CA
:100A0000FFF786FD58E08E1C0025347865F304144A
:100A10003470049C012C06D18E1C0125347865F3BA
:100A2000C304347005E08E1C0025347865F3C304DC
:100A3000347001910846FFF7FDFC0199049C621E89
:100A4000002A34DB15E0019102920846FFF760FDB1
:100A5000029A019912E08E1C0125347865F3C304D3
:100A600034700BE08E1C0025347865F3C3043470B9
:100A700004E0002AE7D0012AEDD0F3E73AB90C1DD3
:100A80002578039C2570039C641C03940BE0019162
:100A900002920846FFF7CEFC029A0199039C20704F
:100AA000039C641C0394541E23461A46C8E7059C05
:100AB00014B9084600F070FADDF800E005B07047A0
:1004340082B0CDF800E04FF000021F49884205D198
:100444001E490B681E490968019115E01D4988423F
:1004540006D11D490A681D490968019113460BE03C
:100464001B49884206D11B490A681B490968019146
:10047400114600E011460B46011D0C781D46C11CB7
:100484000A78C2F3400159B94BB125B90320019C44
:10049400A04701200BE0691E0A461546FFE7EEE778
:1004A400C31C0122197862F341011970E0B2DDF82E
:1004B40000E002B0704700BF006006403800FF1F34
:1004C4008000FF1F007006403C00FF1F8400FF1FD8
:0C04D40000600E404000FF1F8800FF1F6A
:1017740081B0CDF800E008B413460A46C1B204486B
:10178400FFF724F901B0DDF800E001B0704700BFB5
:04179400007006409B
:1018BC0081B0CDF800E008B413460A46C1B2044822
:1018CC00FFF780F801B0DDF800E001B0704700BF11
:0418DC0000600E405A
:102D380083B0CDF800E0024610460D228DF8082039
:102D48000A228DF809201FE0FEF7DCFF23E0027855
:102D58002AB10190FEF7D6FF0198401CF7E71AE068
:102D680002782AB10190FEF7CDFF0198401CF7E7E1
:102D780002AA1046FEF7C6FF0DF109021046FEF73B
:102D8800C1FF08E0062007E00029DDD00129DED0D8
:102D98000229E5D0F6E70020DDF800E003B070472F
:101D0C0081B0CDF800E00178CCB2A0B2034C2468CD
:101D1C00A0470020DDF800E001B070474400FF1F31
:101B700081B0CDF800E082B24FF080610348FFF7FA
:101B80009BF9DDF800E001B0704700BF00C00240E3
:1019A80081B0CDF800E082B24FF080610348FFF7C4
:1019B8007FFADDF800E001B0704700BF00D00240B8
:1019C80081B0CDF800E082B24FF080610348FFF7A4
:1019D8006FFADDF800E001B0704700BF00C00A40B0
:10198C0081B0CDF800E081B20348FFF7DDFCDDF853
:0C199C0000E001B0704700BF00A0064052
:1013540081B0ADF800100146BDF800000A1D1378F5
:10136400C3F3C01202B9F9E7CA1D107001B0704787
:1019580081B0CDF800E081B20348FFF7F7FCDDF86D
:0C19680000E001B0704700BF00B0064076
:101A540081B0CDF800E081B20348FFF779FCDDF8EE
:0C1A640000E001B0704700BF00C0064069
:101A200081B0CDF800E081B20348FFF793FCDDF808
:0C1A300000E001B0704700BF00D006408D
:1019E80081B0CDF800E081B20348FFF7AFFCDDF825
:0C19F80000E001B0704700BF00A00E40EE
:101A040081B0CDF800E081B20348FFF7A1FCDDF816
:0C1A140000E001B0704700BF00B00E40C1
:102E680081B0CDF800E000F00F010E20FEF716FF4C
:082E7800DDF800E001B0704735
:101CA40082B0CDF800E001AA1070521C1170124AE3
:101CB4001378124A12789A420ED10020104C2468EC
:101CC400A04701AA114602220846FFF707FE012099
:101CD4000B4C2468A0470AE0FFF726FE01AB094A33
:101CE400127819460123D0B20222FFF719FFDDF85A
:101CF40000E002B0704700BF3600FF1F3700FF1F2F
:081D04004800FF1F4C00FF1F07
:10288C0081B0CDF800E000F07F011020FFF704FAD2
:08289C00DDF800E001B0704717
:1028440082B0CDF800E0032801D9032300E0C3B22D
:102854008DF804301320FFF767FA9DF80430094A15
:1028640010704FF6FC7109B200EA01011170C9B28F
:10287400194311701320FFF713FADDF800E002B0DA
:08288400704700BF4D00FF1F6B
:1029D00082B0CDF800E0072801D9072400E0C4B296
:1029E0008DF804401320FFF7A1F99DF804400A4B2D
:1029F00018704FF6E37109B200EA01011970A200E4
:102A000092B2C9B211431970C9B21320FFF74AF943
:0C2A1000DDF800E002B070474D00FF1F31
:1028A40081B0CDF800E001F004031BB22BB1464B1C
:1028B4001B7843F00404E4B204E0434B1B7803F0B8
:1028C400FB04E4B2404B1C7001F010031BB22BB1AB
:1028D4003D4B1B7843F01004E4B204E03A4B1B7800
:1028E40003F0EF04E4B2384B1C7001F040031BB258
:1028F4002BB1354B1B7843F04001C9B204E0324B95
:102904001B7803F0BF01C9B22F4B197002F0010309
:10291400DBB22BB12C4B1B7843F00101C9B204E0AC
:10292400294B1B7803F0FE01C9B2274B197002F042
:1029340002031BB22BB1244B1B7843F00201C9B232
:1029440004E0214B1B7803F0FD01C9B21E4B197042
:1029540000F008031BB22BB11B4B1B7843F008019A
:10296400C9B204E0184B1B7803F0F701C9B2164B47
:10297400197000F020031BB22BB1134B1B7843F0EA
:102984002001C9B204E0104B1B7803F0DF01C9B287
:102994000D4B197000F080031BB22BB10A4B1B784E
:1029A40043F08000C0B204E0074B1B7803F07F00C3
:1029B400C0B2054B1870C3B2D9B21420FFF770F936
:0C29C400DDF800E001B070474E00FF1F7E
:1028140081B0CDF800E000F0C004E4B201F01C0384
:10282400DBB21C43E4B202F00303DBB244EA030369
:10283400D9B20D20FFF734FADDF800E001B070479B
:102EE80085B0CDF800E00DF10E00FFF767FE0DF19B
:102EF8000E00FFF78FFD01A90DF10E00B0F90000DB
:102F0800FFF7E0FD01A8FFF715FE2A480121FFF7AA
:102F18000FFF01A80221FFF70BFF01A90DF10E0019
:102F2800801CB0F90000FFF7CDFD01A8FFF702FEF5
:102F380021480121FFF7FCFE01A80221FFF7F8FE56
:102F480001A90DF10E00001DB0F90000FFF7BAFD50
:102F580001A8FFF7EFFD19480121FFF7E9FE01A8D5
:102F68000221FFF7E5FEFFF7ABFE01A9FFF7FEFD23
:102F780001A8FFF7DFFD12480121FFF7D9FE01A8DC
:102F88000121FFF7D5FE0F480221FFF7D1FE0E48B9
:102F98000221FFF7CDFE41F2FE17C0F27A0700BF0B
:102FA80000BF7F1EFDD100BF00BF00BFDDF800E0FD
:102FB80005B070470000FF1F0400FF1F0800FF1F37
:0C2FC8000C00FF1F1A00FF1F1E00FF1F5F
:102BC40086B0CDF800E005900DF10B0201211170E3
:102BD40038490A7838490978914219D10DF10B0224
:102BE400117841F0800111700020344C2468A04712
:102BF40001AA0DF10B01084611460722FEF76EFEED
:102C040001202E4C2468A04701218DF8121017E0F2
:102C140000218DF81210FEF787FE0DF10B022849F2
:102C240009780023C8B211460122FEF779FF01AAF0
:102C3400234909780123C8B211460622FEF784FF0E
:102C44009DF8121001AC611809780A0292B29DF83D
:102C54001210491C09B2611809780A4305990A80BF
:102C640005998B1C9DF81210891C09B2611809780A
:102C74000A0292B29DF81210C91C09B261180978AF
:102C840042EA0101198005990B1D9DF81210091DD6
:102C940009B2611809780A0292B29DF81210491D0E
:102CA40009B26118097842EA01011980DDF800E0EF
:102CB40006B070473600FF1F3700FF1F4800FF1F94
:042CC4004C00FF1FA2
:102A1C00B0F9001000EE901AF8EEE00A4FF0725187
:102A2C0000EE101A60EE800A244900EE101AC0EE77
:102A3C00800AB0EE080A20EE800ABDEE400A10EEC5
:102A4C00101A09B20180821C811CB1F9001000EE31
:102A5C00901AF8EEE00A4FF0725100EE101A60EE88
:102A6C00800A164900EE101AC0EE800AB0EE080A71
:102A7C0020EE800ABDEE400A10EE101A09B2118049
:102A8C00021D011DB1F9001000EE901AF8EEE00ADB
:102A9C004FF0725100EE101A60EE800A074900EEFA
:102AAC00101AC0EE800AB0EE080A20EE800ABDEEC5
:102ABC00400A10EE101A09B2118070470000B042A3
:102ACC0081B0CDF800E00E46002183B2002805DA73
:102ADC000121404280B280B28FB201E098B28FB235
:102AEC003146FFF763F906213446B8B2002908D9FC
:102AFC0063184A1E92B2A21812781A70491E89B233
:102B0C00F4E72022227070B1002081B220464218D6
:102B1C001278202A02D1491C89B2F8E74A1E92B2D7
:0E2B2C0083182D221A70DDF800E001B070470A
:101DB80081B00A4681B200208DB21146052805D2AD
:101DC8000B1820221A70401CC0B2F7E70B1800222B
:101DD8001A70401EC0B20C180A23B5FBF3F203FBBD
:101DE800125292B2303222700A22B5FBF2F292B24B
:101DF80095B202B902E0401EC0B2ECE701B07047EC
:102B3C0081B0014640F200052DB208460C460B460A
:102B4C00FFE70178202901D105B904E001252DB258
:102B5C0001782170641C0246401C11780029F0D1C8
:062B6C00184601B070479D
:102CC80081B0CDF800E01220FFF72CF8DDF800E025
:042CD80001B0704790
:102B740081B00A460021C5B21046032905D2431884
:102B840020221A70491CC9B2F7E7431800221A70B0
:102B9400491EC9B244180A23B5FBF3F203FB1252CF
:102BA400D2B2303222700A22B5FBF2F2D2B2D5B2DE
:0E2BB40002B902E0491EC9B2ECE701B0704759
:1031AC0090B072B697480190974802909748039058
:1031BC009748049097480590974806909748079031
:1031CC00974808909748099097480A9097480B9011
:1031DC0097480C90974998480D9098480E900D98E8
:1031EC0000F007000F9001F0010050B94CF2205094
:1031FC00934908804DF62810088040F2D21191486E
:10320C0001809148007800F0010050B18F4800789F
:10321C0000F0080020B18D49087840F008000870D3
:10322C0021E08B48006840F00051894801608948D2
:10323C00006800F48070B0B9864801686FF4705073
:10324C0001EA000040F44071824801608148006846
:10325C0040F480717F4801607E4801686FF4007013
:10326C0001407C480160AA217B4801700D9800F058
:10327C00100060B9794801786FF060000140774820
:10328C00017077480078012800D0FAE71CE00D980F
:10329C0000F01000C0B10E997248814208D960212B
:1032AC006E4801706E480078802800D0FAE70BE079
:1032BC006A4801786FF06000014068480170684806
:1032CC000078012800D0FAE7049967480160674844
:1032DC0001686FF440200140029800F44020014343
:1032EC0062480160624801686FF440300140039805
:1032FC0000F4403001435E4801600F9830B10F98E4
:10330C00012803D00F98022800D061E0019800F04A
:10331C00800050B9089800F0400028B10B9800F0DC
:10332C000300002800D100E015E05248006840F48A
:10333C0000715048016050480168504801404E48A7
:10334C000160069800F0040028B14D4801684B4814
:10335C0001404B4801600A994A48017005994A4856
:10336C000170059800F0040038B14848007800F06E
:10337C001000002800D1F8E705E04448007800F080
:10338C00100000B1F9E74248007800F0BF01C9B263
:10339C00069800F0FD0001433D480170079800F0CD
:1033AC00E0013C48007800F01F00014339480170EF
:1033BC000199394801700B99384801700F9802280F
:1033CC0005D13348007840F0020131480170B8E073
:1033DC00019800F0800020B90B9800F0030000B1B8
:1033EC0065E02448006840F40071224801602248DE
:1033FC0001682248014020480160069800F0040052
:10340C0000F04EB80000000000000C0000000100AD
:10341C000000140122000000240000000000000045
:10342C000200000046000000000000000000000048
:10343C00000000000000000007000000C0D40100E4
:10344C000E2005400020054000F0074002D0074048
:10345C003C80044010D0034000E0074001E00740EE
:10346C0003E00740803801004480044000700440B1
:10347C00048004403880044048900440FFF8FFFE6C
:10348C004C90044008400640004006400640064070
:10349C000140064003400640005006400C400640E8
:1034AC0028B17A4801687A480140784801600A9945
:1034BC00784801707848007800F0BF01C9B20698CE
:1034CC0000F0FD00014374480170019973480170CC
:1034DC000B99734801700F98072805D1059840F097
:1034EC0080017048017002E005996E4801700698E1
:1034FC0000F0040048B10B9800F0030028B96A48AA
:10350C00007800F0020000B9F9E7059800F004001B
:10351C0038B16548007800F01000002800D1F8E7B9
:10352C0005E06148007800F0100000B1F9E7079859
:10353C0000F0E0015D48007800F01F0001435B489B
:10354C000170089800F0BF0159480170099800F00B
:10355C00BF0158480170089800F0400028B1544849
:10356C00007840F04001524801700F98052806D1B0
:10357C004948007840F00201474801701BE00F9861
:10358C00062803D00F98072800D014E0494800788B
:10359C0040F04001474801704348007800F040007B
:1035AC0000B9F9E70F98072805D13E48007800F0DC
:1035BC003F013C4801700F9818B10F98032800D0B8
:1035CC002CE03948007800F00C0000B1F9E73A48DB
:1035DC00006840F00101384801604FF000013748A5
:1035EC0001604FF08001364801604FF0050135480D
:1035FC0001604FF00101324801603148006800F071
:10360C00800000B9F9E700212D4801602A480168C3
:10361C006FF001000140284801602AE00F98012852
:10362C0003D00F98022800D007E01F48007800F064
:10363C000C00042800D0F8E71BE00F98042806D0F3
:10364C000F98062803D00F98052800D007E01648DD
:10365C00007800F00C00082800D0F8E709E00F987B
:10366C00072806D11048007800F00C000C2800D078
:10367C00F8E7154801686FF00F0001400C9800F056
:10368C000F0001431048016010B070474C9004408B
:10369C00FFF8FFFE0840064001400640005006407F
:1036AC000C400640004006400640064003400640E1
:1036BC0004400640054006403880044008000440A1
:0C36CC000000044004000440488004405A
:1031740081B002490248016001B07047C0D4010027
:043184007C00FF1FAD
:0831400081B0FEE701B0704709
:1031480081B072B60849086840F47000086000BF92
:1031580000BF00BF00BFF1EE100A40F44000E1EEEE
:0C316800100A62B601B0704788ED00E06C
:103A640000B5DFF824B0DFF824A0DFF824C0FFF7A6
:103A740005FBDFF820B0DFF820A0DFF820C0FFF757
:103A8400FDFA00BD704700BF0000FF1F3700FF1F95
:103A9400003A00003800FF1F4400FF1F483A0000AE
:103B000000B5DFF810B0DFF810A0FFF7FBFA00BD3A
:0C3B1000704700BF0000FF1FA400FF1F53
:100400000000000000000000FFFFFFFF02FDFFFFF3
:1036D8003103000030030000FFFFFFFF000000007F
:1036E80000000000000000000000000000000000D2
:1036F80000000000000000000000000000000000C2
:10370800000000000000080000000800FFFFFFFFA5
:1037180000000000000000000000000000000000A1
:103728000000000000000000000000000000000091
:0C37380000000000000000000000000085
:103744006303000062030000FFFFFFFF00000000AE
:103754000000000000000000000000000000000065
:103764000000000000000000000000000000000055
:10377400000000000000080000000800FFFFFFFF39
:103784000000000000000000000000000000000035
:103794000000000000000000000000000000000025
:0C37A40000000000000000000000000019
:1037B0005103000050030000FFFFFFFF0000000066
:1037C00000000000000000000000000000000000F9
:1037D00000000000000000000000000000000000E9
:1037E000000000000000080000000800FFFFFFFFCD
:1037F00000000000000000000000000000000000C9
:1038000000000000000000000000000000000000B8
:0C381000000000000000000000000000AC
:10381C00350200003702000036020000FFFFFFFFF8
:10382C00000000000000000000000000000000008C
:10383C00000000000000000000000000000000007C
:10384C000000000000000800000008000000080054
:10385C00FFFFFFFF00000000000000000000000060
:10386C00000000000000000000000000000000004C
:0C387C0000000000000000000000000040
:10388800650700006707000066070000FFFFFFFFED
:103898000000000000000000000000000000000020
:1038A8000000000000000000000000000000000010
:1038B80000000000000008000000080000000800E8
:1038C800FFFFFFFF000000000000000000000000F4
:1038D80000000000000000000000000000000000E0
:0C38E800000000000000000000000000D4
:1038F400450200004702000046020000FFFFFFFFF0
:1039040000000000000000000000000000000000B3
:1039140000000000000000000000000000000000A3
:10392400000000000000080000000800000008007B
:10393400FFFFFFFF00000000000000000000000087
:103944000000000000000000000000000000000073
:0C39540000000000000000000000000067
:103960002D26000039260000B11E0000391E00007F
:10397000451E0000511E00002D1E0000091E000003
:10398000151E0000211E00008D1E0000991E000063
:10399000FFFFFFFFFFFFFFFFFFFFFFFFFFFFFFFF37
:1039A000FFFFFFFFFFFFFFFFFFFFFFFFFFFFFFFF27
:1039B000FFFFFFFFFFFFFFFFFFFFFFFFFFFFFFFF17
:1039C00002000000040000000600000008000000E3
:1039D00010000000200000004000000080000000F7
:1039E00000010000000200000004000000080000C8
:1039F00000100000002000000040000000800000D7
:043A0000783A2000F0
:043A0400793A2000EB
:043A08007A3A2000E6
:0E3A0C0054656D70657261747572653A2000C4
:043A1A0020B0430095
:103A1E002B2B004779726F20322070726573656EA2
:023A2E00740022
:063A30004572726F720086
:013A3600028D
:103A3800020000000300000005000000070000006D
:043A4800000000007A
:043A4C000000000076
:043A50000000000072
:083A5400711B00008914000041
:083A5C0040420F00070000804A
:00000001FF
