:02000004000BEF
:10000000FCFF0020C1260B0069260B0069260B00AF
:1000100069260B0069260B0069260B0069260B0078
:1000200069260B0069260B0069260B0069260B0068
:1000300069260B0069260B0069260B0069260B0058
:1000400069260B0069260B0069260B0069260B0048
:1026C000FFF7D6FF00F010F8FFF7E4FF00F08CF9F9
:1026D00000F05AF800F03AF9FFF7B8FEFFF7EEFE07
:0826E000FFF742FFFCE7FEE7F3
:1026540081B01CF8019B0BF8019BBBEB0A0FF8D16E
:0426640001B070470A
:1024100081B04FF000094FF0000CBDEB0A0F04DC57
:10242000BDEB0B0F01DBD446EA464BF8049BBBEB3C
:102430000A0FFAD1BCEB0A0F05DDE246D9F800B06D
:0A2440000BF1040BF1E701B0704747
:10244C0081B0CDF800E0002200210020FFF772FFE0
:10245C00002201210020FFF76DFF00220221002045
:10246C00FFF768FF012206210020FFF763FF01221E
:10247C0007210020FFF75EFF0C4801460020FFF704
:10248C00B3FE42F280510120FFF78AFE46F6FE179A
:10249C00C0F2180700BF00BF7F1EFDD100BF00BFF8
:1024AC0000BFDDF800E001B0704700BF48290B0009
:1023400081B0CDF800E05FFA81F95FFA82FA1DE012
:102350005FFA8AF15FFA89F0FFF71AFA1FE05FFA75
:102360008AF15FFA89F0FFF7F5FA18E05FFA8AF16F
:102370005FFA89F0FFF72AF911E05FFA8AF15FFA54
:1023800089F0FFF733F80AE0012008E00028DFD0E9
:102390000128E4D00228E9D00328EED0F4E7DDF8E4
:0623A00000E001B07047EF
:1017900081B0CDF800E0A9E0012905D140F20101B6
:1017A0006548FFF7CDFB04E040F201016248FFF716
:1017B000D5FBBBE0012905D140F220015F48FFF7CE
:1017C000BFFB04E040F220015C48FFF7C7FBADE03F
:1017D000012905D140F208015948FFF7B1FB04E0A7
:1017E00040F208015648FFF7B9FB9FE0012905D1F7
:1017F00040F210015348FFF7A3FB04E040F2100150
:101800005048FFF7ABFB91E0012905D140F24001C0
:101810004C48FFF795FB04E040F240014948FFF7D0
:101820009DFB83E0012905D140F210014448FFF7F8
:1018300087FB04E040F210014148FFF78FFB75E0A1
:10184000012905D140F210013F48FFF779FB04E080
:1018500040F210013C48FFF781FB67E0012905D108
:1018600040F201013748FFF76BFB04E040F2010151
:101870003448FFF773FB59E0012905D140F22001FC
:101880003248FFF75DFB04E040F220012F48FFF7EC
:1018900065FB4BE0012905D140F210012B48FFF711
:1018A0004FFB04E040F210012848FFF757FB3DE0F2
:1018B000012905D140F201012548FFF741FB04E071
:1018C00040F201012248FFF749FB2FE0012905D131
:1018D00040F280011A48FFF733FB04E040F2800138
:1018E0001748FFF73BFB21E0012020E000283FF4F0
:1018F00053AF01283FF45EAF02283FF469AF0328DD
:101900003FF474AF04283FF47FAF05283FF48AAF5B
:1019100006283FF495AF0728A0D00828ACD00928A6
:10192000B8D00A28C4D00B28D0D0DDE70020DDF8DD
:1019300000E001B0704700BF00120840801008406E
:101940000010084060100840601108400011084075
:04195000201008401B
:100F400081B0CDF800E0044AC9B2FFF72DFEDDF80C
:0C0F500000E001B0704700BF000410007A
:100BA80081B01446314B984203D8314B984200D358
:100BB80000E058E02E4BC31A03F01F0303B152E0C4
:100BC800064600F5A0624FF6FF7304EA03031846D1
:100BD800284B04EA03031B0C40F20008CFB201467D
:100BE8001846B8F1080F3ED201231BB203FA08F3E6
:100BF8001BB21CB207EA0403A34231D101F44053EB
:100C08008BB14FEA8803F5182C686FF4405304EA57
:100C180003032B604FEA8803F51801F440542B684E
:100C280023432B601CE04FEA8803F5182C68114B0E
:100C380004EA03032B604FEA8803F41823680B4384
:100C480023604FEA8803D5182C686FF0FF0304EA85
:100C580003032B604FEA8803D418236803432360F7
:100C680008F10108BDE701B0704700BFC012084095
:080C7800001008400000FFFF1E
:100F5C0081B0CDF800E0044AC9B2FFF71FFEDDF8FE
:0C0F6C0000E001B0704700BF000620004C
:1019540081B0CDF800E0A9E0012905D140F20201EF
:101964006548FFF7EBFA04E040F202016248FFF732
:10197400F3FABBE0012905D140F280015F48FFF78B
:10198400DDFA04E040F280015C48FFF7E5FAADE0DF
:10199400012905D140F220015948FFF7CFFA04E0AC
:1019A40040F220015648FFF7D7FA9FE0012905D1FC
:1019B40040F210015348FFF7C1FA04E040F210016D
:1019C4005048FFF7C9FA91E0012905D140F24001DE
:1019D4004C48FFF7B3FA04E040F240014948FFF7EE
:1019E400BBFA83E0012905D140F210014648FFF714
:1019F400A5FA04E040F210014348FFF7ADFA75E0A0
:101A0400012905D140F204013F48FFF797FA04E0A9
:101A140040F204013C48FFF79FFA67E0012905D131
:101A240040F204013948FFF789FA04E040F2040166
:101A34003648FFF791FA59E0012905D140F2200117
:101A44003348FFF77BFA04E040F220013048FFF707
:101A540083FA4BE0012905D140F210012C48FFF72D
:101A64006DFA04E040F210012948FFF775FA3DE0F1
:101A7400012905D140F201012648FFF75FFA04E08D
:101A840040F201012348FFF767FA2FE0012905D14D
:101A940040F280011C48FFF751FA04E040F2800153
:101AA4001948FFF759FA21E0012020E000283FF40B
:101AB40053AF01283FF45EAF02283FF469AF032817
:101AC4003FF474AF04283FF47FAF05283FF48AAF96
:101AD40006283FF495AF0728A0D00828ACD00928E1
:101AE400B8D00A28C4D00B28D0D0DDE70020DDF818
:101AF40000E001B0704700BF0012084080100840A9
:101B0400C01108406010084000100840201108402F
:081B14000011084020100840F8
:1015CC0081B0CDF800E0A9E0012905D140F2080175
:1015DC006548FFF7AFFC04E040F208016248FFF7F2
:1015EC00B7FCBBE0012905D140F220015F48FFF7B1
:1015FC00A1FC04E040F220015C48FFF7A9FCADE03F
:10160C00012905D140F201015948FFF793FC04E090
:10161C0040F201015648FFF79BFC9FE0012905D1E0
:10162C0040F220015348FFF785FC04E040F2200112
:10163C005048FFF78DFC91E0012905D140F20401DF
:10164C004C48FFF777FC04E040F204014948FFF7EF
:10165C007FFC83E0012905D140F202014548FFF7E8
:10166C0069FC04E040F202014248FFF771FC75E0AE
:10167C00012905D140F208013D48FFF75BFC04E06D
:10168C0040F208013A48FFF763FC67E0012905D1F5
:10169C0040F201013848FFF74DFC04E040F2010133
:1016AC003548FFF755FC59E0012905D140F22001DE
:1016BC003248FFF73FFC04E040F220012F48FFF7CF
:1016CC0047FC4BE0012905D140F210012B48FFF7F4
:1016DC0031FC04E040F210012848FFF739FC3DE0F2
:1016EC00012905D140F220012548FFF723FC04E035
:1016FC0040F220012248FFF72BFC2FE0012905D1F5
:10170C0040F210011E48FFF715FC04E040F21001F6
:10171C001B48FFF71DFC21E0012020E000283FF4CE
:10172C0053AF01283FF45EAF02283FF469AF0328A2
:10173C003FF474AF04283FF47FAF05283FF48AAF21
:10174C0006283FF495AF0728A0D00828ACD009286C
:10175C00B8D00A28C4D00B28D0D0DDE70020DDF8A3
:10176C0000E001B0704700BF00120840C0110840F3
:10177C00A0100840401108406010084000110840BB
:04178C00A011084060
:1013EC0081B0CDF800E0A9E0012905D140F28001DF
:1013FC006548FFF79FFD04E040F280016248FFF76B
:10140C00A7FDBBE0012905D140F210015F48FFF7B1
:10141C0091FD04E040F210015C48FFF799FDADE04E
:10142C00012905D140F280015948FFF783FD04E002
:10143C0040F280015648FFF78BFD9FE0012905D152
:10144C0040F220015348FFF775FD04E040F2200103
:10145C005048FFF77DFD91E0012905D140F20401D0
:10146C004C48FFF767FD04E040F204014948FFF7E0
:10147C006FFD83E0012905D140F202014548FFF7D9
:10148C0059FD04E040F202014248FFF761FD75E0AE
:10149C00012905D140F210013F48FFF74BFD04E054
:1014AC0040F210013C48FFF753FD67E0012905D1DC
:1014BC0040F204013948FFF73DFD04E040F204011D
:1014CC003648FFF745FD59E0012905D140F22001CE
:1014DC002D48FFF72FFD04E040F220012A48FFF7CA
:1014EC0037FD4BE0012905D140F210012648FFF7EA
:1014FC0021FD04E040F210012348FFF729FD3DE0F7
:10150C00012905D140F220012048FFF713FD04E02A
:10151C0040F220011D48FFF71BFD2FE0012905D1EA
:10152C0040F210011948FFF705FD04E040F21001EC
:10153C001648FFF70DFD21E0012020E000283FF4C4
:10154C0053AF01283FF45EAF02283FF469AF032884
:10155C003FF474AF04283FF47FAF05283FF48AAF03
:10156C0006283FF495AF0728A0D00828ACD009284E
:10157C00B8D00A28C4D00B28D0D0DDE70020DDF885
:10158C0000E001B0704700BF00110840A0110840F6
:10159C008010084040110840A0100840201108405D
:1021F40081B0CDF800E011E00846FFF7D5F916E00C
:102204000846FFF7C1FC12E00846FFF7CDFC0EE0DC
:102214000846FFF7A9FC0AE0012008E00028EBD0FB
:102224000128EDD00228EFD00328F1D0F4E7DDF83F
:0622340000E001B070475C
:1015AC0081B0CDF800E0016808460449FFF782FCE1
:1015BC000020DDF800E001B0704700BF14280B00DC
:100EC00081B0CDF800E083468C4600230D4A1360C4
:100ED0006046FFF733FE0C4C0C4B0D4A194610468A
:100EE0002246FFF751FE0CF10C021268D3B2094AF8
:100EF000126859461046DAB2FFF758FDDDF800E0F7
:100F000001B0704744000020FD070B00D10A0B0020
:080F100079080B0040000020ED
:100B3C0081B0CDF800E040F2000A81464FEA8A010C
:100B4C0009EB01010968B1F1FF3F12D009F1340141
:100B5C004FEA8A03C91809680A4609EB03010968B8
:100B6C0008461146FFF7BEFD0AF1010A1FFA8AFA80
:0A0B7C00E4E7DDF800E001B0704787
:1006F00082B0CDF800E000F0FF02130902F00F0213
:100700001446D8B2FFF7D2FD012212B2A240ADF8D2
:10071000042000460A469DF8041000F045FADDF872
:0607200000E002B070478A
:1002AC0081B027E028484DE028484BE0284849E039
:1002BC00284847E0284845E0284843E0284841E0E2
:1002CC0028483FE028483DE028483BE0284839E0F2
:1002DC00284837E0284835E0284833E0284831E002
:1002EC0028482FE028482DE028482BE0284829E012
:1002FC00284827E00028D5D00128D5D00228D5D011
:10030C000328D5D00428D5D00528D5D00628D5D09B
:10031C000728D5D00828D5D00928D5D00A28D5D07B
:10032C000B28D5D00C28D5D00D28D5D00E28D5D05B
:10033C000F28D5D01028D5D01128D5D01228D5D03B
:10034C001328D5D001B07047001008402010084089
:10035C00401008406010084080100840A010084071
:10036C00C0100840E010084000110840201108405F
:10037C00401108406011084080110840A01108404D
:10038C00C0110840E011084000120840201208403B
:08039C00401208406012084005
:100B880081B0044B1860044B1960044B1A6001B023
:100B9800704700BFA4000020A8000020AC0000207F
:1009AC0081B000F2280440F20023236000F22804F6
:1009BC000023236080230370041D0123238001295D
:1009CC0015D100F22C0444F64F73238000F240043E
:1009DC00234B236000F22404224B236000F24404D6
:1009EC00214B236000F218044D2323702EE00429C0
:1009FC0015D100F22C0440F61773238000F240044A
:100A0C001A4B236000F22404194B236000F24404B7
:100A1C00184B236000F218040A23237016E01029E7
:100A2C0014D100F22C0440F20953238000F240044C
:100A3C00114B236000F224040D4B236000F244049C
:100A4C000C4B236000F2180406232370C12303709F
:100A5C0000F2280442F4E0531BB2236001B070474B
:100A6C0006434D0CED01FC01C7C29C4B010A0A0464
:0C0A7C0050000001C7C29C1401060606D1
:101B8C0081B0CDF800E0016808460449FFF792F9EE
:101B9C000020DDF800E001B0704700BF14280B00F6
:101BAC0081B0CDF800E0016808460449FFF782F9DE
:101BBC000020DDF800E001B0704700BF14280B00D6
:101B6C0081B0CDF800E0016808460449FFF7A2F9FE
:101B7C000020DDF800E001B0704700BF14280B0016
:1021AC0081B0CDF800E011E00846FFF7B1FC16E075
:1021BC000846FFF7C1FC12E00846FFF7FDF80EE0F9
:1021CC000846FFF7A1F80AE0012008E00028EBD050
:1021DC000128EDD00228EFD00328F1D0F4E7DDF888
:0621EC0000E001B07047A5
:101B1C0081B0CDF800E0002300220321FFF704F987
:101B2C00034A04490A600020DDF800E001B0704768
:081B3C003D130B0060000020C6
:100D340084B0CDF800E01FFA82FB1FFA83FC002286
:100D44008DF80420ADF8081003904A48FFF7F4FE2C
:100D54000398BDF808109DF80420ADF80410029023
:100D6400FFF75CFD0298BDF804100025424C257085
:100D74000025424C2570B0F5E13F06D9404CA04215
:100D840003D83F4CB4FBF0F308E0B0F5E13F04D8DE
:100D94004FF4E134B4FBF0F300E00123ADF80410A8
:100DA4000290FFF783FD0298BDF8041003F0FF04DE
:100DB400E5B2344C25701C0A04F07F04E5B2324CD1
:100DC4002570B0F5E13F06D92F4C247844F0800516
:100DD4002D4C257005E02C4C247804F07F052A4C1A
:100DE4002570ADF80410FFF719FDBDF804100025B7
:100DF400264C25700BE042F00100C0B20EE042F038
:100E04000200C0B20AE042F00300C0B206E00129C9
:100E1400F1D00229F3D00329F5D0F4E74FEA8C048A
:100E2400A4B240EA04044FEACB05ADB2E4B22C43C9
:100E3400E4B204F07F05154C25700025144C257090
:100E44000025144C2570144D144C2560144D154C7C
:100E54002560154D154C2560154D164C2560164C16
:100E6400247844F00105144C2570DDF800E004B04A
:100E7400704700BFAC270B00F0270F4001240F4040
:100E840060E3160000240F4001240F4003240F40A8
:100E940004240F4002240F40E5080B00B800002092
:100EA4003D130B00BC000020C9080B00C00000204B
:0C0EB4002D090B00C400002030270F4067
:1008200081B00448007800F07F010248017001B0F7
:08083000704700BF03240F40D4
:1008B00081B00448007840F080010248017001B026
:0808C000704700BF03240F4044
:101B440081B0CDF800E0002300220321FFF7F0F874
:101B5400034A04490A600020DDF800E001B0704740
:081B64003D130B00600000209E
:1013C40081B0CDF800E0002300220321FFF7B0FC38
:1013D400034A04490A600020DDF800E001B07047C8
:0813E4003D130B006000002026
:1013140081B0CDF800E0002300220321FFF708FD8F
:10132400034A04490A600020DDF800E001B0704778
:081334003D130B0060000020D6
:1024BC0081B0CDF800E0212224492548FFF7B8FE71
:1024CC0046F6FE37C0F2DC2700BF00BF7F1EFDD1F1
:1024DC0000BF00BF00BFFFF759FED72822D11D480F
:1024EC000221FFF7E5FE042040F00200C0B240F0EC
:1024FC000100FFF73FFE0A20FFF770FC0320FFF7F7
:10250C0007FC0320FFF728FC402040F004000222C7
:10251C00C1B28020FFF76EFC03220021E020FFF700
:10252C00D9FD04E00C480221FFF7C2FEFEE746F697
:10253C00FE17C0F2180700BF00BF7F1EFDD100BF01
:10254C0000BF00BFDDF800E001B070473C290B0074
:0C255C007C280B00220000203100002031
:10223C0081B0CDF800E00546134B1A70134B1C7897
:10224C00134B1C700024134B1C700024124B1C707D
:10225C000024124B1C700024114B1C700846FEF716
:10226C006FFF2846FEF742FF01200E4C2468A04762
:10227C0001200D4C2468A04700200C4C2468A0477A
:10228C00DDF800E001B070473B0000203800002072
:10229C003A00002075000020390000207400002056
:1022AC0076000020880000207000002084000020B0
:10133C0082B0CDF800E08DF80400FFF76BFA084995
:10134C00097801F02001C9B201B9F8E79DF8041041
:10135C0001F0FF0203490A70DDF800E002B07047AB
:08136C0005240F4000240F408E
:1012DC0082B0CDF800E08DF80400FFF719FD084945
:1012EC00097801F02001C9B201B9F8E79DF80410A2
:1012FC0001F0FF0203490A70DDF800E002B070470C
:08130C0005280F4000280F40E6
:100D1C0081B00448007800F07F010248017001B0F6
:080D2C00704700BF03280F40CF
:1012BC00024A117860F300011170704790130840D6
:1012CC00024A117860F3451111707047841308407D
:1013A400024A117860F3C30111707047801308403A
:1013B400024A117860F304111170704783130840D6
:10139400024A117860F38611117070478313084074
:10137400024A117860F30411117070478013084019
:10138400024A117860F30411117070478B130840FE
:101CBC00024A117860F300011170704783130840D9
:101CCC00024A117860F3451111707047881308406F
:101CDC00024A117860F304111170704788130840A0
:101C8C00024A117860F3000111707047811308400B
:101C9C00024A117860F3C711117070478013084025
:101CAC00024A117860F3410111707047901308409B
:101D0C00024A117860F3C7111170704784130840B0
:101CEC00024A117860F34511117070478E13084049
:101CFC00024A117860F30411117070478313084085
:101BFC00024A117860F38611117070478313084004
:101C0C00024A117860F30411117070478013084078
:101C1C00024A117860F382011170704780130840FA
:101BCC00024A117860F38201117070478913084042
:101BDC00024A117860F34511117070478813084060
:101BEC00024A117860F30411117070478813084091
:101C5C00024A117860F3000111707047811308403B
:101C6C00024A117860F3C711117070478013084055
:101C7C00024A117860F3C301117070479013084049
:101C2C00024A117860F34511117070478E13084009
:101C3C00024A117860F30001117070478513084057
:101C4C00024A117860F34511117070478A130840ED
:10102C00024A117860F38201117070478A130840EC
:10101C00024A117860F34101117070478A1308403D
:10100C00024A117860F3C3011170704785130840D0
:10105C00024A117860F30001117070478313084045
:10104C00024A117860F345111170704788130840FB
:10103C00024A117860F3041111707047881308404C
:100FFC00024A117860F34511117070478D13084047
:100FAC00024A117860F30411117070478D130840D8
:100FBC00024A117860F3C71111707047881308400A
:100F9C00024A117860F30411117070478D130840E8
:100FEC00024A117860F3C7111170704784130840DE
:100FDC00024A117860F34511117070478A1308406A
:100FCC00024A117860F38201117070478A1308404D
:10127C00024A117860F34101117070478A130840DB
:10126C00024A117860F3041111707047851308401D
:10125C00024A117860F382011170704789130840BB
:1012AC00024A117860F34511117070478813084099
:10129C00024A117860F304111170704788130840EA
:10128C00024A117860F34511117070478D130840B4
:10124C00024A117860F30411117070478D13084035
:10114C00026806490A60011D0A6805490A6000F236
:10115C0008010A6803490A60704700BF6C00002050
:08116C0068000020780000205B
:1010F80000F2300303F218010A680C490A6003F28F
:101108001C010A680A490A6002680A490A6000F272
:1011180008010A6808490A60011D0A6807490A6047
:1011280000F218010A6806490A6070477C0000202E
:10113800800000207000002084000020880000202B
:041148008C000020F7
:1021980081B0CDF800E00C20FEF764FFDDF800E028
:0421A80001B07047CB
:10106C0082B0CDF800E001A908701C490A781C492F
:10107C000978914216D101AA117841F080011170C2
:10108C000020184C2468A04701A902220846FFF74B
:10109C0003FE0120134C2468A04701A9491C0978C0
:1010AC00C8B216E0FFF71EFE01AA0F49097800230B
:1010BC00C8B211460122FFF729FF01AA0A49097893
:1010CC000123C8B211460122FFF750FF01A909788C
:1010DC00C8B2DDF800E002B0704700BF3700002056
:0C10EC003A000020700000203B000020B3
:100CA40084B0CDF800E0ADF80C2001900291BDF8BD
:100CB4000C40BDF80C305B1EADF80C307CB1019BD0
:100CC4001B78DCB2A0B2084C2468A047029B1870C1
:100CD400029B5B1C0293019B5B1C0193E7E7DDF81D
:0C0CE40000E004B0704700BF6400002076
:100CF00082B0CDF800E040F20004ADF80440064CAC
:100D00002468A047BDF9041041EA000000B2DDF8F4
:0C0D100000E002B0704700BF6C00002043
:1008780081B0CDF800E004480068FFF751FF002080
:0C088800DDF800E001B0704740000020E7
:1007280081B0CDF800E04FF0000224490968884202
:1007380007D123490B6823490A6823490A601A46E6
:1007480025E022490968884207D121490B682149D7
:100758000A681D490A601A4619E01F490968884253
:1007680007D11E490B681E490A6817490A601946CD
:100778000CE01C490968884207D11B490B681B49D2
:100788000A6811490A60194600E011460A461849E4
:100798000A60017801F00101C9B259B91449096820
:1007A80039B122B90520084C2468A04702E0521E3E
:1007B800FFE7EEE7DDF800E001B0704740000020F9
:1007C8004400002094000020900000203C000020FD
:1007D80048000020980000204C0000205000002015
:1007E8009C0000205400002058000020A000002099
:0407F8005C00002081
:1008940081B0CDF800E004480068FFF743FF002072
:0C08A400DDF800E001B070473C000020CF
:1009640081B0CDF800E004480068FFF7DBFE00200A
:0C097400DDF800E001B070474C000020EE
:1009100081B0CDF800E004480068FFF705FF002033
:0C092000DDF800E001B07047540000203A
:1008E40081B0CDF800E0FFF799FF0648007800F0EA
:1008F4000100C0B200B9F8E703480078DDF800E071
:0C09040001B0704705240F4000240F4094
:1008C80081B00548007800F00100C0B208B10120ED
:0C08D80000E0002001B0704705240F4034
:10092C0081B00548007800F04000C0B208B1012049
:0C093C0000E0002001B0704705240F40CF
:1009800081B0CDF800E000F0C9F90648007800F029
:100990000100C0B200B9F8E703480078DDF800E0D4
:0C09A00001B0704705280F4000280F40F0
:1009480081B00548007800F00100C0B208B101206C
:0C09580000E0002001B0704705280F40AF
:1008380081B00548007800F04000C0B208B101203E
:0C08480000E0002001B0704705280F40C0
:100F180082B0CDF800E040F20004ADF80440054C82
:100F28002468A047BDF90440044320B2DDF800E07E
:080F380002B0704768000020C0
:1007FC0081B0CDF800E0064C246808B413460A46D4
:10080C002146FFF7ADFE01B0DDF800E001B0704706
:04081C004000002078
:10056C0082B0CDF800E0029E40F200074FF000058B
:10057C004E4C2468A14208D14D4CD4F800804D4C0F
:10058C0025684D4C2560454628E04C4C2468A1421A
:10059C0008D14B4CD4F800804A4C2568464C256059
:1005AC0045461BE0484C2468A14208D1474CD4F87E
:1005BC000080474C2568404C256044460DE0454C76
:1005CC002468A14208D1444CD4F80080434C2568DF
:1005DC00394C2560444600E02C462546404C2560AD
:1005EC0001F2080544002C70C5240C70B8B20F46FB
:1005FC001D46A84231D23A4CD4F8008033463946D5
:10060C0017462A460C7804F08004E4B27CB1344CD2
:10061C0024685CB1B8F1000F04D10420264C246886
:10062C00A0473FE0A8F10105A846FFE7EAE70C78F0
:10063C0004F00804E4B23CB901F208053C18247833
:10064C002C70401C80B203E001911146019A07E026
:10065C0015463A460F461E46CBE73A4629463346E0
:10066C001F4C2568147804F08004E4B25CB11C4C77
:10067C0024683CB125B904200F4C2468A04711E034
:10068C006D1EFFE7EEE733B1C324147002F20805C8
:10069C0000242C7001E045241470884201D2012002
:1006AC0000E00020DDF800E002B0704740000020C0
:1006BC004400002094000020900000203C0000200A
:1006CC0048000020980000204C0000205000002022
:1006DC009C0000205400002058000020A0000020A6
:0406EC005C0000208E
:1008540081B0CDF800E0064C246808B413460A467B
:100864002146FFF781FE01B0DDF800E001B07047DA
:040874003C00002024
:100B180081B0CDF800E0064C246808B413460A46B4
:100B28002146FFF71FFD01B0DDF800E001B0704776
:040B38004C0000204D
:100A880081B0CDF800E0064C246808B413460A4645
:100A98002146FFF767FD01B0DDF800E001B07047BF
:040AA80054000020D6
:100F780082B0CDF800E040F20004ADF80440044C23
:100F88002468A047BDF90400DDF800E002B070470E
:040F980078000020BD
:100AD00081B0CDF800E0064C246808B413460A46FD
:100AE0002146FFF75FFC01B0DDF800E001B0704780
:040AF00040000020A2
:1003A40082B0CDF800E0029C40F2000601274FF035
:1003B40000055F4C2468A14208D15E4CD4F800804B
:1003C4005D4C25685D4C2560454628E05C4C2468FE
:1003D400A14208D15B4CD4F800805B4C2568574C93
:1003E400256045461BE0594C2468A14208D1584C6D
:1003F400D4F80080574C2568504C256044460DE0E5
:10040400554C2468A14208D1544CD4F80080544C73
:1004140025684A4C2560444600E02C462546514C4C
:10042400256001F208054400A4B244F001042C70D4
:100434000846B5B21E46FBB24A4C216801913146CA
:10044400AEB2019D047804F08004E4B25CB1454C82
:1004540024683CB125B90320384C2468A04762E0E5
:100464006D1EFFE7EEE7047804F00804E4B28CB9EB
:10047400B41CA4B28C420DD2951900F2080424785D
:100484002C70751CADB223B1002400239DB2E3B2DD
:10049400FFE746E0047804F00804E4B2002C38D105
:1004A400022902D04024047002E00BB940240470F5
:1004B400951900F2080424782C70741C3BB10023B5
:1004C4000025022901D10E46B6E7A9B200E0A1B287
:1004D400244C2368ADF8041011460246BDF804000C
:1004E400147804F08004E4B25CB11E4C24683CB17E
:1004F40023B90320114C2468A04714E05B1EFFE7D6
:10050400EEE7C32414700D1802F2080424782C704A
:1005140009E0C3240470951900F2080424782C70AF
:1005240001E00E4688E7DDF800E002B0704700BF46
:10053400400000204400002094000020900000208F
:100544003C00002048000020980000204C000020BF
:10055400500000209C00002054000020580000207F
:08056400A00000205C00002053
:100C800081B0CDF800E0064C246808B413460A464B
:100C90002146FFF787FB01B0DDF800E001B07047A7
:040CA0003C000020F4
:100AAC0081B0CDF800E0064C246808B413460A4621
:100ABC002146FFF771FC01B0DDF800E001B0704792
:040ACC004C000020BA
:100AF40081B0CDF800E0064C246808B413460A46D9
:100B04002146FFF74DFC01B0DDF800E001B070476D
:040B14005400002069
:1022BC0083B0CDF800E0024610460D228DF80820C0
:1022CC000A228DF809201FE0FEF74EFF23E002786A
:1022DC002AB10190FEF748FF0198401CF7E71AE07D
:1022EC0002782AB10190FEF73FFF0198401CF7E7F6
:1022FC0002AA1046FEF738FF0DF109021046FEF750
:10230C0033FF08E0062007E00029DDD00129DED0EC
:10231C000229E5D0F6E70020DDF800E003B07047B5
:1011740081B0CDF800E00178CCB2E0B2034C246831
:10118400A0470020DDF800E001B0704760000020B7
:1021800081B0CDF800E000F00F010E20FFF702F85B
:08219000DDF800E001B070472A
:1011940082B0CDF800E001AA1070521C1170124AFE
:1011A4001378124A12789A420ED10020104C246807
:1011B400A04701AA114602220846FFF771FD01204B
:1011C4000B4C2468A0470AE0FFF790FD01AB094AE5
:1011D400127819460123D0B20222FFF79BFEDDF8F4
:1011E40000E002B0704700BF370000203A00002042
:0811F400700000203B00002008
:101DE80081B0CDF800E000F07F011020FFF7CEF9B8
:081DF800DDF800E001B07047C6
:101D1C0082B0CDF800E0032801D9032300E0C3B260
:101D2C008DF804301320FFF79BF99DF80430094A15
:101D3C0010704FF6FC7109B200EA01011170C9B2C2
:101D4C00194311701320FFF71FFADDF800E002B001
:081D5C00704700BF39000020B0
:101D640082B0CDF800E0072801D9072400E0C4B20E
:101D74008DF804401320FFF777F99DF804400A4BCF
:101D840018704FF6E37109B200EA01011970A2005C
:101D940092B2C9B211431970C9B21320FFF7F8F90E
:0C1DA400DDF800E002B0704739000020BC
:101E000081B0CDF800E001F004031BB22BB1464BCA
:101E10001B7843F00404E4B204E0434B1B7803F066
:101E2000FB04E4B2404B1C7001F010031BB22BB159
:101E30003D4B1B7843F01004E4B204E03A4B1B78AE
:101E400003F0EF04E4B2384B1C7001F040031BB206
:101E50002BB1354B1B7843F04001C9B204E0324B43
:101E60001B7803F0BF01C9B22F4B197002F00103B8
:101E7000DBB22BB12C4B1B7843F00101C9B204E05B
:101E8000294B1B7803F0FE01C9B2274B197002F0F1
:101E900002031BB22BB1244B1B7843F00201C9B2E1
:101EA00004E0214B1B7803F0FD01C9B21E4B1970F1
:101EB00000F008031BB22BB11B4B1B7843F0080149
:101EC000C9B204E0184B1B7803F0F701C9B2164BF6
:101ED000197000F020031BB22BB1134B1B7843F099
:101EE0002001C9B204E0104B1B7803F0DF01C9B236
:101EF0000D4B197000F080031BB22BB10A4B1B78FD
:101F000043F08000C0B204E0074B1B7803F07F0071
:101F1000C0B2054B1870C3B2D9B21420FFF73AF91A
:0C1F2000DDF800E001B070477400002004
:1020E00081B0CDF800E000F0C004E4B201F01C03C0
:1020F000DBB21C43E4B202F00303DBB244EA0303A5
:10210000D9B20D20FFF746F8DDF800E001B07047C6
:1025680085B0CDF800E00DF10E00FFF7DBFC0DF1B2
:102578000E00FFF759FD01A90DF10E00B0F900009A
:10258800FFF7C2FD01A8FFF70FFC2A480121FFF75A
:1025980091FE01A80221FFF78DFE01A90DF10E00A1
:1025A800801CB0F90000FFF7AFFD01A8FFF7FCFBA6
:1025B80021480121FFF77EFE01A80221FFF77AFEDC
:1025C80001A90DF10E00001DB0F90000FFF79CFDF8
:1025D80001A8FFF7E9FB19480121FFF76BFE01A8E5
:1025E8000221FFF767FEFFF79DFE01A9FFF7D8FE5E
:1025F80001A8FFF7D9FB12480121FFF75BFE01A8EC
:102608000121FFF757FE0F480221FFF753FE0E483E
:102618000221FFF74FFE4DF2FE37C0F2300700BF30
:1026280000BF7F1EFDD100BF00BF00BFDDF800E086
:1026380005B07047000000200400002008000020BA
:0C2648000C0000201A0000201F000020E1
:101F2C0086B0CDF800E005900DF10B020121117087
:101F3C0038490A7838490978914219D10DF10B02C8
:101F4C00117841F0800111700020344C2468A047B6
:101F5C0001AA0DF10B01084611460722FEF79CFE63
:101F6C0001202E4C2468A04701218DF8121017E097
:101F7C0000218DF81210FEF7B5FE0DF10B02284969
:101F8C0009780023C8B211460122FEF7BFFF01AA4F
:101F9C00234909780123C8B211460622FEF7E6FF51
:101FAC009DF8121001AC611809780A0292B29DF8E2
:101FBC001210491C09B2611809780A4305990A8064
:101FCC0005998B1C9DF81210891C09B261180978AF
:101FDC000A0292B29DF81210C91C09B26118097854
:101FEC0042EA0101198005990B1D9DF81210091D7B
:101FFC0009B2611809780A0292B29DF81210491DB3
:10200C0009B26118097842EA01011980DDF800E093
:10201C0006B07047370000203A0000207000002006
:04202C003B00002055
:10203000B0F9001000EE901AF8EEE00A4FF072517D
:1020400000EE101A60EE800A244900EE101AC0EE6D
:10205000800AB0EE080A20EE800ABDEE400A10EEBB
:10206000101A09B20180821C811CB1F9001000EE27
:10207000901AF8EEE00A4FF0725100EE101A60EE7E
:10208000800A164900EE101AC0EE800AB0EE080A67
:1020900020EE800ABDEE400A10EE101A09B211803F
:1020A000021D011DB1F9001000EE901AF8EEE00AD1
:1020B0004FF0725100EE101A60EE800A074900EEF0
:1020C000101AC0EE800AB0EE080A20EE800ABDEEBB
:1020D000400A10EE101A09B2118070470000B04299
:1021100081B0CDF800E00E46002183B2002805DA38
:102120000121404280B280B28FB201E098B28FB2FA
:102130003146FFF763F806213446B8B2002908D9C2
:1021400063184A1E92B2A21812781A70491E89B2F8
:10215000F4E72022227070B1002081B2204642189C
:102160001278202A02D1491C89B2F8E74A1E92B29D
:0E21700083182D221A70DDF800E001B07047D0
:1011FC0081B00A4681B200208DB21146052805D275
:10120C000B1820221A70401CC0B2F7E70B180022F2
:10121C001A70401EC0B20C180A23B5FBF3F203FB84
:10122C00125292B2303222700A22B5FBF2F292B212
:10123C0095B202B902E0401EC0B2ECE701B07047B3
:101DB00081B0014640F200052DB208460C460B46A4
:101DC000FFE70178202901D105B904E001252DB2F2
:101DD00001782170641C0246401C11780029F0D162
:061DE000184601B0704737
:10232C0081B0CDF800E01220FEF79AFEDDF800E057
:04233C0001B0704735
:1023A80081B00A460021C5B21046032905D2431858
:1023B80020221A70491CC9B2F7E7431800221A7084
:1023C800491EC9B244180A23B5FBF3F203FB1252A3
:1023D800D2B2303222700A22B5FBF2F2D2B2D5B2B2
:0E23E80002B902E0491EC9B2ECE701B070472D
:1026E80081B0CDF800E01F4B1F4A204C20480068FD
:1026F80040F002011E480160012A08D0032A06D0D2
:10270800042A04D0102A02D0302A00D002E0194846
:10271800026002E0012117480160C4F3C0021649B3
:10272800086862F3C3000860C4F3800212490868AD
:1027380062F382000860C4F340020F49086862F33C
:1027480041000860C4F300020B49086862F3000006
:102758000860FFF74DFE09480360DDF800E001B0AE
:10276800704700BFE0010000010000000000000009
:1027780008E000E00401084008A4004008010840FF
:1023F80046F6FE17C0F2180700BF00BF7F1EFDD1CA
:0824080000BF00BF00BF7047D8
:1027880081B004490448016004490548016001B06A
:10279800704700BF80BB0000B000002000000000B0
:0427A800B400002059
:0826680081B0FEE701B07047EC
:1026940081B04EF68850CEF20000016841F470011A
:1026A400016000BF00BF00BF00BFF1EE100A40F49C
:0A26B4004000E1EE100A01B070478B
:1026700081B0DFF81000DFF810100860D0F800D04B
:1026800000F004B800000B0008ED00E000BF01B04E
:02269000704791
:10294C0000B5DFF824B0DFF824A0DFF824C0FFF7CF
:10295C007BFEDFF820B0DFF820A0DFF820C0FFF707
:10296C0073FE00BD704700BF00000020390000203E
:10297C00DC280B003C0000206000002018290B0014
:1029E80000B5DFF810B0DFF810A0FFF70DFD00BD4F
:0C29F800704700BF00000020C800002055
:1027AC008500000084000000FFFFFFFF0000000018
:1027BC00000000000000000000000000000000000D
:1027CC0000000000000000000000000000000000FD
:1027DC0000000000001000000010000000000000CD
:1027EC0000000000000000000000000000000000DD
:1027FC0000000000000000000000000000000000CD
:08280C000000000000000000C4
:10281400D5000000D4000000FFFFFFFF020000000D
:1028240000000000000000000000000000000000A4
:102834000000000000000000000000000000000094
:102844000000000000100000001000000000000064
:102854000000000000000000000000000000000074
:102864000000000000000000000000000000000064
:0828740000000000000000005C
:10287C00BD120B00CD120B00A5130B00B5130B00F2
:10288C0095130B0075130B0085130B00BD1C0B006F
:10289C00CD1C0B00DD1C0B008D1C0B009D1C0B00BC
:1028AC00FFFFFFFFFFFFFFFFFFFFFFFFFFFFFFFF2C
:1028BC00FFFFFFFFFFFFFFFFFFFFFFFFFFFFFFFF1C
:1028CC00FFFFFFFFFFFFFFFFFFFFFFFFFFFFFFFF0C
:0428DC00783A200026
:0428E000793A200021
:0428E4007A3A20001C
:0E28E80054656D70657261747572653A2000FA
:0828F60020C2B043002B2B00AF
:1028FE004779726F20322070726573656E74004571
:06290E0072726F720002FC
:0129140001C1
:042918000044004037
:04291C000040004037
:0429200000000000B3
:0429240000000000AF
:042928000048004023
:04292C0000000000A7
:04293000004C004017
:04293400000000009F
:04293800000000009B
:0C293C0079080B00FD070B00D10A0B000E
:04294800010000008A
:00000001FF
