:100000007FEF14F00000000000EF00F0000000009F
:0A0010000000000000000000F3D71C
:0E001C000001D5B102D08B9601D08B86120068
:0E002A000001D5B102D08B9C01D08B8C12004E
:0E0038000001D5B102D08B9801D08B88120048
:0E0046000001D5B102D08D9601D08D8612003A
:0E0054000001D5B102D0899401D08984120038
:0E0062000001D5B102D08B9A01D08B8A12001A
:0E0070000001D5B102D08B9801D08B88120010
:0E007E000001D5B102D08B9401D08B8412000A
:0E008C000001D5B102D08B9E01D08B8E1200E8
:0E009A000001D5B102D08A9201D08A821200F4
:0E00A8000001D5B102D08F9401D08F841200D8
:0E00B6000001D5B102D08A9401D08A841200D4
:0E00C4000001D5B102D08F9201D08F821200C0
:0E00D2000001D5B102D08B9801D08B881200AE
:0E00E0000001D5B102D08B9601D08B861200A4
:0E00EE000001D5B102D08B9601D08B86120096
:0E00FC000001D5B102D08D9401D08D84120088
:0E010A000001D5B102D08B9801D08B88120075
:0E0118000001D5B102D08F9001D08F8012006F
:0E0126000001D5B102D08B9A01D08B8A120055
:0E0134000001D5B102D08B9601D08B8612004F
:0E0142000001D5B102D08D9001D08D80120049
:0E0150000001D5B102D08B9001D08B8012003F
:0E015E000001D5B102D08B9801D08B88120021
:0E016C000001D5B102D08B9601D08B86120017
:0E017A000001D5B102D0899001D08980120019
:10018800D5C06AFF016A0150000A05E1000E68B097
:0C019800010E016EF8D76ACF01F01200D2
:1001A400D5C0C9FF016A0150000A05E1000EC7B0BD
:0C01B400010E016EF8D7C9CF01F0120057
:1001C0000F0121B302D00000FBD7D5C01CFF1200E5
:0E01D000ACB202D00000FCD7D5C0ADFF1200CB
:0E01DE000001D5B102D08B9A01D08B8A12009D
:0E01EC000001D5B102D0899201D089821200A3
:0E01FA000001D5B102D08B9801D08B88120085
:0E0208000001D5B102D08D9201D08D8212007E
:0E0216000001D5B102D0899801D0898812006C
:0E0224000001D5B102D08B9601D08B8612005E
:0E0232000001D5B102D08A9001D08A8012005E
:0E0240000001D5B102D08B9201D08B8212004A
:0E024E000001D5B102D08B9C01D08B8C120028
:0E025C000001D5B102D08B9E01D08B8E120016
:10026A0068B409D01F0E6614016E0150000A03E13A
:0A027A00010E006E01D0006A1200B0
:10028400C7B409D01F0EC514016E0150000A03E162
:0A029400010E006E01D0006A120096
:10029E00F250026EF29E0500FF6A0150FE6E005093
:0802AE00FD6E02BEF28E12008B
:0A02B600000E84B2010E006E12006B
:0A02C000000E82BC010E006E120059
:0A02CA00000E82B6010E006E120055
:0A02D400000E82B8010E006E120049
:0A02DE00000E82B4010E006E120043
:0A02E800000E82BA010E006E120033
:0A02F200000E82BE010E006E120025
:0A02FC00000E82BC010E006E12001D
:0A030600000E82B8010E006E120016
:0A031000000E82B8010E006E12000C
:10031A00A19ACFC06AFF1AC0D0F01BC0D1F01CC08E
:10032A00D2F01DC0D3F068A421D01A501B101C10A3
:10033A001D101BE00001D051D111D211D3110EE1D1
:10034A004BC0E1FF4CC0E2FF040EE66E49C000F06C
:10035A004AC001F09FDF010E006E3AD0010E000183
:10036A00D05F000ED15BD25BD35BDDD71AC0D0F071
:10037A001BC0D1F01CC0D2F01DC0D3F0A1BA21D04D
:10038A001A501B101C101D101BE00001D051D11176
:10039A00D211D3110EE14BC0E1FF4CC0E2FF040EB3
:1003AA00E66E49C000F04AC001F074DF010E006E2B
:1003BA000FD0010E0001D05F000ED15BD25BD35B80
:1003CA00DDD766BC02D0006A03D06684020E006ED6
:0203DA0012000F
:0C03DC00000E0F0121B3010E006E120094
:0A03E800000E82B2010E006E12003A
:0A03F200000E84B0010E006E120030
:0A03FC00000E82B6010E006E120022
:10040600CFC0C9FF016A0150000A05E1000EC7B05E
:0C041600010E016EF8D7C9CF00F01200F3
:0A042200000E81B0010E006E120002
:0A042C00000E81B2010E006E1200F6
:0A043600000E82B6010E006E1200E7
:0A044000000E80B8010E006E1200DD
:0A044A00000E84B4010E006E1200D3
:100454001AC0CFF01BC0D0F01CC0D1F01DC0D2F028
:10046400668266A21FD01A501B101C101D1019E0C2
:100474000001CF51D011D111D2110CE14BC0E1FFD9
:100484004CC0E2FF060EE66E49C000F04AC001F01F
:1004940004DF08D0010E0001CF5F000ED05BD15BFA
:0604A400D25BDFD712005D
:0A04AA00000E86B4010E006E120071
:0A04B400000E82B8010E006E120067
:0A04BE00000E80B2010E006E120065
:0A04C800000E86B2010E006E120055
:0A04D200000E82B6010E006E12004B
:0A04DC00000E82BE010E006E120039
:0A04E600000E82B6010E006E120037
:0A04F000000E82B6010E006E12002D
:0A04FA00000E82B8010E006E120021
:0405040066841200F7
:0A050800000E80B4010E006E120018
:04051200C58412008A
:1005160016C0CFF017C0D0F018C0D1F019C0D2F075
:10052600C582C5A21FD0165017101810191019E051
:100536000001CF51D011D111D2110CE143C0E1FF1E
:1005460044C0E2FF060EE66E41C000F042C001F074
:10055600A3DE08D0010E0001CF5F000ED05BD15B99
:06056600D25BDFD712009A
:10056C0016C0D1F017C0D2F018C0D3F019C0D4F017
:10057C000001CF6BD06BD051120802E1CF518E0825
:10058C0008E37ADE005201E004D00001CF4BD02BFF
:10059C00F2D70001120ED05D02E18F0ECF5D03E3A6
:1005AC007B0E006E24D0C580C5A020D0165017102D
:1005BC00181019101AE0D151D211D311D4110EE127
:1005CC0043C0E1FF44C0E2FF050EE66E41C000F0FF
:1005DC0042C001F05EDE010E006E09D0010E00017A
:1005EC00D15F000ED25BD35BD45BDED7006A120006
:1005FC00CFC06AFF016A0150000A05E1000E68B025
:0C060C00010E016EF8D76ACF00F012005A
:0A061800000E86B0010E006E120005
:0A062200000E81B4010E006E1200FC
:10062C009E96CFC0C9FF16C0D0F017C0D1F018C02D
:10063C00D2F019C0D3F0C7A421D01650171018103F
:10064C0019101BE00001D051D111D211D3110EE1C0
:10065C0043C0E1FF44C0E2FF040EE66E41C000F06F
:10066C0042C001F016DE010E006E3AD0010E000100
:10067C00D05F000ED15BD25BD35BDDD716C0D0F060
:10068C0017C0D1F018C0D2F019C0D3F09EB621D04B
:10069C0016501710181019101BE00001D051D11171
:1006AC00D211D3110EE143C0E1FF44C0E2FF040EAE
:1006BC00E66E41C000F042C001F0EBDD010E006EB1
:1006CC000FD0010E0001D05F000ED15BD25BD35B6B
:1006DC00DDD7C5BC02D0006A03D0C584020E006E03
:0206EC001200FA
:0A06EE00000EACB2010E006E120007
:0A06F800000E9EBA010E006E120003
:1007020016C0D1F017C0D2F018C0D3F019C0D4F07F
:100712009E96C5869EB61FD0165017101810191037
:1007220019E00001D151D211D311D4110CE143C00F
:10073200E1FF44C0E2FF030EE66E41C000F042C09A
:1007420001F0ACDD08D0010E0001D15F000ED25BDA
:10075200D35BD45BDFD70001C9CFD0F0CF51000A01
:1007620002E1C58A01D0C59A9E96C58816C0D1F00D
:1007720017C0D2F018C0D3F019C0D4F09EB61FD063
:10078200165017101810191019E00001D151D2118A
:10079200D311D4110CE143C0E1FF44C0E2FF030EC8
:1007A200E66E41C000F042C001F078DD08D0010ED3
:1007B2000001D15F000ED25BD35BD45BDFD7D0C028
:0407C20000F0120031
:1007C600AECF01F0ABA202D0AB98AB8801C000F06F
:0207D60012000F
:0A07D800000E84B6010E006E120040
:0A07E200000E82BA010E006E120034
:0A07EC00000E82B0010E006E120034
:1007F6001DCF01F00F0122A302D02299228901C048
:0408060000F01200EC
:0A080A00000E80B0010E006E120017
:0A081400000EA4BA010E006E1200DF
:0A081E00000E82BA010E006E1200F7
:100828001AC0D1F01BC0D2F01CC0D3F01DC0D4F048
:100838000001CF6BD06BD051120802E1CF518E0866
:1008480008E30FDD005201E004D00001CF4BD02BAC
:10085800F2D70001120ED05D02E18F0ECF5D03E3E7
:100868007B0E006E24D0668066A020D01A501B1024
:100878001C101D101AE0D151D211D311D4110EE160
:100888004BC0E1FF4CC0E2FF050EE66E49C000F028
:100898004AC001F000DD010E006E09D0010E000112
:1008A800D15F000ED25BD35BD45BDED7006A120047
:1008B8001AC0D1F01BC0D2F01CC0D3F01DC0D4F0B8
:1008C800A19A6686A1BA1FD01A501B101C101D10C1
:1008D80019E00001D151D211D311D4110CE14BC050
:1008E800E1FF4CC0E2FF030EE66E49C000F04AC0CB
:1008F80001F0D1DC08D0010E0001D15F000ED25BFF
:10090800D35BD45BDFD700016ACFD0F0CF51000AA8
:1009180002E1668A01D0669AA19A66881AC0D1F067
:100928001BC0D2F01CC0D3F01DC0D4F0A1BA1FD098
:100938001A501B101C101D1019E00001D151D211C2
:10094800D311D4110CE14BC0E1FF4CC0E2FF030E00
:10095800E66E49C000F04AC001F09DDC08D0010EE7
:100968000001D15F000ED25BD35BD45BDFD7D0C070
:0409780000F0120079
:0A097C00000E82B8010E006E12009A
:100986000B840BAECEEF04F0010E036E026A016A11
:0A099600006A0A360232FF0E12005A
:0809A0000AAE029E000E1200D7
:0E09A800026A016A006A086A036A000E120001
:1009B6000B820BAEE5EF04F003680268016800687D
:0809C6000A360232FF0E120096
:1009CE000C6A0E6A0250D8A400EF05F001C002F0C6
:1009DE0000C001F0006A0E860250D8A400EF05F0A8
:1009EE0001C002F0016A0E960E880250D8B412EFC2
:1009FE0005F00E50035ED8A4D8A017EF05F0D890DE
:100A0E0002BE1CEF05F0003601360236032E07EF4C
:100A1E0005F017EF05F0010E0C6EBFDF1FEF05F0AE
:100A2E00020E0C6EA9DF1FEF05F0040E0C6EB1DF87
:020A3E001200A4
:080A40000B6A0B86FF0E120089
:100A4800C00E0001716F010E726FD50E736F000E2C
:100A5800746FF60E756F070E766F000E776F000EC7
:100A6800786F140E796F080E7A6F000E7B6F000E88
:100A78007C6FDC0E696F030E6A6F000E6B6F000EE1
:100A88006C6F0F01218B900E226F98849892A4AA04
:0A0A980003D01DCF00F0FBD71200C1
:100AA200C5C0CBF0C6C0CCF0C7C0CDF0C8C0CEF038
:100AB200C9C000F0CAC001F0010E0001C95F000EFA
:100AC200CA5B005001101CE035C0E1FF36C0E2FFF6
:100AD200CBC0E9FFCCC0EAFFEECFE6FF33C000F0A7
:100AE20034C001F04FEC01F0CDC0E1FFCEC0E2FF17
:100AF20000C0E6FF0001CD4BCE2BCB4BCC2BD8D781
:020B02001200DF
:100B0400D00E0001716F010E726FD50E736F000E5F
:100B1400746FC60E756F070E766F000E776F000E3A
:100B2400786FF80E796F060E7A6F000E7B6F000EE9
:100B34007C6FEE0E696F060E6A6F000E6B6F000E0F
:100B44006C6FAC8A900EAB6E948E949C9EAA03D06C
:080B5400AECF00F0FBD7120048
:100B5C000B800BAEBAEF05F0026A0AAEFF0E026E06
:0C0B6C00016E006E0A360232FF0E12000D
:100B7800086A096A100E0C6E0134083609360450EA
:100B8800085E0550D8A0053C095ED8B007D00450CF
:100B980008260550D8B0053C0926D89000360136FD
:060BA8000C2EEAD712003A
:100BAE00060E00016D6F040E6E6FCF0E6F6F000E8E
:100BBE00706FA40E656F010E666FD50E676F000E17
:100BCE00686F949AC551040A02E1948601D09496F6
:100BDE009488C66AC79CC79EC551C612C751C61215
:100BEE00C651C712C75305E0C851000AD8B4C78C06
:0C0BFE0003D0C853D8A4C78CC68A1200CC
:100C0A000001CD6BCE6BC6C0CBF0C7C0CCF0C5C05F
:100C1A0000F00036009028C0E1FF29C0E2FF00C0C2
:100C2A00E6FF26C000F027C001F04FEC01F00050AB
:100C3A000001CD13000ECE13C8C000F0C9C001F0E8
:100C4A00010EC85F000EC95B0050011018E028C0F1
:100C5A00E1FF29C0E2FFCBC0E9FFCCC0EAFFEECF3B
:100C6A00E6FF26C000F027C001F04FEC01F000506B
:100C7A000001CD13000ECE13CB4BCC2BDDD7CA51BE
:100C8A00000A06E11EC000F01FC001F04FEC01F09F
:100C9A000001CA51010A06E122C000F023C001F096
:0E0CAA004FEC01F0CDC000F0CEC001F0120002
:100CB8000001CD6BCE6BC6C0CBF0C7C0CCF0C5C0B1
:100CC80000F000360090008028C0E1FF29C0E2FF54
:100CD80000C0E6FF26C000F027C001F04FEC01F08D
:100CE80000500001CD13000ECE13010EC85F000E98
:100CF800C95BC851C91116E031C0E1FF32C0E2FF3B
:100D0800010EE66E2FC000F030C001F04FEC01F08C
:100D1800CBC0E1FFCCC0E2FF00C0E6FF0001CB4B37
:100D2800CC2BE3D731C0E1FF32C0E2FFE66A2FC027
:100D380000F030C001F04FEC01F0CBC0E1FFCCC0B7
:100D4800E2FF00C0E6FF0001CA51000A06E11EC02A
:100D580000F01FC001F04FEC01F00001CA51010A78
:100D680006E13CC000F03DC001F04FEC01F0CDC001
:080D780000F0CEC001F01200F2
:100D80000001C56BC66B22C000F023C001F04FEC20
:100D900001F000C0C5F0000E0001C66FC5C000F034
:060DA000C6C001F01200C4
:100DA60021D0CF0EAF6EAC94AADE6BD0670EAF6EBD
:100DB600AC94A5DE66D0CF0EAF6EAC84A0DE61D05B
:100DC600670EAF6EAC849BDE5CD0440EAF6EAC8417
:100DD60096DE57D0220EAF6EAC8491DE52D0060E50
:100DE600006E58D00001000E006EC11908E10050D7
:100DF600C01905E1120EBF1902E1BE51C00AD1E0C9
:100E0600000E006EC11908E10050C01905E1250E5B
:100E1600BF1902E1BE51800AC9E0000E006EC11979
:100E260008E10050C01905E14B0EBF1902E1BE51A1
:100E3600000AC1E0000E006EC11908E10050C01999
:100E460005E1960EBF1902E1BE51000AB9E0000E97
:100E5600006EC11908E10050C01905E1E10EBF1985
:100E660002E1BE51000AB1E0C151000A08E1C051D9
:100E7600010A05E1BF51C20A02E1BE51000AAAE019
:100E8600AED7D00E456E010E466ED50E476E000EDD
:060E9600486E006A120024
:100E9C000001C26B050EC25D0AE2C251C025E16EB3
:100EAC00000EC121E26E200EE66EC22BF3D7C251AA
:100EBC00C025E16E000EC121E26EE66AC207C25186
:100ECC00C025C36F000EC121C46F0A0E046E000E44
:100EDC00056EBEC000F0BFC001F048DE08C000F0D7
:100EEC0009C001F0300E0026C3C0E1FFC4C0E2FF10
:100EFC0000C0E6FF0A0E046E000E056EBEC000F0C8
:100F0C00BFC001F033DE00C0BEF001C0BFF0000E68
:100F1C00011802E1000E001801E102D0C207CFD780
:020F2C001200B1
:100F2E000B6A0350D8B4DDEF07F002500A6E028E42
:100F3E008E0E035E03AEE1EF07F0036C080E035C4A
:100F4E00D8A0BCEF07F0036E013602C001F0026AB2
:100F5E00080E035CD8A0BCEF07F0036E0136016AE1
:100F6E000350D8A4D890C6EF07F00350D8B4C6EFFC
:100F7E0007F0D89002320132032EC0EF07F00BBCFF
:100F8E0001A0D3EF07F0D8A0D3EF07F0012AD8B411
:100F9E00022A02BEF0EF07F00AAEF5EF07F0021ECE
:100FAE00011E012AD8B4022AF5EF07F0026A016A7F
:100FBE00F5EF07F00B800BAEF9EF07F0026A0AAE01
:100FCE00F9EF07F0FF0E026E016E0A360232F9EFEC
:100FDE0007F0010E0C6EBBDDFBEF07F0000E0C6E82
:100FEE00FBEF07F0FF0E0C6E0150006E0250016E0B
:020FFE001200DF
:1010000047C0E1FF48C0E2FFBEC0E9FFBFC0EAFF42
:10101000EECFE6FF45C000F046C001F04FEC01F016
:04102000006A120050
:10102400BEC0F6FFBFC0F7FFC0C0F8FF0900F5CF90
:1010340037F00900F5CF38F00900F5CF39F0090091
:10104400F5CF3AF0040E0001BE25F66E000EBF2166
:10105400F76E000EC021F86E0900F5CF33F00900D9
:10106400F5CF34F00900F5CF35F00900F5CF36F0AF
:02107400120068
:1010760038D00F0120870D0E1F6F040E1E6F2185BD
:10108600E0DC7ED00F012087060E1F6F820E1E6FDA
:101096002185D7DC75D00F012087030E1F6F400E08
:1010A6001E6F2185CEDC6CD00F012087010E1F6FCD
:1010B600A00E1E6F2185C5DC63D00F012087010EAF
:1010C6001F6F150E1E6F2185BCDC5AD00F012087BD
:1010D6001F6B8A0E1E6F2185B4DC52D0060E006E81
:1010E60058D0000E006E0001C11908E10050C01969
:1010F60005E1120EBF1902E1BE51C00ABAE0000EA8
:10110600006EC11908E10050C01905E1250EBF198E
:1011160002E1BE51800AB6E0000E006EC11908E178
:101126000050C01905E14B0EBF1902E1BE51000A7D
:10113600B2E0000E006EC11908E10050C01905E1C9
:10114600960EBF1902E1BE51000AAEE0000E006E17
:10115600C11908E10050C01905E1E10EBF1902E10D
:10116600BE51000AAAE0C151000A08E1C051010AB5
:1011760005E1BF51C20A02E1BE51000AA7E0AED79F
:10118600C00E456E010E466ED50E476E000E486EB9
:04119600006A1200D9
:10119A00086A080E0C6E003408360450085ED8B08F
:0E11AA0002D00826D89000360C2EF5D7120081
:1011B800BEC0BFF0555015182AE10001BF8F2CC0E2
:1011C800E1FF2DC0E2FFE66A2AC000F02BC001F063
:1011D8004FEC01F0BF0E0001C56F000EC66FBF0EC9
:1011E800C76F000EC86F020EC96F000ECA6F55DCBC
:1011F8002CC0E1FF2DC0E2FF010EE66E2AC000F010
:101208002BC001F04FEC01F0C0C000F01DD0B4DDE0
:101218002EC0C5F0BF0EC66F000EC76F010EC86F97
:10122800000EC96F010ECA6FECDC2EC0C5F0BF0EF0
:101238000001C66F000EC76F010EC86F000EC96FA0
:0A124800CA6B36DDBFC000F01200D3
:1012520021D0CF0EAF6EAC9454DC6BD0670EAF6E64
:10126200AC944FDC66D0CF0EAF6EAC844ADC61D05A
:10127200670EAF6EAC8445DC5CD0440EAF6EAC84BE
:1012820040DC57D0220EAF6EAC843BDC52D0060E4F
:10129200006E58D00001000E006EC11908E1005026
:1012A200C01905E1120EBF1902E1BE51C00AD1E018
:1012B200000E006EC11908E10050C01905E1250EAB
:1012C200BF1902E1BE51800AC9E0000E006EC119C9
:1012D20008E10050C01905E14B0EBF1902E1BE51F1
:1012E200000AC1E0000E006EC11908E10050C019E9
:1012F20005E1960EBF1902E1BE51000AB9E0000EE7
:10130200006EC11908E10050C01905E1E10EBF19D4
:1013120002E1BE51000AB1E0C151000A08E1C05128
:10132200010A05E1BF51C20A02E1BE51000AAAE068
:10133200AED7D00E456E010E466ED50E476E000E2C
:06134200486E006A120073
:1013480000C008F00150006E016A026A036A0B6A65
:101358000C6A016A026A036A960E036E0A6A00AE94
:10136800BCEF09F0081E001E082AD8B4002A0A8E0D
:1013780000C001F008C000F0086A026AE7EC04F057
:02138800120051
:10138A00BEC0F6FFBFC0F7FFC0C0F8FF0900F5CF27
:10139A00C5F0040E0001BE25F66E000EBF21F76EE1
:1013AA00000EC021F86E0900F5CFC6F0080EBE2562
:1013BA00F66E000EBF21F76E000EC021F86E09000E
:1013CA00F5CFC7F00C0EBE25F66E000EBF21F76EE4
:1013DA00000EC021F86E0900F5CFC8F0D7EC05F071
:0613EA00000E006E12006F
:1013F000300E0001BE25006E000EBF21016E000EF2
:10140000C021026E180E0024F66E000E0120F76E49
:10141000000E0220F86E0900F5CF61F00900F5CF4B
:1014200062F00900F5CF63F00900F5CF64F01C0EFF
:101430000024F66E000E0120F76E000E0220F86EFA
:101440000900F5CF5AF00900F5CF5BF00900F5CFA0
:101450005CF00900F5CF5DF0BEC0F6FFBFC0F7FF3E
:10146000C0C0F8FF0900F5CF2AF00900F5CF2BF036
:101470000900F5CF2CF00900F5CF2DF0080EBE25A0
:10148000F66E000EBF21F76E000EC021F86E090047
:10149000F5CF56F00900F5CF57F00900F5CF58F019
:1014A0000900F5CF59F0040EBE25F66E000EBF21DF
:1014B000F76E000EC021F86E0900F5CF51F009005B
:1014C000F5CF52F00900F5CF53F00900F5CF54F0F5
:1014D000180EBE25F66E000EBF21F76E000EC0215D
:1014E000F86E0900F5CF4DF00900F5CF4EF0090078
:0C14F000F5CF4FF00900F5CF50F01200CE
:1014FC00BEC0F6FFBFC0F7FFC0C0F8FF0900F5CFB4
:10150C00C5F0040E0001BE25F66E000EBF21F76E6D
:10151C00000EC021F86E0900F5CFC6F0080EBE25EE
:10152C00F66E000EBF21F76E000EC021F86E09009A
:10153C00F5CFC7F00C0EBE25F66E000EBF21F76E70
:10154C00000EC021F86E0900F5CFC8F0D7EC05F0FD
:06155C00000E006E1200FB
:10156200BEC0F6FFBFC0F7FFC0C0F8FF0900F5CF4D
:10157200C5F0040E0001BE25F66E000EBF21F76E07
:10158200000EC021F86E0900F5CFC6F0080EBE2588
:10159200F66E000EBF21F76E000EC021F86E090034
:1015A200F5CFC7F00C0EBE25F66E000EBF21F76E0A
:1015B200000EC021F86E0900F5CFC8F0D7EC05F097
:0615C200000E006E120095
:1015C80027D0CF0EAF6EAC9482EC05F070D0670ECA
:1015D800AF6EAC9482EC05F06AD0CF0EAF6EAC84DF
:1015E80082EC05F064D0670EAF6EAC8482EC05F037
:1015F8005ED0440EAF6EAC8482EC05F058D0220E5B
:10160800AF6EAC8482EC05F052D0060E006E58D056
:101618000001000E006EC11908E10050C01905E173
:10162800120EBF1902E1BE51C00ACBE0000E006ED7
:10163800C11908E10050C01905E1250EBF1902E1E2
:10164800BE51800AC4E0000E006EC11908E10050C6
:10165800C01905E14B0EBF1902E1BE51000ABDE0F9
:10166800000E006EC11908E10050C01905E1960E80
:10167800BF1902E1BE51000AB6E0000E006EC119A2
:1016880008E10050C01905E1E10EBF1902E1BE51A1
:10169800000AAFE0C151000A08E1C051010A05E1A2
:1016A800BF51C20A02E1BE51000AA9E0AED7D00E6E
:1016B800456E010E466ED50E476E000E486E006AE6
:0216C80012000E
:1016CA00BEC0C0F0BFC0C1F05550151827E12CC0EC
:1016DA00E1FF2DC0E2FFE66A2AC000F02BC001F04C
:1016EA004FEC01F0C00E0001C56F000EC66FC00EB0
:1016FA00C76F000EC86F020EC96F000ECA6F51EC99
:10170A0005F02CC0E1FF2DC0E2FF010EE66E2AC0F3
:10171A0000F02BC001F04FEC01F00FD0C0EC06F046
:10172A002EC0C5F0C00EC66F000EC76F020EC86F7E
:0C173A00000EC96FCA6B05EC06F012002F
:101746000450000A12E10550000A0FE10650000A93
:101756000CE10750000A09E1FF0E006EFF0E016E54
:101766007F0E026EFF0E036EA8D0086A096A075044
:10177600D8B44EEF0CF00350D8B453EF0CF002502F
:1017860006180A6E028E068E0E6A02C008F001C0A6
:101796000CF000C00DF004500D5E0550D8A0053CBD
:1017A6000C5E0650D8A0063C085E086A0C6A0D6AF4
:1017B600D8A0E5EF0BF0D8900232013200320832A1
:1017C600010E0E6E0750035ED8A0F2EF0BF07E0EF0
:1017D6000E240326D8B058EF0CF0F8EF0BF07E0E6F
:1017E6000E240326D8A05DEF0CF0180E0B6E0D36F6
:1017F6000C3608360036013602360E360450005EC8
:101806000550D8A0053C015E0650D8A0063C025EF5
:1018160006340E120EA013EF0CF00D801EEF0CF026
:10182600045000260550D8B0053C01260650D8B015
:10183600062802260D900B2EFAEF0BF044EF0CF063
:10184600D8900036013602360E360450005E05503A
:10185600D8A0053C015E0650D8A0063C025E0634C0
:101866000E10010B0D26D8B00C2AD8B4082AD8A41D
:1018760044EF0CF008320C320D32032AD8B458EF7C
:101886000CF00AAE089E0850026E0C50016E0D5008
:10189600006E60EF0CF0010E20EC05F060EF0CF02E
:1018A600020ED4EC04F060EF0CF0040EDBEC04F056
:0C18B60060EF0CF0080EC3EC04F0120010
:1018C20059D00001BFB102D0929001D092800F0195
:1018D200259176D00001BFB102D0949001D09480BE
:1018E2006FD00001BFB102D0969001D0968068D02F
:1018F2000001BFB102D0949601D0948661D000015C
:10190200BFB102D0949801D094885AD00001BFB1DF
:1019120002D0949A01D0948A53D00001BFB102D070
:10192200949201D094824CD00001BFB102D0939026
:1019320001D0938045D00001BFB102D0949E01D066
:10194200948E3ED00001BFB102D0949C01D0948C01
:1019520037D00001BFB102D0949601D0948630D026
:101962000001BFB102D0949801D0948829D0010E11
:10197200006E28D00001BE51000AA3E0BE51010A48
:10198200A9E0BE51020AADE0BE51030AB1E0BE5168
:10199200040AB5E0BE51050AB9E0BE51060ABDE02F
:1019A200BE51070AC1E0BE51080AC5E0BE51090A8C
:1019B200C9E0BE510A0ACDE0BE510B0AD1E0D7D729
:0619C200000E006E120091
:1019C8005DD00001BFB102D0929401D092840F0182
:1019D80025957AD00001BFB102D0969601D096869F
:1019E80073D00001BFB102D0969401D096846CD018
:1019F8000001BFB102D0949601D0948665D0000151
:101A0800BFB102D0949801D094885ED00001BFB1D4
:101A180002D0949A01D0948A57D00001BFB102D065
:101A2800989001D0988050D00001BFB102D0939413
:101A380001D0938449D00001BFB102D0989401D05D
:101A480098840F01239540D00001BFB102D098922D
:101A580001D098820F01239337D00001BFB102D083
:101A6800949601D0948630D00001BFB102D09498EA
:101A780001D0948829D0010E006E28D00001BE51F3
:101A8800000A9FE0BE51010AA5E0BE51020AA9E082
:101A9800BE51030AADE0BE51040AB1E0BE51050AC9
:101AA800B5E0BE51060AB9E0BE51070ABDE0BE5115
:101AB800080AC1E0BE51090AC7E0BE510A0ACDE0D2
:0E1AC800BE510B0AD1E0D7D7000E006E1200FF
:101AD60059D00001BFB102D0929201D092820F017B
:101AE600259376D00001BFB102D0929801D092889A
:101AF6006FD00001BFB102D0969201D0968268D015
:101B06000001BFB102D0949601D0948661D0000145
:101B1600BFB102D0949801D094885AD00001BFB1C9
:101B260002D0949A01D0948A53D00001BFB102D05A
:101B3600949401D094844CD00001BFB102D093920A
:101B460001D0938245D00001BFB102D0949E01D04E
:101B5600948E3ED00001BFB102D0949C01D0948CEB
:101B660037D00001BFB102D0949601D0948630D010
:101B76000001BFB102D0949801D0948829D0010EFB
:101B8600006E28D00001BE51000AA3E0BE51010A32
:101B9600A9E0BE51020AADE0BE51030AB1E0BE5152
:101BA600040AB5E0BE51050AB9E0BE51060ABDE019
:101BB600BE51070AC1E0BE51080AC5E0BE51090A76
:101BC600C9E0BE510A0ACDE0BE510B0AD1E0D7D713
:061BD600000E006E12007B
:101BDC00086A096A000E0762036473EF0EF0025084
:101BEC0006180A6E075003267E0ED8A004EF0EF0DE
:101BFC00035ED8B078EF0EF008EF0EF0035ED8A0BD
:101C0C007DEF0EF0028E068E02C00EF001C00BF0BE
:101C1C0000C00DF000500402F4CF0CF0015005028E
:101C2C00F4CF00F0F3CF08F00402F3500C26F4507C
:101C3C000822000E00220D500502F3500C26F45021
:101C4C000822000E002202500402F3500826F45021
:101C5C00002202500502016A000E0122F3500026F8
:101C6C00F45001220D500602F3500826F4500022C5
:101C7C00026A000E012202220B500602F3500026CB
:101C8C00F4500122000E02220E500602F3500126DF
:101C9C00F450022202BE5BEF0EF00836003601361D
:101CAC0002360306D8B47DEF0EF06EEF0EF0D8803E
:101CBC00800E08640030000E002201220222D8A0FF
:101CCC006EEF0EF0023201320032034A78EF0EF062
:101CDC000AAE029E000E80EF0EF0010ED4EC04F062
:101CEC0080EF0EF0020EDBEC04F080EF0EF0040E31
:061CFC00C3EC04F012002D
:101D020015D0AFC0BEF0B0C0BFF0DADD1AD0AFC0A0
:101D1200BEF0B0C0BFF0DEDE14D0AFC0BEF0B0C0C7
:101D2200BFF051DE0ED0010E006E0BD00001AE519D
:101D3200000AE7E0AE51010AEAE0AE51020AEDE024
:041D4200F2D71200C2
:101D46001ED0AFC0BEF0B0C0BFF0B1C0C0F0C5EC91
:101D560009F020D0AFC0BEF0B0C0BFF0B1C0C0F037
:101D66007EEC0AF017D0AFC0BEF0B0C0BFF0B1C075
:101D7600C0F0B1EC0AF00ED0010E006E0BD00001DF
:101D8600AE51000ADEE0AE51010AE4E0AE51020AAD
:061D9600EAE0F2D71200A2
:101D9C002FD0AFC0BEF0B0C0BFF0B1C0C0F0B2C069
:101DAC00C1F0D3EC06F032D0AFC0BEF0B0C0BFF083
:101DBC00B1C0C0F0B2C0C1F029EC09F027D0AFC05F
:101DCC00BEF0B0C0BFF0B1C0C0F0B2C0C1F03BECCF
:101DDC0008F01CD0AFC0BEF0B0C0BFF0B1C0C0F0B6
:101DEC00B2C0C1F0E4EC0AF011D0010E006E0ED0BE
:101DFC000001AE51000ACDE0AE51010AD5E0AE5162
:0E1E0C00020ADDE0AE51100AE5E0EFD7120049
:101E1A0015C055F05F6A3B6A406A5E6AB1C0BEF09F
:101E2A00B2C0BFF0B3C0C0F012EC08F0AEC0BEF052
:101E3A00AFC0BFF0B0C0C0F0F8EC09F053C0E1FF8A
:101E4A0054C0E2FF010EE66E51C000F052C001F02C
:101E5A004FEC01F02CC0E1FF2DC0E2FF010EE66E4F
:101E6A002AC000F02BC001F04FEC01F058C0E1FF8E
:101E7A0059C0E2FF010EE66E56C000F057C001F0ED
:061E8A004FEC01F0120014
:101E9000C00E0001AE15BF6F1C0EAF15006E0050D6
:101EA000BF13030EB015006E0050BF130D0EBE6FB2
:041EB0000CDC120034
:101EB4000F0E00016015BF6F0E0EBE6F04DC120022
:101EC400010E0001B76F555015182BE1B78F2CC0C8
:101ED400E1FF2DC0E2FFE66A2AC000F02BC001F04A
:101EE4004FEC01F0B70E0001C56F000EC66FB00EC7
:101EF400C76F000EC86F070EC96F000ECA6F51EC92
:101F040005F02CC0E1FF2DC0E2FF010EE66E2AC0F1
:101F140000F02BC001F04FEC01F0010E0001606FE6
:101F24001FD0606BC0EC06F02EC0C5F0B70EC66FB4
:101F3400000EC76F010EC86F000EC96F010ECA6F85
:101F440005EC06F02EC0C5F0B00E0001C66F000E01
:101F5400C76F060EC86F000EC96FCA6B5CEC06F043
:101F640060C000F0000E016EB00E0024E96E000E99
:101F74000120EA6EEECF01F001C003F0026A000115
:101F84006051010F006E016A000E0122B00E0024A0
:101F9400D96E000E0120DA6EDE500210006E03C00E
:101FA40001F0000E0112AEC0E1FFAFC0E2FF00C0BD
:101FB400E6FF01C0E6FF020EAE25E16E000EAF2182
:101FC400E26E6051020F006E016A000E0122B00E33
:101FD4000024E96E000E0120EA6EEECF01F001C08C
:101FE40003F0026A6051030F006E016A000E0122C1
:101FF400B00E0024D96E000E0120DA6EDE500210FD
:10200400006E03C001F0000E011200C0E6FF01C023
:10201400E6FF040EAE25E16E000EAF21E26E6051C4
:10202400040F006E016A000E0122B00E0024E96E56
:10203400000E0120EA6EEECF01F001C003F0026A47
:102044006051050F006E016A000E0122B00E0024DB
:10205400D96E000E0120DA6EDE500210006E03C04D
:1020640001F0000E011200C0E6FF01C0E6FF1200FD
:102074000001AFA504D0040E4010606F03D0FB0E26
:102084004014606F60C040F0AFA904D0100E40103F
:10209400B16F03D0EF0E4014B16FB1C040F0AFADDB
:1020A40004D0400E4010B26F03D0BF0E4014B26F84
:1020B400B2C040F0B0A104D0010E4010B36F03D001
:1020C400FE0E4014B36FB3C040F0B0A304D0020EB0
:1020D4004010B46F03D0FD0E4014B46FB4C040F090
:1020E400AEA704D0080E4010B56F03D0F70E40140D
:1020F400B56FB5C040F0AEAB04D0200E4010B66F43
:1021040003D0DF0E4014B66FB6C040F0AEAF04D0BB
:10211400800E4010B76F03D07F0E4014B76FB7C066
:1021240040F0140EBE6FB7C0BFF065EC0BF01200A8
:102134007F0E00016015BF6F100EBE6F65EC0BF0D3
:02214400120087
:1021460000016051030802E2030E606F130EBE6FBA
:10215600DCEC08F000C03BF0FC0E001600C03BF0C3
:1021660000016051001200C03BF0130EBE6F00C0AC
:08217600BFF065EC0BF0120054
:10217E0000016051070802E2070E606F130EBE6F7A
:10218E00DCEC08F000C03BF0E30E0014026E02C05F
:10219E003BF060C000F00036009000360090025018
:1021AE00001200C03BF0130E0001BE6F00C0BFF066
:0621BE0065EC0BF01200BD
:1021C400AEC0E9FFAFC0EAFFEECF00F0EECF01F002
:1021D400A4EC09F0000E046E000E056E000E066EEF
:1021E400790E076EF9DC000E046E000E056E300EDB
:1021F400066E850E076EA3EC0BF0000E046E000E47
:10220400056E400E066E800E076EE6DC97EC07F056
:10221400AEC0E1FFAFC0E2FF00C0E6FF01C0E6FFD1
:10222400020E0001AE25B06F000EAF21B16F020E99
:10223400AE25E96E000EAF21EA6EEECF00F0EECFD0
:1022440001F0A4EC09F0000E046E000E056E000E01
:10225400066E790E076EC0DC000E046E000E056E6D
:10226400300E066E850E076EA3EC0BF0000E046EA6
:10227400000E056E400E066E800E076EADDC97EC08
:1022840007F0B0C0E1FFB1C0E2FF00C0E6FF01C04B
:10229400E6FF040E0001AE25B06F000EAF21B16F52
:1022A400040EAE25E96E000EAF21EA6EEECF00F00B
:1022B400EECF01F0A4EC09F0000E046E000E056EE2
:1022C400000E066E790E076E87DC000E046E000E9B
:1022D400056E300E066E850E076EA3EC0BF0000E35
:1022E400046E000E056E400E066E800E076E74DCE2
:1022F40097EC07F0B0C0E1FFB1C0E2FF00C0E6FF19
:0623040001C0E6FF12001B
:10230A000001606B030E605D0AE26051AF25E16E69
:10231A00000EB021E26E200EE66E602BF3D76051FC
:10232A00AF25E16E000EB021E26EE66A60076051E9
:10233A00AF25B16F000EB021B26F0A0E046EAEC0A7
:10234A0000F0CDEC08F008C000F0300E0026B1C055
:10235A00E1FFB2C0E2FF00C0E6FF0A0E046EAEC0A3
:10236A0000F0CDEC08F000C0AEF00050000A01E128
:08237A0002D06007DCD712005D
:10238200AEC0B1F0AFC0B2F00D0E0001606F0A0E28
:10239200B36F3AD0B1C0BEF0B2C0BFF000EC08F0EB
:1023A2003ED0B1C0E9FFB2C0EAFFEE520AE0B1C0CE
:1023B200BEF0B2C0BFF000EC08F00001B14BB22B8E
:1023C200F0D72DD0B1C0E9FFB2C0EAFFEE520AE069
:1023D200B1C0BEF0B2C0BFF000EC08F00001B14BDA
:1023E200B22BF0D70001600EBE6F000EBF6F00EC83
:1023F20008F0B30E0001BE6F000EBF6F00EC08F0D4
:102402000ED0060E006E0CD00001B051000AC2E0E0
:10241200B051010AC6E0B051020AD4E0F2D7006A14
:022422001200A6
:0C2424000C0E0001BE6FDCEC08F0120092
:102430000001B46BB56BAEC0B6F0AFC0B7F0800EA4
:10244000AF19006E800E005C02E1000EAE5D0BE283
:10245000010EB46F000EB56FAE510008B66FAFC07D
:10246000B7F0000EB757B6C0BEF0B7C0BFF0B0C0EF
:10247000C0F0B1C0C1F04EEC07F0060EB26F000E16
:10248000B36F000E006EB351005C02E1B251000860
:1024900019E2B251B025E16EB351B121E26E010EE5
:1024A000B25D006E000EB359016E0050B025E96EAA
:1024B0000150B121EA6EEECFE6FF010EB25F000ED1
:1024C000B35BDFD7B0C0E1FFB1C0E2FF200EE66E24
:1024D000B451B5111AE0B26BB36BB251B025E96ECD
:1024E000B351B121EA6EEE50200A03E1B24BB32B97
:1024F000F4D7010EB25F000EB35BB251B025E16EAE
:0C250000B351B121E26E2D0EE66E120008
:10250C000001B06BB16BAEC003F0AFC004F0AEC055
:10251C0005F0AFC006F003C0E9FF04C0EAFFEE50BF
:10252C00200A04E1B051B11101E110D0010EB06FDD
:10253C00000EB16F03C0E9FF04C0EAFF05C0E1FF64
:10254C0006C0E2FFEECFE6FF054A062A03C001F003
:10255C0004C002F0034A042A01C0E9FF02C0EAFFEA
:10256C00EE50000AD8E1AEC000F0AFC001F012008E
:0C257C00120E0001BE6FDCEC08F0120033
:102588000001AE6BAF6BB06B81EC0EF00001AE6B6F
:10259800010EAF6FB06B81EC0EF00001AE6B020E56
:1025A800AF6FB06B81EC0EF00001AE6B060EAF6F33
:1025B800010EB06F81EC0EF00001AE6B070EAF6F2D
:1025C800010EB06F81EC0EF00001AE6BA20EAF6F82
:1025D800290EB06F000EB16FA3EC0EF0100EAE6FA7
:1025E800800EAF6F250EB06F000EB16FB26FCEECDC
:1025F8000EF0090E0B6E1E0E0C6EE40E0D6E0D2EF7
:0E260800FED70C2EFCD70B2EFAD700001200C6
:102616000C0E0001AE6F290EAF6F000EB06FBB0E31
:10262600B16F290EB26F000EB36F0DEC0FF0F40E02
:102636000B6E820E0C6E050E0D6E0D2EFED70C2E39
:10264600FCD70B2EFAD7EBDE0050D70A4FE1470E28
:1026560000017D6F790E7E6F720E7F6F6F0E806F39
:10266600200E816F320E826F200E836F700E846F84
:10267600720E856F650E866F730E876F650E886F97
:102686006E0E896F740E8A6F8B6B7D0EAE6F000EA9
:10269600AF6F020EB06F72DE040E006E020E0010F7
:1026A6000001606F010E601302DC0A0E0001606F0C
:1026B6003EDD030E0001606F43DD030E0001606F17
:1026C6005BDD800E0001AE6F400E006E040E001042
:1026D600AF6F020EB06FCBDCE00E0001AE6F000EE6
:1026E600AF6F030EB06F48EC0FF014D0450E00012B
:1026F6008C6F720E8D6F720E8E6F6F0E8F6F720EE5
:10270600906F916B8C0EAE6F000EAF6F020EB06FB6
:1027160035DEFFD7090E0B6E1E0E0C6EE40E0D6E27
:102726000D2EFED70C2EFCD70B2EFAD7000012006A
:102736000900F5CFE6FF0006FBE10106F9E112000C
:10274600A80E0001AE6F000EAF6F62EC0FF0A80E80
:10275600AE6F000EAF6F33DDA8C0AEF0A9C0AFF00C
:102766009E0E0001B06F000EB16F5FDE9E0EAE6F63
:10277600000EAF6FC8DE780E7D6F3A0E7E6F200EAC
:102786007F6F806B7D0EAE6F000EAF6F010EB06F68
:10279600F5DD9E0E0001AE6F000EAF6F020EB06F3C
:1027A600EDDDAAC0AEF0ABC0AFF09E0E0001B06F7B
:1027B600000EB16F3ADE9E0EAE6F000EAF6FA3DE57
:1027C600790E816F3A0E826F200E836F846B810EB5
:1027D600AE6F000EAF6F010EB06FD0DD9E0E000122
:1027E600AE6F000EAF6F020EB06FC8DDACC0AEF0BC
:1027F600ADC0AFF09E0E0001B06F000EB16F15DEDA
:102806009E0EAE6F000EAF6F7EDE7A0E856F3A0EAD
:10281600866F200E876F886B850EAE6F000EAF6FCA
:10282600010EB06FABDD9E0E0001AE6F000EAF6FF6
:10283600020EB06FA3DD9FDE00C0AEF09E0E00015B
:10284600AF6F000EB06F5EDD9E0EAE6F000EAF6F07
:102856005ADE540E896F650E8A6F6D0E8B6F700E81
:102866008C6F650E8D6F720E8E6F610E8F6F740E8C
:10287600906F750E916F720E926F650E936F3A0E92
:10288600946F200E956F966B890EAE6F000EAF6F2C
:10289600010EB06F73DD9E0E0001AE6F000EAF6FBE
:1028A600010EB06F6BDD200E0001976FB00E986FB2
:1028B600430E996F9A6B970EAE6F000EAF6F020EB6
:1028C600B06F5CDD2B0E00019B6F2B0E9C6F9D6B1A
:1028D6009B0EAE6F000EAF6F020EB06F4FDD110E86
:1028E6000B6E3C0E0C6ECB0E0D6E0D2EFED70C2E07
:0828F600FCD70B2EFAD71200EB
:0E28FE00E2EC14F042DE88DE1FDFFED7FFD7CB
:1029C40010EE15F0090E006E010E016EB20EF66ED9
:0E29D400290EF76E000EF86E9BEC13F0120049
:10290C007A01D5005001D5004201D5006C01D500EB
:10291C005E01D500DE01D5004002D5003202D500A3
:10292C005C02D5004E02D5002402D500FA01D50078
:10293C000A080000EC070000F2030000FC03000092
:10294C0010030000E2070000E8030000220400006E
:10295C00F2020000C0020000CA02000006030000E0
:04296C00783A200095
:04297000793A200090
:042974007A3A20008B
:0E29780054656D70657261747572653A200069
:0429860020B043003A
:03298A002B2B00F4
:0F298D004779726F20322070726573656E740027
:06299C004572726F72002B
:1029A2000200000000000000000000000100000022
:0129B2000222
:0429B3000000000020
:0429B700000000001C
:0829BB00A401D5000604CF00C1
:020000040030CA
:0E00000015137F7CF98B91FFFFC0FFE0FF40DE
:00000001FF
