:10000000E8160400000000000000000000000000EE
:1000100000000000000000000000000000000000E0
:1000200000000000000000000000000000000000D0
:1000300000000000000000000000000000000000C0
:1000400000000000000000000000000000000000B0
:102DD000CF862000F0FF270020A0B70010002000C1
:102DE00034A0B700400020004420B70008170200BC
:102DF000000000001217020000000000CBFF0700D7
:102E00008EFF070036FF0700FEFF3700FFFF370089
:102D2C008A1F78008B1F78008C1F78001820EF000A
:102D3C001620EF001420EF00EBFD07001820EF0029
:102D4C001BC0B3001420EF00E7FD07001820EF00B4
:102D5C002BC0B3001420EF00E3FD07001CC0B30030
:102D6C006BC0B3001420EF00DFFD07001CC0B300E4
:102D7C007BC0B3001420EF00DBFD07002007280008
:102D8C00800578001420EF0041FF07000B5822004B
:102D9C000C0020000AC2B3004FFE070038002000D0
:102DAC00578D20000E20ED00FEFF3A001020ED00A4
:102DBC00FCFF3A004F067800CF0578004F057800ED
:042DCC0000000600FD
:1024F4008A1F78008B1F78000A0037000B4578008C
:102504008C457800DCFD07000B0037000B45780094
:102514008C45780038FE07000700370010C0B30070
:10252400050037006054E100F4FF32006154E1001B
:10253400F6FF3200F9FF3700CF0578004F05780029
:04254400000006008D
:101C7C00F0FF2F002AA3B700F0FF2F002CA3B70012
:101C8C00F0FF2F006CA3B7003E0037001600AE002B
:101C9C00C702A9001600AF00C702A8005200370007
:101CAC001600AE00CC22A9001600AF00CC22A80072
:101CBC004D0037001600AE00CC42A9001600AF0054
:101CCC00CC42A800480037001600AE00DEC2A900C6
:101CDC001600AF00DEC2A800430037001600AE00AD
:101CEC00DEE2A9001600AF00DEE2A8003E003700DD
:101CFC001600AE00DF02A9001600AF00DF02A8003C
:101D0C00390037001600AE00D202A9001600AF0051
:101D1C00D202A800340037001600AE00C182A90020
:101D2C001600AF00C182A8002F0037001600AE00CD
:101D3C00DE82A9001600AF00DE82A8002A00370060
:101D4C001600AE00DEA2A9001600AF00DEA2A800AD
:101D5C00250037001600AE00C042A9001600AF00E7
:101D6C00C042A800200037001600AE00C062A900D7
:101D7C001600AF00C062A8001B00370010C0B300F3
:101D8C001A0037006054E100C0FF32006154E100DA
:101D9C00C3FF32006254E100C6FF32006354E1001D
:101DAC00C9FF32006454E100CCFF32006554E100FD
:101DBC00CFFF32006654E100D2FF32006754E100DD
:101DCC00D5FF32006854E100D8FF32006954E100BD
:101DDC00DBFF32006A54E100DEFF32006B54E1009D
:101DEC00E1FF3200E5FF370000C0B3000000060041
:101DFC00F0FF2F002AA3B700F0FF2F002CA3B70091
:101E0C00F0FF2F006CA3B7003E0037001600AE00A9
:101E1C00C722A9001600AF00C722A8005200370045
:101E2C001600AE00CC62A9001600AF00CC62A80070
:101E3C004D0037001600AE00CC82A9001600AF0092
:101E4C00CC82A800480037001600AE00DEC2A90004
:101E5C001600AF00DEC2A800430037001600AE002B
:101E6C00DEE2A9001600AF00DEE2A8003E0037005B
:101E7C001600AE00DF02A9001600AF00DF02A800BA
:101E8C00390037001600AE00D222A9001600AF00B0
:101E9C00D222A800340037001600AE00C1A2A9005F
:101EAC001600AF00C1A2A8002F0037001600AE002C
:101EBC00DF82A9001600AF00DF82A8002A003700DD
:101ECC001600AE00DFA2A9001600AF00DFA2A8002A
:101EDC00250037001600AE00C042A9001600AF0066
:101EEC00C042A800200037001600AE00C062A90056
:101EFC001600AF00C062A8001B00370010C0B30072
:101F0C001A0037006054E100C0FF32006154E10058
:101F1C00C3FF32006254E100C6FF32006354E1009B
:101F2C00C9FF32006454E100CCFF32006554E1007B
:101F3C00CFFF32006654E100D2FF32006754E1005B
:101F4C00D5FF32006854E100D8FF32006954E1003B
:101F5C00DBFF32006A54E100DEFF32006B54E1001B
:101F6C00E1FF3200E5FF370000C0B30000000600BF
:102A9C008A1F7800080037000B05780064FC0700DB
:102AAC000A0037000B05780069FC070007003700A7
:102ABC0010C0B300050037006054E100F6FF32008F
:102ACC006154E100F7FF3200F9FF37004F05780041
:042ADC0000000600F0
:101C3C008A1F78008B1F78001A05BE0001FC070074
:101C4C0000C0B300CF0578004F05780000000600F7
:100C50000400FA00D3FE0700E1FE0700421F200057
:100C60000300200043FF07000001BE00829FBE007A
:100C70008A9FBE000200BE0002682900830920008E
:100C80000002EB0044FF07004F05BE004F01BE000D
:100C900000079800110798000200BE000A01BE007C
:100CA0000002EB003CFF07000001BE0060004700AF
:100CB00030015100A081590061005100E0805900CD
:100CC000A010880017E2A800C8FE07001822EF0055
:100CD00060FF070072FF07000080FA0000000600B6
:1007A4000000FA00E0202000E041880040402000E2
:1007B400F0418800E03B20001043880020272000FF
:1007C40020438800E035200030438800A03A200010
:0C07D400004388000080FA0000000600CE
:0C07E00000F421000100200000000600D1
:1007EC0038002000578D20000E20ED00FEFF3A004F
:0C07FC001020ED00FCFF3A000000060099
:100A54000000FA0070FE07000000E20001003A0006
:0C0A6400FCFF37000080FA0000000600D4
:10041C000000FA000260EF001602AF000260EC0070
:10042C000060EF001642AF000060EC008180FB0022
:10043C000080FB00808070000060EF001662AF004F
:10044C000060EC000080FB00808070000060EF001A
:10045C001682AF000060EC000080FB008080700012
:10046C000060EF001622AF000060EC000080FB0083
:10047C00808070000060EF0019C2AF000060EC00DB
:10048C000080FB00008070000000E2000060EF00C4
:10049C0001003A000060EC000080FB000080FA00D4
:0404AC000000060046
:100AA0000000000000000000000000000000000046
:040AB000000006003C
:100974000000FA00020AB800500088000200B80023
:1009840081004200032AB800810042000080FA007E
:040994000000060059
:100998000000FA00020007001A0504000000000029
:1009A8000800E20002003A001000070000000600FC
:1009B800839F68000200E20002003D006000100012
:1009C800E08018000600E20002003D00600111000E
:1009D800E0811900050007004F00E00002003B001D
:1009E80060001000E0801800000006006022B800D7
:1009F800060220000000D0008180D2000482D200CC
:100A08008582D2000000A8000202520083825A00A8
:100A180003003B000202420083824A000000A1005A
:100A28000603E900F3FF3A00000006000080FA0020
:040A380000000600B4
:101C5C008A1F78008B1F78001A05BE00F9FB07005D
:101C6C0000C0B300CF0578004F05780000000600D7
:1026E4008A1F78008B1F78008C1F78001200370037
:1026F4000B0578008C05780029FE070019003700C7
:102704000B0578008C0578002AFE070015003700B9
:102714000B0578008C05780017FE070011003700C0
:102724000B0578008C05780018FE07000D003700B3
:1027340010C0B3000B0037006054E100ECFF32001E
:102744006154E100EEFF320000C2B3000054E10026
:10275400EFFF320000C3B3000054E100F0FF320089
:10276400F3FF37004F067800CF0578004F05780057
:04277400000006005B
:101FA40011FC0700A0612000504388000020EF00CE
:041FB4000000060023
:100FEC000800FA00A0612000E04288006026200082
:100FFC00F042880000342000C0428800E039200014
:10100C00D04288003022EF000000280032A2B70046
:10101C003062A900EFFD07000001BE00803E2000F9
:10102C000100200050FE07000001BE008FFD0700EC
:10103C004100DE0064004000800078006000470042
:10104C000A88BE008100E900030035001018D000AA
:10105C001090D200FBFF3700829FBE008A9FBE001B
:10106C000200BE000E0190009E0190000002EB00F9
:10107C0047FD07004F05BE004F01BE00200798003A
:10108C00310798008A9FBE000200BE000E0190003E
:10109C009E0190000002EB003CFE07004F05BE00D5
:1010AC008001780001027800600047005001D100F7
:1010BC00C080D300640047003008E1002090E100BC
:1010CC000700310061804100E0004A008002780096
:1010DC0001037800050178008601780002003700D2
:1010EC0003017800840178000280710033003A001B
:1010FC00B8FD07000001BE00803E2000010020006A
:10110C0019FE07000001BE0058FD07004100DE007B
:10111C0000A0EC0080007800600047000A88BE0048
:10112C008100E900030035001018D0001090D200A7
:10113C00FBFF3700829FBE000200BE000E01900034
:10114C009E0190000002EB0011FD07004F01BE0054
:10115C0020079800310798000200BE000E01900095
:10116C009E0190000002EB0008FE07008001780051
:10117C0001027800600047005001D100C080D3000C
:10118C00640047003008E1002090E10007003100C6
:10119C0061804100E0004A00800278000103780081
:1011AC000501780086017800020037000301780001
:1011BC00840178003062A800000037006100510003
:1011CC00E0805900C01188003222A90031E2A80049
:1011DC003342A80082FD070081FD07000080FA0061
:0411EC0000000600F9
:08067800200020000000060034
:10059C000000FA0002000700220304000000000023
:1005AC000800E20002003A001000070000000600FC
:1005BC00811F78000200E20002003D006000100084
:1005CC00E08018000600E20002003D00600111000E
:1005DC00E0811900050007004F00E00002003B001D
:1005EC0060001000E0801800000006000200070008
:1005FC000480BE00000006006022B8000602200045
:10060C000000D0008180D2000482D2008582D2000A
:10061C000000A8000202520083825A0003003B0033
:10062C000202420083824A000000A1000603E90096
:10063C00F3FF3A00000006000080FA0000000600FC
:081FB80060C0B3000000060048
:101F7C001BFC0700A0612000504388000020EF00EC
:041F8C00000006004B
:101F900057FB070040602000504388000020EF00FE
:041FA0000000060037
:100CF0000800FA0040602000E0428800E051200037
:100D0000F042880060322000C0428800003320009A
:100D1000D04288002022EF000000280022A2B70065
:100D20002062A900AEFE07000001BE00803E200048
:100D3000010020000FFF07000001BE004EFE07006B
:100D40004100DE0064004000800078006000470041
:100D50000A88BE008100E900030035001018D000A9
:100D60001090D200FBFF3700829FBE008A9FBE001A
:100D70000200BE000E0190009E0190000002EB00F8
:100D800006FE07004F05BE004F01BE002007980079
:100D9000310798008A9FBE000200BE000E0190003D
:100DA0009E0190000002EB00FBFE07004F05BE0015
:100DB0008001780001027800600047005001D100F6
:100DC000C080D300640047003008E1002090E100BB
:100DD0000700310061804100E0004A008002780095
:100DE00001037800050178008601780002003700D1
:100DF00003017800840178000280710033003A001A
:100E000077FE07000001BE00803E200001002000A8
:100E1000D8FE07000001BE0017FE07004100DE00FB
:100E200000A0EC0080007800600047000A88BE0047
:100E30008100E900030035001018D0001090D200A6
:100E4000FBFF3700829FBE000200BE000E01900033
:100E50009E0190000002EB00D0FD07004F01BE0094
:100E600020079800310798000200BE000E01900094
:100E70009E0190000002EB00C7FE07008001780091
:100E800001027800600047005001D100C080D3000B
:100E9000640047003008E1002090E10007003100C5
:100EA00061804100E0004A00800278000103780080
:100EB0000501780086017800020037000301780000
:100EC000840178002062A800000037006100510012
:100ED000E0805900401188002222A90021E2A800E8
:100EE0002342A80041FE070040FE07000080FA00F0
:040EF00000000600F8
:102C3C008A1F78008B1F78008C1F78001CC2B30091
:102C4C008B0628008A03280004FF0700E8032000F5
:102C5C00379120000E20ED00FEFF3A001020ED0011
:102C6C00FCFF3A0000000000C0FE070071CDB3006D
:102C7C000104E1001C003A002BC0B3008A80200044
:102C8C00BFFE070041002000200020008080700063
:102C9C0010002000008070000045780072FF0700D3
:102CAC00AAC0B30065FF07003AC0B30033FF0700AA
:102CBC003AC0B30048FF0700010420004000200088
:102CCC00008070002CC0B300804578000AC8B300A7
:102CDC006EFD07003CC0B3000BC0B3000ACEB300BE
:102CEC00D5FD0700040037002BC0B3008A812000FB
:102CFC00A3FE0700FFFF370038002000578D20008F
:102D0C000E20ED00FEFF3A001020ED00FCFF3A0013
:102D1C004F067800CF0578004F05780000000600BC
:102868008A1F7800608420000C487800718420005A
:10287800C082200090487800918320000020EF005B
:1028880080487800A18320000020EF00804878006D
:10289800B18320000020EF00804878008183200069
:1028A8000020EF00804878008A1F78000B05780028
:1028B800AAFC07004F057800B7FC07001AC0B30050
:1028C80070428000000001001AC0B300404380003D
:1028D800000001001420EF00B04280000000010059
:0828E8004F0578000000060016
:101B64001A00780020428800E20045001100780045
:101B740000428800E400450011007800104288000B
:101B8400E60045001100780040428800E800450066
:0C1B94001100780050428800000006009C
:101BA000F80045006C8040001000780090428800EA
:101BB0006E80400010007800A04288001A00780073
:101BC000404388006400450010007800B04288005F
:101BD0006200450010007800704288006C004500EB
:0C1BE00010007800804288000000060021
:101B3C001400AE00CB02A9001400AF00CB02A80029
:041B4C00000006008F
:101B50001400AE00D022A9001400AF00D022A800CB
:041B6000000006007B
:101C14001400AE00D042A9001400AF00D042A800C6
:041C240000000600B6
:101C28001400AE00E2C2A9001400AF00E2C2A8008E
:041C380000000600A2
:101BEC001400AE00E2E2A9001400AF00E2E2A8008B
:041BFC0000000600DF
:101C00001400AE00E302A9001400AF00E302A80034
:041C100000000600CA
:101FC0001400AE00D602A9001400AF00D602A8008B
:041FD0000000060007
:10209C001400AE00C582A9001400AF00C582A800D0
:0420AC00000006002A
:1020B0001400AE00E282A9001400AF00E282A80082
:0420C0000000060016
:1020C4001400AE00E2A2A9001400AF00E2A2A8002E
:0420D4000000060002
:102074001400AE00C442A9001400AF00C442A8007A
:042084000000060052
:102088001400AE00C462A9001400AF00C462A80026
:04209800000006003E
:1020EC001400AE00CB22A9001400AF00CB22A80034
:0420FC0000000600DA
:1020D8001400AE00D062A9001400AF00D062A800BE
:0420E80000000600EE
:102060001400AE00D082A9001400AF00D082A800F6
:042070000000060066
:101FFC001400AE00E2C2A9001400AF00E2C2A800B7
:04200C0000000600CA
:101FE8001400AE00E2E2A9001400AF00E2E2A8008B
:041FF80000000600DF
:101FD4001400AE00E302A9001400AF00E302A8005D
:041FE40000000600F3
:102010001400AE00D622A9001400AF00D622A800FA
:0420200000000600B6
:10204C001400AE00C5A2A9001400AF00C5A2A800E0
:04205C00000006007A
:102038001400AE00E382A9001400AF00E382A800F8
:04204800000006008E
:102024001400AE00E3A2A9001400AF00E3A2A800CC
:0420340000000600A2
:10144C001400AE00C442A9001400AF00C442A800AE
:04145C000000060086
:101460001400AE00C462A9001400AF00C462A8005A
:041470000000060072
:102778008A1F7800CAC0B300FBFA07004F0578002B
:042788000000060047
:101370000400FA008A1F78008B1F78008C1F780009
:101380008D1F7800600047000A48780070842000B4
:101390009040780070812000100CE10014003A00A9
:1013A000600147009280FB00000820000080700070
:1013B000004978001420EF00404380000000010045
:1013C000600047002C0020008005780000057800B0
:1013D000C1FD07001AC0B3004043800000000100B7
:1013E000600047000020EC0010407800110037003A
:1013F000B0FD0700E0004700608420001DC0B3007E
:101400001C0020008105780010457800C7FD07000A
:10141000E0004700608420001A20EF001C0020003C
:101420008105780010457800B2FE07006000470093
:1014300010407800CF0678004F067800CF0578007E
:0C1440004F0578000080FA000000060054
:100AD8000A0178008B0178008C00780061005600CC
:100AE800000678000200E2000D003200829FBE007E
:100AF8008C1F78008A9FBE001285FB00614280002F
:100B0800010001004F05BE004F0678004F01BE00EE
:100B1800804978000620EC000420EC00EEFF370046
:040B280000000600C3
:100A70000000FA0040C2A9004022AE000100370089
:100A8000FDFF37004A1288004002AF000100370026
:100A9000FDFF37004882BF000080FA00000006001A
:100944000000FA0060C2A9006022AE000100370076
:10095400FDFF37004A1388006002AF000100370032
:10096400FDFF37006882BF000080FA000000060027
:100AB4000200FA0000002000000798002142800094
:100AC40001000100E0004700110070000080FA00FE
:040AD4000000060018
:10085C000000FA000260EF000602AF000260EC003C
:10086C000060EF000642AF000060EC008180FB00EE
:10087C000080FB00808070000060EF000662AF001B
:10088C000060EC000080FB00808070000060EF00D6
:10089C000682AF000060EC000080FB0080807000DE
:1008AC000060EF000622AF000060EC000080FB004F
:1008BC00808070000060EF0009C2AF000060EC00A7
:1008CC000080FB00008070000000E2000060EF0080
:1008DC0001003A000060EC000080FB000080FA0090
:0408EC000000060002
:1008F0000000FA000420EF00007122000010E10067
:1009000006003E00D5FF07000000E20001003200B3
:10091000020037000420EC00F7FF370010712200BE
:100920000010E10002003900F00F20000300370042
:100930000602A800B2FE07000020EF000080FA00C7
:0409400000000600AD
:100400000000FA008620AF0001003700FDFF370032
:0C0410008620A9000080FA000000060011
:100808000000FA000420EF00007122000010E1004F
:1008180006003E00FFFE07000000E2000100320073
:10082800020037000420EC00F7FF370010712200A7
:100838000010E10002003900F00F2000030037002B
:100848001602A80018FF07000020EF000080FA0039
:040858000000060096
:1004B0000000FA008A40AF0001003700FDFF37005E
:0C04C0008A40A9000080FA00000006003D
:100A3C000000FA0000000000000000002682BF0049
:080A4C000080FA000000060022
:10064C000000FA002282BF00610060000080FA0006
:04065C000000060094
:100660000000FA000020EF002302AF000020EC00A1
:080670000080FA000000060002
:1004CC000000FA0000000000000000003682BF00AF
:0804DC000080FA000000060098
:100680000000FA003282BF00610060000080FA00C2
:040690000000060060
:10073C000000FA000020EF003302AF000020EC00B4
:08074C000080FA000000060025
:100B2C000400FA008A1F78000000200010079800CB
:100B3C000B0798000A80FB004100DD008C9FBE0073
:100B4C000045780041428000010001004F06BE00C4
:100B5C0062014700E2004700920870008C007800A8
:100B6C0061005600000678000200E2000F0032001F
:100B7C000E0090008C9FBE008A9FBE00104578002E
:100B8C0041428000010001004F05BE004F06BE002F
:100B9C0062014700E2004700920870008E0090004E
:100BAC006000470061884000ECFF3700606CE1009A
:100BBC0006003A00004280008C9FBE008A9FBE0057
:100BCC00000001004F05BE004F06BE00616CE10045
:100BDC0006003A00204280008C9FBE008A9FBE0017
:100BEC00000001004F05BE004F06BE001E00900025
:0C0BFC004F0578000080FA0000000600A1
:1006E8000000FA000A80FB0002A2B70008E2AE0090
:1006F8000200370010002000020037003EFF07000C
:0C0708000020EF000080FA000000060056
:1006BC000000FA000A80FB0012A2B70018E2AE009C
:1006CC0002003700100020000200370075FF070001
:0C06DC000020EF000080FA000000060083
:100694000000FA000682BF007F0060000000E20054
:1006A40001003200FBFF37000622A80053FF0700B9
:0806B4000080FA0000000600BE
:100714000000FA000682BF007F0060000000E200D3
:1007240001003200FBFF37000642A80033FF070038
:080734000080FA00000006003D
:10077C000000FA000682BF007F0060000000E2006B
:10078C0001003200FBFF37001622A80045FF0700CE
:08079C000080FA0000000600D5
:100754000000FA001682BF007F0060000000E20083
:1007640001003200FBFF37001642A8004FFF0700CC
:080774000080FA0000000600FD
:100EF4000400FA008A1F7800000020001007980000
:100F04000B0798000A80FB004100DD0061007000BF
:100F14008C9FBE0000457800414280000100010022
:100F24004F06BE0062014700E200470092087000CD
:100F340061005600000678001800E2000D0032003F
:100F44008C9FBE008A9FBE001420EF005142800097
:100F5400010001004F05BE004F06BE008E00900048
:100F6400804878008E00900060004700618840004F
:100F7400EFFF37008C9FBE008A9FBE001A0020003E
:100F840051428000010001004F05BE004F06BE0023
:100F94008E00900080487800606CE10006003A0002
:100FA400004280008C9FBE008A9FBE0000000100AA
:100FB4004F05BE004F06BE00616CE10006003A001A
:100FC400104280008C9FBE008A9FBE00000001007A
:100FD4004F05BE004F06BE001E0090004F0578006E
:080FE4000080FA000000060085
:100540000000FA000682BF007F0060000000E200A9
:1005500001003200FBFF37000662A800A8FF070079
:100560000682BF007F0060000000E2000100320050
:10057000FBFF37001400E2000200320006A2A800D0
:100580000100370006A2A9000682A8009CFF070010
:0C05900000C2BF000080FA00000006005E
:1004E4000000FA001682BF007F0060000000E200F6
:1004F40001003200FBFF37001662A800EBFF070083
:100504001682BF007F0060000000E200010032009C
:10051400FBFF37001400E2000200320016A2A8001C
:100524000100370016A2A9001682A800DFFF070009
:0C05340010C2BF000080FA0000000600AA
:10278C000200FA008A1F78008A007800D00020002E
:10279C0000479800A0002000104798002500370043
:1027AC000105780058FB070029003700010078006C
:1027BC001004E00008003200801F78008A9FBE00E1
:1027CC000005780050FB07004F05BE004F00780055
:1027DC000020EC00F6FF37001D00370001007800E8
:1027EC001004E00008003200801F78008A9FBE00B1
:1027FC000005780044FB07004F05BE004F00780031
:10280C000020EC00F6FF3700600047008A9FBE00F6
:10281C00000578003CFB07006100470000057800CC
:10282C0039FB07004F05BE000900370060C0B3003C
:10283C0007003700605CE100D9FF3200615CE10009
:10284C00DAFF3200625CE100E4FF3200F7FF370090
:0C285C004F0578000080FA000000060024
:101514008A1F78001A85FB005043800000000100F8
:0C1524000020EF004F05780000000600DA
:100CE0000000FA0062FF07000080FA000000060022
:100C24000000FA0046FF07000080FA0000000600FA
:100C08000000FA002302AF0001003700FDFF3700A3
:0C0C18002A1188000080FA00000006008D
:100C34000000FA003302AF0001003700FDFF370067
:0C0C4400AA1188000080FA0000000600E1
:102A74008A1F78008B1F78000A80FB006F006000BB
:102A840080457800EAC0B30079FA0700CF057800E2
:082A94004F0578000000060068
:101474000400FA008A1F78008B1F78008C1F780004
:101484008D1F7800600047000A4878000020EC00B7
:101494000B48780070842000904078007081200010
:1014A400100CE1000C003A001420EF0040438000CF
:1014B40000000100600047002C0020008005780037
:1014C4000005780083FD07001AC0B3004043800084
:1014D400000001000800370075FD0700E000470028
:1014E400608420001A20EF002C0020008105780081
:1014F400104578008CFD0700CF0678004F06780071
:10150400CF0578004F0578000080FA00000006003F
:102A48008A1F78008B1F78008A80FB00F00720001F
:102A580000806000804578000AC1B30083FA07004F
:0C2A6800CF0578004F0578000000060044
:102988008A1F78008B1F78006354E100010036002D
:102998003AC0B3008A1F78003AC1B30072FA070040
:1029A8004F057800A183200080487800C2CFB3008B
:1029B800A183200082486000A08320001048750091
:1029C800A0832000904578003AC1B300A7FA070019
:0C29D800CF0578004F05780000000600D5
:1029E4008A1F78008B1F78006754E10001003600CD
:1029F4007AC0B3008A1F78003AC1B3005BFA0700BB
:102A04004F057800A18320008048780032CEB300BF
:102A1400A1832000824860000A80FB00C200DD0020
:102A2400A083200010C87000A08320009045780087
:102A34003AC1B3008EFA0700CF0578004F0578003D
:042A44000000060088
:102298008A1F78008B1F78001640AE0004003700B4
:1022A800B08320001080FB00E400700004003700B9
:1022B800B08320009080FB00B00F20008080600079
:1022C800B0832000014878001680AE000400370073
:1022D800B08320001080FB00F0007000040037007D
:1022E800B08320009080FB00F00E2000808060000A
:1022F800B08320000148780016C0AE000500370002
:10230800B08320009080FB000004200080807000D3
:1023180004003700B08320009080FB00F00B200001
:1023280080806000B0832000014878001800AE006B
:1023380004003700B08320001080FB00E10070002B
:1023480004003700B08320009080FB00E00F2000DD
:1023580080806000B0832000014878001820AE001B
:1023680004003700B08320001080FB00E2007000FA
:1023780004003700B08320009080FB00D00F2000BD
:1023880080806000B0832000014878001460AE00AF
:1023980004003700B08320001080FB00E8007000C4
:1023A80004003700B08320009080FB00700F2000ED
:1023B80080806000B08320000148780014A0AE003F
:1023C80005003700B08320009080FB000002200049
:1023D8008080700004003700B08320009080FB00EC
:1023E800F00D200080806000B08320000148780054
:1023F80014E0AE0005003700B08320009080FB0099
:10240800000820008080700004003700B08320009E
:102418009080FB00F007200080806000B0832000DF
:1024280001487800814578004AC1B3000FFC0700D5
:0C243800CF0578004F057800000006007A
:102444008A1F78008B1F78008A80FB00000C200014
:10245400008160000B80FB00FC0060000280FB0038
:10246400010170000C80FB00E30060000280FB00AF
:102474000100700080457800DAC0B300FCFB07005F
:0C248400CF0578004F057800000006002E
:102AE0001000FA008A1F78008B1F78006A004700E8
:102AF0000005780087FD07006A00470000057800A0
:102B000091FE0700E00047006A0047008105780059
:102B100010057800CBFE0700600047000005780034
:102B20005BFE07001BC0B3001A83200017FF0700DD
:102B3000600047002BC0B3000005780013FF0700BA
:102B4000E00047006A00470000A0EC008105780023
:102B500010057800BBFE0700600047000005780004
:102B60004BFE07001BC0B3004A80200007FF070090
:102B7000600047002BC0B3000005780003FF07008A
:102B8000E00047006A0047006400400081057800CB
:102B900010057800ABFE07006000470000057800D4
:102BA0003BFE07001BC0B3000A802000F7FE0700B1
:102BB000600047002BC0B30000057800F3FE07005B
:102BC0004FFD0700E00047008105780000457800D0
:102BD00047FF070060004700000578002CFE070053
:102BE0001BC0B300EA812000E8FE07006000470038
:102BF0001BC0B30000057800E4FE07002BC0B30043
:102C0000DA822000E1FE07002BC0B3005A832000C7
:102C1000DEFE070058002000B71A21000E20ED004C
:102C2000FEFF3A001020ED00FCFF3A00CF057800CF
:0C2C30004F0578000080FA00000006004C
:102114000E00FA008B1F78008C1F78008D1F78004A
:10212400E700470010C0B3008048780070842000A6
:102134009040780070812000100CE10015003A00F6
:10214400670147009280FB000008200000807000B7
:10215400004978008A1F78001420EF004043800073
:1021640000000100E0004700670047007C002000F9
:10217400810578000005780056FA07001AC0B300FC
:1021840040438000000001004F05780014C0B300F4
:10219400150037000420EF00821F78008A1F7800A2
:1021A40043FA0700E7004700608420001DC0B30025
:1021B4001C00200081057800104578005AFA0700B9
:1021C400E0004700608420001A20EF006C0020002B
:1021D400810578001045780045FB07004F0578001D
:1021E4004F017800024278000480FB00E0014700C0
:1021F40000804100104078000080FB00C800DD0032
:102204000480FB000020EC00008041001080FB00F3
:1022140000807000000D7800620145000480FB001E
:1022240000A0EC0000804100104078000080FB001A
:10223400C800DD000480FB00630040000080410012
:102244001080FB00008070000009780064014500E4
:102254000480FB00640040000080410010407800CE
:102264000080FB00C800DD000480FB006500400026
:10227400008041001080FB0000807000000978009D
:10228400CF0678004F067800CF0578000080FA006A
:042294000000060040
:102548000200FA000A007800000798001A007800D4
:102558008A1F7800CF80DE000081EB00F2FB0700C5
:102568000200200003C82300E5FC07000200200049
:10257800032B240047FC070002002000030424006A
:10258800DFFC07003CFB07004F0578008E00900039
:102598008008780062004500000798006200450046
:1025A800100078008A1F7800CF80DE000081EB00E1
:1025B800DDFB07000200200003C82300D0FC070051
:1025C80002002000032B240032FC07000200200038
:1025D80003042400CAFC070027FB07004F05780006
:1025E8008E0090008008780064004500000798007D
:1025F8006400450010007800CF80DE000081EB0009
:10260800C9FB07000200200003C82300BCFC070028
:1026180002002000032B24001EFC070002002000FB
:1026280003042400B6FC070013FB07008E0090008B
:0C263800800878000080FA000000060016
:101530000000FA00020007004A0B0400000000004F
:101540000400E20006003A000005EB000200E200A1
:101550000F003E000000E200270032000C003700C0
:10156000A10088000200E2000400350008003C00F1
:101570000000E2002000320005003700600010008B
:10158000E080180002003B0001F02C001A00370038
:101590000084BE006011B8006B0920000982CF00F2
:1015A000020039000882CF000441B00069425200B5
:1015B0000E00320008003B0082817100610164006E
:1015C0008904D1000884D3008B05E8000442E800B8
:1015D000F9FF3A00050037000804440089844C00F4
:1015E0008B05E9000442E900FBFF3A000300070015
:1015F0000AF0A70003E0A800000006008100200018
:10160000618055000B003D000B00200061FE2F00A3
:101610000100E1001D00340082817100610164005D
:101620008904D1000884D3000000E800FAFF3A00E2
:10163000710020006100640003007000020060007F
:101640000900320061044400E0844C000988A500D0
:10165000050032008B05E8006808E10002003A004E
:101660008904D1000884D300F20F20000258E10061
:1016700005003D00C75DDD00F907B20089807500F7
:1016800008008800000006000BF827001B008800F7
:0C169000000005000080FA0000000600C9
:101908000000FA00020007009A0D04000000000021
:10191800889FBE008A9FBE008C1F78003000070099
:101928003700330003866C006450E1002400320065
:101938006420E100270032006150E10022003200FB
:101948006120E100210032008B854200EB07B100E5
:101958000134B800003AB8000804420089844A00FB
:10196800013AB8000030B8008880400009014A00F8
:101978000400330000004000818048000201490053
:101988008B05E900C909DD00830170000100320000
:1019980013002000C814DE004814DD004709DE00EB
:1019A8001200B200C808DE00088470002400070096
:1019B80001F0A1000CF0A70003E0A800190037000F
:1019C8006120E1001B0032000881BE000280BE00D9
:1019D800F7FF37006150E100FCFF3A0015003700BF
:1019E8000084BE003C0007000083BE000485BE00E2
:1019F8000280BE0038000700844F75000000060012
:101A08000280BE006450E100050036006420E10059
:101A1800020036000968A30001003A000880BE00F1
:101A280002C0A8004F0678004F05BE004F04BE0054
:101A380000000600F0FF2F00F1FF2700F9FF370034
:101A480081002000618055000B003D000B00200044
:101A580061FE2F000100E1001D0034008281710049
:101A6800610164008904D1000884D3000000E80003
:101A7800FAFF3A0071002000610064000300700062
:101A8800020060000900320061044400E0844C0058
:101A98000988A500050032008B05E8006808E10008
:101AA80002003A008904D1000884D300F20F200014
:101AB8000258E10005003D00C75DDD00F907B200EE
:101AC8008980750008008800000006000BF82700D0
:101AD8001B00880000000500C70ADE00F107B200FD
:101AE800F50FB20008003200E1CF420002003200D8
:101AF80002E0A80024000500810F700001003200F8
:101B08000408050044000500810F700002003A0037
:101B1800140005008502E9000000400081C048006B
:101B2800FCFF3B0002E0A800240005000080FA004A
:041B380000000600A3
:10169C000000FA0002000700800C040000000000AB
:1016AC00889FBE008A9FBE008C1F78003E000700FA
:1016BC004500330003866C006450E1002E003200BC
:1016CC006420E100330032006150E1002F00320051
:1016DC006120E1003100320085855500EB07B00038
:1016EC00090020000804200005003700080444000D
:1016FC0089844C000A0031000603430087834B00A9
:10170C000001530081815B00F8FF33000283BE00AF
:10171C001000A8000804440089844C00F6FF39002E
:10172C00C639DD0083017300010032001300200074
:10173C008904D1000884D3000998A3000500320065
:10174C000800A7000600A8008904D1000884D30073
:10175C008B05E8008904D1000884D3000001EB005C
:10176C000281D2002800070001F0A1000CF0A700B4
:10177C0003E0A8001D0037006420E1001F003200C8
:10178C000881BE000280BE00F7FF37006120E10037
:10179C001A0032006000B800F3FF37000000200090
:1017AC0001F82700F0FF37000084BE003C00070062
:1017BC000083BE000485BE000280BE003800070016
:1017CC00844F7500000006000280BE006450E100EA
:1017DC00050036006420E100020036000968A30011
:1017EC0001003A000880BE0002C0A8004F06780035
:1017FC004F05BE004F04BE0000000600F0FF2F0096
:10180C00F1FF2700F9FF37008100200061805500AF
:10181C000B003D000B00200061FE2F000100E100D9
:10182C001D00340082817100610164008904D100C3
:10183C000884D3000000E800FAFF3A007100200091
:10184C0061006400030070000200600009003200B7
:10185C0061044400E0844C000988A50005003200B6
:10186C008B05E8006808E10002003A008904D10009
:10187C000884D300F20F20000258E10005003D005F
:10188C00C75DDD00F907B20089807500080088008B
:10189C00000006000BF827001B0088000000050064
:1018AC00C70ADE00F107B200F50FB20008003200E3
:1018BC00E1CF42000200320002E0A8002400050043
:1018CC00810F70000100320004080500440005007F
:1018DC00810F700002003A00140005008502E90037
:1018EC000000400081C04800FCFF3B0002E0A80063
:0C18FC00240005000080FA000000060037
:101280000000FA0002000700B4090400000000009A
:101290000081BE001F0007000470A70003F0A1003A
:1012A0006509B100160032000D0035006828E10024
:1012B00006003500F0FF2F00F1FF27000600E200D6
:1012C00013003B0001002800000005000000400062
:1012D000818048008502E900FCFF3A0008003700E1
:1012E000F88F420002003C008000EB000000050087
:1012F0008100D1000080D3008502E800FCFF3A00A5
:101300000600E20002003B0060001000E0801800D0
:1013100000000600C70ADE00F107B200F50FB200B8
:1013200008003200E1CF42000200320002E0A800D3
:1013300024000500810F7000010032000408050040
:1013400044000500810F700002003A0014000500FF
:101350008502E9000000400081C04800FCFF3B001E
:1013600002E0A800240005000080FA00000006004A
:102644000000FA008A1F78000820EF000A007800D2
:102654006050E10003003D001400200060001500FC
:102664000000370000057800E0FA0700630020004E
:10267400040178006018E1000600360083804500FC
:102684006180510000804500904878000620ED00EC
:10269400F8FF370000C2B300804D78000400E20068
:1026A4000C0032000420EF000280450090407800C6
:1026B40000C2B300000CE10002003A000420EC0068
:1026C400F9FF37006100510080804500D0C2B3009B
:1026D400804878004F0578000080FA00000006006A
:1011F0000200FA000420EF006514E100060031004F
:101200000280FB008080450000C2B3008048780067
:101210000460EC00F8FF37000280FB00808045008E
:101220000020EF0080487800E14151000380FB007E
:101230000080450000079800A2002000110009006E
:101240000285D80000032000808040000E0090003E
:1012500001487800A2002000110009000285D80092
:10126000000578006000E10001003A00020037004C
:101270000660ED00EDFF37000080FA000000060078
:102490000000FA000820EF000A0178008A017800A5
:1024A00001003700810178009240780000C2B3003B
:1024B000000CE10004003A000800E20002003A00CB
:1024C0008300780003003700140020009249780050
:1024D000E1804100020078000420EC001040780008
:1024E0006004E100EFFF3A000A0078000080FA0083
:0424F00000000600E2
:102100008A1F78002AC1B30099FC07004F057800A8
:0421100000000600C5
:1028F0000200FA000420EF006314E100060031003A
:102900000280FB008080450000C2B3008048780050
:102910000460EC00F8FF37000280FB008080450077
:102920000020EF0080487800E14151000380FB0067
:1029300000804500000798000A80FB00A2002000EC
:10294000110009000280D8000003200080804000B0
:102950000E009000014878000A80FB00A2002000D1
:10296000110009000280D800004578006004E100F1
:1029700001003A00020037000660ED00EBFF37006F
:082980000080FA0000000600CF
:102E10000A8020000B002000350009000B1D7800FF
:042E200000000600A8
:102E240001802000000028001B000900B018780071
:042E34000000060094
:020000040001F9
:080000007A3A00002000000024
:08000800793A0000200000001D
:1000100047790000726F000020320000207000005D
:1000200072650000736500006E740000000200003D
:0C00300045720000726F000072000000BA
:10003C00546500006D700000657200006174000072
:0C004C0075720000653A00002000000002
:1000580001200000B0430000007800003A200000B2
:08006800002B00002B0000003A
:100070009E0D0000A80D00000A0E0000140E0000E6
:10008000F60D0000000E0000E00F00004E10000012
:1000900058100000621000003A10000044100000E8
:1000A000FFFF0000FFFF0000FFFF0000FFFF000058
:1000B000FFFF0000FFFF0000FFFF0000FFFF000048
:1000C000FFFF0000FFFF0000FFFF0000FFFF000038
:1000D00004040000AA030000BE0300005E03000049
:0400E00072020000A8
:0800E400A086000001000000ED
:0200000401F009
:20000000CF000000CF00000007000000A2000000850000007F000000E7000000C1000000ED
:00000001FF
