:10000000FCFF00207D320000F1300000F1300000E4
:10001000F1300000F1300000F1300000F13000005C
:10002000F1300000F1300000F1300000F13000004C
:10003000F1300000F1300000F1300000F13000003C
:10004000F1300000F1300000F1300000F13000002C
:10005000F1300000F1300000F1300000F13000001C
:10006000F1300000F1300000F1300000F13000000C
:10007000F1300000F1300000F1300000F1300000FC
:10008000F1300000F1300000F1300000F1300000EC
:10009000F1300000F1300000F1300000F1300000DC
:1000A000F1300000F1300000F1300000F1300000CC
:1000B000F1300000F1300000F1300000F1300000BC
:1000C000F1300000F1300000F1300000F1300000AC
:1000D000F1300000F1300000F1300000F13000009C
:1000E000F1300000F1300000F1300000F13000008C
:1000F000F1300000F1300000F1300000F13000007C
:10327C00FFF75CFFFFF73AFF00F022FBFFF74CFF74
:10328C0000F0D0FAFFF71EFEFFF754FEFFF7AAFE80
:04329C00FCE7FEE766
:1030DC0081B01CF8019B0BF8019BBBEB0A0FF8D1DC
:0430EC0001B0704778
:102E880081B04FF000094FF0000CBDEB0A0F04DCD5
:102E9800BDEB0B0F01DBD446EA464BF8049BBBEBBA
:102EA8000A0FFAD1BCEB0A0F05DDE246D9F800B0EB
:0A2EB8000BF1040BF1E701B07047C5
:102ED00081B0CDF800E0002200210020FFF792FF32
:102EE000002201210020FFF78DFF00220221002097
:102EF000FFF788FF012206210020FFF783FF012250
:102F000007210020FFF77EFF0C4801460020FFF755
:102F100077FE42F280511020FFF7CEFE44F67D7717
:102F2000C0F2120700BF00BF7F1EFDD100BF00BF6F
:102F300000BFDDF800E001B0704700BF6C2E00005C
:102E040081B0CDF800E05FFA81F95FFA82FA1DE043
:102E14005FFA8AF15FFA89F0FFF7EEF81FE05FFAD4
:102E24008AF15FFA89F0FFF7CFF918E05FFA8AF1C7
:102E34005FFA89F0FFF7B0FA11E05FFA8AF15FFAFE
:102E440089F0FEF7F5FF0AE0012008E00028DFD052
:102E54000128E4D00228E9D00328EED0F4E7DDF815
:062E640000E001B0704720
:101FFC0081B0CDF800E0A9E0012905D140F2010142
:10200C006548FFF785FC04E040F201016348FFF7E7
:10201C0061FCBBE0012905D140F240016048FFF7AB
:10202C0077FC04E040F240015E48FFF753FCADE062
:10203C00012905D140F201015948FFF769FC04E080
:10204C0040F201015748FFF745FC9FE0012905D1FB
:10205C0040F220015448FFF75BFC04E040F2200101
:10206C005248FFF737FC91E0012905D140F280017D
:10207C004D48FFF74DFC04E040F280014B48FFF760
:10208C0029FC83E0012905D140F240014648FFF7C5
:10209C003FFC04E040F240014448FFF71BFC75E0B4
:1020AC00012905D140F280014148FFF731FC04E0E1
:1020BC0040F280013F48FFF70DFC67E0012905D194
:1020CC0040F210013A48FFF723FC04E040F2100103
:1020DC003848FFF7FFFB59E0012905D140F2040114
:1020EC003548FFF715FC04E040F204013348FFF7D4
:1020FC00F1FB4BE0012905D140F208012E48FFF716
:10210C0007FC04E040F208012C48FFF7E3FB3DE03C
:10211C00012905D140F220011F48FFF7F9FB04E02B
:10212C0040F220011D48FFF7D5FB2FE0012905D116
:10213C0040F210011848FFF7EBFB04E040F21001ED
:10214C001648FFF7C7FB21E0012020E000283FF4F0
:10215C0053AF01283FF45EAF02283FF469AF032868
:10216C003FF474AF04283FF47FAF05283FF48AAFE7
:10217C0006283FF495AF0728A0D00828ACD0092832
:10218C00B8D00A28C4D00B28D0D0DDE70020DDF869
:10219C0000E001B0704700BF414C0040434C004090
:1021AC00404C0040424C0040004C0040024C00406F
:1021BC00014C0040034C0040204C0040224C00409D
:10191C0081B0CDF800E0002424B240F240031BB2A9
:10192C0040F2040212B242EA03031BB240F201027B
:10193C0012B243EA020293B2002210B4FFF7E4FDA4
:0A194C0001B0DDF800E001B07047C3
:1015140083B0CDF800E08DB20146D0B2BDF90C2005
:1015240001F0010414B12F02BFB200E0AFB28F4C3E
:101534000C1B640965018D4C6419A0468C4CA042B7
:1015440007D108F10406FD43ADB234882C40348041
:1015540007E0884CA04204D108F104052C883C43E0
:101564002C8040F2010403EA0404A4B23CB108F163
:101574000606FD43ADB234882C4034800AE040F2C4
:10158400020403EA0404A4B224B108F106052C8879
:101594003C432C8040F2040403EA0404A4B23CB1AA
:1015A40008F10806FD43ADB234882C4034800AE0CB
:1015B40040F2080403EA0404A4B224B108F10805C3
:1015C4002C883C432C8040F2100403EA0404A4B2A7
:1015D4003CB108F11806FD43ADB234882C40348088
:1015E4000AE040F2200403EA0404A4B224B108F19E
:1015F40018052C883C432C8040F2400403EA040480
:10160400A4B23CB108F11A06FD43ADB234882C40B3
:1016140034800AE040F2800403EA0404A4B224B152
:1016240008F11A052C883C432C8003F48074A4B27E
:101634007CB908F10A06FD43ADB234882C403480ED
:1016440008F10C06FD43ADB234882C4034800020F0
:1016540087E01F2A01DD012083E0FFF755FB00200E
:10166400B9B2C7B24046102F80F07A8021FA07F44D
:10167400A4B204F00104A4B2002C00F06E8000F2C5
:101684000A06CD43ADB234882C40348000F20C06F7
:10169400CD43ADB234882C40348003F48064A4B2CA
:1016A4002CB1ADF806100024ADF808400DE003F4A9
:1016B4000064A4B22CB10024ADF80640ADF80810C3
:1016C40003E0ADF80610ADF8081000F20A063588FC
:1016D400BDF8064045EA0404348000F20C0635885F
:1016E400BDF8084045EA04043480234C041B640913
:1016F400ADF80440214CA24218D0BDF80440E400E7
:10170400A4B265001E4C65197C08E4B264002E196D
:1017140007F00104E4B2E5002DB240F2FF04AC404E
:10172400A4B2E543ADB234882C403480BDF8044003
:10173400E400A4B26500124C65197C08E4B26400AC
:101744002E1907F00104E4B2E5002DB294B204FAB4
:1017540005F5ADB234882C4334807F1CFFB282E798
:101764000020DDF800E003B0704700BF004C0040EB
:101774000000000001000000004C004000000000D8
:0417840008500040C9
:100D0C0081B042F652510348018002210248018011
:0C0D1C0001B07047005000400250004041
:1018E00081B0CDF800E0002424B240F240031BB2E6
:1018F00040F2040212B242EA03031BB240F20102B8
:1019000012B243EA020293B2012210B4FFF702FEC0
:0A19100001B0DDF800E001B07047FF
:1021CC0081B0CDF800E0A9E0012905D140F2080169
:1021DC006548FFF79DFB04E040F208016348FFF7F8
:1021EC0079FBBBE0012905D140F280016048FFF783
:1021FC008FFB04E040F280015E48FFF76BFBADE023
:10220C00012905D140F204015B48FFF781FB04E092
:10221C0040F204015948FFF75DFB9FE0012905D10D
:10222C0040F220015648FFF773FB04E040F2200116
:10223C005448FFF74FFB91E0012905D140F2800192
:10224C004F48FFF765FB04E040F280014D48FFF773
:10225C0041FB83E0012905D140F240014848FFF7DA
:10226C0057FB04E040F240014648FFF733FB75E0B2
:10227C00012905D140F240014348FFF749FB04E036
:10228C0040F240014148FFF725FB67E0012905D1E9
:10229C0040F240013648FFF73BFB04E040F24001BE
:1022AC003448FFF717FB59E0012905D140F204012E
:1022BC003548FFF72DFB04E040F204013348FFF7EB
:1022CC0009FB4BE0012905D140F208012E48FFF72C
:1022DC001FFB04E040F208012C48FFF7FBFA3DE03D
:1022EC00012905D140F220012148FFF711FB04E040
:1022FC0040F220011F48FFF7EDFA2FE0012905D12C
:10230C0040F210011A48FFF703FB04E040F2100101
:10231C001848FFF7DFFA21E0012020E000283FF405
:10232C0053AF01283FF45EAF02283FF469AF032896
:10233C003FF474AF04283FF47FAF05283FF48AAF15
:10234C0006283FF495AF0728A0D00828ACD0092860
:10235C00B8D00A28C4D00B28D0D0DDE70020DDF897
:10236C0000E001B0704700BF214C0040234C0040FE
:10237C00414C0040434C0040404C0040424C00401B
:10238C00004C0040024C0040014C0040034C00400B
:10239C0081B0CDF800E0A9E0012905D140F202019D
:1023AC006548FFF7B5FA04E040F202016348FFF715
:1023BC0091FABBE0012905D140F280016048FFF79A
:1023CC00A7FA04E040F280015E48FFF783FAADE023
:1023DC00012905D140F240015948FFF799FA04E070
:1023EC0040F240015748FFF775FA9FE0012905D1EB
:1023FC0040F220015448FFF78BFA04E040F2200130
:10240C005248FFF767FA91E0012905D140F24001EB
:10241C004D48FFF77DFA04E040F240014B48FFF7CE
:10242C0059FA83E0012905D140F280014648FFF7B3
:10243C006FFA04E040F280014448FFF74BFA75E074
:10244C00012905D140F220014148FFF761FA04E06F
:10245C0040F220013F48FFF73DFA67E0012905D122
:10246C0040F201013C48FFF753FA04E040F201014D
:10247C003A48FFF72FFA59E0012905D140F204013F
:10248C003548FFF745FA04E040F204013348FFF702
:10249C0021FA4BE0012905D140F208012E48FFF743
:1024AC0037FA04E040F208012C48FFF713FA3DE03C
:1024BC00012905D140F280012948FFF729FA04E0EF
:1024CC0040F280012748FFF705FA2FE0012905D1DA
:1024DC0040F240012248FFF71BFA04E040F24001B1
:1024EC002048FFF7F7F921E0012020E000283FF415
:1024FC0053AF01283FF45EAF02283FF469AF0328C5
:10250C003FF474AF04283FF47FAF05283FF48AAF43
:10251C0006283FF495AF0728A0D00828ACD009288E
:10252C00B8D00A28C4D00B28D0D0DDE70020DDF8C5
:10253C0000E001B0704700BF404C0040424C0040EE
:10254C00214C0040234C0040804C0040824C004009
:10255C00604C0040624C0040014C0040034C004079
:08256C00204C0040224C00400D
:101E340081B0CDF800E0A9E0012905D140F2080104
:101E44006548FFF769FD04E040F208016348FFF7C5
:101E540045FDBBE0012905D140F220016048FFF7B0
:101E64005BFD04E040F220015E48FFF737FDADE082
:101E7400012905D140F210015948FFF74DFD04E056
:101E840040F210015748FFF729FD9FE0012905D1D1
:101E940040F220015048FFF73FFD04E040F22001EA
:101EA4004E48FFF71BFD91E0012905D140F24001A6
:101EB4004948FFF731FD04E040F240014748FFF78D
:101EC4000DFD83E0012905D140F280014248FFF76E
:101ED40023FD04E040F280014048FFF7FFFC75E079
:101EE400012905D140F220013F48FFF715FD04E028
:101EF40040F220013D48FFF7F1FC67E0012905D1DC
:101F040040F202013848FFF707FD04E040F2020105
:101F14003648FFF7E3FC59E0012905D140F20401FA
:101F24003148FFF7F9FC04E040F204012F48FFF7C1
:101F3400D5FC4BE0012905D140F208012A48FFF7FE
:101F4400EBFC04E040F208012848FFF7C7FC3DE041
:101F5400012905D140F280012548FFF7DDFC04E0AA
:101F640040F280012348FFF7B9FC2FE0012905D195
:101F740040F240011E48FFF7CFFC04E040F240016C
:101F84001C48FFF7ABFC21E0012020E000283FF4CF
:101F940053AF01283FF45EAF02283FF469AF032832
:101FA4003FF474AF04283FF47FAF05283FF48AAFB1
:101FB40006283FF495AF0728A0D00828ACD00928FC
:101FC400B8D00A28C4D00B28D0D0DDE70020DDF833
:101FD40000E001B0704700BF804C0040824C0040DC
:101FE400214C0040234C0040014C0040034C004075
:081FF400204C0040224C00408B
:102C000081B0CDF800E011E00846FFF7F5F816E0D6
:102C10000846FFF7FBF812E00846FFF701F90EE05F
:102C20000846FFF7E3FC0AE0012008E00028EBD0AB
:102C30000128EDD00228EFD00328F1D0F4E7DDF829
:062C400000E001B0704746
:101DF80081B0CDF800E0FFF719FD0020DDF800E024
:041E080001B070476E
:1018340081B0CDF800E0054B40F280020449054830
:10184400FFF71EFDDDF800E001B07047A032000094
:08185400A08601000024004001
:1012840087B0CDF800E08446059106921846FFF732
:1012940013FF6046FFF708FF06996046FFF77AFEE2
:1012A400BCF8005040F6017445EA0404ACF8004070
:1012B40001AC2046FFF7A0FE069C402C05D1059DFD
:1012C400019CB4FBF5F4A0B209E0069C802C05D186
:1012D400059D049CB4FBF5F4A0B200E000200CF1E1
:1012E400060420801D4CA44506D11D4D1D4C2560CF
:1012F4001D4D1E4C25601CE01D4CA44506D11D4D02
:10130400184C25601C4D194C256012E01B4CA4455B
:1013140006D11B4D134C25601A4D144C256008E072
:10132400194CA44505D1194D0E4C2560184D0F4C90
:10133400256040F201016046FFF724FE6046FFF796
:101344003FFE03216046FFF731FE02216046FFF7AE
:10135400FDFEDDF800E007B0704700BF002000404C
:1013640089170000940000206112000098000020FA
:10137400002400404914000001120000002800402D
:1013840025140000DD140000002C0040951400001A
:04139400B914000088
:100FFC0082B0CDF800E004462849096801F4E061AC
:10100C00090A08462549096801F0E061090E0A46FB
:10101C00214601911146FFF76FF9019908601F49AC
:10102C00096801F07001090908461C49096801F4B6
:10103C00E001090D0A4604F2080101911146FFF77F
:10104C005BF9019908601549096801F070010909FB
:10105C0008461249096801F0E041090F0A4604F2FA
:10106C000C0101911146FFF747F9019908600B49F2
:10107C00096801F0070108460849096801F4E021F4
:10108C00090C0A46211D01911146FFF735F901990A
:10109C000860DDF800E002B0704700BF08040140B2
:1003040081B0CDF800E002460846FFF7ADFFC3B266
:1003140071E0424A126802F00102D2B140F20100D7
:10032400FFF7AAFF3D4A126802F001028AB13C4A73
:10033400126802F400422AB14FF4FA3292FBF3F24B
:10034400104666E048F20002B2FBF3F292B290B2B9
:100354005FE0344A1268B2FBF3F2104659E02F4AC8
:10036400126802F00202D2B140F20200FFF784FFE9
:100374002A4A126802F002028AB1294A126802F477
:1003840000422AB14FF4FA3292FBF3F2104640E0F5
:1003940048F20002B2FBF3F292B290B239E0224A80
:1003A4001268B2FBF3F2104633E0204A1268B2FB43
:1003B400F3F210462DE01A4A126802F400422AB100
:1003C4004FF4FA3292FBF3F2104622E048F20002B4
:1003D400B2FBF3F292B290B21BE0FFF707FFB0FB5F
:1003E400F3F2104615E0124A1268B2FBF3F210461B
:1003F4000FE000200DE0002A3FF48BAF052AAED0B9
:10040400012AD2D0022AD6D0032AE6D0042AEAD07E
:10041400EFE7DDF800E001B0704700BF4804014099
:1004240030040140A0000020A40000204C00002063
:040434005000002054
:10026C0081B0012109B2814009B208B201B07047D6
:10027C0081B0074A07490A600749096841EA000248
:10028C0005490A60012203490A6001B0704700BFAA
:0C029C005A6900000004014050040140B9
:1001F00082B01748006800F4E02114E0154801902F
:1002000023E01548019020E0144801901DE01448B7
:1002100001901AE01348019017E01348019014E090
:100220000020019011E00029E8D0B1F5803FE8D02E
:10023000B1F5003FE8D0B1F5403FE8D0B1F5802FEF
:10024000E8D0B1F5A02FE8D0EAE7019802B07047F6
:100250000404014060E31600C0C62D00808D5B00E1
:0C026000001BB70000366E01006CDC02D1
:1010BC0081B0CDF800E040F2000A814609F1D80178
:1010CC0009788A453AD20C210AFB01F109EB01019E
:1010DC008B460BF1080109781F2915D10BF108017A
:1010EC000978CCB20BF1060109888BB20BF1040123
:1010FC0009888AB2DBF80010084691B2002210B4BD
:10110C0000F002FA01B014E00BF108010978CCB23E
:10111C000BF1060109888BB20BF1040109888AB224
:10112C00DBF80010084691B2FF2210B400F0ECF985
:10113C0001B00AF1010A5FFA8AFABFE7DDF800E0B4
:04114C0001B0704737
:1010AC0081B00122018862F30001018001B0704718
:100F980081B003884FF63F7203EA0202028002889A
:080FA8000A43028001B070470A
:100F880081B08BB2028863F30412028001B070470B
:100FC40081B00022018862F30001018001B0704702
:100FB00081B000F22C04CB439BB222881A402280DD
:040FC00001B07047C5
:1011500081B000F22A031A880A431A8001B070474E
:101E0C0081B0CDF800E0FFF70FFD0020DDF800E019
:041E1C0001B070475A
:101E200081B0CDF800E0FFF75BFE0020DDF800E0B8
:041E300001B0704746
:101AE00081B0CDF800E0054B40F280020449054882
:101AF000FFF7C8FBDDF800E001B0704734350000A7
:081B0000A0860100002800404E
:1025EC0081B0CDF800E0FFF775FA0020DDF800E0CF
:0425FC0001B0704773
:102CB80081B0CDF800E015E00846FFF79DFC1CE068
:102CC8000846FFF7ABFC18E00846FFF779FC14E06C
:102CD8000846FFF74BFC10E00846FFF759FC0CE0EC
:102CE80001200AE00028E7D00128E9D00228EBD02B
:102CF8000328EDD01028EFD0F2E7DDF800E001B0AE
:022D0800704712
:1026000081B0CDF800E0FFF73BFA044A04490A60C4
:102610000020DDF800E001B0704700BF8D18000019
:042620005400002042
:101A800081B0CDF800E084460B4A0C490A600C4A4C
:101A90000C490A600C4A0D490A600D4A0D490A605A
:101AA0000D48FFF70BFB61460C48FFF775FCDDF8AE
:101AB00000E001B0704700BF8D180000A8000020B2
:101AC000FFFFFFFFAC000020FFFFFFFFB000002082
:101AD000FFFFFFFFB4000020103600000018004098
:1013980081B0CDF800E007460C463846FFF7A2FAC0
:1013A80040F280013846FFF755FB40F2000138460D
:1013B800FFF75CFB40F200013846FFF78BFB40F279
:1013C80000013846FFF760FB40F200013846FFF79E
:1013D80077FA40F200013846FFF762FA21463846AC
:1013E800FFF788FA3846FFF783FCDDF800E001B024
:0213F80070473C
:0E08EC0081B0018841F00101018001B0704728
:100A5C0081B003884FF63F7203EA020202800288DB
:080A6C000A43028001B070474B
:100A740081B031B903884DF6FF7203EA02020280A5
:0C0A840002E002880A43028001B07047C3
:100ADC0081B0B1F5006F03D102880A43028005E0B2
:100AEC0003884FF2FF7203EA0202028001B07047E2
:100A900081B019E0038847F6FF7203EA0202028080
:100AA00019E0028842F40042028002880A43028070
:100AB00011E0028842F40042028003884BF6FF7284
:100AC00003EA0202028006E00029E3D0B1F5804F7C
:0A0AD000E7D00029EDD001B0704717
:1008C80081B0B1F5807F04D1028842F48072028041
:1008D80005E003884FF6FF6203EA0202028001B0D6
:0208E800704757
:1008A80081B0B1F5805F03D102880A43028005E078
:1008B80003884EF6FF7203EA0202028001B0704715
:1008FC0088B0CDF800E005460E4604AA104600F07C
:10090C0077FB04AA11462846FFF7DAFC00EE900AA2
:10091C00F8EE600A00EE106AB8EE400A80EE800A2B
:10092C00B0EE401A01AA1046FFF7F4FEDDED010A05
:10093C00FCEE600A10EE902A92B291B2414A00EE9F
:10094C00902A20EE200ABCEE400A10EE100A80B26B
:10095C0005F2080423884FF6FE7203EA0202228095
:10096C0010292ED905F208031A8842F001021A80C8
:10097C00B3EE000A81EE000ABCEE400A10EE102A1B
:10098C0092B2ADF80820B3EE000AC1EE000AB3EE45
:10099C00000A81EE000ABCEE400A10EE102A92B258
:1009AC0000EE102AB8EE400A70EEC00AB3EE000A50
:1009BC0020EE800ABCEE400A10EE102A92B2ADF87E
:1009CC000A2020B90022ADF80C20284616E001249C
:1009DC002946242C11D263001B4AD218128890424B
:1009EC0008D2621E12B25300184AD2181288ADF8FF
:1009FC000C2002E0641CE4B2EBE70846831D0022E5
:100A0C001A80841D2388BDF8082043EA0202228044
:100A1C0000F208031A8802F001021A8000F208049E
:100A2C00BDF80C2013029BB2BDF80A20120192B241
:100A3C0013439BB222881A432280DDF800E008B0F1
:100A4C00704700BF00401C4696370000DE370000A0
:1002CC0081B0028802F0C00292B2920992B290B24E
:1002DC000AB900200EE0012802D10A68104609E094
:1002EC00022802D0032800D004E001F20C021268AC
:0802FC001046FFE701B0704756
:1007200082B08DED010A9DED010AB5EEC00AF1EE31
:1007300010FA0ADBDDED010AB7EE000AF4EEC00A9A
:10074000F1EE10FA01DA012100E0002189B9DDEDB6
:10075000010ABFEE000AF4EEC00AF1EE10FA07DD5E
:100760009DED010AB5EEC00AF1EE10FA00DC00E0E2
:1007700008E04FF0000100EE101A00ED000A9DEDB8
:10078000010A23E001A90968C90D01F0FF017F39C1
:1007900089B2182908D99DED010A00ED000A4FF031
:1007A000000100EE101A11E09DED010ABDEE400AB5
:1007B00010EE101A00EE101AB8EEC00A00ED000A92
:1007C00050ED000A9DED010A30EE600A02B070475C
:100CF80081B002884FF6FE7102EA0101018001B05D
:020D0800704732
:1026240081B0CDF800E0FFF7CFF9044A04490A600D
:102634000020DDF800E001B0704700BFC5180000BD
:04264400540000201E
:1019CC0081B0CDF800E084460B4A0C490A600C4A01
:1019DC000C490A600C4A0D490A600D4A0D490A600F
:1019EC000D48FFF765FB61460C48FFF7CFFCDDF8AF
:1019FC0000E001B0704700BFC5180000A80000202F
:101A0C00FFFFFFFFAC000020FFFFFFFFB000002036
:101A1C00FFFFFFFFB400002058340000001400400A
:1025C80081B0CDF800E0FFF7FDF9044A04490A603C
:1025D8000020DDF800E001B0704700BFC51800001A
:0425E800540000207B
:1025740081B0CDF800E0FFF727FA044A04490A6065
:102584000020DDF800E001B0704700BFC51800006E
:0425940054000020CF
:1025980081B0CDF800E0FFF7E5F9044A04490A6084
:1025A8000020DDF800E001B0704700BF711800009E
:0425B80054000020AB
:10196C0081B0CDF800E084460B4A0C490A600C4A61
:10197C000C490A600C4A0D490A600D4A0D490A606F
:10198C000D48FFF795FB61460C48FFF7FFFCDDF8AF
:10199C0000E001B0704700BF71180000A8000020E3
:1019AC00FFFFFFFFAC000020FFFFFFFFB000002097
:1019BC00FFFFFFFFB40000207C330000001000404C
:102F400081B0CDF800E0212224492548FFF71AFF7F
:102F500045F2FD07C0F2252700BF00BF7F1EFDD14F
:102F600000BF00BF00BFFFF7D1FED72822D11D4808
:102F70000221FFF769FE042040F00200C0B240F0D9
:102F80000100FFF731FE0A20FFF746FC0320FFF7A0
:102F90001FFC0320FFF74CFC402040F004000222FD
:102FA000C1B28020FFF772FD03220021E020FFF76D
:102FB00003FE04E00C480221FFF746FEFEE744F65C
:102FC0007D77C0F2120700BF7F1EFDD100BF00BF9A
:102FD00000BF00BFDDF800E001B07047C42E000064
:0C2FE000EC360000000000200F00002074
:102D840081B0CDF800E00546134B1A70134B1C7844
:102D9400134B1C700024134B1C700024124B1C702A
:102DA4000024124B1C700024114B1C700846FEF7C3
:102DB400CDFE2846FEF7E2FE01200E4C2468A04713
:102DC40001200D4C2468A04700200C4C2468A04727
:102DD400DDF800E001B070474A0000203700002011
:102DE400490000204B0000207C0000207D000020D2
:102DF4007E0000206C0000205800002068000020A5
:0C25BC0001490870704700BF60880942A8
:0C1DEC0001490870704700BF5888094288
:0C1D740001490870704700BF4088094218
:0C1D800001490870704700BF5480094200
:0C1D8C0001490870704700BF5C800942EC
:0C1D680001490870704700BF5880094214
:0C1D440001490870704700BF7C80094214
:0C1D500001490870704700BF7080094214
:0C1D5C0001490870704700BF488409422C
:0C1DC80001490870704700BF4C840942BC
:0C1DD40001490870704700BF7488094284
:0C1DE00001490870704700BF708809427C
:0C1DBC0001490870704700BF6C840942A8
:0C1D980001490870704700BF7C880942B8
:0C1DA40001490870704700BF48880942E0
:0C1DB00001490870704700BF54800942D0
:0C272C0001490870704700BF5C80094242
:0C27200001490870704700BF5880094252
:0C27440001490870704700BF788009420E
:0C27380001490870704700BF7888094212
:0C26FC0001490870704700BF6880094267
:0C26F00001490870704700BF6C8009426F
:0C27140001490870704700BF748809423A
:0C27080001490870704700BF708809424A
:0C27800001490870704700BF44880942FE
:0C278C0001490870704700BF7C840942BE
:0C275C0001490870704700BF78840942F2
:0C27500001490870704700BF5490094216
:0C27680001490870704700BF58900942FA
:0C27740001490870704700BF5C900942EA
:0C26780001490870704700BF548C0942F3
:0C26840001490870704700BF60800942E7
:0C26900001490870704700BF68800942D3
:0C266C0001490870704700BF6C800942F3
:0C26480001490870704700BF5C84094223
:0C26540001490870704700BF588409421B
:0C26600001490870704700BF4C9009420F
:0C26CC0001490870704700BF7484094287
:0C26D80001490870704700BF708409427F
:0C26E40001490870704700BF5490094283
:0C26C00001490870704700BF58900942A3
:0C269C0001490870704700BF5C900942C3
:0C26A80001490870704700BF74800942AF
:0C26B40001490870704700BF64800942B3
:0C1D380001490870704700BF6880094234
:0C1B680001490870704700BF6C80094202
:0C1B740001490870704700BF5C84094202
:0C1B440001490870704700BF5884094236
:101B5000026803490A60011D0A6802490A60704769
:081B6000740000207800002051
:101B800000F2300303F218010A680C490A6003F2FC
:101B90001C010A680A490A6002680A490A6000F2E0
:101BA00008010A6808490A60011D0A6807490A60B5
:101BB00000F218010A6806490A60704760000020B8
:101BC0006400002058000020680000206C00002005
:041BD0007000002081
:102D0C0081B0CDF800E00C20FEF7A2FFDDF800E06A
:042D1C0001B070474B
:101C5C0082B0CDF800E001A908701C490A781C4933
:101C6C000978914216D101AA117841F080011170C6
:101C7C000020184C2468A04701A902220846FFF74F
:101C8C008FFD0120134C2468A04701A9491C097839
:101C9C00C8B216E0FFF7D6FE01AA0F490978002357
:101CAC00C8B211460122FFF7D1FE01AA0A490978F0
:101CBC000123C8B211460122FFF7B2FE01A909782F
:101CCC00C8B2DDF800E002B0704700BF360000205B
:0C1CDC0049000020580000204A000020B1
:1017AC0084B0CDF800E0ADF80C2001900291BDF8AA
:1017BC000C40BDF80C305B1EADF80C307CB1019BBD
:1017CC001B78DCB2A0B2084C2468A047029B1870AE
:1017DC00029B5B1C0293019B5B1C0193E7E7DDF80A
:0C17EC0000E004B0704700BF5C0000206B
:1014100081B0CDF800E0FFF771FBDDF800E001B02E
:02142000704713
:100AFC0081B0CDF800E0FFF789FE0549098801B106
:100B0C00FBE704490888DDF800E001B0704700BF3E
:080B1C00400102420C100040F0
:1008180081B00649098801B1FBE705490880034909
:10082800098801B1FBE701B0704700BF40010242EF
:040838000E1000405E
:1011D80081B0CDF800E0FFF7A1FCDDF800E001B038
:0211E80070474E
:100B240081B0CDF800E0FFF799FE0549098801B1CD
:100B3400FBE704490888DDF800E001B0704700BF16
:080B4400408102420C14004044
:1008600081B00649098801B1FBE7054908800349C1
:10087000098801B1FBE701B0704700BF4081024227
:040880000E14004012
:1012240081B0CDF800E0FFF799FFDDF800E001B0F0
:02123400704701
:1011600081B0CDF800E0FFF769FB0549098801B1BE
:10117000FBE704490888DDF800E001B0704700BFD4
:08118000400103420C1800407D
:10083C0081B00649098801B1FBE7054908800349E5
:10084C00098801B1FBE701B0704700BF40010342CA
:04085C000E18004032
:1011EC0081B0CDF800E0FFF7EFFEDDF800E001B0D4
:0211FC0070473A
:100FD40081B0CDF800E0FFF753FC0549098801B161
:100FE400FBE704490888DDF800E001B0704700BF62
:080FF400408103420C1C004087
:1008840081B00649098801B1FBE70549088003499D
:10089400098801B1FBE701B0704700BF4081034202
:0408A4000E1C0040E6
:1014800081B0CDF800E0FFF77FFEDDF800E001B0AD
:021490007047A3
:1011880081B0CDF800E0FFF753F90549098801B1AE
:10119800FBE704490888DDF800E001B0704700BFAC
:0811A800000104420C2000408C
:1004380081B00649098801B1FBE7054908800349ED
:10044800098801B1FBE701B0704700BF0001044211
:040458000E20004032
:10146C0081B0CDF800E0FFF79DFEDDF800E001B0A3
:02147C007047B7
:1011B00081B0CDF800E0FFF777F80549098801B163
:1011C000FBE704490888DDF800E001B0704700BF84
:0811D000008104420C240040E0
:1002A80081B00649098801B1FBE70549088003497F
:1002B800098801B1FBE701B0704700BF0081044223
:0402C8000E240040C0
:1013FC0081B0CDF800E0FFF7ADFDDDF800E001B005
:02140C00704727
:100F600081B0CDF800E0FFF733FC0549098801B1F5
:100F7000FBE704490888DDF800E001B0704700BFD6
:080F8000000105420C280040AD
:1007D00081B00649098801B1FBE705490880034952
:1007E000098801B1FBE701B0704700BF0001054275
:0407F0000E2800408F
:1015000081B0CDF800E0FFF721FBDDF800E001B08D
:02151000704722
:100B4C0081B0CDF800E0FFF74BFD0549098801B1F4
:100B5C00FBE704490888DDF800E001B0704700BFEE
:080B6C00008105420C2C004041
:1005EC0081B00649098801B1FBE705490880034938
:1005FC00098801B1FBE701B0704700BF00810542DB
:04060C000E2C004070
:081A500040F2000000B27047F3
:101A580082B0CDF800E040F20004ADF80440054C37
:101A68002468A047BDF90440044320B2DDF800E033
:081A780002B070477400002069
:1012600081B0CDF800E008B413460A46C1B2044884
:10127000FFF780FC01B0DDF800E001B0704700BF6F
:04128000002000400A
:100B740087B0CDF800E08DF8041001469DF804001C
:100B840005920693079C07944C4CA1420AD14C4D04
:100B94002C6803942C46246804944A4C25684A4CD7
:100BA400256028E0494CA1420AD1494D2C680394A0
:100BB4002C4624680494474C2568434C25601AE06D
:100BC400454CA1420AD1454D2C6803942C46246817
:100BD4000494434C25683C4C25600CE0414CA142F4
:100BE40009D1414D2C6803942C46246804943F4C4D
:100BF4002568354C256001910291C1B20298FFF736
:100C0400D7FC01993A4C247854B901910846012142
:100C1400FFF722FC019908B101204BE00D461FE0CB
:100C240001250C8865F304140C8008460588C5F377
:100C340080046CB1049C54B1039C2CB90720224C51
:100C44002468A047012035E0039C641E0394EDE76B
:100C5400048844F0020404800025254C25700546D0
:100C640000262A463146069CA14214D2059C6418EB
:100C7400247801920291E1B21046FFF7C7FC029971
:100C8400019A20B11046FFF7B3FD012012E04C1C7D
:100C940026463146E7E7079C012C07D11046FFF7AB
:100CA400A7FD002801D0012004E002E00125104C3A
:100CB40025700020DDF800E007B0704700200040F8
:100CC4003800002084000020800000200024004020
:100CD4003C00002088000020002800404000002044
:100CE4008C000020002C00404400002090000020D4
:040CF4004800002094
:1005B40081B000F2140212888A420FD000F21602AF
:1005C40012888A420AD000F2180212888A4205D0A0
:1005D40000F21A0212888A4200D000E002E000F21F
:0805E4002002118001B07047F4
:10045C0085B0CDF800E0CCB20146464A91420AD1B3
:10046C00454B1A6803921A4612680492434A136861
:10047C00434A136028E0434A91420AD1424B1A681E
:10048C0003921A4612680492404A13683C4A13605D
:10049C001AE03F4A91420AD13E4B1A6803921A461F
:1004AC00126804923C4A1368354A13600CE03B4ACC
:1004BC00914209D13A4B1A6803921A461268049277
:1004CC00384A13682E4A13608DF80440029108468E
:1004DC00FFF71CFE02999DF8044008B1012044E08E
:1004EC00E3B20A8863F304120A800A8842F002021B
:1004FC000A80012C1CD1084600F22C021388C3F38D
:10050C0040026AB9049A52B1039A2AB906201C4CCB
:10051C002468A047012028E0039A521E0392EBE7BF
:10052C0000F22C040023228863F3410222801BE09A
:10053C00084600F22C021388C3F300026AB9049A2D
:10054C0052B1039A2AB906200D4C2468A047012009
:10055C000BE0039A521E0392EBE700F22C040023EB
:10056C00228863F3000222800020DDF800E005B051
:10057C00704700BF0020004038000020840000209D
:10058C0080000020002400403C0000208800002057
:10059C0000280040400000208C000020002C00406F
:0805AC00440000209000002033
:1001180083B0CDF800E0274988420AD1264A116801
:10012800019111460968029124490A6824490A6024
:1001380028E0244988420AD1234A116801911146CE
:100148000968029121490A681D490A601AE0204994
:1001580088420AD11F4A1168019111460968029123
:100168001D490A6816490A600CE01C49884209D1F1
:100178001B4A1168019111460968029119490A68D8
:100188000F490A6003461846FFF7B6FF68B9029997
:1001980051B1019929B90520094C2468A0470120CB
:1001A80004E00199491E0191EDE70020DDF800E027
:1001B80003B0704700200040380000208400002071
:1001C80080000020002400403C000020880000201F
:1001D80000280040400000208C000020002C004037
:0801E8004400002090000020FB
:1001000081B000F208010A88C2F3001181F00101F8
:08011000C9B2C8B201B070478A
:1006100083B0CDF800E0354A90420AD1344B1A68D5
:1006200001921A4612680292324A1368324A1360E3
:1006300028E0324A90420AD1314B1A6801921A4698
:10064000126802922F4A13682B4A13601AE02E4A4E
:1006500090420AD12D4B1A6801921A4612680292F2
:100660002B4A1368244A13600CE02A4A904209D1AD
:10067000294B1A6801921A4612680292274A136897
:100680001D4A136000F22C021388C3F3401232B1EA
:1006900000F22C040023228863F34512228000F22A
:1006A0000E02118000F22C021388C3F340026AB9D3
:1006B000029A52B1019A2AB904200F4C2468A0472B
:1006C00001200FE0019A521E0192EBE700F22C0488
:1006D0000023228863F34102228000F22C02138857
:1006E000C3F34010DDF800E003B070470020004085
:1006F00038000020840000208000002000240040FA
:100700003C0000208800002000280040400000201D
:100710008C000020002C00404400002090000020AD
:1007F40081B0CDF800E00122018862F3820101801A
:10080400FFF788FC08B1012000E00020DDF800E0DB
:0408140001B0704778
:1012000081B0CDF800E008B413460A46C1B20448E4
:10121000FFF7B0FC01B0DDF800E001B0704700BF9F
:041220000024004066
:1014DC0081B0CDF800E008B413460A46C1B2044806
:1014EC00FFF742FB01B0DDF800E001B0704700BF30
:0414FC000028004084
:1014B80081B0CDF800E008B413460A46C1B204482A
:1014C800FFF754FB01B0DDF800E001B0704700BF42
:0414D800002C0040A4
:101A2C0082B0CDF800E040F20004ADF80440044C64
:101A3C002468A047BDF90400DDF800E002B070474F
:041A4C0078000020FE
:1017880081B0CDF800E008B413460A46C1B2044857
:10179800FFF7C6FA01B0DDF800E001B0704700BFFE
:0417A80000200040DD
:100D280087B0CDF800E08DF8041001469DF8040066
:100D3800079E7B4CA1420AD17A4D2C6805942C461B
:100D480024680694784C2568784C256028E0784C0F
:100D5800A1420AD1774D2C6805942C462468069444
:100D6800754C2568714C25601AE0744CA1420AD173
:100D7800734D2C6805942C4624680694714C25689C
:100D88006A4C25600CE0704CA14209D16F4D2C686B
:100D980005942C46246806946D4C2568634C2560A0
:100DA800019202910391C1B20398FFF7FFFB0299E8
:100DB800019A684C24787CB90196029303920491B5
:100DC80008460021FFF746FB0499039A029B019EFF
:100DD80000B1A0E0304661E000250C8865F30414FA
:100DE8000C80012B39D130460D88C5F3800464B1DD
:100DF800069C4CB1059C24B907204C4C2468A0479C
:100E080089E0059C641E0594EEE7069C05940C8811
:100E180044F002040C80019111461A4603460198D9
:100E28000588C5F3400464B1069C4CB1059C24B9FF
:100E380006203E4C2468A0476DE0059C641E05947E
:100E4800EEE7069C0594048844F0040404800192AB
:100E58000A4601461846019B1DE001930B463046A1
:100E680001991D88C5F3800464B1069C4CB1059CAA
:100E780024B907202D4C2468A0474CE0059C641E2B
:100E88000594EEE7069C05941C8844F002041C8037
:100E980001930B46019900252E4C25705C1E2346B4
:100EA80001931346019A002A31DB01F22C042588AC
:100EB800C5F3000464B9069C4CB1059C24B9032011
:100EC8001A4C2468A04726E0059C641E0594ECE7AC
:100ED80016E001F20C0424881C705B1C15E0012547
:100EE8000C8865F382040C8001F20C0424881C70C1
:100EF8005B1C0AE001F20C0424881C705B1C04E0F3
:100F0800002AE6D0012AEAD0F4E7521ECBE710B94E
:100F18000125104C2570DDF800E007B0704700BFD0
:100F280000200040380000208400002080000020BD
:100F3800002400403C0000208800002000280040D9
:100F4800400000208C000020002C004044000020BD
:080F5800900000204800002079
:1014480081B0CDF800E008B413460A46C1B204489A
:10145800FFF766FC01B0DDF800E001B0704700BF9F
:04146800002400401C
:1014240081B0CDF800E008B413460A46C1B20448BE
:10143400FFF778FC01B0DDF800E001B0704700BFB1
:04144400002800403C
:1014940081B0CDF800E008B413460A46C1B204484E
:1014A400FFF740FC01B0DDF800E001B0704700BF79
:0414B400002C0040C8
:102C480083B0CDF800E0024610460D228DF808202A
:102C58000A228DF809201FE0FEF7ECFF23E0027836
:102C68002AB10190FEF7E6FF0198401CF7E71AE049
:102C780002782AB10190FEF7DDFF0198401CF7E7C2
:102C880002AA1046FEF7D6FF0DF109021046FEF71C
:102C9800D1FF08E0062007E00029DDD00129DED0B9
:102CA8000229E5D0F6E70020DDF800E003B0704720
:101C3C0081B0CDF800E00178CCB2A0B2034C24689E
:101C4C00A0470020DDF800E001B0704754000020F0
:101B300081B0CDF800E0FEF76FFEDDF800E001B007
:021B40007047EC
:101B1C0081B0CDF800E0FEF79DFEDDF800E001B0ED
:021B2C00704700
:101B080081B0CDF800E0FEF795FEDDF800E001B009
:021B1800704714
:1019580081B0CDF800E0FEF791FFDDF800E001B0BE
:021968007047C6
:10185C0081B0CDF800E0FEF7E9FDDDF800E001B065
:02186C007047C3
:1018200081B0CDF800E0FEF73FFDDDF800E001B04B
:021830007047FF
:1017F80081B0CDF800E0FEF7E7FFDDF800E001B0CA
:02180800704727
:10180C0081B0CDF800E0FEF7EBFEDDF800E001B0B2
:02181C00704713
:1018700081B0CDF800E081B20348FFF7DDFCDDF870
:0C18800000E001B0704700BF0010004005
:1012380081B0ADF800100146BDF8000001F20A02C5
:10124800128802F0010292B202B1F7E701F20E022F
:06125800108001B0704798
:1018C40081B0CDF800E081B20348FFF7B3FCDDF846
:0C18D40000E001B0704700BF00140040AD
:10188C0081B0CDF800E081B20348FFF7CFFCDDF862
:0C189C0000E001B0704700BF00180040E1
:1018A80081B0CDF800E081B20348FFF7C1FCDDF854
:0C18B80000E001B0704700BF001C0040C1
:102BE80081B0CDF800E000F00F010E20FEF7EEFFF7
:082BF800DDF800E001B07047B8
:101BD40082B0CDF800E001AA1070521C1170124AB4
:101BE4001378124A12789A420ED10020104C2468BD
:101BF400A04701AA114602220846FFF7D5FD01209D
:101C04000B4C2468A0470AE0FFF720FF01AB094A08
:101C1400127819460123D0B20222FFF71BFFDDF828
:101C240000E002B0704700BF3600002049000020E9
:081C3400580000204A000020C6
:1028180081B0CDF800E000F07F011020FFF7D6F975
:08282800DDF800E001B070478B
:1027D00082B0CDF800E0032801D9032300E0C3B2A2
:1027E0008DF804301320FFF739FA9DF80430094AB8
:1027F00010704FF6FC7109B200EA01011170C9B204
:10280000194311701320FFF7E5F9DDF800E002B07D
:08281000704700BF7C000020AE
:1028300082B0CDF800E0072801D9072400E0C4B237
:102840008DF804401320FFF709FA9DF804400A4B65
:1028500018704FF6E37109B200EA01011970A20085
:1028600092B2C9B211431970C9B21320FFF7B2F97D
:0C287000DDF800E002B070477C000020A2
:102A8C0081B0CDF800E001F004031BB22BB1464B32
:102A9C001B7843F00404E4B204E0434B1B7803F0CE
:102AAC00FB04E4B2404B1C7001F010031BB22BB1C1
:102ABC003D4B1B7843F01004E4B204E03A4B1B7816
:102ACC0003F0EF04E4B2384B1C7001F040031BB26E
:102ADC002BB1354B1B7843F04001C9B204E0324BAB
:102AEC001B7803F0BF01C9B22F4B197002F0010320
:102AFC00DBB22BB12C4B1B7843F00101C9B204E0C3
:102B0C00294B1B7803F0FE01C9B2274B197002F058
:102B1C0002031BB22BB1244B1B7843F00201C9B248
:102B2C0004E0214B1B7803F0FD01C9B21E4B197058
:102B3C0000F008031BB22BB11B4B1B7843F00801B0
:102B4C00C9B204E0184B1B7803F0F701C9B2164B5D
:102B5C00197000F020031BB22BB1134B1B7843F000
:102B6C002001C9B204E0104B1B7803F0DF01C9B29D
:102B7C000D4B197000F080031BB22BB10A4B1B7864
:102B8C0043F08000C0B204E0074B1B7803F07F00D9
:102B9C00C0B2054B1870C3B2D9B21420FFF714F8A9
:0C2BAC00DDF800E001B070477D00002063
:102BB80081B0CDF800E000F0C004E4B201F01C03DD
:102BC800DBB21C43E4B202F00303DBB244EA0303C2
:102BD800D9B20D20FEF7FAFFDDF800E001B070472A
:102FF00085B0CDF800E00DF10E00FFF73FFC0DF1BC
:103000000E00FFF7B3FC01A90DF10E00B0F90000AE
:10301000FFF704FD01A8FFF7BFFB2A480121FFF7D6
:1030200013FE01A80221FFF70FFE01A90DF10E000A
:10303000801CB0F90000FFF7F1FC01A8FFF7ACFB22
:1030400021480121FFF700FE01A80221FFF7FCFD46
:1030500001A90DF10E00001DB0F90000FFF7DEFC24
:1030600001A8FFF799FB19480121FFF7EDFD01A821
:103070000221FFF7E9FDFFF77BFE01A9FFF750FEF4
:1030800001A8FFF789FB12480121FFF7DDFD01A828
:103090000121FFF7D9FD0F480221FFF7D5FD0E48AA
:1030A0000221FFF7D1FD49F6FD67C0F2240700BFFA
:1030B0007F1EFDD100BF00BF00BF00BFDDF800E0F4
:1030C00005B0704715000020190000201D000020E9
:0C30D000210000202F0000203300002011
:10287C0087B0CDF800E006900DF10F020121117028
:10288C0033490A7833490978914218D10DF10F0276
:10289C00117841F08001117000202F4C2468A04762
:1028AC0002AA0DF10F01084611460722FEF778FF28
:1028BC000120294C2468A0470125E8B219E000202A
:1028CC008DF80400FFF7BEF80DF10F0223490978CB
:1028DC000023C8B211460122FFF7B8F802AA1F491B
:1028EC0009780123C8B211460622FFF799F89DF822
:1028FC000400C1B202AC611809780A0292B2411C00
:10290C0009B2611809780A4306990A8006998B1C4A
:10291C00811C09B2611809780A0292B2C11C09B271
:10292C006118097842EA0101198006990B1D011DF5
:10293C0009B2611809780A0292B2411D09B26118F4
:10294C00097842EA01011980DDF800E007B0704710
:10295C003600002049000020580000204A000020CA
:10296C00B0F9001000EE901AF8EEE00A4FF0725138
:10297C0000EE101A60EE800A244900EE101AC0EE28
:10298C00800AB0EE080A20EE800ABDEE400A10EE76
:10299C00101A09B20180821C811CB1F9001000EEE2
:1029AC00901AF8EEE00A4FF0725100EE101A60EE39
:1029BC00800A164900EE101AC0EE800AB0EE080A22
:1029CC0020EE800ABDEE400A10EE101A09B21180FA
:1029DC00021D011DB1F9001000EE901AF8EEE00A8C
:1029EC004FF0725100EE101A60EE800A074900EEAB
:1029FC00101AC0EE800AB0EE080A20EE800ABDEE76
:102A0C00400A10EE101A09B2118070470000B04253
:102A1C0081B0CDF800E00E46002183B2002805DA23
:102A2C000121404280B280B28FB201E098B28FB2E5
:102A3C003146FFF753F906213446B8B2002908D9BC
:102A4C0063184A1E92B2A21812781A70491E89B2E3
:102A5C00F4E72022227070B1002081B22046421887
:102A6C001278202A02D1491C89B2F8E74A1E92B288
:0E2A7C0083182D221A70DDF800E001B07047BB
:101CE80081B00A4681B200208DB21146052805D27E
:101CF8000B1820221A70401CC0B2F7E70B180022FC
:101D08001A70401EC0B20C180A23B5FBF3F203FB8D
:101D1800125292B2303222700A22B5FBF2F292B21B
:101D280095B202B902E0401EC0B2ECE701B07047BC
:1027980081B0014640F200052DB208460C460B46B2
:1027A800FFE70178202901D105B904E001252DB200
:1027B80001782170641C0246401C11780029F0D170
:0627C800184601B0704745
:102D700081B0CDF800E01220FEF770FFDDF800E032
:042D800001B07047E7
:102D200081B00A460021C5B21046032905D24318D6
:102D300020221A70491CC9B2F7E7431800221A7002
:102D4000491EC9B244180A23B5FBF3F203FB125221
:102D5000D2B2303222700A22B5FBF2F2D2B2D5B230
:0E2D600002B902E0491EC9B2ECE701B07047AB
:1031380083B0CDF800E0374B374C384D384E394F17
:10314800394845F680213948018004F007000528F0
:1031580004D004F07000502800D00BE0012252B2D5
:1031680033480280002149B2324801803248028047
:1031780032480180802132480160019502961E463E
:1031880025463A46029B019C2E48006800F4807050
:1031980000B1F9E72C492D480160019511463246E6
:1031A8001D46019B2748006800F4807000B1F9E7CC
:1031B80027480160274801602749284801602848B6
:1031C800026028480360200D00F0070028B944F089
:1031D8000301254801602A4610E044F4803040F09D
:1031E8000301214801602A462048006830B1FFF7F2
:1031F8003BFE012149B21E480160F5E7002117484E
:10320800016042F4B44109480180DDF800E003B0F0
:10321800704700BF000005003300000003000100F4
:10322800840000000010000080BB00000C48004033
:103238004CA509428CA5094248A5094288A509421E
:10324800143004E00400014001005A690000014004
:1032580010100140141001405A6900000004014098
:1032680004040140080401400C0401400489204280
:04327800048A204262
:102E700040F20907C0F2000700BF00BF7F1EFDD16E
:082E800000BF00BF00BF704756
:1031240081B002490248016001B0704780BB0000D1
:043134009C000020DB
:0830F00081B0FEE701B070475A
:1030F80081B04EF68850CEF20000016841F47001AC
:10310800016000BF00BF00BF00BFF1EE100A40F42D
:0A3118004000E1EE100A01B070471C
:1038300000B5DFF824B0DFF824A0DFF824C0FFF7DC
:103840004DFCDFF820B0DFF820A0DFF820C0FFF744
:1038500045FC00BD704700BF00000020490000206B
:103860004C3700004C000020540000202838000095
:1038CC0000B5DFF810B0DFF810A0FFF7D7FA00BD95
:0C38DC00704700BF00000020B800002072
:042E6C00A08601003B
:082EC400011200004914000096
:1032A000404C00400010000500000000404C004071
:1032B00000200005000000000000000000000000E9
:1032C00000000000000000000000000000000000FE
:1032D00000000000000000000000000000000000EE
:1032E00000000000000000000000000000000000DE
:1032F00000000000000000000000000000000000CE
:1033000000000000000000000000000000000000BD
:1033100000000000000000000000000000000000AD
:10332000000000000000000000000000000000009D
:10333000000000000000000000000000000000008D
:10334000000000000000000000000000000000007D
:10335000000000000000000000000000000000006D
:10336000000000000000000000000000000000005D
:0C3370000000000000000000020000004F
:10337C00004C00400400050500000000004C00401B
:10338C00080005050000000000000000000000001F
:10339C000000000000000000000000000000000021
:1033AC000000000000000000000000000000000011
:1033BC000000000000000000000000000000000001
:1033CC0000000000000000000000000000000000F1
:1033DC0000000000000000000000000000000000E1
:1033EC0000000000000000000000000000000000D1
:1033FC0000000000000000000000000000000000C1
:10340C0000000000000000000000000000000000B0
:10341C0000000000000000000000000000000000A0
:10342C000000000000000000000000000000000090
:10343C000000000000000000000000000000000080
:0C344C0000000000000000000200000072
:10345800004C00400004050500000000004C00403E
:103468000008050500000000000000000000000042
:103478000000000000000000000000000000000044
:103488000000000000000000000000000000000034
:103498000000000000000000000000000000000024
:1034A8000000000000000000000000000000000014
:1034B8000000000000000000000000000000000004
:1034C80000000000000000000000000000000000F4
:1034D80000000000000000000000000000000000E4
:1034E80000000000000000000000000000000000D4
:1034F80000000000000000000000000000000000C4
:1035080000000000000000000000000000000000B3
:1035180000000000000000000000000000000000A3
:0C35280000000000000000000200000095
:10353400204C00404000000500000000204C0040EA
:1035440080000005000000000000000000000000F2
:103554000000000000000000000000000000000067
:103564000000000000000000000000000000000057
:103574000000000000000000000000000000000047
:103584000000000000000000000000000000000037
:103594000000000000000000000000000000000027
:1035A4000000000000000000000000000000000017
:1035B4000000000000000000000000000000000007
:1035C40000000000000000000000000000000000F7
:1035D40000000000000000000000000000000000E7
:1035E40000000000000000000000000000000000D7
:1035F40000000000000000000000000000000000C7
:0C360400000000000000000002000000B8
:10361000204C00400400050500000000204C004044
:103620000800050500000000000000000000000088
:10363000000000000000000000000000000000008A
:10364000000000000000000000000000000000007A
:10365000000000000000000000000000000000006A
:10366000000000000000000000000000000000005A
:10367000000000000000000000000000000000004A
:10368000000000000000000000000000000000003A
:10369000000000000000000000000000000000002A
:1036A000000000000000000000000000000000001A
:1036B000000000000000000000000000000000000A
:1036C00000000000000000000000000000000000FA
:1036D00000000000000000000000000000000000EA
:0C36E000000000000000000002000000DC
:1036EC00BD250000ED1D0000751D0000811D0000B2
:1036FC008D1D0000691D0000451D0000511D0000BE
:10370C005D1D0000C91D0000D51D0000E11D00005D
:10371C00FFFFFFFFFFFFFFFFFFFFFFFFFFFFFFFFAD
:10372C00FFFFFFFFFFFFFFFFFFFFFFFFFFFFFFFF9D
:10373C00FFFFFFFFFFFFFFFFFFFFFFFFFFFFFFFF8D
:10374C004779726F20322070726573656E74004514
:10375C0072726F7200783A2000793A20007A3A201F
:10376C000054656D70657261747572653A20002045
:06377C00B043002B2B00FE
:02378200020142
:043784000000000041
:04378800000000003D
:04378C000000000039
:043790000000000035
:013794000034
:1037960000001102CB024303E903E4049605860602
:1037A6006308B008C709B80B070DF70DA90EA30FDC
:1037B600BE101A118A13531673176E1820190B1A96
:1037C600591BEB1B4F1DB51E441F8D2010217C215C
:0837D6002F222C23D2234824EA
:1037DE00000001000200040008001000200011008B
:1037EE00210022004400250049004A0052009200A8
:1037FE0053005500AA006B00AD00B500B600D60010
:10380E00B700BB00DD00ED00EE00BF00DF00EF00F3
:08381E00F700FB00FD00FE00B5
:043828001027000065
:04382C0000366E01F3
:00000001FF
